:020000040000FA
:2000000000500020D1160000C9160000AD160000CD160000CD160000CD160000000000003E
:20002000000000000000000000000000CD160000CD16000000000000CD160000CD16000034
:2000400045370000CD160000413E0000CD160000E12E000041340000CD160000CD16000095
:20006000CD160000953E0000CD160000CD160000CD160000CD160000CD160000CD16000078
:20008000CD160000CD160000CD160000CD160000CD160000CD160000CD160000CD16000048
:2000A000CD160000CD160000CD160000CD160000CD160000CD160000CD160000CD16000028
:2000C000CD1600001D530000294B1B689B0702D44FF000407047F0B5452183B0002002F0D8
:2000E00071FD022201200DF1060101F00DFC38B901A8022101F02AFC4FF0004003B0F0BD9B
:20010000022200200DF1060101F0FEFB0028EFD0BDF806305BBAC3F303309CB2ADF80430B5
:200120000EF0EEF80DF080FD0646C4F30B000F460EF0F6F80CA3D3E9002304460D46304671
:2001400039460EF057F902460B46204629460EF051F90EF01FFC07490DF0DCFE0EF078FD69
:2001600003B0F0BDAFF300807B14AE47E17A843F980E00200000C84208B51F4B1A68032AB5
:2001800033D1421E012A03462FD81C491C4A012B0988108811D00EF0B3F80022194B0EF052
:2001A00029F90022184B0EF025F90EF0F3FB17490DF0B0FE0EF04CFD08BD08460EF0A0F895
:2001C0000022104B0EF016F909A3D3E900230EF011F900220E4B0DF055FF0EF0DBFB0B490E
:2001E0000DF098FE0EF034FD08BD4FF0004008BD0000000000A06440A00E0020343B002093
:20020000323B00200000F03E000059400000C84200004440000000002DE9F041704B1B6877
:2002200053B30646062200216E480EF0E7FF16F038085AD172071FD002F0CEFD6A4C6B4D85
:200240002746286006E002F0C7FD2B68C31A0A2B40F18D806821012002F0B4FC012239463C
:200260003A2001F051FB0021084602F0ABFC2378002BE8D0DB0704D44FF000484046BDE8F5
:20028000F081584C6821012002F09CFC06222146432001F039FB054600286CD02346A01D29
:2002A00019785A7859701A7002338342F8D10021084602F087FC042E6AD0022E70D0012ED6
:2002C000DCD1B4F904000EF02BF843A3D3E900230EF0BAF90EF05EFB45490DF01BFE0EF030
:2002E000B7FC80464046BDE8F08102F075FD3E4C3E4D2746286005E002F06EFD2B68C31AC9
:200300000A2B48D56821012002F05CFC012239463A2001F0F9FA0021084602F053FC23786C
:20032000002BE9D0D907A7D52E4C6821012002F049FC214606223B2001F0E6FA00210546FB
:20034000084602F03FFC002D3DD02346A01D19785A7859701A7002339842F8D1202E22D0F4
:20036000102E2DD0082E33D04FF0000886E72378DB0781D585E74FF000482046062101F011
:20038000E5FA2846294602F01DFC4046BDE8F081B4F9000097E72378D9077FF56DAFC3E71A
:2003A000B4F902008FE7B4F9000001F01FFE10490DF0B0FD0EF04CFC80464046BDE8F081B2
:2003C000B4F90200F1E70621204601F0BFFA53E7B4F90400E9E700BF0000000000606040E5
:2003E000F00E0020C80E00205D3B0020F40E00200000C842000000002DE9F04F87B00C4627
:2004000004F086FB88B1B84B1B68002B02DC07B0BDE8F08FB54AB649B64808F067FCB6486F
:2004200007B0BDE8F04F08F061BCB44AE17894F82530039204F12602CDE9012104F17005E0
:2004400062792846009304F1AC01A31D04F0CEFD2379DB0700F1338103F0FCFB03F02AFA7B
:20046000D4F83C81A64D98F80430032B40F0DA80A946002625464FF0000A4446A14FDFF86A
:2004800088B20DE000232372D5F83C211371D5F83C412468C5F83C412379032B40F0C08085
:2004A00041F20443B5F85A209A42EBD1944A04F1110304F10B0013F8011D984202F8011B03
:2004C000F9D1042204F1170190480EF0A5FD012204F11B018E480EF09FFD012204F11C01CE
:2004E0008C480EF099FD012204F11D018A480EF093FD012204F11E0188480EF08DFD02224B
:2005000004F11F0186480EF087FD022204F1210184480EF081FD022204F1230182480EF0EE
:200520007BFD022204F1250180480EF075FD04F12C08052204F127017D480EF06DFD4146AB
:2005400001227C480EF068FD414601227A480EF063FD042204F12F0178480EF05DFDD9F853
:2005600024000DF0CDFE5EA3D3E900230EF06CF83B4632460DF03EFF0EF0ECF999F8213055
:20058000DFF8648103F01F0389F8213099F8223005905B0989F82230D8F80030C9F8240024
:2005A000022B6CDCB9F810000DF0AAFE52465B460EF04AF832463B460DF01CFF0EF0CAF915
:2005C0000446B9F812000DF09BFE52465B460EF03BF832463B460DF00DFF0EF0BBF9059BBA
:2005E0002118823919440022554B5648CDF8009006F04EFA0122002389F82820524AD8F83C
:200600000010A9F82A3089F82C3013880229A9F8343003F10103138026DCD5F83C4131E738
:200620002C464D4695F82830012B3CD020880DF067FE0022454B0EF007F80022314B0DF044
:20064000D9FE0EF087F90646A16C414D31440094A164A96C00223F4B04F14C00413906F0DE
:2006600017FA07B0BDE8F08F204A3B49214808F03DFBB9F83410394808F038FBCDE71B4A4D
:2006800035491C4808F032FBD9E90634B9F81420B9F812103248CDE9003408F027FBD9F850
:2006A000243005937EE7104B1B68022B7FF7AFAE0E4A29490F4808F019FB2A48B0E604F1E1
:2006C00058002A460546252104F1940304F072FC284604F0D7FB284604F0FAFBBCE600BFE7
:2006E0000000000080844E41CC060020ACF8000054F8000050F70000C8FB0000E812005031
:20070000100800200000F04000008940180800201C0800201D0800201E0800201F08002052
:2007200020080020220800202408002026080020280800203108002032080020340800202E
:200740006907000048080020443B002000408F401C0F0020F903000048F7000048FC000041
:2007600000FC000070FC00002DE9F04F0B460C460D4687B001F1800A01F5D87693F8E02341
:200780002433062A00F012819E42F7D1678D4FF00008002F00F010814FF00009B4F8A435EF
:2007A0000137BFB2BB42678500F01E8194F88F30608ADB0700F1D9800DF0A2FD0022AE4B00
:2007C0000DF042FFAD4B00220DF014FE0EF0C2F8236B03442363B4F89835BB4212D100271F
:2007E0000020002194F89AE504F5B26CDCE9002384F820E0C4E90623A4F89875CCE90001FD
:2008000084F89A75204603F0FBFCB8F1000F08D1B4F88E35A28A9A4203D9628D092A00F205
:20082000108140F227730022CDF81490A4F88E250493E07B0DF064FD00228F4B0DF004FF35
:2008400000228E4B0DF0D6FD0EF084F80DF058FD00228B4B0DF0CEFD85A3D3E900230DF03D
:20086000C9FD0EF077F8D4F808B00390A27B04F15C070292627B04F575780192227B5B4691
:20088000384604F198010092424604F0F9FB206B0DF036FD00227A4B0DF0ACFD74A3D3E92F
:2008A00000230DF0A7FD0EF055F894F82DB004F14409594653463A460090484604F0C2FBF7
:2008C00004F026F98346002840F0B48004F5777704F28C5A02E02437BA450BD03B79062BF1
:2008E000F9D187F804B039464046243704F006FCBA45F3D1484604F0C5FA484604F0E8FA3D
:2009000003F0A8F902F0D6FF0521002295F8E033032B05D185F8E013A5F8E223C5F8DC23C2
:200920002435AE42F2D1608A0DF0EAFC0022524B0DF08AFE0022514B0DF05CFD0EF00AF886
:200940000546236B0022A3F1640129444D4B009404F1380006F09CF822464B4B4B48197831
:2009600007B0BDE8F04F06F04BB80DF0C9FC0022414B0DF069FE0022404B0DF03BFD0DF030
:20098000E9FF8346D4F890000DF0BAFC38A3D3E900230DF059FE394B00220DF02BFD0DF0C1
:2009A000D9FF8344ABF11E03236314E7678D4FF00108002F7FF4F0AE208A0DF0A1FC002278
:2009C0002D4B0DF041FE00222C4B0DF013FD0DF0C1FF636A4FF001091E3B1844206320464C
:2009E00003F00EFC678DD9E6B4F89CB5608A58440DF086FC0022204B0DF026FE00221F4B0B
:200A00000DF0F8FC0DF0A6FF0023226BA4F810B00244226394F89B2584F89B35E273B4F8D3
:200A20009E25C4F89C356282D4F8A025C4F8A0356261D0E6164B1B68002B0CDC07B0BDE894
:200A4000F08F94F88F20013368F30002A4F88E3584F88F2067E70F4A0F49104808F046F933
:200A60000F4807B0BDE8F04F08F040B9AFF300800000000080844E41000089400000F040E5
:200A80000000F03E690700006B3B00208C050020CC060020ACF8000054F8000050F7000018
:200AA00084FC0000000000002DE9F04F23F0004B80465BEA020014461D460E4693B016D1BB
:200AC00043467D49DB1886F400225241984271EB020324D2404622462B4631460DF0D4FAD3
:200AE000CDE90001DDE9000113B0BDE8F08F1146724A26F0004991459A463746434617DD6F
:200B000007F1404707F580171F43E3D122196A4985F400235B41974271EB0303DAD300237C
:200B2000674CCDE90034DDE9000113B0BDE8F08F40D0624A9345E3DC00F09380002F73DB97
:200B40000022029279B95D4A934500F08E805C4A934500F0A280BAF1804F00F0A084594A6F
:200B6000924500F0C6834046314604930DF0C8F9049BCDE900015BB3029AFB0F013B0A9330
:200B8000134300F09380504B9B4540F3A38003F104739B454D4B40F31B84994540F3918450
:200BA000BAF1000F40F39184002013B0BDE8F04F0DF0A0B9002B8DD1BBE740463146029359
:200BC0000DF09EF9029BCDE90001002B6ED10293B9F1000F04D03A4B27F040429A42CBD10B
:200BE000BAF1000F07DADDE90023002034490DF02BFDCDE90001002FBFF674AF029B09F15A
:200C0000404909F5801959EA030340F06E84DDE90023104619460DF035FA02460B460DF0E9
:200C200013FDCDE900015DE7294A93452FDCA2F1547293450FDD4FEA2B52A2F2FF32142A7D
:200C400040F34584C2F1340221FA02F000FA02F28A4200F077840022029200293FF477AFC5
:200C600081E700293FF46AAF4AE709F1404202F5801213433FF453AF144B994540F36D8376
:200C8000BAF1000FC0F26383CDE900452AE70222029200293FF457AF65E7BAF1000FC0F224
:200CA000F48340463146CDE900011BE74246404633463146AFE700BF0000F0FF0000F07F56
:200CC0000000F03F0000E03F0000E041FFFFEF3FFFFF3F43D44B3B40002B40F04783DDE974
:200CE00000010022D14B0DF085FB6FF034028946CDE900014FEA2953A3F2FF339A18CC4BD8
:200D0000C9F3130949F07F5699450B9246F4401607DDC84B994540F3F58301320B92A6F5F7
:200D200080160022002300200027C349CDE90823CDE90601CDE91023DDE90001DDE9062348
:200D4000314682460DF09EF9DDE90623B3468046894650463146CDE90CAB0DF095F90246F6
:200D60000B460020B4490DF06FFC8C46834663465A4640464946CDE90EBC0DF03BFB824629
:200D80008B46731043F0005303F50023D9190F465A46514600230020CDE9001200930646F6
:200DA00002463B46CDE904ABDDE900AB504659460DF020FB02460B46404649460DF062F941
:200DC000DDE9062380468946304639460DF05AF902460B46DDE90C010DF054F952465B465B
:200DE0000DF008FB02460B46404649460DF04AF9DDE90E230DF0FEFADDE90467CDE906012B
:200E000032463B46304639460DF0F4FA74A3D3E9002306460F460DF0EDFA73A3D3E9002389
:200E20000DF032F932463B460DF0E4FA70A3D3E900230DF029F932463B460DF0DBFA6EA3C9
:200E4000D3E900230DF020F932463B460DF0D2FA6BA3D3E900230DF017F932463B460DF0EB
:200E6000C9FA69A3D3E900230DF00EF93246804689463B46304639460DF0BCFA02460B46F1
:200E8000404649460DF0B6FA06460F46DDE9040152465B460DF0F8F8DDE906230DF0AAFA6E
:200EA00032463B460DF0F0F85246804689465B46504659460DF09EFA02460B46CDE90C233E
:200EC00000225E4B0DF0E0F842464B460DF0DCF800260F4632463B46504659460DF08AFA5E
:200EE000002282468B4630463946544B0DF0CAF8DDE90C230DF0C6F802460B464046494686
:200F00000DF0C0F8DDE904230DF074FA324680468946DDE906013B460DF06CFA02460B466D
:200F2000404649460DF0B0F880468946002642464B46504659460DF0A7F835A3D3E900239B
:200F400030460F460DF056FA52465B4682468B46304639460DF096F802460B464046494679
:200F60000DF090F82CA3D3E900230DF043FA02460B463046394616461F4629A3D3E900230A
:200F80000DF038FA02460B46304639460DF07CF8DDE910230DF078F806460B980F460DF07C
:200FA000BFF98046894632463B4650465946CDE904AB0DF069F8DDE908230DF065F84FF069
:200FC000000A42464B460DF05FF842464B4650468B460DF057F8DDE908230DF053F82FE086
:200FE000EF4E454A287ECA3F65DBC9934A86CD3F01411DA96074D13F4D268F515555D53F01
:20100000FFAB6FDBB66DDB3F033333333333E33F000000E009C7EE3FFD033ADC09C7EE3F8B
:20102000F5015B14E02F3EBE0000F07F000040438E98030079B60B000000F03F0000084074
:20104000DDE904230DF01EF802460B46304639460DF018F8029B0A9A013B13434FF00002E1
:201060000CBFD54BD54BCDE90045CDE9022300230093DDE90089CDE9040142464B46204650
:2010800029460CF0FFFF52465B460DF0B3F9224606460F46DDE904012B460DF0ABF90246D7
:2010A0000B46304639460CF0EFFF42464B4606460F46504659460DF09DF904460D4630466B
:2010C0002B46394622460CF0DFFFBD4B8046994289468A4640F3178101F13F4303F5E0037C
:2010E000034340F02482A2A3D3E90023304639460CF0CAFF02460B46404649469046994693
:2011000022462B460CF0BEFF02460B46404649460DF000FC002840F00A82CAF30A534FF455
:2011200080120020A3F2FE3342FA03F35344A549C3F30A52A2F2FF3241FA02FCC3F3130B9C
:2011400023EA0C01C2F114024BF4801BBAF1000F0B464BFA02FB294602462046B8BFCBF135
:20116000000B0CF08FFF04460D463046394622462B460CF089FF89464FEA0B5A4FF0000837
:201180007DA3D3E90023404649460DF033F922462B4604460D46404649460CF073FF0246D1
:2011A0000B46304639460CF06DFF75A3D3E900230DF020F974A3D3E9002306460F46404657
:2011C00049460DF017F902460B46304639460CF05BFF8046894642464B46204629460CF010
:2011E00053FF22462B4606460F460CF04BFF02460B46404649460CF045FF324680468946E2
:201200003B46304639460DF0F5F861A3D3E9002304460D460DF0EEF85FA3D3E900230CF02E
:2012200031FF22462B460DF0E5F85DA3D3E900230CF02AFF22462B460DF0DCF85AA3D3E964
:2012400000230CF01FFF22462B460DF0D3F858A3D3E900230CF018FF22462B460DF0CAF82B
:2012600002460B46304639460CF00CFF04460D4622462B46304639460DF0BCF802460B4624
:201280002046294614461D4600224FF080430CF0F9FE02460B46204629460DF0D5F94246E4
:2012A00004460D464B46304639460DF0A3F842464B460CF0E9FE02460B46204629460CF00D
:2012C000E1FE32463B460CF0DDFE02460B4600203A490CF0D7FE8A44BAF5801FC0F22381E0
:2012E0005146DDE902230DF085F8CDE90001FFF7F9BB002FFFF637AC4046314613B0BDE825
:20130000F04F0CF007BDDFF8C0C021F00043634540F3CF802D4B0B4403430AD122462B4638
:201320000CF0B0FE32463B460DF0EAFA00283FF4F4AEDDE90201002200230DF0CDFA003822
:2013400018BF012013B0BDE8F04F0CF0CDBD00230024CDE90034FFF7C5BBBAF1000FF6DA37
:2013600005F1004300940193FFF7BCBB0022C1E4FE822B654715973C00000000432EE63F03
:20138000EF39FAFE422EE63F396CA80C615C20BED0A4BE726937663EF16BD2C541BDBB3ED2
:2013A0002CDE25AF6A56113F93BDBE166CC1663F3E5555555555C53F0000F0BF0000F03F80
:2013C000FFFF8F40FFFF0F00FFCB904000346F3F994576DB724B99453FF7E2ABDDE9000163
:2013E00000226F4B0CF04EFE61A3D3E9002306460F460CF0FFFF60A3D3E9002382468B46D0
:20140000304639460CF0F6FF0022CDE90001654B304639460CF0EEFF02460B4658A1D1E933
:2014200000010CF02FFE32463B460CF0E3FF02460B4600205C490CF025FE32463B4680466F
:201440008946304639460CF0D5FF02460B46404649460CF0CFFF4CA3D3E900230CF0CAFFED
:2014600002460B46DDE900010CF00CFE06460F465046594632463B460CF006FE52464FF060
:20148000000A5B4650468B46DCE542460020334643490DF0D9F8CDE90001FFF723BB4246EB
:2014A0004046334631460CF0A5FFCDE90001FFF719BB3D4A934256DCDDE90023924693466D
:2014C0005CE6BAF1000FFFF66FAB00203AE700297FF473ABC2F114024BFA02F000FA02F218
:2014E0005A4539D00291FFF732BB029B012B7FF4F9AADDE90045224605F10043CDE900236A
:20150000FFF7F0BA0022294B4FF48027CDE906231FA3D3E90023CDE908231FA3D3E90023A9
:20152000CDE9102308E45A4600F042F8D9E60022DDE9020100230DF0CFF9003818BF01204A
:20154000FFF733BB00F00100C0F10202029200293FF4FDAAFFF707BB00F00100C0F102020C
:201560000292FFF7F4BA1B15D9E500BFAFF30080000000604715F73F44DF5DF80BAE543EAF
:20158000555555555555D53FFE822B654715F73F0000004003B8E23F06D0CF43EBFD4C3E21
:2015A0000000F03F0000D03F0000E03F0000F83FC1F30A5370B58C4604460D4616467BBB60
:2015C000034621F0004C5CEA030328D0324B00220CF010FF314B04469E420D461ADB8C46B7
:2015E000C1F30A53363B40F2FE723344934220DC002B3EDC13F1350F2CDA4CF250339E424B
:2016000017DC05F0004343F0D27141F4B731244841F01F011CA3D3E900230CF0EBFE70BD9F
:2016200040F2FF7E7345DED102460B460CF02CFD70BD05F0004343F0FC4141F45F1141F427
:20164000105113A3D3E90023164841F03C010CF0D1FE70BD2CF0FF4C03F136012CF4E00C32
:201660004CEA01550022204629460F4B0CF0C2FE70BD2CF0FF4C2CF4E00C20464CEA035141
:2016800070BD00BFAFF3008059F3F8C21F6EA5019C7500883CE4377E00005043B03CFFFF18
:2016A00059F3F8C29C7500880000903C4FF0E023D3F8282DB2F5806F04D0D3F8283D9B0523
:2016C00000D4FEE7704700BFFEE700BFFEE700BF08B506F0ABFE104A10498A420DD2104881
:2016E00001390346891A21F003010431014453F8040B8B4242F8040BF9D10A480A494FF017
:2017000000028842B8BF40F8042BFADB04F05CFCFFF7CCFF08BD00BF00000020060800206B
:20172000050C010008080020873B0020F0B5002706463C463D4683B0304605F069FD0195CE
:20174000019B9C4206DD00BF019B01330193019BA342F8DB304605F089FD0195019BC4F5D9
:20176000C8749C4206DD00BF019B01330193019BA342F8DB0137B7F5487F06D0B7F5C87F81
:20178000D4BF3C46C7F54874D6E703B0F0BD00BF70B54FF08054194DD4F8D83128460121DD
:2017A0005B6898470122D4F8D83111461B682846984706F009FD02F01DF801F09DFF00F0E8
:2017C000FDFD05F01FFD05F07FFD0120FFF7AEFF01230B4ED4F8B01105F5B825F360094A42
:2017E000AB600B691020D26A984706F0F1FC01F0F5FABDE870400020FFF798BF0040034017
:20180000004009400020094000B541F2342083B003F0A8FC01F08CFD05F0ECFD094801F036
:20182000BBFD684603F00CFB0822694606480DF0F3FB05F073FC0220FFF778FF03B05DF83B
:2018400004FB00BF9D730000BC140020002330B585B002A8CDE9003303F0F2FA08221F4D85
:201860000DEB02016B6B0B201D4C984701206946AD6AA8472368022B1ADC022001A9A847E5
:2018800078B92368022B08DC0021164804F0EEFF0020FFF74BFF05B030BD0199124807F02E
:2018A00025FA2368022BEFDD104807F01FFAEBE70F4A1049104807F019FA104807F016FAD8
:2018C0002368022BD9DD0B49094A0B4807F00EFA00990B4807F00AFACFE700BF74F80000D9
:2018E000CC060020E006002088F700004407010038F7000048F7000050F7000060F7000019
:2019000078F7000001F0BEBD00B58E46844683B01346012172460DF107008DF807C001F0F1
:2019200041F803B05DF804FB074B18703AB101EB020C11F8010B614503F8010FF9D10132E5
:201940000148D1B200F06ABEE00D002029B1CC23014401F8013D8142FBD170478138012829
:201960009ABF024B18680020704700BF1C0E00200322024B02481A6005F00EBB1C0E002023
:20198000C8F70000594B1B68032B40F0AB80431E012B2DE9F041044600F2A180544D0622DE
:2019A000002128460DF02AFC7721002001F00AF906222946F720FFF7A7FF002800F0878060
:2019C0002A79EB784B4895F800E095F801C0A97812016D7942EA033242EA15160588B0F9AB
:2019E0000A70C5EB121202FB02F3B0F904201B1302FB03F36D00B0F90220C5EBD60502FBF9
:201A000005F59B1303EBE5235E10A6F57A46B51005FB05F5B0F908204FEA653806FB02F204
:201A200008FB07F7521002EBE7029214C78802F5004207FB02F2D213836146D0090941EA2D
:201A40000C1CB0F90E10ED1201FB06F6B0F91010760001FB0565B0F90C602749360406EB4B
:201A6000A5054CEA0E3E0EEB253E01FB0EFE0EF1434E0EF5A00EBEF1000FB3BFBEFBF2FEBC
:201A80004FEA4E0EBEFBF2FE4FEA4E0E4FEADE0202FB02F2B0F91610B0F91450520B01FB34
:201AA00002F2B0F912104FEA9E0005FB00F0401300EB223008440EEB2010012C03D103EBAC
:201AC000830080300012BDE8F0811046F5E728460621FFF73BFF4FF00040BDE8F0814FF0E0
:201AE0000040F0E74FF00040704700BF1C0E0020200E0020000E0020CBF3FFFF30B58028CB
:201B000083B005D0812828D02D4B186803B030BD01242B4D772100202C6001F053F81C2229
:201B200028498820FFF7F0FEB62322460DF10701E0208DF80730FFF7F7FE7721002001F011
:201B400041F8002322460DF10701F4208DF80730FFF7EAFE286803B030BD194D28680028BF
:201B6000D4D00C46B9B17721002001F02BF825230DF107010122F4208DF80730FFF7D4FE30
:201B800000230321104A114804F084FB022318462B6003B030BD0D4804F0C4FB2046772124
:201BA00001F010F801220DF10701F4208DF80740FFF7BAFE012318462B6003B030BD00BF09
:201BC0001C0E0020000E002071190000280E0020813801289ABF024B18680020704700BF0F
:201BE000500E00200322024B02481A6005F0D4B9500E0020E0F70000314B1B68032B5CD100
:201C0000820770B5044626D0032809D0012804D0022820D12B4B186870BD2B4B186870BD74
:201C20002A4D4421002000F0CDFF022229460420FFF76AFE58B12B885BBA2B805B0406D521
:201C4000234D022229460120FFF75EFE30B904211F48FFF77BFE4FF0004070BD02222046F4
:201C6000A918FFF751FE0028F1D02888164E40BAC0F38D000CF098FF4FF074510CF04AF951
:201C8000044668880F4D40BAC0F38D000CF08CFF4FF074510CF03EF90E490CF03BF90CF033
:201CA000D7FF03460B49204633600CF033F90CF0CFFF03462B60012070BD4FF0004070476E
:201CC000500E0020480E0020540E0020303B00204C0E002000007A44802838B504D08128B9
:201CE00027D02A4B186838BD4FF08054D4F8B43101209B6B9847D4F8B4314FF48041012063
:201D00009B699847D4F8B4314FF08041DB69012098474421002000F055FF022200231C4976
:201D200010460B80FFF700FE0123184A1846136038BD164D28680028D5D00C46A1B14421B9
:201D4000002000F03FFF02221023114910460B80FFF7EAFD002324210E4A0F4804F09AFA27
:201D6000022318462B6038BD0B4804F0DBFA2046442100F027FF0222054910460C80FFF719
:201D8000D3FD012318462B6038BD00BF500E0020303B0020E51B0000580E0020014B186857
:201DA000704700BF980E002000B5452183B0002000F008FF022201200DF10601FFF7A4FDA1
:201DC000BDF90630002B08DB00231021074A084804F060FA03B05DF804FB064805F0DCF8A8
:201DE0000222054B1A6003B05DF804FBA91D0000780E0020F8F70000980E002070B5802800
:201E000082B01DD081282ED10C4679B301244521002000F0D7FE41F2C20321480DF10601A7
:201E2000046002222046ADF80630FFF77DFD002310211C4A1C4804F02DFA204602B070BDEB
:201E4000174D45212B68002003F0020400F0BAFE4FF48653022201200DF106012C60ADF8CD
:201E60000630FFF761FD002002B070BD0C4E0E4804F058FA33682046452103F0020500F092
:201E8000A1FE4FF4865302220DF1060101203560ADF80630FFF748FD204602B070BD00BF8E
:201EA000980E0020A91D0000780E0020813801289ABF024B18680020704700BFA00E002084
:201EC000032138B5114C124A2378116033B9012310482370BDE8384005F05EB80E4D43214A
:201EE000002000F06FFE0421284600F0B5FC00212070084600F066FE2A886B880748084999
:201F000052BA5BBA02800B80E1E700BF5A3B0020A00E002010F800009C0E0020343B002028
:201F2000323B002030B5802883B005D0812827D0274B186803B030BD0024264B264D04221F
:201F4000214626481C802C800DF058F92046432100F038FE022210230DF106011046ADF8CF
:201F60000630FFF7E1FC02461D4B204621461A7000F028FE01231846154A136003B030BD47
:201F8000134C20680028D5D069B1154D2B7893B900230321134A144804F07CF90223184636
:201FA000236003B030BD104804F0BCF901231846236003B030BD4321002000F003FE0020C3
:201FC00000F000FC00212870084600F0FBFDDFE7A00E0020323B0020343B00209C0E0020AC
:201FE0005A3B0020C11E0000A40E002008B5174B1B78032B28D8DFE803F0151E0C020CF0A4
:202000008FF900224FF07D530CF0F4F90CF0C2FC08BD0CF085F900220D4B0CF0EBF90CF0CF
:20202000B9FC08BD0CF07CF900220A4B0CF0E2F90CF0B0FC08BD0CF073F90022064B0CF023
:20204000D9F90CF0A7FC08BD002008BD5B3B00200000303F0000103F0000203F81380128B0
:202060009ABF024B18680020704700BFF00E00200222024B02481A6004F08EBFF00E0020F2
:2020800028F8000010B56821012000F09BFD3F23094C012221466C202370FFF745FC4F2320
:2020A000214601226B202370FFF73EFCBDE810400021084600F086BD5F3B00208028F8B5A2
:2020C0000CD0812807D111F03F0135D12F4BD3F88030DB0443D42E4B1868F8BD4FF08054B0
:2020E000D4F8B43107209B6B9847D4F8B4314FF4005107209B699847D4F8B4314FF0804123
:202100000720DB699847D4F8B4310C20DB6B9847D4F8B4314FF440724FF480610C209B6A78
:2021200098474FF48054002218481A4B1849C0F8A0401A600868F8BD4FF480570124154B8B
:20214000124E134D1960144AC6F890700023082112482C6004F09EF820462C60F8BD0D4B6F
:202160000E48196004F0DEF8FFF78CFF0C4AD2F8043813F00103FAD14FF48050044A03496A
:202180001360C1F8A0001068F8BD00BF00200240F00E0020C40E0020A5210000D00E002051
:2021A000002000402DE9F041364C236813F0380F28D1354D03F03F042E785EB9002C3BD17B
:2021C000FFF760FFBDE8F041002305212F4A304804F060B8E3B22B70002CF1D02D4FDB43D7
:2021E000682101203B7000F0EDFC012229496C20FFF79AFB0021084600F0E4FC264805F063
:20220000EBFFDFE7254F3A78002AD2D00025244E68210120357000F0D5FC314601221C209F
:20222000FFF782FB06462946284600F0CBFC2368002EBED03D70BCE76821012000F0C2FC5C
:202240000923144F012239466B203B70FFF76CFB3F23012239466C203B70FFF765FB012206
:202260000F491C202E70FFF75FFB012239463A20FFF74AFB3146304600F0A4FCE3B22B70F8
:20228000ADE700BFC40E00205E3B002071200000D00E00205F3B0020803801005B3B002088
:2022A0005C3B00200022014B1A707047603B002070B500244FF08055174B18481C7001F061
:2022C00015FA174AD5F8B811D368204623F00103D3600B6A9847D5F8B83120469B6A9847B9
:2022E000D5F8B83120461B6B984701210D4B0E4A9962936A9B07FCD54FF08054D4F8B4315C
:2023000015209B6B9847D4F8B4310021BDE8704015201B6A184700BF603B00204005002084
:2023200000000140002008600020084010B54FF08054D4F8B83104205B699847D4F8B83163
:2023400004205B6B98470128F8D110BDFFF7EEBF032801D000F0FCB808B5FFF7A9FF114BFB
:2023600000219B68812098470F4B00219B68812098470E4B00219B68812098470C4B002146
:202380009B68812098470B4B00219B68812098474FF48052084BC3F8A020BDE8084000F000
:2023A000D7B800BFC8F70000F8F70000E0F7000010F8000028F800000020024070B505F0A6
:2023C00003FF0646FFF7B2FF4FF08053D3F8B8314FF4A060DB6998470121414B414A9962A8
:2023E000936A9B07FCD54FF080544FF4005500F07FF8FFF757FF002005F0E4FD3A4801F0A6
:202400006FF9D4F8B43119209B6B9847D4F8B431294619209B699847D4F8B43118209B6B5A
:202420009847D4F8B431294618209B699847D4F8B43117209B6B9847D4F8B431294617205E
:202440009B699847D4F8B4311B209B6B9847D4F8B43129461B209B699847D4F8B4311E209B
:202460009B6B9847D4F8B4314FF480411E209B699847D4F8B4310D20DB6B98471B4AD4F86D
:20248000B431C2F8A05000214FF480720D209B6A9847D4F8B43102209B6B9847D4F8B431DD
:2024A000294602209B699847D4F8B4310B209B6B9847D4F8B43129460B209B699847D4F8ED
:2024C000B4311D209B6B9847D4F8B43129461D209B69984706B170BDBDE8704005F078BE51
:2024E0000020086000200840540500200020024070B54FF08055D5F8B83102205B6998475D
:20250000D5F8B83102205B6B984701280446F7D1D5F8B8314FF44070DB699847084B094A91
:202520009C62936A9B07FCD5BDE870404FF08053D3F8AC310122044904481B68184700BFC1
:202540000020086000200840006CDC0200200040FF214FF0805310B52B4A02201170D3F807
:20256000B8315B6B984701280AD1284B1B6EDA0706D500232649274AC1F80438C2F810341B
:202580004FF08053D3F8B8314FF440701B6A98470121214B1D4A9962936A9B07FCD54FF07F
:2025A0008054D4F8B43108209B6B9847D4F8B4314FF4005108209B699847D4F8B43109205F
:2025C0009B6B9847D4F8B4314FF4005109209B699847D4F8B43105209B6B9847D4F8B43159
:2025E0004FF4804105209B699847D4F8B43106209B6B9847D4F8B4314FF48041BDE8104069
:2026000006209B69184700BF04080020002008400020004000000542002008602DE9F04762
:20262000664B674D1B7807465B00C5F8003803780E46C5F8083800F0CFFB00F5CC5419341D
:20264000D5F804385B0608D500F0C6FB001B0028F6DB00242046BDE8F08703230220C5F8C3
:20266000043805F0B9FD00F0B7FBDFF8548100F5CC541934D8F80438D80746D44FF08053AC
:20268000D3F8AC314E485B68984710F00C0F7DD1012E40F28F800028DBD10124A046484D0D
:2026A00006F1FF39631E3B4402E00134B4423ED213F8012F4C45C5F80828F6D20220C5F86E
:2026C000048805F089FD00F087FB00F5CC5A0AF1190AD5F80438D90710D44FF08053D3F89E
:2026E000AC3128465B68984710F00C0F824612D10134B44218D20028D4D0AAE700F06CFB5E
:20270000A0EB0A000028E4DBA3E700F065FB001B0028AFDB9DE704230220C5F8043801349B
:2027200005F05AFDA64294D8BAF1000F91D10523234D0220C5F8043805F04EFD00F04CFBB3
:2027400000F5CC541934D5F80438DA0725D44FF08053D3F8AC311A485B68984710F00C0F5B
:20276000044620D100F038FBB4FA84F400F5CC55134E64091935D6F804385B067FF56AAFAB
:2027800000F02AFB401B0028F5DB62E704230220C8F8043805F020FD5BE700F01DFB001BCC
:2027A0000028D0DB55E704230220C5F8043805F013FDD7E700287FF44CAFB8E7613B002014
:2027C0000020004070B5224B224D1B785B00C5F80038C5F8080800F0FFFA00F5CC5419349D
:2027E000D5F804385A0606D500F0F6FA001B0028F6DB002070BD07230220C5F8043805F01A
:20280000EBFC00F0E9FA134E00F5CC541934D6F80438DB070ED44FF08053D3F8AC310D485E
:202820005B68984710F00C0F044609D1B4FA84F0400970BD00F0D0FA001B0028E7DBD8E7A1
:2028400004230220C6F8043805F0C6FCEEE700BF613B0020002000402DE9F04F4F4BDFF808
:2028600040A11B7883B05B0043F00103CAF800388846019000F0B0FA00F5CC541934DAF8F8
:20288000045815F0400508D000F0A6FA001B0028F5DB002003B0BDE8F08F0B230220CAF80E
:2028A000043841F699164FF080573D4C08F1FF3B05F092FC5FFA85FADA452CDA00F08CFA2E
:2028C00000EB0609D4F80428D20716D4D7F8AC3120465B68984710F00C0F15D10135002830
:2028E000D7D10923D4F808280199022001F80A20C4F8043805F070FCDCE700F06DFAA0EB2B
:2029000009000028DEDBC4E704230220C4F8043805F062FCBDE70523214E0220C6F8043837
:2029200005F05AFC00F058FA00F5CC541934D6F8045815F0010521D14FF08053D3F8AC31C7
:2029400017485B68984710F00C0F1DD10028A0D1019AD6F80838424402F8013C00F03CFA48
:202960000F4D00F5CC541934D5F804385B0613D500F032FA031B002BF6DB8AE700F02CFA8A
:20298000031B002BD3DB84E704230220C6F8043805F022FC28467DE701207BE7613B00206E
:2029A000002000402DE9F84FDFF810A2844F9AF8004099466400C7F8004803780546C7F85D
:2029C00008380E46904600F007FA00F5CC541934D7F804385B0607D500F0FEF9001B0028C8
:2029E000F6DB0020BDE8F88F03230220C7F8043805F0F2FB00F0F0F9714F00F5CC5419349A
:202A0000D7F80438D80740D44FF08053D3F8AC316B485B68984710F00C0F3CD1012E41D938
:202A20000028DED1013E0127DFF894B12E440DE04FF08053D3F8AC3158465B68984710F0E3
:202A40000C0F1BD1AE422DD00028CAD115F8013F0220CBF80838CBF8047805F0BDFB00F071
:202A6000BBF900F5CC541934DBF80438D907DFD500F0B2F9001B0028F6DBB2E7042302200C
:202A8000CBF8043805F0A8FBABE700F0A5F9001B0028B5DBA5E704230220C7F8043805F0E7
:202AA0009BFB9EE700289CD10B229AF80030444C5B0043F00103A8F10207C4F8003802209D
:202AC00008F1FF3AC4F804284F4405F085FB574541F699154FF080561ED000F07DF900EBFF
:202AE000050BD4F80438DA0749D4D6F8AC3120465B68984710F00C0F48D100287FF471AF1E
:202B00000923D4F8082802200AF8012FC4F8043805F062FB5745E0D10523294E0220C6F823
:202B2000043805F059FB00F057F900F5CC541934D6F8045815F001052FD14FF08053D3F85C
:202B4000AC311F485B68984710F00C0F2BD100287FF447AFD6F80838C84408F8013C00F0A0
:202B60003BF9174D00F5CC541934D5F804385B0621D500F031F9031B002BF6DB31E700F0BF
:202B80002BF9A0EB0B000028ABDB2AE704230220C4F8043805F020FB23E700F01DF9031B3D
:202BA000002BC5DB1DE704230220C6F8043805F013FB284616E7012014E700BF613B0020FE
:202BC000002000404FF0805370B53A4A04461170D3F8B83102205B6B984701283ED0FFF767
:202BE00087FC354B1A78A24240D00022334D34491C70C5F80428C1F810241B78002B36D007
:202C0000012B20D14FF08054D4F8B4314FF4C04108209B699847D4F8B4314FF4C041092066
:202C20009B699847D4F8B431092208212846DB6C9847D4F8B43105209B6B9847D4F8B431AC
:202C400006209B6B9847BDE870404FF08053D3F8AC3101221B4919481B6818471A4B1B6EA2
:202C6000DB07BCD5144B1A78A242BED170BD4FF08054D4F8B4314FF4C04105209B69984740
:202C8000D4F8B4314FF4C04106209B699847D4F8B431062205212846DB6C9847D4F8B431F2
:202CA00008209B6B9847D4F8B43109209B6B9847C9E700BF613B0020040800200020004091
:202CC00000000542006CDC020020084010B54FF08054D4F8B83104205B699847D4F8B831F2
:202CE00004205B6B98470128F8D110BD38B5002400254FF080531A4A0420C2E90045D3F8C1
:202D0000B8315B6B9847012801D0FFF7DFFF4FF08053D3F8B8310020DB6998470121114BD0
:202D2000114A9962936A9B07FCD54FF080520F4C0F49E368204623F4807323F00103E360F4
:202D4000D2F8C83104251B689847312040F221210122084B2560E063A1605A6038BD00BFB3
:202D600008080020002008600020084000000140002100040000244310B505F065F900232B
:202D8000044C400E40EAC112C4E90023D4E9000110BD00BF0808002010B505F055F9002323
:202DA000064C400E40EAC112C4E9002303F0C6FB00B910BDBDE8104003F0A0BB08080020F9
:202DC000014B9868704700BF00200940704700BF0146012000F04AB805F02AB92DE9F843CF
:202DE00005F0F2F901254FF480724FF000094FF480334FF080561B4CDFF86C802321C8F817
:202E00000090656062606360D6F8843107461B6848469847D6F88431242128461B68984780
:202E2000D6F88431252102201B689847236843F4E0232360C4F8089005F0FAF80346D6F8AB
:202E4000B02103F50073E361C8F8A052C8F800501420136998470FB1BDE8F883BDE8F843E1
:202E600005F0B6B90020094000002443431E012B10B419D9042815D100231A4610F0040042
:202E80001CBF124C21621BB10121114BC3F880121AB101220E4BC3F8A02218B101220C4BD8
:202EA000C3F8C02210BC7047012808D10346074A916110F0020204D0044CE161DEE7002312
:202EC000F7E7002BEED01046DEE700BF0020094000002443014B1868704700BFF80E002019
:202EE00010B5FFF779FF194B1860FFF755FF184BD3F8A0307BB9164BD3F88020EAB9144B79
:202F0000D3F8C02032B100204FF48031114AC3F8C002516010BD4FF480730E4C636005F071
:202F200087F800F2052020F4FF70094B20F00100E061D3F88020002AE1D000200121054AFB
:202F4000C3F88002516003F0B7FDD8E7F80E002000002443002009400122024BC3F8002CD0
:202F6000704700BF0000084010B505F02DF9114BD3F8002C012A0AD04FF0864201210E4CD8
:202F80001C60C2F80411C2F8001178B110BD4FF086410A4CC3F8004C074C1C60C1F8042115
:202FA000C1F80021C3F8002C0028EFD1BDE8104005F00EB900000840502D190051E5CC1ABD
:202FC0000122014BDA6070470000084008B5FFF7CBFFFEE770B5044605F0F6F821460646E2
:202FE000114803F05FFE104803F05AFE38B101210E4B0F4AC3F8001253699B06FCD54FF08E
:203000008055D5F8A03160681B689847D5F8A03160689B6898471128F8D106B170BDBDE840
:20302000704005F0D5B800BFFC0E0020000022430010094008B5064803F032FE38B101217E
:20304000044B054AC3F8001253699B06FCD508BDFC0E0020000022430010094010B5A8B10C
:203060004FF0805C0021134C134A6368012023F4C0536360DCF8A031C2F88011C2F80012C3
:20308000DB68984763699B06FCD410BD04460B4803F006FE0028E3D005C814430028FBD17D
:2030A000002CDDD0034A536823F4C05343F40063536010BD0010094000002243FC0E002003
:2030C00038B5054605F080F804462946054803F035FE0020FFF7C2FF04B138BDBDE8384081
:2030E00005F076B8FC0E002070B590B10E460024451E04E0A64206D000F02EF9013415F847
:20310000010F0028F6D100F081F90128FBD0204670BD0446F7E700BF38B54FF08055D5F80A
:20312000B83102205B699847D5F8B83102205B6B984701280446F7D1D5F8B8314FF40070C0
:20314000DB699847034B044A9C62936A9B07FCD538BD00BF0020086000200840F0B54FF0BA
:20316000805540F2F27683B0284CFFF7D5FFD5F8D0312046DB689847D5F8B03115205B6972
:203180009847A36BD5F8B42123F4FE6323F00203A3636664D36B1D2098474FF000514FF017
:2031A000FF331B4A2046C2F89010D5F8B4210093176C1C211D22B847D5F8D02160232046DE
:2031C000576814494FF4E132B847142240F2011340F201306263E26A0F4942F01002E262AE
:2031E0000A68002A18BF0346236366640B685BB11520A36BD5F8B02143F05003A36313695B
:2032000003B0BDE8F040184703B0F0BD0010004000200240006CDC02000F00204FF080532A
:2032200070B5D3F8B83104465B6B02209847012807D13B4BDB6ED80703D53A4A936919077D
:20324000FCD4032C47D0384B1B6803B170BD4FF08055D5F8B83102205B6B9847012858D18E
:203260002F4BDB6EDA0715D54FF080562D4DD6F8D0312846DB689847D6F8B03115205B692A
:20328000984740F2F272AB6B23F4FE6323F00203AB636A644FF08053D3F8B8314FF40070BE
:2032A0001B6A9847032C25D00121204B1C4A9962936A9B07FCD51D2000F02EFA1C2000F0A7
:2032C0002BFA4FF0FF3000F027FABDE870404FF0FF3000F021BA4FF08055D5F8B8310220D0
:2032E0005B6B98470128BBD0D5F8B8314FF400701B6A98474FF08054D4F8B8314FF400702D
:203300009B6A9847D4F8B8314FF400701B6B9847CAE7D5F8B8314FF400701B6A9847C3E7D4
:203320000020084000100040000F00200020086010B504F049FF0446054800F0D1F90022AA
:20334000044B1A6004B110BDBDE8104004F040BF68050020000F00204FF0805310B5D3F8DC
:20336000B83104465B6B0220984701280BD0FFF7F5FE4FF08053D3F8D0312146BDE810402C
:203380000348DB691847034BDB6EDB07F1D4EEE70010004000200840184A10B51060D8B154
:2033A0004FF080540221164AD4F8B83111614FF400705B6A9847D4F8B8314FF40070DB6A4C
:2033C000984701210F4B104A9962936A9B07FCD5BDE81040FFF7C2BE03464FF08054084AB4
:2033E0004FF400701361D4F8B8319B6A9847D4F8B8314FF400701B6B9847E2E7000F002048
:2034000068050020002008600020084008B54FF08053D3F8B83102205B6B984701280AD1E1
:20342000064BD86E10F0010004D0A3F501239869C0F3C00008BD002008BD00BF002008401F
:2034400070B5FFF769FE40F2F2720C4C236C626413F0500F0DD00A4D4FF0805606E0D6F848
:20346000D03120461B6998472B681BB9A369DB06F5D570BDC0B29847EEE700BF0010004002
:20348000000F0020F8B504F09FFE03F0AFFA18B1BDE8F84004F09CBE884803F001FC022548
:2034A000044648B1636823B19847A84228BF2846C5B22468002CF5D1FFF78EFC804B044682
:2034C000D3F88032002B00F0D2807E4B9B691B1A022B00F19680A3F28F23002BACBF0220CD
:2034E0000120854228BF054603F028F8002840F08E80012D00F0CB80022DC9D12846611E1A
:20350000FFF7B4FC6D4803F0CBFB06250446002800F0AF80A3680BB10220984723692468FB
:2035200025EA0305002CF5D1FFF74AFD6B0700F1A380002D40F0A38000F0BCF90020FFF784
:203540008DFD4FF08052604C3920236823F003032360A36843F00F03A360D2F8B8319B699A
:2035600098470020594B20642064C3F8200405F009FA062D00F09D804FF080560027544CAD
:20358000504D0321EB6AD4F82432524823F00303C4F82432D6F8D8315B689847D6F8B831FE
:2035A0009B6B9847EB6A05F00DFB4B4AD6F8D831C2F88071474801215B6898470121D4F87C
:2035C0002432464A43F00303C4F82432D160EB6A05F02AFBFFF72EFDFFF7DEFBFFF7F0FC48
:2035E000364803F05DFB044628B1E36803B198472468002CF9D104F0EBFDBDE8F84004F0D2
:20360000E7BD02F09BFF00283FF442AF002502F09DFF0646FFF7B0FB361A002E7FF738AFB3
:20362000FFF758FC00EB46210B1BA3F28F22002A36DA002D3FF42CAF082B2ED404F580342B
:20364000631A31EA230128BF21460220FFF70EFC4FF0E022D2F8103D23F00403C2F8103DC5
:2036600030BFFFF7ADFCBDE8F84004F0B1BD022037E7FFF7A5FC06250022184BDA604FF07D
:203680008053D3F8B83128469B69984754E7022004F58031FFF7EAFBDAE704F10801D4E7F6
:2036A000012DC9D0022D7FF4F3AE2846FFF7DEFB28E7022004F02EFE5EE700BF040F00203B
:2036C0000000244300200940001009400000224300200840004003400000044300400940A1
:2036E0000146014803F0DEBA040F00200146014803F024BB040F002010B5064803F0CCFA1B
:20370000BDE810404FF08053D3F88431202103201B681847040F0020431C10D04FF0805358
:2037200010B5D3F8B43104461B684FF4C042002198470023024840EA8404236010BD7047DC
:20374000001A4442034BD3F8E000C3F8E00003F045BD00BF002002404FF0805370B5D3F81D
:20376000B4310C465B680546984714F00C0320F0E06222F4EC2207D0042B23D0082B24D07C
:203780000C2B08BF42F4403214F0030310D142F4C04223064FF08053D3F8B4312846BDE862
:2037A00070404FF000011B6848BF42F480221847022B04D0012B08BF42F48042E9E742F466
:2037C0000052E6E742F40032DEE742F48032DBE7074AD2F8D030C340DB074CBFD2F880306E
:2037E000D2F8C03023FA00F000F00100704700BF002002400022412300B585B002A8CDE969
:203800000223FFF7E7FB042004F074FD032805D102A8FFF755FC05B05DF804FB03210420DF
:2038200004F03CFD042004F065FD0328FAD11C234FF0405200210090044804F0E7FC02A85D
:20384000FFF73EFC05B05DF804FB00BF00A00C400022412300B583B06846CDE90023FFF799
:20386000B9FB012004F046FD012803D00121032004F014FD6846FFF723FC03B05DF804FB2C
:203880000022412300B583B06846CDE90023FFF7A1FB012004F02EFD012805D04FF0805351
:2038A000D3F8800004F09AFB6846FFF709FC03B05DF804FB10B54123002482B06846CDE9A1
:2038C0000043FFF787FB0320214604F0E7FC012004F010FD20B96846FFF7F2FB02B010BDC1
:2038E0004FF08053D3F8800004F078FB6846FFF7E7FB02B010BD00BF70B5038804463BB15A
:2039000040F2CB22934208D182290AD0012070BD40F2CB232380012070BD0023238003200D
:2039200070BD0A4B0A4E1D69FFF74AFB04F076F904F00AFA4FF4A061A847002880B2E7DD40
:2039400004F0FCF9F3689847EEE700BF74F8000004090100024BD3F89C0100F001007047D9
:20396000002008404FF0FF332DE9F0412E4C8046236023680F460B6010F0030302D10288B6
:2039800011050DD404F020FC284B0546D3F89C31DB071BD4002D36D000252846BDE8F0811D
:2039A000438004F011FC214B0546D3F89C31DA07F0D5B8F8003013F4405F07D003F4406357
:2039C000B3F5006F04BF1A4BC3F80080194E4CF25032C6F800807368236003E07368013AB1
:2039E000236018D02368DBB2002BF7D085B123683B602568EDB2A5F10105B5FA85F56D098F
:203A00002846BDE8F08104F0E3FB2846BDE8F08104F0DEFBEBE71DB1236800253B60BCE771
:203A200004F0D6FBF8E700BF080F0020002008400C0F0020001004400B4A01E0013A11D0A3
:203A4000438803F44063B3F5806FF7D14388074A9BB21360428802F44062A2F58062B2FA3F
:203A600082F252091046704720A10700080F002070B54FF0805482B004F0A6FBD4F8B031BF
:203A800005461B6A19209847D4F8B03112201B6A9847D4F8B03119205B699847D4F8B031C5
:203AA00012205B699847D4F8B83101205B699847D4F8B83101205B6B98470128F8D1174AEA
:203AC000174BD0629862936A9B07FCD54FF080540022144BD4F8B0111A615A6119200B69E4
:203AE0009847D4F8B03112201B6998479DB140F2FF3600240C4B0D4A0D4D01A92E600D4837
:203B0000DC611A60FFF72EFFA0F10100B0FA80F0400902B070BD04F05BFBE8E70020084076
:203B200000200860001004600010044051000706000004600100060400B587B01422002125
:203B400001A80BF05BFB4FF0010C40F60A0218499DF8113009686CF30303059101A86946E2
:203B6000ADF804208DF81130FFF7FCFE012803D0002007B05DF804FB0E4801E00138F8D067
:203B8000BDF8063003F44063B3F5806FF6D1BDF80630094A9BB21360BDF8060000F44060F5
:203BA000A0F58060B0FA80F0400907B05DF804FB100F002020A10700080F002000B587B0F8
:203BC0001422002101A80BF019FB4FF0010C40F609029DF8113069466CF3030301A8ADF811
:203BE00004208DF81130FFF7BDFE012803D0C0B207B05DF804FB134A01E0013A1CD0BDF897
:203C0000063003F44063B3F5806FF6D1BDF806300D4A9BB21360BDF8063003F44063B3F547
:203C2000806F09D1094B1A7852B90122059808491A7008601046DBE7002007B05DF804FB84
:203C40000120D5E720A10700080F0020623B0020100F002030B54FF0805487B004F0B4FABB
:203C6000D4F8B03105465B6919209847D4F8B03112205B699847334BD3F89C31DA072FD4F4
:203C8000FFF79CFF002001212E4A2F4BD0629962936A9B07FCD54FF08054D4F8B8310120D9
:203CA0009B699847D4F8B83101205B6B98470228F8D1D4F8B03119201B6A9847D4F8B031BC
:203CC00012201B6A9847D4F8B03119201B699847D4F8B03112201B6998476DB307B030BDFF
:203CE00000211A4B102219610124596102A80BF085FA40F60D029DF8153002A864F3030369
:203D000001A9ADF808208DF81530FFF72BFEA042B6D10F4A01E0013AB2D0BDF80A3003F4FD
:203D20004063B3F5806FF6D1BDF80A30094A9BB21360BDF80A30A3E707B0BDE8304004F047
:203D400047BA00BF00200840002008600010046020A10700080F002008B504F07FF90528EA
:203D600003460ED0032806D080B903220C4B0120C3F8D02108BD0222094B0120C3F8D0218F
:203D800008BD074A0120C2F8D03108BD012801D0002008BD0521024AC2F8D01108BD00BFFC
:203DA0000020084038B5194B194A1978D2F89C210029184C18BF0024D30700D438BD04F0B0
:203DC00003FA02464FF080550021134B134898615C611446D5F8B0211961136A19209847F3
:203DE000D5F8B03112201B6A9847D5F8B03119201B699847D5F8B03112201B699847002CC6
:203E0000DCD1BDE8384004F0E3B900BF633B0020002008400000C0800010046000004080EF
:203E200038B50B460446154600211A460BF0E6F90122637B258062F30303637338BD00BFB9
:203E400010B5104BD3F89C31DA0704D4FFF710FE012800D010BD0C4C23695B0204D46FF0AF
:203E60000042094B1A6110BD0122084B08481A7002F0F8FD6FF480036FF000422361024BD5
:203E80001A61F0E70020084000100460643B00207C05002008B5114BD3F89C31D90704D42B
:203EA000FFF7E6FD012800D008BD04F08DF90C4B1A6912020BD40A4B1A6912F00A0F1CBF56
:203EC0006FF00A021A61BDE8084004F081B96FF4000204481A6102F0C5FDECE700200840C6
:203EE000001004607C05002008B5034B1B689847B0FA80F0400908BD10FD00000120704733
:203F0000002108B5024B08465B6B9847012008BD10FD000070B567380C4686B013280BD826
:203F2000DFE800F00D171B1F0A0A232B343D410A454E0A52565A5E78012006B070BD43F69C
:203F4000EC73A1F114029A4274D84A4B00201980F3E7494B00201970EFE7484B00201970BB
:203F6000EBE7474B00201970E7E7002964D1454DEB69A0B298470020DFE743F6FC730A1F3A
:203F80009A4257D8404B00201980D6E743F6FC730A1F9A424ED83D4B00201980CDE73C4BC6
:203FA00000201970C9E73B4B00201970C5E7002953D1344D00216B6AA0B298470020BCE715
:203FC000354B00201970B8E7344B00201980B4E7334B00201980B0E7324B00201980ACE7AF
:203FE000002935D02F482D492A4A04882C4B08881178294A1B8803941278CDE90010214CAC
:204000002249214802930988274BA46A0088A047002092E771B11B4C0020246B214BA44690
:204020001F4A1E491B8812880988059406B0BDE870406047022080E7124D114B0F4A0E49A3
:204040000C481B7812780978EE680088B0478FE70C4BDB6A984720466FE70A4D0D4B0B4AE8
:2040600009490B481B78128809882E6A0078B047A0E700BF363B0020673B0020663B00207C
:20408000653B002010FD0000403B0020423B00206A3B0020693B0020683B00203A3B00203A
:2040A0003C3B00203E3B0020140F00206C28134610B505D0752812D06B280BD0012010BD2B
:2040C000013A1D2A09D841B10E4A98B293699847002010BD013A1D2A0BD9022010BD531E5B
:2040E000052BFAD80029F8D007480AF095FF002010BD0029F1D0034A98B2536998470020C7
:2041000010BD00BF10FD0000140F0020002934D010B565280C4682B014D00AD9662820D07B
:2041200076282CD1174B00201B6C9847002002B010BD0E281CD00F2821D1242300200B6040
:2041400002B010BD104803881BB90E4B01A99B689847022220460C490AF05EFF002002B03C
:2041600010BD084B01A89B689847002002B010BD002318460B6002B010BD02207047012090
:20418000D5E700BF10FD0000383B00200B4B10B59B6B9847044620B1094B1B68002B01DC0A
:2041A000012010BD074A0849084804F09FFD2146074804F09BFD012010BD00BF10FD000093
:2041C000CC060020B0F8000054F8000050F7000058F80000642801D001207047062A07D125
:2041E00031B108B5034B08465B689847002008BD0220704710FD0000012070470120704767
:2042000090F8211090F82C20234B0A4483FB021313445B1103EBC30103EB8103D31A70B5C9
:20422000C5698469C3F12001DEB2A3F1200205FA01F124FA03F30B4325FA02F2134313F089
:20424000010380F82C6002D080F82D6070BD90F820209E46B6FBF2F102FB1166F6B2C3F142
:20426000200CA3F1200124FA03F205FA0CFC25FA01F142EA0C020A43D207D9B203F101034F
:2042800007D576450EF1010E08BF80F82D105FFA8EFE252BE3D170BDA7C867DD70B5264B9E
:2042A0000C461B8882B0002B44D04FF4B5620C21224D013B9BB2AE1802FB036605F5D87E9D
:2042C0002B464FF0000C93F8E0232433052A04BF0CF1010C1FFA8CFC7345F4D18C451DD95C
:2042E00005F5B565AE420EF5B56EE9D1144BA3FB0123C3F34F034FF480750DF10601022250
:20430000ADF80430ADF806500AF086FE0222204601A90AF081FE002002B070BD2B4600210D
:2043200093F8E0232433052A04BF013189B27345F6D1D5E70123DEE7443B0020100800203E
:20434000398EE338F8B5064615461F4600F5777400F28C5E94F804C0BCF1050F08D02434C5
:204360007445F7D1174B1B68012B1FDC0320F8BD1B2D0CD82A4604F109000AF04DFE0623D0
:204380000135EDB2E580277223710020F8BD0D4B1B68012BEADD0C4A0C490D4804F0A6FC7D
:2043A00029460C4804F0A2FC0320F8BD064A0749074804F09BFCB18E074804F097FC03201E
:2043C000F8BD00BFCC060020ACF80000B8F8000050F7000004F90000C0F8000030B5304CC6
:2043E0008DB00591A18ECDE90332C3B2994244D12C4D2B68022B43DC0F23022205A90DF111
:2044000019008DF818300AF007FE022205A90DF11B000AF001FE022204A90DF11D000AF0ED
:20442000FBFD022203A90DF11F000AF0F5FD012205A90DF121000AF0EFFD02221A490DF150
:2044400022000AF0E9FD0C22FF2109A80AF0D6FE1822032312480DEB0201FFF773FF08B9AF
:204460000DB030BD2B68002B07DD104A1049114804F03CFC104804F039FC03200DB030BD6A
:2044800004460A4A0D490B4804F030FCDDE904320398214600900A4804F028FCACE700BF6B
:2044A00010080020CC0600203A080020ACF8000054F8000050F7000084F9000048F700007D
:2044C00034F9000008B5FFF745FA00280CBF0220012008BD2DE9F04F074687B00E200D4668
:2044E00003F078FCDFF8BC90014602A803F01CF8B9F8003003B34FF000084FF4B56BDFF822
:20450000A8A02A4B1FFA88F60BFB063604A8314600F084FC514602A803F00AF888B904A94E
:2045200002A803F005F860B9B9F8002008F101081FFA88F39A42E4D80023184607B0BDE8EC
:20454000F08F002455B9EFE701233046D2B2FFF7F9FE1B34A4B288B9A542E5D92A1B1B2AB4
:20456000A8BF1B223919002CEED102233046D2B2FFF7E8FE1B34A4B20028EDD00C4A034636
:204580001268012AD9DD0B4A0B4901900B4804F0ADFB0B4804F0AAFB019B184607B0BDE855
:2045A000F08F00BF443B0020A805010010080020CC060020ACF80000B8F8000050F70000AB
:2045C000B8F9000070B5044682B0FEF705FC1CB1104C94F8456016B1002002B070BD054628
:2045E000208809F08DFE00220B4B0AF02DF800220A4B09F0FFFE0AF0ADF9014629440094A3
:204600003246074B04F14C00A16402F041FA002002B070BD1C0F0020000089400000F0401A
:20462000F903000008B500F0EBFB002008BD00BF1F2808B509D802460C4B03F1260083F82E
:2046400025200AF0E9FC002008BD094B1B68012B01DC022008BD074A0749084804F046FB64
:20466000074804F043FB022008BD00BF1C0F0020CC060020ACF80000B8F8000050F700003B
:20468000D8F900001F2808B507D802460B4B981D5A710AF0C1FC002008BD094B1B68012BA9
:2046A00001DC022008BD074A0749084804F01EFB074804F01BFB022008BD00BF1C0F0020EE
:2046C000CC060020ACF80000B8F8000050F70000FCF9000038B50B4D0B4C2D682080022D58
:2046E000A170E270237101DC002038BD074A0849084804F0FBFA22792188074804F0F6FA7F
:20470000002038BDCC0600201C0F0020ACF8000048F7000050F7000018FA000010B5094CF1
:20472000C3B2A28E08469A424FF0020205D104F112010AF071FC002010BD00210AF05EFDBF
:20474000032010BD100800202DE9F04F0388064691B093B1154640F29252934214D1BC4B4E
:204760001B788B4216D0012011B0BDE8F08F6A8DB5F8A4359A4200F0038140F292530120E8
:20478000338011B0BDE8F08F00230320338011B0BDE8F08F95F8863095F88C259A420BD06B
:2047A00085F88C35002003F0C9FA10210C2003F0F7FAA84BDB689847D5F8D0432379032BE5
:2047C000D5D14FF00008DFF88C92474610E0022B59D0012B00F08D802772D5F8D0331F7102
:2047E000D5F8D0432468C5F8D0432379032BBED194F809B0227A0BF00303083A032B1FFAB9
:2048000082FACBF3001BE2D100200021E37ACDE90401ADF80E70002B40F081808E4B1B685C
:20482000022B00F3EF80012204F10C0105F29B500AF0F2FB022204F10D0105F29C500AF0F7
:20484000EBFB022204F10F0105F29E500AF0E4FB022204F1110105F5B4600AF0DDFB02225C
:2048600004F1130105F2A2500AF0D6FB022204F1150105F2A4500AF0CFFBB8F1000F76D19E
:20488000D5F8D043A8E704EB0A031B7B019303F0C5F903F059FA524604F10B010AF0BCFB42
:2048A000504603F04BFA95F88E40294607A800F0B5FA2146042003F073FA019B012003F077
:2048C0003F0103F06DFA65490E2003F077FA07A90D2003F073FA00210C2003F061FABBF17A
:2048E000000F02D0BAF11A0FCAD8D9F80C309847C6E703F029FA019003F03AFA019B5246C6
:2049000004F10B0118440AF087FB03F031FA504480B203F013FABBF1000FE6D0E2E7012B74
:2049200039D0082B14D00C2B75D00F2B00F0A680494A01931268012A9FDD494A49494A488C
:2049400004F0D4F9019B4948194604F0CFF994E7414B1B68022B00F3B2804FF009080822F8
:2049600000210DF125008DF824800AF047FC03234246284609A9FFF7E5FCD5F8D0432BE7F6
:20498000002003F0DBF930210C2003F009FA314BDB689847F1E6304B1B68022B4EDC04F1FE
:2049A0000C01052204A80AF037FB022204F111010DF10E000AF030FB0023DDF810C0059C26
:2049C000BDF80E2085F89A75C5F890C5C5F89445A5F89825C3F12000A3F120012CFA03F2C2
:2049E00004FA00F0024324FA01F10A43D20703F1010304D595F89A25013285F89A25252B72
:204A0000E8D13AE7164A1A49174804F06FF9194804F06CF907E7104B1B68022B58DC0C2328
:204A20008DF8243007230422AA210DF126008DF825304FF006080AF0E1FB98E7084A0C493B
:204A4000094804F053F90C4804F050F9A7E700BF6B3B002004090100CC060020BC14002031
:204A6000ACF80000B8F8000050F7000020FB000048F7000050FA000080FA00001D4B1B6892
:204A8000022B2EDC04F10C01022202A80AF0C4FA04F1100102220DF10A000AF0BDFA04F17F
:204AA0001201022203A80AF0B7FABDF80C30BDF80A20BDF80810A88EFFF790FCDDE60E4AF9
:204AC0000E490F4804F012F90E4804F00FF944E7094A0A490A4804F009F90B4804F006F978
:204AE0009DE7054A0549064804F000F9074804F0FDF8C7E7CC060020ACF8000048F700009F
:204B000050F70000A8FA0000CCFA0000F0FA000010B5FEF79DFEFEF71DFF10B1002420464B
:204B200010BD0446FEF7A4FF012810D01C4B1B68002B03DCFFF78EF8204610BD194A1A4954
:204B40001A4804F0D3F81A4804F0D0F8F2E7FEF7F3FF01280CD0124B1B68002BEADD114A24
:204B60001149124804F0C2F8124804F0BFF8E1E7FFF718F9FEF784FE00F0CCF90128CDD00D
:204B8000074B1B68002B01DC0324C8E7054A0649064804F0ABF8084804F0A8F80324BEE72F
:204BA000CC060020ACF8000054F8000050F7000048FB000074FB0000A0FB00002DE9F84F22
:204BC000804C2368022B00F3E4804FF0010A4FF000094FF03C0B7C4F54463D46DFF8EC81B6
:204BE0007B48FEF77DFDFFF7B7F84FF4A0724946404608F1B4060AF001FB0822494608F119
:204C0000AC000AF0FBFA442249463046C8F8AC60C8F83C61C8F8B0900AF0F0FA98F8B93008
:204C200008F1F8006AF3830388F8B93044224946A8F8BAB0C8F8B4000AF0E0FA98F8FD3033
:204C4000C8F8F860634E6AF3830388F8FD304FF482724946A8F8FEB030460AF0CFFA06F1B7
:204C600078080822494606F170000AF0C7FA442249464046C6E91C89C6F800810AF0BEFA19
:204C800096F87D3006F1BC006AF383034422494686F87D30A6F87EB0B0670AF0AFFA96F80F
:204CA000C1304FF4B5626AF3830386F8C1304946C6F8BC803846A6F8C2B00AF09FFA082283
:204CC000494607F198000AF099FA07F1A003C7E92639DFF80481C7F8D03305F1A00901269A
:204CE0004422002148460AF089FA3C22A8FB0413DB0803EB4303A4EB830303EB031307EBE8
:204D000083034435A033EB6599F80530344466F383030D2C89F80530A5F86220DDD108226E
:204D200000212E480AF06AFA00232D4CC7E9F53304F5D8752046242200210AF05FFA05227D
:204D40006379243466F38303A54204F81F3C04F8202CEFD1FFF7DCFE0446B0B9FEF77AFF09
:204D6000FEF7A8FD1F4801F08BFE10B12046BDE8F88F01F073FD02461B4B214619481A7004
:204D800001F074FD2046BDE8F88F03242046BDE8F88F164A1649174803F0A8FF012116482E
:204DA00003F0A4FF2368022B7FF70FAF10490F4A104803F09BFF4FF48071104803F096FFC6
:204DC00003E700BFCC060020100800201C0F00209C0500205C100020ABAAAAAAE40B0020B0
:204DE000EC0B00208C0500206B3B0020ACF8000048F7000050F70000B4FC0000D0FC00007F
:204E00000549431E00F1050C0144CA1A127803F8012F6345F9D17047EC12005038B503227A
:204E200004460D460AF0F8F8FF20FE230322E0702371A918601DBDE838400AF0EDB800BFE9
:204E400030B583B06A4605460C4B0D4C13F80119A34202F8011BF9D16946032228460AF069
:204E6000DBF8FF24FE230322681D0DEB0201EC702B710AF0D1F803B030BD00BFED1200500D
:204E8000E712005010B582B001A90446FEF76AFD012804D0094B1B68002B02DC002002B0D3
:204EA00010BD074A0749084803F020FF6188074803F01CFF002002B010BD00BFCC0600208C
:204EC000ACF8000054F8000050F7000054FD000010B50446FEF7B0FD012804D0084B1B68C6
:204EE000002B01DC002010BD064A0749074803F0FDFE6188064803F0F9FE002010BD00BF13
:204F0000CC060020ACF8000054F8000050F700008CFD000010B588B040F60202182102A8C5
:204F2000FEF77EFF002443F261131B4A02A801A907928DF81640ADF81A30FEF713FD0128E8
:204F400015D102A8FEF778FD01280ED0134B1B68002B10DD124A1349134803F0C7FEBDF8D7
:204F60000A10124803F0C2FE204608B010BD0B4B1B68002B02DC204608B010BD084A0949AE
:204F8000094803F0B3FEBDF80A10094803F0AEFE204608B010BD00BFB0050020CC060020EC
:204FA000ACF8000054F8000050F700008CFD000054FD0000F8B504460F46164600211822DD
:204FC0001D460AF01BF941F60303A189238021F47062E37B22F00F0242F480726FF3C7138A
:204FE000A7732661A281E3736561F8BD2DE9F843044688461746002120221E469DF820904A
:205000009DF828500AF0FAF801210B9B05F001052361099BE27EE360A388AD0223F4BF5306
:2050200045F0ED0523F01F031D4361F30302C4F80080A77184F80790A660A580E276BDE8CC
:20504000F88300BFF8B504460F461646002118221D460AF0D3F8A189069B21F4786222F01F
:205060000F0242F48172A28141F60102A360E37BA7736FF3C71326616561E3732280F8BDE8
:20508000F0B5EF279DF82850C0E900129DF814609DF818E09DF81CC0089C0772C5B10022D1
:2050A0000425428101220B21C360C37C04EB840465F30303C374C37E640062F303030674CD
:2050C000446180F811E080F812C04172C376F0BD0422C360099B458104EB4304C37C06743D
:2050E00062F303030122C374C37E446162F3030380F811E080F812C0C376F0BD10B50A460C
:205100000446052384B0694601A8CDE90242ADF80430FEF727FC012804D00A4B1B68002BA6
:2051200002DC002004B010BD074A0849084803F0DDFDBDF80610074803F0D8FD002004B07B
:2051400010BD00BFCC060020ACF8000054F8000050F70000C0FD000008B500F077F880B28F
:2051600008BD00BF00F004B938B54FF08055D5F8B83104205B699847D5F8B83104205B6BE0
:20518000984701280446F7D1D5F8B83140F20140DB699847034B044A9C62936A9B07FCD59F
:2051A00038BD00BF0020086000200840034B1B68002B0CBF02200120704700BF601100203A
:2051C000F8B5038804465BB3B3F5847F2DD1194B1B788B4201D00120F8BD174D2B686BB118
:2051E0004FF080530026154AD3F8CC3157685B680220984739462B6898472E604FF080533C
:20520000D3F8B83140F201409B6A984701210C4B0C4A9962936A9B07FCD50B48FEF766FAA1
:205220004FF4847323800120F8BD002323800320F8BD00BF050800206011002000800240DE
:205240000020086000200840D005002070B52B4B1B686BB12A4900230A4612F8014B002CC7
:205260003CD10133042BF8D125462046294670BD4FF08053D3F8B83104205B6B98470128D0
:2052800037D0FFF771FF1F4A1F4B92681A4210D101221E4BC3F8F02FD3F8F02F002AFBD151
:2052A00010464FF4807103F0FBFC0122184BC3F8A82202F089FF0646124A9368DB07FCD59F
:2052C0004FF08053D3F8CC3102205B68556898470446002EC9D102F07BFFC6E700200D4AD1
:2052E000C85402EBC30552F833406D682046294670BD094BDB6B9A07C5D4C2E7601100203B
:205300006411002000800240010000800090024000005042B80D00200020084038B50024F3
:205320004FF080510E4D0F4AC5F8A842D368D1F8B01123F00103D3604B69312098472246A7
:2053400020464FF4807103F0ABFC0121064BC5F8A812224619780548BDE8384001F050BBD0
:20536000000050420080024005080020E405002010B5074C2378802B00D010BD01F06EFA4F
:205380000346002123700348BDE8104001F06EBA05080020E405002008B502F015FF003886
:2053A00018BF012008BD00BF80F31088704700BF827A044B03EBC2035B68181AB0FA80F0E3
:2053C00040097047681100202DE9F0434E4F827A0121064685B007EBC20202E0C2E8441F0A
:2053E0004CB1D2E84F3F13F0FF05F7D00325284605B0BDE8F083BFF35F8F4FF08059B37A52
:20540000DFF8088107EBC3077E60D9F8B431F078DB6B9847B37A08EB03135868D9F8B8319F
:205420005B699847B37AD9F8B82108EB0313526B5868904701280746F4D1D9F8B831DA695D
:20544000B37A08EB031398689047314B314A9F62936A9B07FCD503204FF08051B37A1B015B
:2054600058F80320536923F00F035361B37A1B0158F803301862D1F8C4311F68B37A1B0150
:2054800058F8030033893BB1337A002B35D1737A002B0CBF03240124082322464FF080545E
:2054A000019373681C4900930023B847B37A96F800C0D4F8B471B27871781B01CDF800C043
:2054C00058F803007F6C4FF0FF33B847B37A1B0158F80320536843F002035360B37AD4F8C3
:2054E000C4211B01126958F8030003A990470028F4D1284605B0BDE8F083737A002B14BF47
:2055000003240224C8E700BF6811002010FE00000020086000200840006CDC0270B5264D57
:20552000837A05EBC3025268904201D0042070BD4FF08051214A044602EB03139868D1F87A
:20554000B8311B6A984701211D4B1E4A9962936A9B07FCD54FF08056D6F8B43160789B6BFB
:205560009847D6F8B4314FF4005160789B699847D6F8B431A0789B6B9847D6F8B4314FF4A4
:205580000051A0789B699847D6F8B43120789B6B9847D6F8B4314FF400519B6920789847CD
:2055A0000023A27A05EBC2025360A27ABFF35F8F184605F8323070BD6811002010FE0000F8
:2055C00000200860002008402DE9F04F9846334D837A164605EBC3056A6885B0904203D06B
:2055E000042005B0BDE8F08F4FF080592C4D044605EB03135868D9F8B8310F465B6B984759
:20560000012849D1A37A2749886F05EB0311C9681B01084240D0DDE90E210A44B242B8BF6A
:205620003246002A019235D0D8BF0DF10C0A24DD4FF0000B0DF10C0A5E45D4BF002117F8C0
:205640000B10E8580391D9F8C4315B689847A37A51461B01E858D9F8C431DB6898470E9B52
:205660005B45C4BF039B08F80B30019B0BF1010B5B45A37A4FEA0313DED14FF0805601E0D9
:20568000A37A1B01D6F8C421E8585146136998470028F5D10020A4E70520A2E7681100200C
:2056A00010FE00000020084010B503880446442B06D0452B0ED0BBB100232380032010BD25
:2056C0000D4B1B788B4212D18AB1002045230B49088023800A49094800F07CF8012808D9DB
:2056E00044232380012010BD00F0DAF8F8E7012010BD002010BD00BF783B002078110020FB
:20570000055700000146014803F0F0BA30FE00000021014801F0AAB8F40500202DE9F043B3
:205720000024012607460D46DFF85480DFF85490B1B084B1E30717D54246C0212B786846F2
:2057400003F0FAFA6846B847082E15D0013401360135002CEED14246C02168462B7803F060
:20576000EBFA6846B847F1E74A46C021684603F0E3FA6846B847DFE731B0BDE8F08300BFA5
:2057800050FE00004CFE000010B5BAB00A4604462821684607F01AFC6B46C021034A0AA813
:2057A00003F0CAFA0AA8A0473AB010BD30FE000009B1FFF7B3BF10B5B0B00446C021044AF4
:2057C000684603F0B9FA6846A04730B010BD00BF58FE0000F0B5038805460E46B1B01BB320
:2057E000702B1CD1274B284F1868436831463A6826489847012838D96C46254AC021204605
:2058000003F09AFA2046B04730462249FFF786FFC0212046204A03F08FFA2046B04700239B
:2058200003202B8031B0F0BD13781446202B03D114F8013F202BFBD0002BDDD02021204627
:2058400009F02EFD104F386018B1002300F8013B3860204600F096FB0A4B186040B10022AE
:205860000A4B1A8070232B80BFE7002031B0F0BD6C46C0212046094A03F05EFA2046B047B3
:20588000BBE700BF801100207C11002084110020A0FE0000BC140020A4FE000068FE0000FE
:2058A00000F058BB2DE9F04103888046B0B033B100230320A8F8003030B0BDE8F081124AA1
:2058C0000D466846C02103F037FA6846A8470F4801F0E6F907460028EAD00D4E7C68236805
:2058E0005BB1A3683246C021684603F025FA6846A84754F80C3F002BF3D1384601F040FAAC
:2059000007460028EAD1D3E7A8FE0000B0110020B40001002DE9F04303880546B1B02BB105
:20592000002303202B8031B0BDE8F0830E46154AC021684603F000FA6846B047124CDFF874
:205940004C90DFF84C8004F1600714F8023C13B1237C012B03D92034BC42F6D1E0E74A4647
:20596000C021684603F0E8F96846B04721463046FFF70AFF4246C021684603F0DDF96846B5
:20598000B047E8E7C0FE00000A320020D8FE0000440701002DE9F04103880646B0B02BB1AB
:2059A00000230320338030B0BDE8F081434A0D466846C02103F0C0F96846A84707F038F819
:2059C00006F0E6FF0446002870D0C0213C4A684603F0B2F96846A8472846211DFFF7D4FE76
:2059E000A369002B4FD1C0216846364A03F0A4F96846A84706F066FF00284FDD06F062FF0E
:205A0000C0210346304A684603F096F96846A84706F04EFF04460028C2D0DFF8A4802B4F59
:205A20000BE0C021684603F087F96846A847204606F044FF04460028B2D04246C021684632
:205A400003F07AF96846A847284604F10801FFF79BFE3A46C021684603F06EF96846A84742
:205A6000204606F017FF01462846FFF78DFEA369174A591CD5D1C0216846124A03F05CF9C3
:205A80006846A847D3E7C021114A684603F054F96846A84706F016FF0028AFDCC02168469B
:205AA0000C4A03F049F96846A84779E7C0216846094A03F041F96846A8479BE7DCFE000056
:205AC000D8FE000008FF00002CFF00004CFF0000ECFE000054FF000020FF0000F0B50788E3
:205AE00004460D46B3B0D7B19B2F13D1474E3368002B4FD0464800F01BFD70B13368002B79
:205B000048D0C021434A02A803F016F902A8A8470023336000230320238033B0F0BD16462F
:205B2000002A5BD01378002B58D02021104609F0B7FB00B107703046374907F0D3F90746C2
:205B4000002857D0354AC02102A803F0F5F802A8A84728463049FFF717FEC021304A02A87C
:205B600003F0EAF802A8A8472E4A2F4B1268274E4FF4207126481A60356000F0C5FC0423AD
:205B800000228021244807F0D1F89B2323803368002BAFD1254AC02102A803F0CDF802A813
:205BA000A84728461C49FFF7EFFD214A214B16881F78FDF7E1F84FF47A72154900970968D3
:205BC0003346401A02FB00F0C0090190C0211A4A02A803F0B1F802A8A8479BE7C021174AC3
:205BE00002A803F0A9F802A8A84700230220238033B0F0BD3346C021114A02A803F09CF870
:205C000002A8A8470220278087E700BF88110020B4110020BCFF0000A0110020B0FF00001C
:205C200044070100781300208C110020C8FF0000463B00206C3B0020E4FF000068FF000037
:205C400094FF000030B503880446B1B023B100230320238031B030BD0D46094AC0216846D6
:205C600003F06AF86846A84728460649FFF7A0FDC0216846044A03F05FF86846A847E6E751
:205C800004000100BC140020440701002DE9F04303880646B3B02BB100230320338033B088
:205CA000BDE8F0830D4606F053FC0446002844D0C021274A02A803F03FF802A8A847DFF818
:205CC0009490DFF894804A46C02102A803F034F802A8A847204606F033FC01462846FFF7AC
:205CE00053FD4246C02102A803F026F802A8A847204606F027FC01462846FFF759FD627C39
:205D00001649042A94BF51F82270154F237CC021144A02A8009703F00FF802A8A847C021D1
:205D2000114A02A803F008F802A8A847204606F015FC04460028C6D1AEE7C0210B4A02A8E7
:205D400002F0FAFF02A8A84702203480A7E700BF3C000100D8FE000054000100F802010039
:205D6000180001005C00010044070100200001002DE9F043B3B08046C021114A114C02A88B
:205D800002F0DAFF02A8C0472568ADB1DFF8389063681E68304600F093FC07462B464A4669
:205DA000C021CDE9006702A802F0C6FF02A8C04754F80C5F002DEBD133B0BDE8F08300BF79
:205DC000740001002C060020840001002DE9F04306880446B3B0002E39D10F46154612B148
:205DE0001378002B39D1002000F048FC00253C4B18602B46C0213B4A02A802F09DFF02A8B2
:205E0000B8473846FFF7B4FF00230220238033B0BDE8F0832021404609F042FA08B10023A1
:205E200003700A22404601A909F070FC2E4B1860002841D1019B43452CD03368984203D09B
:205E40000146284600F0F6FB3846FFF791FF00230320238033B0BDE8F0832021104609F034
:205E60001FFA814658B38046284608F8016B00F005FC1B4E294630601C4809F077FAB8B9FF
:205E800099F80130002BC5D14FF0FF324FF00008154B1A604346C021154A02A802F04CFF3E
:205EA00002A8B84700230220238033B0BDE8F08333680133E4D19CE70428EBD8BDE728464E
:205EC00000F0DCFB0346064E29460848336009F04DFA0028D8D033680133D5D189E700BF58
:205EE0009C1100209C0001009811002098000100B800010030B503880446B1B023B100230B
:205F00000320238031B030BD054A0D466846C02102F012FF6846A847FDF758F8EFE700BF43
:205F2000D8000100074A106858B130B40024064D06482970064914600B80006830BC00F0E2
:205F400091BD7047881100206C3B00208C110020463B002010B5074C204600F09DFE2046EF
:205F6000054900F09FFEBDE810400449044806F01DBF00BFB011002004060020255F000098
:205F80009011002070B505460E4800F089FEA8B106467468206818B90AE054F80C0F38B1EF
:205FA000294609F0E3F923460028F6D1184670BD304600F0E5FE06460028EAD100231846C1
:205FC00070BD00BFB011002038B5664CFBF7E0FBFCF78CFE00F05AFD00F080FC002162488D
:205FE00000F044FC00F042F9FCF7B6FF00F0D2F900F078FDFBF708FC01F0F4FE01F0FCFDBB
:2060000000F06AFB2368022B3BDC08225749584809F002F80021574800F028FC4FF0FF30BD
:2060200005F0A8FF23680546022B13DCFBF70EFCFFF76EFB504800F0C3F8FCF795FF00F0BD
:2060400069FC0446E4B2FCF7BBFF002CF7D1FBF759FCF4E7494A4A494A4802F047FE4A48B7
:2060600002F044FE2368022BE0DD05B10235284600F0A0FA2368022BD8DD444802F036FE73
:20608000D4E73E4A3E493F4802F030FE404802F02DFE2368022BB8DD384A3949394802F026
:2060A00025FE3C4B3C48196802F020FE2368022BABDD324A3249334802F018FE374B384865
:2060C000196802F013FE2368022B9EDD2B4A2C492C4802F00BFE334B3348196802F006FE40
:2060E0002368022B91DD254A2549264802F0FEFD4AF6CD312D4802F0F9FD2368022B84DD8E
:206100001E4A1F491F4802F0F1FD1A21284802F0EDFD2368022B7FF778AF184A1849194868
:2061200002F0E4FD234B2448198802F0DFFD2368022B7FF76AAF114A1149124802F0D6FD28
:206140001E4802F0D3FD2368022B7FF75EAF074800F040FA2368022B7FF757AF0B4802F0EA
:20616000C5FD52E7CC0600201C060020BC140020943000205C070020FC0A01007803010016
:2061800048F7000050F70000440401004407010080030100A0090100B803010034090100BC
:2061A000C803010004090100D4030100E0030100FC030100483B00201C0401002C04010054
:2061C00010B50446006830B1002100F04FFB54F8040F0028F8D110BDF0B50388054683B041
:2061E00033B14A2B18D188291BD0012003B0F0BD1B4800F055FD044630B1A168201D00F03A
:2062000083F92468002CF8D10122164B1A704A2301202B8003B0F0BD002303202B8003B036
:20622000F0BD0F48019200F03BFD04460028EED0019A031D9A4205D02468231D002CE6D055
:206240009A42F9D1084E2146054800F077FDD4E90523376832600BB1E06998473760D6E7DC
:20626000C41100206D3B00207813002010B50024054B06481C7000F00FFD2146BDE810404B
:20628000034800F0F3BA00BF6D3B0020C41100200C060020F8B50E4C0E4D27782E68044687
:2062A000C0E90623466137B981602146BDE8F840094800F0F7BC094B04302B6000F024F93C
:2062C00021462E600448BDE8F84000F0EBBC00BF6D3B002078130020C41100200C060020B0
:2062E00070B50C4B04461B782BB92146BDE87040094800F0D7BC094D094B2E6804302B60D2
:2063000000F00CF921462E600348BDE8704000F0C9BC00BF6D3B0020C41100207813002057
:206320000C06002010B50A4B04461B783BB9C0E903332146BDE81040064800F0FFBC0430D8
:2063400000F00EF92146BDE81040024800F0F6BC6D3B0020C411002038B50C4B04461D781E
:206360006DB90B4800F09CFC38B1A04202D10BE0844209D000680028FAD1012038BD04304F
:20638000BDE8384000F0D4B8002038BD6D3B0020C4110020704700BF10B5FCF7EDFC0B4B25
:2063A0001A68D2E9003192680B44191A52B1D2E9003423441B1A9268994228BF1946002A20
:2063C000F5D14318024A136010BD00BFCC110020C81100202DE9F8430388054653B3592BAA
:2063E0002BD187292ED082291FD14FF000092B4FDFF8AC803C68C4B1002603E0A3682646FA
:206400009BB11C46204600F039FC0028F6D022468821E06800F0F4FA00282BD0404600F085
:2064200021FBA3682646002BEBD159232B800120BDE8F883194A1360F7E700232B800320D5
:20644000BDE8F883154F0020396819B9EDE789680120D9B1CB689342F9D000B139608B68A7
:20646000002BE2D0D86890420BBF9B6819468B609B68F5E7A368E0606EB1B3603B68C4F85B
:2064800008902BB1FFF788FF3C68B4E73960CCE7044A1360C9E73B60F1E700BFCC110020E0
:2064A0001C060020C811002010B50446104800F0D9FA1049E3680A684BB142B194420FD0BD
:2064C000134601E09C420BD09B68002BFAD10A4BA2601B680C60E360BDE81040FFF75CBF41
:2064E000054B1B68E360BDE81040FFF755BF00BF1C060020CC11002078130020014800F0A5
:20650000B1BA00BF1C06002010B5044600F0A0FB2046BDE81040FFF7C7BF00BF10B50446D0
:2065200000F09EFB2046BDE81040FFF7BDBF00BFC068B0FA80F04009704700BF024B186878
:20654000003818BF01207047CC110020024B186808B1024B18687047CC110020C811002057
:2065600010B5124B04461968814214D00B462BB19A68A24206D01346002BF9D10023C4E980
:20658000023310BDA2689A6049B1FFF705FF0023C4E9023310BD82681A60002AF5D10022B9
:2065A000034B1A600023C4E9023310BDCC110020C811002000B58BB002462821684606F026
:2065C00005FD6946024802F091FB0BB05DF804FB30FE000028B32DE9F0410025044601264D
:2065E000114FDFF8488065B1EB070FD53846217802F07CFB082E12D0013501360134002D49
:20660000F2D13846217802F071FBF5E7404602F06DFB3846217802F069FB082EECD1BDE881
:20662000F081034802F062BB50FE00004CFE000058FE0000042900D97047F8B50D46064698
:2066400001460C4808F092FE0B4C0746216851B157B9D4E90123AB42A8BF2B46136054F873
:206660000C1F0029F4D1F8BD304608F07FFE0028EFD0F4E7980001002C060020D0B1F8B586
:206680000E4F396899B106463D46002403E055F80C1F013459B1304608F068FE0028F6D162
:2066A00004EB440407EB840463681868F8BD4FF0FF30F8BD4FF0FF30704700BF2C060020D0
:2066C00004289ABF024B53F820000248704700BF0C05010084040100034A04499079D37933
:2066E00003EB00230B807047BC140020483B00202DE9F84FDFF8C8800546D8F800400E4689
:20670000844257D0002C43D0234601E0002B3FD01B689D42FAD1002B3AD02A4FAB7BD7F8F9
:20672000009053B30023AB73002C45D04FF0020A4FF0010BA54211D0A37BDB070ED5A368F5
:2067400063B12A4687213C6084F80EA004F10C0098470238012828D984F80EB02468002C11
:20676000E8D1AB683BB1B54205D0002283213D6005F10C009847D8F80040A5420AD02CB1A3
:206780002368AB420CD01C46002CF9D1C7F80090BDE8F88F2B68C7F80090C8F80030F7E722
:2067A0002B682360C7F80090F2E721462046FFF79FFFD3E72346AEE7AB68002BD3D1E5E7D4
:2067C0007C1300207813002038B583687BB104460220A07309480D46046004F10C009847F4
:2067E0000238012804D9832D02D00123A37338BD21462046BDE83840FFF77ABF78130020E4
:206800000022F8B51249134B0C681A70D4B101250227114E01E02468A4B1E37B002BFAD0AA
:20682000A36804F10C00E581002BF4D0002282213460A77398470238012804D9A5732468C1
:20684000002CEAD1F8BD21462046FFF751FFE2E77C130020713B002078130020024B1878BD
:20686000421C1A70704700BF6F3B0020F8B5164A1568854207D0044635B12B4600E01BB17B
:206880001B689C42FBD1F8BD002CFCD025600126146000220D4DA3682F68A673A2815BB198
:2068A0000A4602212C60A17304F10C00812198470238B04202D9A6732F60F8BD2146204612
:2068C000FFF716FFF8E700BF7C13002078130020014B1968FFF70CBF7813002000234FF01A
:2068E0008A0C074A10B4074813700749074A084C80F800C00B701360236010BC704700BF3B
:206900006E3B00206F3B0020703B0020781300207C1300202DE9F8432E4D2B78FBB92E4E20
