:020000040000FA
:20000000005000202110000019100000FD0F00001D1000001D1000001D1000000000000083
:200020000000000000000000000000001D1000001D100000000000001D1000001D1000000C
:20004000F53000001D100000293A00001D10000039280000D92D00001D1000001D100000FD
:200060001D1000007D3A00001D1000001D1000001D1000001D1000001D1000001D1000008E
:200080001D1000001D1000001D1000001D1000001D1000001D1000001D1000001D100000F8
:2000A0001D1000001D1000001D1000001D1000001D1000001D1000001D1000001D100000D8
:2000C0001D100000ED480000294B1B689B0702D44FF000407047F0B5452183B0002002F0C9
:2000E00023FA022201200DF1060101F0BFF838B901A8022101F0DCF84FF0004003B0F0BD90
:20010000022200200DF1060101F0B0F80028EFD0BDF806305BBAC3F303309CB2ADF8043006
:2001200009F0BEFB09F050F80646C4F30B000F4609F0C6FB0CA3D3E9002304460D4630460E
:20014000394609F027FC02460B462046294609F021FC09F0CFFE074909F0ACF90AF028F8B2
:2001600003B0F0BDAFF300807B14AE47E17A843F680800200000C84208B51F4B1A68032AEB
:2001800033D1421E012A03462FD81C491C4A012B0988108811D009F083FB0022194B09F089
:2001A000F9FB0022184B09F0F5FB09F0A3FE174909F080F909F0FCFF08BD084609F070FB06
:2001C0000022104B09F0E6FB09A3D3E9002309F0E1FB00220E4B09F025FA09F08BFE0B49FF
:2001E00009F068F909F0E4FF08BD4FF0004008BD0000000000A06440700800209C18002010
:200200009A1800200000F03E000059400000C84200004440000000002DE9F041704B1B6832
:2002200053B30646062200216E480AF01FFA16F038085AD172071FD002F07AFA6A4C6B4DAD
:200240002746286006E002F073FA2B68C31A0A2B40F18D806821012002F066F901223946E4
:200260003A2001F003F80021084602F05DF92378002BE8D0DB0704D44FF000484046BDE897
:20028000F081584C6821012002F04EF906222146432000F0EBFF054600286CD02346A01DC5
:2002A00019785A7859701A7002338342F8D10021084602F039F9042E6AD0022E70D0012E27
:2002C000DCD1B4F9040009F0FBFA43A3D3E9002309F08AFC09F00EFE454909F0EBF809F026
:2002E00067FF80464046BDE8F08102F021FA3E4C3E4D2746286005E002F01AFA2B68C31AC4
:200300000A2B48D56821012002F00EF9012239463A2000F0ABFF0021084602F005F9237858
:20032000002BE9D0D907A7D52E4C6821012002F0FBF8214606223B2000F098FF0021054697
:20034000084602F0F1F8002D3DD02346A01D19785A7859701A7002339842F8D1202E22D046
:20036000102E2DD0082E33D04FF0000886E72378DB0781D585E74FF000482046062100F012
:2003800097FF2846294602F0CFF84046BDE8F081B4F9000097E72378D9077FF56DAFC3E7B5
:2003A000B4F902008FE7B4F9000001F0D1FA104909F080F809F0FCFE80464046BDE8F08190
:2003C000B4F90200F1E70621204600F071FF53E7B4F90400E9E700BF00000000006060402F
:2003E000C008002098080020A9180020C40800200000C842000000002DE9F04F23F0004BCB
:2004000080465BEA020014461D460E4693B016D143467D49DB1886F400225241984271EBED
:20042000020324D2404622462B46314609F0FCF8CDE90001DDE9000113B0BDE8F08F114642
:20044000724A26F0004991459A463746434617DD07F1404707F580171F43E3D122196A49BB
:2004600085F400235B41974271EB0303DAD30023674CCDE90034DDE9000113B0BDE8F08FEE
:2004800040D0624A9345E3DC00F09380002F73DB0022029279B95D4A934500F08E805C4A7E
:2004A000934500F0A280BAF1804F00F0A084594A924500F0C68340463146049308F0F0FF96
:2004C000049BCDE900015BB3029AFB0F013B0A93134300F09380504B9B4540F3A38003F11B
:2004E00004739B454D4B40F31B84994540F39184BAF1000F40F39184002013B0BDE8F04F4C
:2005000008F0C8BF002B8DD1BBE740463146029308F0C6FF029BCDE90001002B6ED102938F
:20052000B9F1000F04D03A4B27F040429A42CBD1BAF1000F07DADDE900230020344909F07E
:2005400053FBCDE90001002FBFF674AF029B09F1404909F5801959EA030340F06E84DDE9A7
:2005600000231046194609F05DF802460B4609F03BFBCDE900015DE7294A93452FDCA2F1A9
:20058000547293450FDD4FEA2B52A2F2FF32142A40F34584C2F1340221FA02F000FA02F238
:2005A0008A4200F077840022029200293FF477AF81E700293FF46AAF4AE709F1404202F5CB
:2005C000801213433FF453AF144B994540F36D83BAF1000FC0F26383CDE900452AE702221C
:2005E000029200293FF457AF65E7BAF1000FC0F2F48340463146CDE900011BE74246404612
:2006000033463146AFE700BF0000F0FF0000F07F0000F03F0000E03F0000E041FFFFEF3F9C
:20062000FFFF3F43D44B3B40002B40F04783DDE900010022D14B09F0ADF96FF03402894673
:20064000CDE900014FEA2953A3F2FF339A18CC4BC9F3130949F07F5699450B9246F44016AD
:2006600007DDC84B994540F3F58301320B92A6F580160022002300200027C349CDE9082380
:20068000CDE90601CDE91023DDE90001DDE906233146824608F0C6FFDDE90623B346804654
:2006A000894650463146CDE90CAB08F0BDFF02460B460020B44909F097FA8C4683466346B9
:2006C0005A4640464946CDE90EBC09F063F982468B46731043F0005303F50023D9190F468C
:2006E0005A46514600230020CDE900120093064602463B46CDE904ABDDE900AB5046594605
:2007000009F048F902460B464046494608F08AFFDDE90623804689463046394608F082FF7E
:2007200002460B46DDE90C0108F07CFF52465B4609F030F902460B464046494608F072FF68
:20074000DDE90E2309F026F9DDE90467CDE9060132463B463046394609F01CF974A3D3E9CD
:20076000002306460F4609F015F973A3D3E9002308F05AFF32463B4609F00CF970A3D3E9A2
:20078000002308F051FF32463B4609F003F96EA3D3E9002308F048FF32463B4609F0FAF8ED
:2007A0006BA3D3E9002308F03FFF32463B4609F0F1F869A3D3E9002308F036FF32468046E5
:2007C00089463B463046394609F0E4F802460B464046494609F0DEF806460F46DDE9040116
:2007E00052465B4608F020FFDDE9062309F0D2F832463B4608F018FF5246804689465B4621
:200800005046594609F0C6F802460B46CDE90C2300225E4B08F008FF42464B4608F004FF90
:2008200000260F4632463B465046594609F0B2F8002282468B4630463946544B08F0F2FE35
:20084000DDE90C2308F0EEFE02460B464046494608F0E8FEDDE9042309F09CF8324680467B
:200860008946DDE906013B4609F094F802460B464046494608F0D8FE804689460026424617
:200880004B465046594608F0CFFE35A3D3E9002330460F4609F07EF852465B4682468B460A
:2008A0003046394608F0BEFE02460B464046494608F0B8FE2CA3D3E9002309F06BF80246E1
:2008C0000B463046394616461F4629A3D3E9002309F060F802460B463046394608F0A4FEED
:2008E000DDE9102308F0A0FE06460B980F4608F0E7FF8046894632463B4650465946CDE9CE
:2009000004AB08F091FEDDE9082308F08DFE4FF0000A42464B4608F087FE42464B4650469F
:200920008B4608F07FFEDDE9082308F07BFE2FE0EF4E454A287ECA3F65DBC9934A86CD3F0D
:2009400001411DA96074D13F4D268F515555D53FFFAB6FDBB66DDB3F033333333333E33F45
:20096000000000E009C7EE3FFD033ADC09C7EE3FF5015B14E02F3EBE0000F07F0000404325
:200980008E98030079B60B000000F03F00000840DDE9042308F046FE02460B4630463946C6
:2009A00008F040FE029B0A9A013B13434FF000020CBFD54BD54BCDE90045CDE902230023E9
:2009C0000093DDE90089CDE9040142464B462046294608F027FE52465B4608F0DBFF2246FC
:2009E00006460F46DDE904012B4608F0D3FF02460B463046394608F017FE42464B46064650
:200A00000F465046594608F0C5FF04460D4630462B463946224608F007FEBD4B804699427F
:200A200089468A4640F3178101F13F4303F5E003034340F02482A2A3D3E9002330463946C8
:200A400008F0F2FD02460B46404649469046994622462B4608F0E6FD02460B4640464946EA
:200A600009F028FA002840F00A82CAF30A534FF480120020A3F2FE3342FA03F35344A549EB
:200A8000C3F30A52A2F2FF3241FA02FCC3F3130B23EA0C01C2F114024BF4801BBAF1000FFB
:200AA0000B464BFA02FB294602462046B8BFCBF1000B08F0B7FD04460D46304639462246A2
:200AC0002B4608F0B1FD89464FEA0B5A4FF000087DA3D3E900234046494608F05BFF22467D
:200AE0002B4604460D464046494608F09BFD02460B463046394608F095FD75A3D3E9002334
:200B000008F048FF74A3D3E9002306460F464046494608F03FFF02460B463046394608F02E
:200B200083FD8046894642464B462046294608F07BFD22462B4606460F4608F073FD024618
:200B40000B464046494608F06DFD3246804689463B463046394608F01DFF61A3D3E9002353
:200B600004460D4608F016FF5FA3D3E9002308F059FD22462B4608F00DFF5DA3D3E90023E0
:200B800008F052FD22462B4608F004FF5AA3D3E9002308F047FD22462B4608F0FBFE58A35D
:200BA000D3E9002308F040FD22462B4608F0F2FE02460B463046394608F034FD04460D460C
:200BC00022462B463046394608F0E4FE02460B462046294614461D4600224FF0804308F026
:200BE00021FD02460B462046294608F0FDFF424604460D464B463046394608F0CBFE424681
:200C00004B4608F011FD02460B462046294608F009FD32463B4608F005FD02460B46002025
:200C20003A4908F0FFFC8A44BAF5801FC0F223815146DDE9022308F0ADFECDE90001FFF7FA
:200C4000F9BB002FFFF637AC4046314613B0BDE8F04F08F02FBBDFF8C0C021F00043634500
:200C600040F3CF802D4B0B4403430AD122462B4608F0D8FC32463B4609F012F900283FF40D
:200C8000F4AEDDE902010022002309F0F5F8003818BF012013B0BDE8F04F08F0F5BB00231C
:200CA0000024CDE90034FFF7C5BBBAF1000FF6DA05F1004300940193FFF7BCBB0022C1E491
:200CC000FE822B654715973C00000000432EE63FEF39FAFE422EE63F396CA80C615C20BE96
:200CE000D0A4BE726937663EF16BD2C541BDBB3E2CDE25AF6A56113F93BDBE166CC1663F3E
:200D00003E5555555555C53F0000F0BF0000F03FFFFF8F40FFFF0F00FFCB904000346F3FB4
:200D2000994576DB724B99453FF7E2ABDDE9000100226F4B08F076FC61A3D3E900230646EA
:200D40000F4608F027FE60A3D3E9002382468B463046394608F01EFE0022CDE90001654B14
:200D60003046394608F016FE02460B4658A1D1E9000108F057FC32463B4608F00BFE024698
:200D80000B4600205C4908F04DFC32463B46804689463046394608F0FDFD02460B46404668
:200DA000494608F0F7FD4CA3D3E9002308F0F2FD02460B46DDE9000108F034FC06460F46DA
:200DC0005046594632463B4608F02EFC52464FF0000A5B4650468B46DCE5424600203346F8
:200DE000434908F001FFCDE90001FFF723BB424640463346314608F0CDFDCDE90001FFF777
:200E000019BB3D4A934256DCDDE90023924693465CE6BAF1000FFFF66FAB00203AE7002961
:200E20007FF473ABC2F114024BFA02F000FA02F25A4539D00291FFF732BB029B012B7FF4D9
:200E4000F9AADDE90045224605F10043CDE90023FFF7F0BA0022294B4FF48027CDE906236B
:200E60001FA3D3E90023CDE908231FA3D3E90023CDE9102308E45A4600F042F8D9E60022CF
:200E8000DDE90201002308F0F7FF003818BF0120FFF733BB00F00100C0F102020292002901
:200EA0003FF4FDAAFFF707BB00F00100C0F102020292FFF7F4BA1B15D9E500BFAFF30080F3
:200EC000000000604715F73F44DF5DF80BAE543E555555555555D53FFE822B654715F73FA9
:200EE0000000004003B8E23F06D0CF43EBFD4C3E0000F03F0000D03F0000E03F0000F83FE8
:200F0000C1F30A5370B58C4604460D4616467BBB034621F0004C5CEA030328D0324B002211
:200F200008F038FD314B04469E420D461ADB8C46C1F30A53363B40F2FE723344934220DC58
:200F4000002B3EDC13F1350F2CDA4CF250339E4217DC05F0004343F0D27141F4B731244833
:200F600041F01F011CA3D3E9002308F013FD70BD40F2FF7E7345DED102460B4608F054FB57
:200F800070BD05F0004343F0FC4141F45F1141F4105113A3D3E90023164841F03C0108F0E8
:200FA000F9FC70BD2CF0FF4C03F136012CF4E00C4CEA01550022204629460F4B08F0EAFCB6
:200FC00070BD2CF0FF4C2CF4E00C20464CEA035170BD00BFAFF3008059F3F8C21F6EA5013A
:200FE0009C7500883CE4377E00005043B03CFFFF59F3F8C29C7500880000903C4FF0E02359
:20100000D3F8282DB2F5806F04D0D3F8283D9B0500D4FEE7704700BFFEE700BFFEE700BFFF
:2010200008B506F039FC104A10498A420DD2104801390346891A21F003010431014453F812
:20104000040B8B4242F8040BF9D10A480A494FF000028842B8BF40F8042BFADB04F0AAF9A7
:20106000FFF7CCFF08BD00BF00000020790700208DB4000080070020C4180020F0B50027BB
:2010800006463C463D4683B0304605F0E7F90195019B9C4206DD00BF019B01330193019BCF
:2010A000A342F8DB304605F007FA0195019BC4F5C8749C4206DD00BF019B01330193019B65
:2010C000A342F8DB0137B7F5487F06D0B7F5C87FD4BF3C46C7F54874D6E703B0F0BD00BF7B
:2010E00070B54FF08054194DD4F8D831284601215B6898470122D4F8D83111461B6828460B
:20110000984706F097FA02F04DF801F0CDFF00F007FE05F09DF905F0FDF90120FFF7AEFF46
:2011200001230B4ED4F8B01105F5B825F360094AAB600B691020D26A984706F07FFA01F0FE
:20114000F9FABDE870400020FFF798BF00400340004009400020094008B541F2342003F02E
:20116000E9FA01F0B1FD05F06BFA074801F0E0FD0648082101F07CFC05F0F6F8BDE80840C6
:201180000220FFF77BBF00BFE9650000FC0F002008210023F0B585B00DEB0100CDE90033BD
:2011A00001F066FCBDF80E40254D64BAEE6A4AF6CD31A4B20220B04721460320B0471A2188
:2011C0000120B04708226B6B0DEB02010B201D4F984701206946AC6AA0473B68022B1ADCF3
:2011E000022001A9A04778B93B68022B08DC0021154804F0CDFC0020FFF740FF05B0F0BD65
:201200000199124806F0A8FF3B68022BEFDD104806F0A2FFEBE70F4A0F49104806F09CFF46
:201220000F4806F099FF3B68022BD9DD0A49094A0A4806F091FF00990A4806F08DFFCFE7A2
:2012400000AC0000D8060020EC06002034AB0000F8AF0000E4AA0000F4AA0000FCAA00007A
:201260000CAB000024AB000001F0E4BD00B58E46844683B01346012172460DF107008DF813
:2012800007C001F041F803B05DF804FB074B18703AB101EB020C11F8010B614503F8010FD1
:2012A000F9D101320148D1B200F06ABEB007002029B1CC23014401F8013D8142FBD17047EB
:2012C000813801289ABF024B18680020704700BFEC0700200322024B02481A6004F082BFF2
:2012E000EC07002074AB0000594B1B68032B40F0AB80431E012B2DE9F041044600F2A180DB
:20130000544D06220021284609F0B0F97721002001F00AF906222946F720FFF7A7FF0028B5
:2013200000F087802A79EB784B4895F800E095F801C0A97812016D7942EA033242EA151690
:201340000588B0F90A70C5EB121202FB02F3B0F904201B1302FB03F36D00B0F90220C5EB41
:20136000D60502FB05F59B1303EBE5235E10A6F57A46B51005FB05F5B0F908204FEA6538C8
:2013800006FB02F208FB07F7521002EBE7029214C78802F5004207FB02F2D213836146D01C
:2013A000090941EA0C1CB0F90E10ED1201FB06F6B0F91010760001FB0565B0F90C602749E0
:2013C000360406EBA5054CEA0E3E0EEB253E01FB0EFE0EF1434E0EF5A00EBEF1000FB3BFE1
:2013E000BEFBF2FE4FEA4E0EBEFBF2FE4FEA4E0E4FEADE0202FB02F2B0F91610B0F914508B
:20140000520B01FB02F2B0F912104FEA9E0005FB00F0401300EB223008440EEB2010012CBB
:2014200003D103EB830080300012BDE8F0811046F5E728460621FFF73BFF4FF00040BDE874
:20144000F0814FF00040F0E74FF00040704700BFEC070020F0070020D0070020CBF3FFFFF3
:2014600030B5802883B005D0812828D02D4B186803B030BD01242B4D772100202C6001F0CC
:2014800053F81C2228498820FFF7F0FEB62322460DF10701E0208DF80730FFF7F7FE772140
:2014A000002001F041F8002322460DF10701F4208DF80730FFF7EAFE286803B030BD194D0D
:2014C00028680028D4D00C46B9B17721002001F02BF825230DF107010122F4208DF80730E7
:2014E000FFF7D4FE00230321104A114804F096F8022318462B6003B030BD0D4804F0B4F805
:201500002046772101F010F801220DF10701F4208DF80740FFF7BAFE012318462B6003B05D
:2015200030BD00BFEC070020D0070020D5120000F8070020813801289ABF024B18680020C7
:20154000704700BF200800200322024B02481A6004F048BE200800208CAB0000314B1B681F
:20156000032B5CD1820770B5044626D0032809D0012804D0022820D12B4B186870BD2B4B6D
:20158000186870BD2A4D4421002000F0CDFF022229460420FFF76AFE58B12B885BBA2B8055
:2015A0005B0406D5234D022229460120FFF75EFE30B904211F48FFF77BFE4FF0004070BDEB
:2015C00002222046A918FFF751FE0028F1D02888164E40BAC0F38D0008F096FD4FF07451B5
:2015E00007F068FF044668880F4D40BAC0F38D0008F08AFD4FF0745107F05CFF0E4907F09A
:2016000059FF08F0D5FD03460B492046336007F051FF08F0CDFD03462B60012070BD4FF0A8
:2016200000407047200800201808002024080020981800201C08002000007A44802838B578
:2016400004D0812827D02A4B186838BD4FF08054D4F8B43101209B6B9847D4F8B4314FF46E
:20166000804101209B699847D4F8B4314FF08041DB69012098474421002000F055FF0222C3
:2016800000231C4910460B80FFF700FE0123184A1846136038BD164D28680028D5D00C468F
:2016A000A1B14421002000F03FFF02221023114910460B80FFF7EAFD002324210E4A0F489F
:2016C00003F0ACFF022318462B6038BD0B4803F0CBFF2046442100F027FF022205491046B0
:2016E0000C80FFF7D3FD012318462B6038BD00BF2008002098180020491500002808002011
:20170000014B1868704700BF6808002000B5452183B0002000F008FF022201200DF1060148
:20172000FFF7A4FDBDF90630002B08DB00231021074A084803F072FF03B05DF804FB06486A
:2017400004F050FD0222054B1A6003B05DF804FB0D17000048080020A4AB000068080020E0
:2017600070B5802882B01DD081282ED10C4679B301244521002000F0D7FE41F2C203214886
:201780000DF10601046002222046ADF80630FFF77DFD002310211C4A1C4803F03FFF204656
:2017A00002B070BD174D45212B68002003F0020400F0BAFE4FF48653022201200DF10601C6
:2017C0002C60ADF80630FFF761FD002002B070BD0C4E0E4803F048FF33682046452103F00B
:2017E000020500F0A1FE4FF4865302220DF1060101203560ADF80630FFF748FD204602B02A
:2018000070BD00BF680800200D17000048080020813801289ABF024B18680020704700BF1A
:2018200070080020032138B5114C124A2378116033B9012310482370BDE8384004F0D2BCA0
:201840000E4D4321002000F06FFE0421284600F0B5FC00212070084600F066FE2A886B8820
:201860000748084952BA5BBA02800B80E1E700BFA618002070080020BCAB00006C080020A2
:201880009C1800209A18002030B5802883B005D0812827D0274B186803B030BD0024264B46
:2018A000264D0422214626481C802C8008F0DEFE2046432100F038FE022210230DF1060152
:2018C0001046ADF80630FFF7E1FC02461D4B204621461A7000F028FE01231846154A136093
:2018E00003B030BD134C20680028D5D069B1154D2B7893B900230321134A144803F08EFEAA
:2019000002231846236003B030BD104803F0ACFE01231846236003B030BD4321002000F013
:2019200003FE002000F000FC00212870084600F0FBFDDFE7700800209A1800209C180020A7
:201940006C080020A6180020251800007408002008B5174B1B78032B28D8DFE803F0151E6F
:201960000C0207F0ADFF00224FF07D5308F012F808F0C0FA08BD07F0A3FF00220D4B08F001
:2019800009F808F0B7FA08BD07F09AFF00220A4B08F000F808F0AEFA08BD07F091FF0022D3
:2019A000064B07F0F7FF08F0A5FA08BD002008BDA71800200000303F0000103F0000203FAC
:2019C000813801289ABF024B18680020704700BFC00800200222024B02481A6004F002BC9A
:2019E000C0080020D4AB000010B56821012000F09BFD3F23094C012221466C202370FFF733
:201A000045FC4F23214601226B202370FFF73EFCBDE810400021084600F086BDAB180020C1
:201A20008028F8B50CD0812807D111F03F0135D12F4BD3F88030DB0443D42E4B1868F8BD14
:201A40004FF08054D4F8B43107209B6B9847D4F8B4314FF4005107209B699847D4F8B431B6
:201A60004FF080410720DB699847D4F8B4310C20DB6B9847D4F8B4314FF440724FF4806150
:201A80000C209B6A98474FF48054002218481A4B1849C0F8A0401A600868F8BD4FF4805786
:201AA0000124154B124E134D1960144AC6F890700023082112482C6003F0B0FD20462C6088
:201AC000F8BD0D4B0E48196003F0CEFDFFF78CFF0C4AD2F8043813F00103FAD14FF48050AA
:201AE000044A03491360C1F8A0001068F8BD00BF00200240C008002094080020091B00006A
:201B0000A0080020002000402DE9F041364C236813F0380F28D1354D03F03F042E785EB991
:201B2000002C3BD1FFF760FFBDE8F041002305212F4A304803F072BDE3B22B70002CF1D0C9
:201B40002D4FDB43682101203B7000F0EDFC012229496C20FFF79AFB0021084600F0E4FCD2
:201B6000264805F06FFDDFE7254F3A78002AD2D00025244E68210120357000F0D5FC3146C0
:201B800001221C20FFF782FB06462946284600F0CBFC2368002EBED03D70BCE76821012052
:201BA00000F0C2FC0923144F012239466B203B70FFF76CFB3F23012239466C203B70FFF782
:201BC00065FB01220F491C202E70FFF75FFB012239463A20FFF74AFB3146304600F0A4FC4C
:201BE000E3B22B70ADE700BF94080020AA180020D5190000A0080020AB1800208038010072
:201C0000A7180020A81800200022014B1A707047AC18002070B500244FF08055174B184853
:201C20001C7001F03BFA174AD5F8B811D368204623F00103D3600B6A9847D5F8B8312046A0
:201C40009B6A9847D5F8B83120461B6B984701210D4B0E4A9962936A9B07FCD54FF08054CF
:201C6000D4F8B43115209B6B9847D4F8B4310021BDE8704015201B6A184700BFAC180020B6
:201C80004005002000000140002008600020084010B54FF08054D4F8B83104205B6998475A
:201CA000D4F8B83104205B6B98470128F8D110BDFFF7EEBF032801D000F0FCB808B5FFF7F1
:201CC000A9FF114B00219B68812098470F4B00219B68812098470E4B00219B688120984761
:201CE0000C4B00219B68812098470B4B00219B68812098474FF48052084BC3F8A020BDE867
:201D0000084000F0D7B800BF74AB0000A4AB00008CAB0000BCAB0000D4AB00000020024050
:201D200070B505F087FC0646FFF7B2FF4FF08053D3F8B8314FF4A060DB6998470121414B39
:201D4000414A9962936A9B07FCD54FF080544FF4005500F07FF8FFF757FF002005F068FBB7
:201D60003A4801F095F9D4F8B43119209B6B9847D4F8B431294619209B699847D4F8B431A6
:201D800018209B6B9847D4F8B431294618209B699847D4F8B43117209B6B9847D4F8B4316D
:201DA000294617209B699847D4F8B4311B209B6B9847D4F8B43129461B209B699847D4F8BF
:201DC000B4311E209B6B9847D4F8B4314FF480411E209B699847D4F8B4310D20DB6B984722
:201DE0001B4AD4F8B431C2F8A05000214FF480720D209B6A9847D4F8B43102209B6B984704
:201E0000D4F8B431294602209B699847D4F8B4310B209B6B9847D4F8B43129460B209B698D
:201E20009847D4F8B4311D209B6B9847D4F8B43129461D209B69984706B170BDBDE8704077
:201E400005F0FCBB0020086000200840540500200020024070B54FF08055D5F8B8310220FA
:201E60005B699847D5F8B83102205B6B984701280446F7D1D5F8B8314FF44070DB6998473B
:201E8000084B094A9C62936A9B07FCD5BDE870404FF08053D3F8AC310122044904481B68E0
:201EA000184700BF0020086000200840006CDC0200200040FF214FF0805310B52B4A0220DC
:201EC0001170D3F8B8315B6B984701280AD1284B1B6EDA0706D500232649274AC1F8043874
:201EE000C2F810344FF08053D3F8B8314FF440701B6A98470121214B1D4A9962936A9B0738
:201F0000FCD54FF08054D4F8B43108209B6B9847D4F8B4314FF4005108209B699847D4F803
:201F2000B43109209B6B9847D4F8B4314FF4005109209B699847D4F8B43105209B6B9847A2
:201F4000D4F8B4314FF4804105209B699847D4F8B43106209B6B9847D4F8B4314FF4804153
:201F6000BDE8104006209B69184700BF7607002000200840002000400000054200200860F0
:201F80002DE9F047664B674D1B7807465B00C5F8003803780E46C5F8083800F0C9FB00F5EA
:201FA000CC541934D5F804385B0608D500F0C0FB001B0028F6DB00242046BDE8F0870323E2
:201FC0000220C5F8043805F03DFB00F0B1FBDFF8548100F5CC541934D8F80438D80746D40A
:201FE0004FF08053D3F8AC314E485B68984710F00C0F7DD1012E40F28F800028DBD101241D
:20200000A046484D06F1FF39631E3B4402E00134B4423ED213F8012F4C45C5F80828F6D278
:202020000220C5F8048805F00DFB00F081FB00F5CC5A0AF1190AD5F80438D90710D44FF087
:202040008053D3F8AC3128465B68984710F00C0F824612D10134B44218D20028D4D0AAE7BD
:2020600000F066FBA0EB0A000028E4DBA3E700F05FFB001B0028AFDB9DE704230220C5F868
:202080000438013405F0DEFAA64294D8BAF1000F91D10523234D0220C5F8043805F0D2FA1E
:2020A00000F046FB00F5CC541934D5F80438DA0725D44FF08053D3F8AC311A485B689847EC
:2020C00010F00C0F044620D100F032FBB4FA84F400F5CC55134E64091935D6F804385B06CA
:2020E0007FF56AAF00F024FB401B0028F5DB62E704230220C8F8043805F0A4FA5BE700F09E
:2021000017FB001B0028D0DB55E704230220C5F8043805F097FAD7E700287FF44CAFB8E7C8
:20212000AD1800200020004070B5224B224D1B785B00C5F80038C5F8080800F0F9FA00F5D1
:20214000CC541934D5F804385A0606D500F0F0FA001B0028F6DB002070BD07230220C5F88A
:20216000043805F06FFA00F0E3FA134E00F5CC541934D6F80438DB070ED44FF08053D3F88A
:20218000AC310D485B68984710F00C0F044609D1B4FA84F0400970BD00F0CAFA001B00289D
:2021A000E7DBD8E704230220C6F8043805F04AFAEEE700BFAD180020002000402DE9F04FF4
:2021C0004F4BDFF840A11B7883B05B0043F00103CAF800388846019000F0AAFA00F5CC5453
:2021E0001934DAF8045815F0400508D000F0A0FA001B0028F5DB002003B0BDE8F08F0B2380
:202200000220CAF8043841F699164FF080573D4C08F1FF3B05F016FA5FFA85FADA452CDAE4
:2022200000F086FA00EB0609D4F80428D20716D4D7F8AC3120465B68984710F00C0F15D1C4
:2022400001350028D7D10923D4F808280199022001F80A20C4F8043805F0F4F9DCE700F0E4
:2022600067FAA0EB09000028DEDBC4E704230220C4F8043805F0E6F9BDE70523214E02206B
:20228000C6F8043805F0DEF900F052FA00F5CC541934D6F8045815F0010521D14FF08053A1
:2022A000D3F8AC3117485B68984710F00C0F1DD10028A0D1019AD6F80838424402F8013C6D
:2022C00000F036FA0F4D00F5CC541934D5F804385B0613D500F02CFA031B002BF6DB8AE72D
:2022E00000F026FA031B002BD3DB84E704230220C6F8043805F0A6F928467DE701207BE740
:20230000AD180020002000402DE9F84FDFF810A2844F9AF8004099466400C7F80048037828
:202320000546C7F808380E46904600F001FA00F5CC541934D7F804385B0607D500F0F8F9B3
:20234000001B0028F6DB0020BDE8F88F03230220C7F8043805F076F900F0EAF9714F00F5EE
:20236000CC541934D7F80438D80740D44FF08053D3F8AC316B485B68984710F00C0F3CD1BB
:20238000012E41D90028DED1013E0127DFF894B12E440DE04FF08053D3F8AC3158465B6820
:2023A000984710F00C0F1BD1AE422DD00028CAD115F8013F0220CBF80838CBF8047805F0E1
:2023C00041F900F0B5F900F5CC541934DBF80438D907DFD500F0ACF9001B0028F6DBB2E7DE
:2023E00004230220CBF8043805F02CF9ABE700F09FF9001B0028B5DBA5E704230220C7F8FA
:20240000043805F01FF99EE700289CD10B229AF80030444C5B0043F00103A8F10207C4F8EA
:202420000038022008F1FF3AC4F804284F4405F009F9574541F699154FF080561ED000F02A
:2024400077F900EB050BD4F80438DA0749D4D6F8AC3120465B68984710F00C0F48D10028FC
:202460007FF471AF0923D4F8082802200AF8012FC4F8043805F0E6F85745E0D10523294E96
:202480000220C6F8043805F0DDF800F051F900F5CC541934D6F8045815F001052FD14FF046
:2024A0008053D3F8AC311F485B68984710F00C0F2BD100287FF447AFD6F80838C84408F8D6
:2024C000013C00F035F9174D00F5CC541934D5F804385B0621D500F02BF9031B002BF6DB4D
:2024E00031E700F025F9A0EB0B000028ABDB2AE704230220C4F8043805F0A4F823E700F095
:2025000017F9031B002BC5DB1DE704230220C6F8043805F097F8284616E7012014E700BFB1
:20252000AD180020002000404FF0805370B53A4A04461170D3F8B83102205B6B984701282C
:202540003ED0FFF787FC354B1A78A24240D00022334D34491C70C5F80428C1F810241B78DA
:20256000002B36D0012B20D14FF08054D4F8B4314FF4C04108209B699847D4F8B4314FF406
:20258000C04109209B699847D4F8B431092208212846DB6C9847D4F8B43105209B6B9847DA
:2025A000D4F8B43106209B6B9847BDE870404FF08053D3F8AC3101221B4919481B68184786
:2025C0001A4B1B6EDB07BCD5144B1A78A242BED170BD4FF08054D4F8B4314FF4C0410520DC
:2025E0009B699847D4F8B4314FF4C04106209B699847D4F8B431062205212846DB6C984767
:20260000D4F8B43108209B6B9847D4F8B43109209B6B9847C9E700BFAD180020760700204C
:202620000020004000000542006CDC020020084010B54FF08054D4F8B83104205B699847ED
:20264000D4F8B83104205B6B98470128F8D110BD38B5002400254FF080531A4A0420C2E9C2
:202660000045D3F8B8315B6B9847012801D0FFF7DFFF4FF08053D3F8B8310020DB699847E5
:202680000121114B114A9962936A9B07FCD54FF080520F4C0F49E368204623F4807323F064
:2026A0000103E360D2F8C83104251B689847312040F221210122084B2560E063A1605A60C7
:2026C00038BD00BF80070020002008600020084000000140002100040000244310B504F029
:2026E000E9FE0023044C400E40EAC112C4E90023D4E9000110BD00BF8007002010B504F0BB
:20270000D9FE0023064C400E40EAC112C4E9002303F0B6F800B910BDBDE8104003F090B8FB
:2027200080070020704700BF0146012000F04AB804F0B4BE2DE9F84304F07CFF01254FF493
:2027400080724FF000094FF480334FF080561B4CDFF86C802321C8F800906560626063602C
:20276000D6F8843107461B6848469847D6F88431242128461B689847D6F884312521022016
:202780001B689847236843F4E0232360C4F8089004F084FE0346D6F8B02103F50073E3612E
:2027A000C8F8A052C8F800501420136998470FB1BDE8F883BDE8F84304F040BF00200940AC
:2027C00000002443431E012B10B419D9042815D100231A4610F004001CBF124C21621BB12E
:2027E0000121114BC3F880121AB101220E4BC3F8A02218B101220C4BC3F8C02210BC7047E7
:20280000012808D10346074A916110F0020204D0044CE161DEE70023F7E7002BEED01046BB
:20282000DEE700BF0020094000002443014B1868704700BFC808002010B5FFF779FF194B7B
:202840001860FFF75BFF184BD3F8A0307BB9164BD3F88020EAB9144BD3F8C02032B1002002
:202860004FF48031114AC3F8C002516010BD4FF480730E4C636004F011FE00F2052020F48D
:20288000FF70094B20F00100E061D3F88020002AE1D000200121054AC3F88002516003F06B
:2028A00071FAD8E7C808002000002443002009400122024BC3F8002C704700BF0000084019
:2028C00010B504F0B7FE114BD3F8002C012A0AD04FF0864201210E4C1C60C2F80411C2F8AA
:2028E000001178B110BD4FF086410A4CC3F8004C074C1C60C1F80421C1F80021C3F8002C00
:202900000028EFD1BDE8104004F098BE00000840502D190051E5CC1A0122014BDA60704736
:202920000000084008B5FFF7CBFFFEE770B5044604F080FE21460646114803F0F9FA1048C2
:2029400003F0F4FA38B101210E4B0F4AC3F8001253699B06FCD54FF08055D5F8A031606864
:202960001B689847D5F8A03160689B6898471128F8D106B170BDBDE8704004F05FBE00BFA2
:20298000CC080020000022430010094008B5064803F0CCFA38B10121044B054AC3F800124B
:2029A00053699B06FCD508BDCC080020000022430010094010B5A8B14FF0805C0021134CB9
:2029C000134A6368012023F4C0536360DCF8A031C2F88011C2F80012DB68984763699B0676
:2029E000FCD410BD04460B4803F0A0FA0028E3D005C814430028FBD1002CDDD0034A53683C
:202A000023F4C05343F40063536010BD0010094000002243CC08002038B5054604F00AFE8C
:202A200004462946054803F0B1FA0020FFF7C2FF04B138BDBDE8384004F000BECC080020AE
:202A400070B590B10E460024451E04E0A64206D000F04EF9013415F8010F0028F6D100F02B
:202A6000A1F90128FBD0204670BD0446F7E700BF10B40C4B0C4C1A780133FF2A0FD1A34227
:202A8000F9D10A4C49B10139631801381978A34200F8011F03F1FF33F8D110BC7047014CE1
:202AA000F0E700BFC8FF0100D0FF0100F012005038B54FF08055D5F8B83102205B6998471A
:202AC000D5F8B83102205B6B984701280446F7D1D5F8B8314FF40070DB699847034B044A16
:202AE0009C62936A9B07FCD538BD00BF0020086000200840F0B54FF0805540F2F27683B03E
:202B0000284CFFF7D5FFD5F8D0312046DB689847D5F8B03115205B699847A36BD5F8B421EB
:202B200023F4FE6323F00203A3636664D36B1D2098474FF000514FF0FF331B4A2046C2F855
:202B40009010D5F8B4210093176C1C211D22B847D5F8D02160232046576814494FF4E13289
:202B6000B847142240F2011340F201306263E26A0F4942F01002E2620A68002A18BF0346CA
:202B8000236366640B685BB11520A36BD5F8B02143F05003A363136903B0BDE8F040184796
:202BA00003B0F0BD0010004000200240006CDC02D00800204FF0805370B5D3F8B83104468C
:202BC0005B6B02209847012807D13B4BDB6ED80703D53A4A93691907FCD4032C47D0384B6E
:202BE0001B6803B170BD4FF08055D5F8B83102205B6B9847012858D12F4BDB6EDA0715D500
:202C00004FF080562D4DD6F8D0312846DB689847D6F8B03115205B69984740F2F272AB6B93
:202C200023F4FE6323F00203AB636A644FF08053D3F8B8314FF400701B6A9847032C25D027
:202C40000121204B1C4A9962936A9B07FCD51D2000F03AFA1C2000F037FA4FF0FF3000F0FA
:202C600033FABDE870404FF0FF3000F02DBA4FF08055D5F8B83102205B6B98470128BBD048
:202C8000D5F8B8314FF400701B6A98474FF08054D4F8B8314FF400709B6A9847D4F8B83153
:202CA0004FF400701B6B9847CAE7D5F8B8314FF400701B6A9847C3E700200840001000401C
:202CC000D00800200020086010B504F0B3FC0446054800F0DDF90022044B1A6004B110BD42
:202CE000BDE8104004F0AABC68050020D00800204FF0805310B5D3F8B83104465B6B022043
:202D0000984701280BD0FFF7F5FE4FF08053D3F8D0312146BDE810400348DB691847034B71
:202D2000DB6EDB07F1D4EEE70010004000200840184A10B51060D8B14FF080540221164A60
:202D4000D4F8B83111614FF400705B6A9847D4F8B8314FF40070DB6A984701210F4B104A93
:202D60009962936A9B07FCD5BDE81040FFF7C2BE03464FF08054084A4FF400701361D4F8DC
:202D8000B8319B6A9847D4F8B8314FF400701B6B9847E2E7D00800206805002000200860C3
:202DA0000020084008B54FF08053D3F8B83102205B6B984701280AD1064BD86E10F00100C5
:202DC00004D0A3F501239869C0F3C00008BD002008BD00BF0020084070B5FFF769FE40F26A
:202DE000F2720C4C236C626413F0500F0DD00A4D4FF0805606E0D6F8D03120461B69984799
:202E00002B681BB9A369DB06F5D570BDC0B29847EEE700BF00100040D00800204FF0E022F9
:202E2000D2F8103D23F00403C2F8103D30BFFFF773BD00BFF8B504F0FDFB02F063FF18B1D0
:202E4000BDE8F84004F0FABB884803F06FF80225044648B1636823B19847A84228BF28469B
:202E6000C5B22468002CF5D1FFF762FC804B0446D3F88032002B00F0D2807E4B9B691B1A08
:202E8000022B00F19680A3F28F23002BACBF02200120854228BF054602F0F2FC002840F0AD
:202EA0008E80012D00F0CB80022DC9D12846611EFFF788FC6D4803F039F8062504460028F5
:202EC00000F0AF80A3680BB1022098472369246825EA0305002CF5D1FFF71EFD6B0700F176
:202EE000A380002D40F0A38000F0BCF90020FFF761FD4FF08052604C3920236823F003035C
:202F00002360A36843F00F03A360D2F8B8319B6998470020594B20642064C3F8200404F0A6
:202F200067FF062D00F09D804FF080560027544C504D0321EB6AD4F82432524823F0030324
:202F4000C4F82432D6F8D8315B689847D6F8B8319B6B9847EB6A05F06BF84B4AD6F8D83131
:202F6000C2F88071474801215B6898470121D4F82432464A43F00303C4F82432D160EB6AAE
:202F800005F088F8FFF702FDFFF7B8FBFFF7C4FC364802F0CBFF044628B1E36803B198472D
:202FA0002468002CF9D104F049FBBDE8F84004F045BB02F065FC00283FF442AF002502F0D0
:202FC00067FC0646FFF78AFB361A002E7FF738AFFFF72CFC00EB46210B1BA3F28F22002AE6
:202FE00036DA002D3FF42CAF082B2ED404F58034631A31EA230128BF21460220FFF7E2FBA5
:203000004FF0E022D2F8103D23F00403C2F8103D30BFFFF781FCBDE8F84004F00FBB022018
:2030200037E7FFF779FC06250022184BDA604FF08053D3F8B83128469B69984754E70220A9
:2030400004F58031FFF7BEFBDAE704F10801D4E7012DC9D0022D7FF4F3AE2846FFF7B2FB82
:2030600028E7022004F08CFB5EE700BFD40800200000244300200940001009400000224316
:20308000002008400040034000000443004009400146014802F04CBFD4080020014601485C
:2030A00002F074BFD408002010B5064802F03AFFBDE810404FF08053D3F8843120210320C6
:2030C0001B681847D4080020431C10D04FF0805310B5D3F8B43104461B684FF4C042002119
:2030E00098470023024840EA8404236010BD7047001A4442034BD3F8E000C3F8E00003F0A4
:2031000093B900BF002002404FF0805370B5D3F8B4310C465B680546984714F00C0320F0F9
:20312000E06222F4EC2207D0042B23D0082B24D00C2B08BF42F4403214F0030310D142F442
:20314000C04223064FF08053D3F8B4312846BDE870404FF000011B6848BF42F480221847BE
:20316000022B04D0012B08BF42F48042E9E742F40052E6E742F40032DEE742F48032DBE767
:20318000074AD2F8D030C340DB074CBFD2F88030D2F8C03023FA00F000F00100704700BF7C
:2031A000002002400022412300B585B002A8CDE90223FFF7BBFB042004F0D2FA032805D127
:2031C00002A8FFF729FC05B05DF804FB0321042004F09AFA042004F0C3FA0328FAD11C2347
:2031E0004FF0405200210090044804F045FA02A8FFF712FC05B05DF804FB00BF00A00C406C
:203200000022412300B583B06846CDE90023FFF78DFB012004F0A4FA012803D00121032047
:2032200004F072FA6846FFF7F7FB03B05DF804FB0022412300B583B06846CDE90023FFF7A6
:2032400075FB012004F08CFA012805D04FF08053D3F8800004F0F8F86846FFF7DDFB03B0F5
:203260005DF804FB10B54123002482B06846CDE90043FFF75BFB0320214604F045FA0120AA
:2032800004F06EFA20B96846FFF7C6FB02B010BD4FF08053D3F8800004F0D6F86846FFF752
:2032A000BBFB02B010BD00BF70B5038804463BB140F2CB22934208D182290AD0012070BD94
:2032C00040F2CB232380012070BD00232380032070BD094B094E1D69FFF71EFB03F068FA32
:2032E00003F036FB8021A847002880B2E8DD03F029FBF3689847EFE700AC0000BCB20000BA
:20330000024BD3F89C0100F001007047002008404FF0FF332DE9F0412E4C804623602368E2
:203320000F460B6010F0030302D1028811050DD404F080F9284B0546D3F89C31DB071BD4DF
:20334000002D36D000252846BDE8F081438004F071F9214B0546D3F89C31DA07F0D5B8F8CB
:20336000003013F4405F07D003F44063B3F5006F04BF1A4BC3F80080194E4CF25032C6F8A7
:2033800000807368236003E07368013A236018D02368DBB2002BF7D085B123683B602568F8
:2033A000EDB2A5F10105B5FA85F56D092846BDE8F08104F043F92846BDE8F08104F03EF9D0
:2033C000EBE71DB1236800253B60BCE704F036F9F8E700BFD808002000200840DC08002032
:2033E000001004400B4A01E0013A11D0438803F44063B3F5806FF7D14388074A9BB2136087
:20340000428802F44062A2F58062B2FA82F252091046704720A10700D808002070B54FF01D
:20342000805482B004F006F9D4F8B03105461B6A19209847D4F8B03112201B6A9847D4F8EF
:20344000B03119205B699847D4F8B03112205B699847D4F8B83101205B699847D4F8B831FF
:2034600001205B6B98470128F8D1174A174BD0629862936A9B07FCD54FF080540022144BA1
:20348000D4F8B0111A615A6119200B699847D4F8B03112201B6998479DB140F2FF360024C2
:2034A0000C4B0D4A0D4D01A92E600D48DC611A60FFF72EFFA0F10100B0FA80F0400902B0F6
:2034C00070BD04F0BBF8E8E7002008400020086000100460001004405100070600000460CF
:2034E0000100060400B587B01422002101A807F0BDF84FF0010C40F60A0218499DF8113064
:2035000009686CF30303059101A86946ADF804208DF81130FFF7FCFE012803D0002007B095
:203520005DF804FB0E4801E00138F8D0BDF8063003F44063B3F5806FF6D1BDF80630094ADE
:203540009BB21360BDF8060000F44060A0F58060B0FA80F0400907B05DF804FBEC08002065
:2035600020A10700D808002000B587B01422002101A807F07BF84FF0010C40F609029DF80B
:20358000113069466CF3030301A8ADF804208DF81130FFF7BDFE012803D0C0B207B05DF873
:2035A00004FB134A01E0013A1CD0BDF8063003F44063B3F5806FF6D1BDF806300D4A9BB235
:2035C0001360BDF8063003F44063B3F5806F09D1094B1A7852B90122059808491A7008608E
:2035E0001046DBE7002007B05DF804FB0120D5E720A10700D8080020AE180020EC080020E9
:2036000030B54FF0805487B004F014F8D4F8B03105465B6919209847D4F8B03112205B6904
:203620009847334BD3F89C31DA072FD4FFF79CFF002001212E4A2F4BD0629962936A9B0720
:20364000FCD54FF08054D4F8B83101209B699847D4F8B83101205B6B98470228F8D1D4F893
:20366000B03119201B6A9847D4F8B03112201B6A9847D4F8B03119201B699847D4F8B03193
:2036800012201B6998476DB307B030BD00211A4B102219610124596102A806F0E7FF40F604
:2036A0000D029DF8153002A864F3030301A9ADF808208DF81530FFF72BFEA042B6D10F4AF8
:2036C00001E0013AB2D0BDF80A3003F44063B3F5806FF6D1BDF80A30094A9BB21360BDF8AE
:2036E0000A30A3E707B0BDE8304003F0A7BF00BF00200840002008600010046020A10700F6
:20370000D808002008B503F0DFFE052803460ED0032806D080B903220C4B0120C3F8D02145
:2037200008BD0222094B0120C3F8D02108BD074A0120C2F8D03108BD012801D0002008BDE9
:203740000521024AC2F8D01108BD00BF0020084008B5FFF763FE012804D1FFF7C3FE01287E
:2037600000D108BDFFF74CFF002008BD08B5FFF7FBFEFFF7B7FE012800D108BDFFF740FF42
:20378000002008BD38B5194B194A1978D2F89C210029184C18BF0024D30700D438BD03F05A
:2037A00049FF02464FF080550021134B134898615C611446D5F8B0211961136A19209847CE
:2037C000D5F8B03112201B6A9847D5F8B03119201B699847D5F8B03112201B699847002CEC
:2037E000DCD1BDE8384003F029BF00BFB0180020002008400000C0800010046000004080A1
:20380000094B1B782BB100231946084A116153617047074A074B0849002808BF1346034AAB
:2038200011615361704700BFB0180020001004600200C0800800C0800000C080044A054B28
:203840001178054A002918BF00235361704700BFB01800200000C08000100460014B1868DB
:20386000704700BFDC08002038B50B460446154600211A4606F0FAFE0122637B258062F381
:203880000303637338BD00BF014B1860704700BFE008002010B5064B06495C6806480C6073
:2038A00000234FF43441054A01F0B8FE012010BD00300440E8080020F4080020313900003F
:2038C000164B1B6843B370B59B68984708B9002070BD03F0AFFE0023114A124E5468326825
:2038E00014F1804143F10003914273F10003054603D3346065B1012070BDFEF719FF0A4A17
:203900000A4913680860013313603460002DF2D103F094FE012070BD00207047E008002094
:2039200000300440E8080020F0080020E408002010B5134B1B68B3B19B689847D8B9114C05
:20394000236A984701280ED1FFF7BAFF636A0446984744B1BDE8104000234FF434410A4A35
:203960000A4801F05BBE0023BDE810408021064A064801F053BEFFF7A3FF0446E9E700BF21
:20398000E008002000AC000031390000F408002070B5204E3368002B39D09B68044698475F
:2039A00008BB1D4D2B6A9847FFF78AFF6B6A98471A4BB4F1404F1D681CD83268184BB2F979
:2039C0000C101A68CB17891A63EBE273091945EB03052D0243F609520023080245EA116136
:2039E00006F00CFC70BDFFF76BFF0C4BB4F1404F1D68E2D9FEF79CFE0A4B1B68C3F17E4395
:203A000003F57203C34248BF05F1FF35D5E7184670BD00BFE008002000AC0000F008002031
:203A2000EC080020E408002010B5104BD3F89C31DA0704D4FFF7F2FC012800D010BD0C4CF3
:203A400023695B0204D46FF00042094B1A6110BD0122084B08481A7002F084F96FF48003C3
:203A60006FF000422361024B1A61F0E70020084000100460B11800207C05002008B5114B03
:203A8000D3F89C31D90704D4FFF7C8FC012800D008BD03F0CFFD0C4B1A6912020BD40A4B7D
:203AA0001A6912F00A0F1CBF6FF00A021A61BDE8084003F0C3BD6FF4000204481A6102F029
:203AC00051F9ECE700200840001004607C050020014B1878704700BFB218002008B5FFF75D
:203AE0000FFC30B1034B5888A0F10200B0FA80F0400908BD180900207D2901D90120704758
:203B000008B50A460146024806F03AFD002008BDEE0B002010B588B040F60202182102A8C2
:203B2000FFF7A2FE012211499DF818300968104C898823F00F03ADF81A1002A801A90794D4
:203B40008DF818308DF81620FFF7E2FB012802D0002008B010BD02A8FFF744FCA0F10100F8
:203B6000B0FA80F0400908B010BD00BFCC050020A0050020F8B50E4D00200E4E2C680E4F73
:203B800006E02379022B06D024682B68A34209D02379032BF5D133782BB124682B6801206C
:203BA000A342F5D1F8BD384602F0DCF80120EBE7E00B0020B01800207C05002030B583B0C2
:203BC000FFF74CFE0446FFF79BFB08B903B030BD0A4801A9FFF79CFB0128F7D1FEF7A8FD5A
:203BE0006FF03F052D1A03E0FEF7A2FDC542EDD5638803F44063002BF6D0E7E70100010451
:203C00000B280BD00C2801D001207047042A08D139B10A4B00201B680B607047082A00D1AB
:203C200009B902207047064A4B1E073112F8010903F8010F8B42F9D100207047140900202E
:203C400047090020082200B585B000210DEB020006F00CFD42F2034302A801A9ADF808301B
:203C6000FFF756FB20B19DF90A30803303D0002005B05DF804FB9DF80C0000F00C00A0F17F
:203C80000400B0FA80F0400905B05DF804FB00BF082210B584B00DEB0200002106F0E6FCDF
:203CA00002229DF80C3042F2034462F301038DF80C300CE0082200210DEB020006F0D6FC81
:203CC00002A801A9ADF80840FFF722FB38B19DF80C0000F00303022BECD004B010BDFF2087
:203CE00004B010BD2DE9F043DFF8CC8083B081460F46D8F80060FEF71BFD304D2D1A03E0A4
:203D0000FEF716FDC5421DD53479022CF8D0032C13D1D8F800100B7A062BDEB202DDB51F13
:203D2000BD4211DD00231D4628460A680B71C8F800200B7203B0BDE8F0830025284603B046
:203D4000BDE8F0833479E2E72A460931484606F017FC0422D8F80010F31CCB5C184F5BB2E4
:203D60003B70331DCB5C05363144164E03F03F030DEB0200337006F003FC0198FFF708FEB1
:203D8000114B124A1B7810605BB100222846D8F8003019681A72C8F800101A7103B0BDE80C
:203DA000F0833978042049B289B202F021FE2046317802F01DFEE8E7E80B0020F4FEFFFF86
:203DC00077070020AF180020B01800201409002030B583B0FEF7ACFC194C241A06E0FFF705
:203DE00031FF38B1FEF7A4FCC44203D5FFF788FA0028F4D101A91348FFF78AFA6FF03F04B1
:203E0000FEF796FC104D241A06E06888022808D1FEF78EFCC44203D5FFF772FA0028F4D1FB
:203E2000688842F20243984207D042F20743C01AB0FA80F0400903B030BD012003B030BD4C
:203E400000FEFFFF010001041809002008B5FFF757FA30B1044B5B88022B14BF02200120C5
:203E600008BD022008BD00BF1809002030B583B0FFF746FA30B1134C6388022B02D10120FC
:203E800003B030BD0F4801A9FFF742FA012802D0002003B030BDFEF74BFC6FF03F05094C60
:203EA0002D1A03E0FEF744FCC54209D560880228F8D1A0F10200B0FA80F0400903B030BD4D
:203EC0006088F6E71809002008B5FFF723FE012801D0002008BDFFF7C9FFC0B208BD00BF75
:203EE00010B5FEF725FC1A4C241A06E0FFF7AAFE38B1FEF71DFCC44203D5FFF701FA0028D1
:203F0000F4D1FFF7FDF9134C20B16388022B01D1FFF75EFFFFF774FBFFF7A4F900220E4B10
:203F200062801979022908BF1A710C4B1A79022A04BF00221A710A4B1A79022A04BF002211
:203F40001A71084B1A79022A04BF00221A7110BD00FEFFFF18090020B00900203C0A00200B
:203F6000C80A0020540B002008B5FFF7B1FD012801D0FFF7B5FF012008BD00BF10B5FFF76B
:203F8000A7FD012808D0FFF73BF9FFF7B9F928B11D4B5B88022B01D1012010BD4FF0010C4D
:203FA0004FF0840E19481A4B44791A496CF3830401601860A0F806E044714879164A6CF3D8
:203FC00083000A60A1F806E04871507959796CF383006CF383011360A2F806E0A3F806E0E8
:203FE00050715971FFF724F9FFF7B2FB012801D0002010BDFFF7C6FBFFF78CFD0128F7D172
:20400000BDE81040FFF732BF18090020B0090020540B00203C0A0020C80A0020F8B5002501
:20402000354E3648FFF734F8FFF76CFB8C222946304606F01BFB8C222946314806F016FBC4
:204040008C2229462F48304C06F010FB8C2229462E4806F00BFB2E4F2E4B80222946204653
:204060003E601E607D6006F001FB42F601032A4E2360A623304642F202024FF2F0012761ED
:2040800001272377E36820F8022B1940234AA369C4E901551A4094F83730C4E9085567F348
:2040A000030384F837301E4BE5830B43E3601D4B04F118011343A3611B4B02226361A5638F
:2040C00006F05EFA3A4604F11A01301D06F058FAFFF754FFB84202D02C462046F8BD044681
:2040E0001248FFF7D1FBFFF7D5FB2946104801F04FFD2046F8BD00BFB00900208C05002076
:204100003C0A0020C80A002018090020540B0020E00B0020E80B002098090020007C0080AC
:2041200000011AB10702FF6FA009002038AC00007C05002070B5FFF7CBFC012835D0FFF7E8
:20414000DFF8A8B3224E7388022B31D1FEF7F0FA204C241A06E0FFF775FD38B1FEF7E8FAFC
:20416000C44203D5FFF7CCF80028F4D1FFF7C8F8D8B100257388022B26D1FFF789FDFF2894
:2041800022D000F00300441E18BF012475B1FFF79FFC01280AD0FFF7A3FE204670BDFFF702
:2041A00097FC012801D0FFF79BFE0124204670BDFFF7E4FE01280446F1D1FFF7A1F8002867
:2041C000E5D02546024ED5E70124002DEED0DEE71809002000FEFFFF70B588B00546FFF703
:2041E0008FF800285AD03A4B5B88022B56D10024FEF79EFA6FF01F06361A07E0FFF722FDA9
:20420000012854D1FEF794FAC64252D5FFF778F80028F3D1182142F6014202A8FFF724FBD9
:2042200000222C4BE8B28DF81700069304929DF81430012062F303038DF81430FFF7E0FA92
:2042400002A801A9FFF764F8D0B1234DBDF80A302A7803F4406333B982B3BDF80A3003F495
:204260004063002BF8D0BDF80A50ADB2B5F5105518BF0125FFF7E2FA3CB9284608B070BD14
:204280000125FFF7DBFA002CF7D0FFF721FC0128F3D0FFF725FE284608B070BDFFF76EFE6D
:2042A00001280446A4D00125284608B070BD0028B0D034B90225284608B070BDFEF7AEFDEF
:2042C000C4E7FFF705FC0128F4D0FFF709FEF1E718090020EE0B0020B01800207D2801D9B9
:2042E00001207047FFF778BF7D2901D90120704710B50C460A460146034806F041F92046D2
:20430000BDE81040FFF768BFEE0B002010B5FFF7DFFB01281AD0FEF7F3FFB8B10C4C638837
:20432000022B13D1FEF7ECFF60B9FEF7E9FF68B16388022B0AD1FFF7ABFCFF2806D0C0F33D
:20434000801010BDFFF77EFC0028EED0002010BD180900200B2810B502D00124204610BD5A
:20436000082A23D111B3154A01F1080313F8010D8B4202F8010BF9D1FEF7C2FF0446002819
:20438000ECD00F4C6388022B15D1FEF7B9FF80B16388022B0DD1FFF71BFD012809D00324FD
:2043A000FFF764FD012818BF0324D7E70224204610BD0024F4E70024D0E700BF4009002066
:2043C0001809002030B585B0072800F2BB80DFE800F029323D474A7176045B4C2177FEF727
:2043E0008FFF002838D06388022B35D1FEF788FF002800F08C806388022B40F08880FFF7FB
:20440000E7FC012818BF032400F08180FFF7AEF901287ED0FFF72AFD012818BF03242046E3
:2044200005B030BD012900F08780002974D00224204605B030BDA1F10B030F2BF7D8424CE7
:20444000C9B2A37B8B4207D0A173C8E73E4C6186FEF756FF0028C6D10024204605B030BDB6
:20446000394C2186BBE731F00703E0D1364C01F00103228B3548C1F3400543F0020302F4CA
:20448000FE4243EA850313430278C1F38001914223830170A3D104F1180102222C4806F028
:2044A0006FF82C4803A9FEF733FF00280CBF03240024B4E731F00103B9D1CCB2AFE701F1C0
:2044C00015031A2BB3D86FF014030C25224A01E052F83530994229DD013DF9D2FEF710FF63
:2044E000044600289BD00422002103A806F0BEF81022194B03A803EBC505AB8802A9002446
:20450000ADF80E30ADF80C20FEF702FF87E700247CE7FFF7D5F97DE70191FFF7D9FA012850
:204520009AD0FFF7DDFC01990C4678E70A4B0B4A03EBC5031360D1E7FFF720FD01288BD0D5
:2045400003246CE701246AE718090020B01800209A0900209809002048AC0000CC050020D9
:20456000D1B170B50C4684B0182813D8DFE800F03EB0AB684D0D16A5736D39121212353161
:204580002C281224201C0DB56400002318460B6004B070BD0120FBE7022070475D4B0020BE
:2045A0001B681B680B60F3E70A2300200B60EFE7202300200B60EBE7032300200B60E7E703
:2045C000052300200B60E3E76FF0140300200B60DEE71A2300200B60DAE70B2300200B6056
:2045E000D6E74D4B00201B780B60D1E7FEF788FE002800F08A80494B5888A0F10203B3FA3C
:2046000083F35B0900202360C2E70023434A0B60137E03F001030B60127E520744BF43F047
:2046200002030B603E4B1B78002B44D00B68002043F004030B60ABE77D2300200B60A7E72C
:20464000364B00201B8E0B60A2E7364B00201B785BB20B609CE7FEF753FE00283FD02F4BF6
:204660005B88022B3BD10026082200210DEB020005F0FCFF02229DF80C3042F2034562F3FD
:2046800083038DF80C300AE0002102A805F0EEFF02A801A9ADF80850FEF73AFE48B39DF82E
:2046A0000C2002F00C02082AEED03EBB9DF90A30236080332BD000206AE7184B002093F964
:2046C0001C300B6064E7154B00205B8E0B605FE7124B00209B7B0B605AE7182392E7FFF7D5
:2046E0004DFC01280646BFD06FF07F03032023604EE780238DF80A30002EF5D0FFF7E8F985
:204700000128D3D0FFF7ECFBD0E703467AE703203EE700BFCC050020AF180020180900206F
:20472000B01800207707002008B500F077F880B208BD00BF00F004B938B54FF08055D5F8A6
:20474000B83104205B699847D5F8B83104205B6B984701280446F7D1D5F8B83140F20140C6
:20476000DB699847034B044A9C62936A9B07FCD538BD00BF0020086000200840034B1B6897
:20478000002B0CBF02200120704700BFA40C0020F8B5038804465BB3B3F5847F2DD1194BFD
:2047A0001B788B4201D00120F8BD174D2B686BB14FF080530026154AD3F8CC3157685B68FE
:2047C0000220984739462B6898472E604FF08053D3F8B83140F201409B6A984701210C4BC3
:2047E0000C4A9962936A9B07FCD50B48FEF756FC4FF4847323800120F8BD002323800320C2
:20480000F8BD00BF78070020A40C0020008002400020086000200840D005002070B52B4B73
:204820001B686BB12A4900230A4612F8014B002C3CD10133042BF8D125462046294670BDCB
:204840004FF08053D3F8B83104205B6B9847012837D0FFF771FF1F4A1F4B92681A4210D129
:2048600001221E4BC3F8F02FD3F8F02F002AFBD110464FF4807103F049FC0122184BC3F8EF
:20488000A82202F0D7FE0646124A9368DB07FCD54FF08053D3F8CC3102205B6855689847D6
:2048A0000446002EC9D102F0C9FEC6E700200D4AC85402EBC30552F833406D6820462946D1
:2048C00070BD094BDB6B9A07C5D4C2E7A40C0020A80C002000800240010000800090024075
:2048E00000005042880700200020084038B500244FF080510E4D0F4AC5F8A842D368D1F88F
:20490000B01123F00103D3604B6931209847224620464FF4807103F0F9FB0121064BC5F88F
:20492000A812224619780548BDE8384001F0F4B9000050420080024078070020E4050020C0
:2049400010B5074C2378802B00D010BD01F018F90346002123700348BDE8104001F018B95B
:2049600078070020E405002008B502F063FE003818BF012008BD00BF80F31088704700BF4A
:20498000827A044B03EBC2035B68181AB0FA80F040097047AC0C00202DE9F0434E4F827A50
:2049A0000121064685B007EBC20202E0C2E8441F4CB1D2E84F3F13F0FF05F7D00325284606
:2049C00005B0BDE8F083BFF35F8F4FF08059B37ADFF8088107EBC3077E60D9F8B431F0780D
:2049E000DB6B9847B37A08EB03135868D9F8B8315B699847B37AD9F8B82108EB0313526BA2
:204A00005868904701280746F4D1D9F8B831DA69B37A08EB031398689047314B314A9F62C2
:204A2000936A9B07FCD503204FF08051B37A1B0158F80320536923F00F035361B37A1B0139
:204A400058F803301862D1F8C4311F68B37A1B0158F8030033893BB1337A002B35D1737A05
:204A6000002B0CBF03240124082322464FF08054019373681C4900930023B847B37A96F80A
:204A800000C0D4F8B471B27871781B01CDF800C058F803007F6C4FF0FF33B847B37A1B01BA
:204AA00058F80320536843F002035360B37AD4F8C4211B01126958F8030003A9904700286A
:204AC000F4D1284605B0BDE8F083737A002B14BF03240224C8E700BFAC0C0020CCAC0000E0
:204AE0000020086000200840006CDC0270B5264D837A05EBC3025268904201D0042070BD84
:204B00004FF08051214A044602EB03139868D1F8B8311B6A984701211D4B1E4A9962936ACD
:204B20009B07FCD54FF08056D6F8B43160789B6B9847D6F8B4314FF4005160789B6998477B
:204B4000D6F8B431A0789B6B9847D6F8B4314FF40051A0789B699847D6F8B43120789B6B12
:204B60009847D6F8B4314FF400519B69207898470023A27A05EBC2025360A27ABFF35F8F32
:204B8000184605F8323070BDAC0C0020CCAC000000200860002008402DE9F04F9846334D38
:204BA000837A164605EBC3056A6885B0904203D0042005B0BDE8F08F4FF080592C4D044660
:204BC00005EB03135868D9F8B8310F465B6B9847012849D1A37A2749886F05EB0311C9685F
:204BE0001B01084240D0DDE90E210A44B242B8BF3246002A019235D0D8BF0DF10C0A24DDAB
:204C00004FF0000B0DF10C0A5E45D4BF002117F80B10E8580391D9F8C4315B689847A37A5C
:204C200051461B01E858D9F8C431DB6898470E9B5B45C4BF039B08F80B30019B0BF1010B50
:204C40005B45A37A4FEA0313DED14FF0805601E0A37A1B01D6F8C421E85851461369984785
:204C60000028F5D10020A4E70520A2E7AC0C0020CCAC00000020084010B503880446442B2C
:204C800006D0452B0ED0BBB100232380032010BD0D4B1B788B4212D18AB1002045230B491C
:204CA000088023800A49094800F068F8012808D944232380012010BD00F0C6F8F8E7012025
:204CC00010BD002010BD00BFBE180020BC0C0020D54C00000146014803F03EBAECAC000049
:204CE0000021014800F054BFF40500202DE9F0430024012607460D46DFF85480DFF8549094
:204D0000B1B084B1E30717D54246C0212B78684603F048FA6846B847082E15D00134013604
:204D20000135002CEED14246C02168462B7803F039FA6846B847F1E74A46C021684603F0DB
:204D400031FA6846B847DFE731B0BDE8F08300BF0CAD000008AD000009B1FFF7C7BF10B594
:204D6000B0B00446C021044A684603F01BFA6846A04730B010BD00BF14AD0000F0B50388B2
:204D800005460E46B1B01BB3702B1CD1274B284F1868436831463A6826489847012838D909
:204DA0006C46254AC021204603F0FCF92046B04730462249FFF79AFFC0212046204A03F032
:204DC000F1F92046B047002303202B8031B0F0BD13781446202B03D114F8013F202BFBD0A7
:204DE000002BDDD02021204605F092FC104F386018B1002300F8013B3860204600F06CF947
:204E00000A4B186040B100220A4B1A8070232B80BFE7002031B0F0BD6C46C0212046094AE5
:204E200003F0C0F92046B047BBE700BFC40C0020C00C0020C80C00205CAD0000FC0F002004
:204E400060AD000024AD000000F036B92DE9F04103888046B0B033B100230320A8F80030A3
:204E600030B0BDE8F081124A0D466846C02103F099F96846A8470F4801F058F807460028CF
:204E8000EAD00D4E7C6823685BB1A3683246C021684603F087F96846A84754F80C3F002B9E
:204EA000F3D1384601F094F807460028EAD1D3E764AD0000D40C0020D0AD000030B503884B
:204EC0000446B1B023B100230320238031B030BD0D46094AC021684603F064F96846A8477A
:204EE00028460649FFF738FFC0216846044A03F059F96846A847E6E77CAD0000FC0F0020E8
:204F0000F8AF00002DE9F043B3B08046C021114A114C02A803F046F902A8C0472568ADB167
:204F2000DFF8389063681E68304600F05BFD07462B464A46C021CDE9006702A803F032F9AF
:204F400002A8C04754F80C5F002DEBD133B0BDE8F08300BF90AD00003C060020A0AD00005A
:204F60002DE9F04306880446B3B0002E39D10F46154612B11378002B39D1002000F010FD25
:204F800000253C4B18602B46C0213B4A02A803F009F902A8B8473846FFF7B4FF0023022062
:204FA000238033B0BDE8F0832021404605F0B0FB08B1002303700A22404601A905F07CFDD3
:204FC0002E4B1860002841D1019B43452CD03368984203D00146284600F0BEFC3846FFF76B
:204FE00091FF00230320238033B0BDE8F0832021104605F08DFB814658B38046284608F823
:20500000016B00F0CDFC1B4E294630601C4805F0E5FBB8B999F80130002BC5D14FF0FF3266
:205020004FF00008154B1A604346C021154A02A803F0B8F802A8B84700230220238033B0C5
:20504000BDE8F08333680133E4D19CE70428EBD8BDE7284600F0A4FC0346064E2946084844
:20506000336005F0BBFB0028D8D033680133D5D189E700BFD00C0020B8AD0000CC0C002025
:20508000B4AD0000D4AD000030B503880446B1B023B100230320238031B030BD054A0D46E6
:2050A0006846C02103F07EF86846A847FDF73AFCEFE700BFF4AD000010B5054C204600F08F
:2050C00031FF2046BDE81040024900F031BF00BFD40C00200406002070B505460E4800F07B
:2050E00025FFA8B106467468206818B90AE054F80C0F38B1294605F071FB23460028F6D150
:20510000184670BD304600F063FF06460028EAD10023184670BD00BFD40C0020F8B5038868
:205120000446F3B1882B54D13D4800F0A3FB002853D03C4A3C4913680D6801331360B3FBFB
:20514000F5F23A4E05FB1235316801313160002D45D00121324800F079FB8823238001208C
:20516000F8BD334A3349344802F0F6FF334D344802F0F2FF2E4A2F492F4802F0EDFF298849
:20518000304802F0E9FFFFF7CFFA4FF0040C264A2D4F1168254A4FF47A763A602B4F2B88E1
:2051A000A7F800C0B0FBF1FC0CFB1100303B06FB03031C4D13602860254803F0BDFF254B7E
:2051C00017481968C90100F041FB882323800120F8BD002323800320F8BD0120F8BD1E4FF4
:2051E000134A3B68144803EB41031249336002F0B3FF3168194802F0AFFF134B04223146FA
:20520000186805F0BDF90422104B28461A80144BDB68984733683A689B1A5B08336098E7F2
:20522000E40C0020E00C0020F80C0020F40C00205CAF0000F4AA0000FCAA00009E180020E9
:2052400060AF000074AF000094180020A418002065520000FC0C0020DC0C002088AF000056
:20526000D8B20000042900D0704730B5144683B00A46014601A805F083F9364A364937484F
:2052800002F06AFF0199364802F066FF204600F033FB019C304963082E4A3048314D04F0DD
:2052A0000104019302F058FF224601992E4802F053FF2B68F3B9002C3DD12C4C019823683B
:2052C000C01A05F01FF92A4B1B68B0EB430F22D9019A236820499A4220481E4A15D302F0F2
:2052E0003BFF244802F038FF0123019A2B60226003B030BD002CE0D1164A1749174802F085
:205300002BFF1D4802F028FFF2E702F025FF1B4802F022FFECE70F4A0F49104802F01CFF97
:20532000174802F019FF0122236801992A600B44D3402360DCE7074A0749084802F00CFF9C
:20534000104802F009FF0123084A01992B601160CEE700BF5CAF0000F4AA0000FCAA00002C
:20536000A0AF0000DC0C0020B4AF0000F40C0020D80C002004B00000D8AF0000FCAF000069
:20538000E8AF0000E0AF000030B40C46054B0649064D0A601C602860002130BC044800F008
:2053A000F7BB00BFF80C0020D80C0020FC0C00200C06002010B5504CFBF792FEFDF748F9E2
:2053C00000F0DEFC00F016FC00214C4800F0E0FB00F010F9FDF76CFA00F07EF900F0E8FCF3
:2053E000FBF7BAFE01F02EFB01F0D0F900F006FB2368022B13DCFBF7CBFEFFF771FC4048F1
:2054000000F0A2F8FDF75CFA00F010FC0446E4B2FDF782FA002CF7D1FBF726FFF4E7394A03
:2054200039493A4802F098FE394802F095FE2368022BE0DD334A3449344802F08DFE354BF2
:205440003548196802F088FE2368022BD3DD2D4A2D492E4802F080FE304B3148196802F034
:205460007BFE2368022BC6DD264A2749274802F073FE2C4B2C48196802F06EFE2368022B24
:20548000B9DD204A2049214802F066FE4AF6CD31264802F061FE2368022BACDD194A1A49E0
:2054A0001A4802F059FE1A21214802F055FE2368022BA0DD134A1449144802F04DFE1D4B68
:2054C0001D48198802F048FE2368022B93DD0D4A0D490E4802F040FE184802F03DFE23681B
:2054E000022B88DD164800F007FA2368022B82DD144802F031FE7EE7D80600202C06002082
:2055000084B300001CB00000F4AA0000FCAA000024B00000F4B200005CB00000D8B2000034
:205520006CB00000BCB2000078B0000084B00000A0B000009E180020C0B00000D0B000006F
:20554000FC0F0020F8AF000010B50446006830B1002100F01DFB54F8040F0028F8D110BDDB
:20556000F0B50388054683B033B14A2B18D188291BD0012003B0F0BD1B4800F0D7FC0446AE
:2055800030B1A168201D00F061F92468002CF8D10122164B1A704A2301202B8003B0F0BD72
:2055A000002303202B8003B0F0BD0F48019200F0BDFC04460028EED0019A031D9A4205D06B
:2055C0002468231D002CE6D09A42F9D1084E2146054800F0DBFCD4E90523376832600BB1D4
:2055E000E06998473760D6E7000D0020B3180020B80E002010B50024054B06481C7000F02E
:2056000091FC2146BDE81040034800F0C1BA00BFB3180020000D00201C060020F8B50E4CCB
:205620000E4D27782E680446C0E90623466137B981602146BDE8F840094800F079BC094B38
:2056400004302B6000F002F921462E600448BDE8F84000F06DBC00BFB3180020B80E0020D9
:20566000000D00201C06002010B50A4B04461B783BB9C0E903332146BDE81040064800F057
:2056800085BC043000F00EF92146BDE81040024800F07CBCB3180020000D002038B50C4B74
:2056A00004461D786DB90B4800F040FC38B1A04202D10BE0844209D000680028FAD10120C2
:2056C00038BD0430BDE8384000F0D4B8002038BDB3180020000D0020704700BF10B5FCF7AD
:2056E000FDFF0B4B1A68D2E9003192680B44191A52B1D2E9003423441B1A9268994228BF24
:205700001946002AF5D14318024A136010BD00BF080D0020040D00202DE9F8430388054607
:2057200053B3592B2BD187292ED082291FD14FF000092B4FDFF8AC803C68C4B1002603E0B3
:20574000A36826469BB11C46204600F0DDFB0028F6D022468821E06800F0DEFA00282BD0C4
:20576000404600F0FFFAA3682646002BEBD159232B800120BDE8F883194A1360F7E700231D
:205780002B800320BDE8F883154F0020396819B9EDE789680120D9B1CB689342F9D000B132
:2057A00039608B68002BE2D0D86890420BBF9B6819468B609B68F5E7A368E0606EB1B360FB
:2057C0003B68C4F808902BB1FFF788FF3C68B4E73960CCE7044A1360C9E73B60F1E700BF4B
:2057E000080D00202C060020040D002010B50446104800F0B7FA1049E3680A684BB142B1E4
:2058000094420FD0134601E09C420BD09B68002BFAD10A4BA2601B680C60E360BDE8104069
:20582000FFF75CBF054B1B68E360BDE81040FFF755BF00BF2C060020080D0020B80E002016
:20584000014800F08FBA00BF2C06002010B5044600F044FB2046BDE81040FFF7C7BF00BFE1
:2058600010B5044600F042FB2046BDE81040FFF7BDBF00BFC068B0FA80F04009704700BF5F
:20588000024B1868003818BF01207047080D0020024B186808B1024B18687047080D0020E0
:2058A000040D002010B5124B04461968814214D00B462BB19A68A24206D01346002BF9D1EC
:2058C0000023C4E9023310BDA2689A6049B1FFF705FF0023C4E9023310BD82681A60002A9E
:2058E000F5D10022034B1A600023C4E9023310BD080D0020040D002028B32DE9F041002579
:2059000004460126114FDFF8488065B1EB070FD53846217802F020FC082E12D00135013681
:205920000134002DF2D13846217802F015FCF5E7404602F011FC3846217802F00DFC082E7F
:20594000ECD1BDE8F081034802F006BC0CAD000008AD000014AD0000042900D97047F8B5DC
:205960000D46064601460C4804F038FF0B4C0746216851B157B9D4E90123AB42A8BF2B46DD
:20598000136054F80C1F0029F4D1F8BD304604F025FF0028EFD0F4E7B4AD00003C06002067
:2059A000D0B1F8B50E4F396899B106463D46002403E055F80C1F013459B1304604F00EFF6D
:2059C0000028F6D104EB440407EB840463681868F8BD4FF0FF30F8BD4FF0FF30704700BF20
:2059E0003C06002004289ABF024B53F820000248704700BF8CB1000004B10000034A0449BC
:205A00009079D37903EB00230B807047FC0F00209E1800202DE9F84FDFF8C8800546D8F846
:205A200000400E46844257D0002C43D0234601E0002B3FD01B689D42FAD1002B3AD02A4F47
:205A4000AB7BD7F8009053B30023AB73002C45D04FF0020A4FF0010BA54211D0A37BDB07DB
:205A60000ED5A36863B12A4687213C6084F80EA004F10C0098470238012828D984F80EB0C8
:205A80002468002CE8D1AB683BB1B54205D0002283213D6005F10C009847D8F80040A5428F
:205AA0000AD02CB12368AB420CD01C46002CF9D1C7F80090BDE8F88F2B68C7F80090C8F866
:205AC0000030F7E72B682360C7F80090F2E721462046FFF79FFFD3E72346AEE7AB68002B23
:205AE000D3D1E5E7BC0E0020B80E002038B583687BB104460220A07309480D46046004F1E6
:205B00000C0098470238012804D9832D02D00123A37338BD21462046BDE83840FFF77ABF90
:205B2000B80E00200022F8B51249134B0C681A70D4B101250227114E01E02468A4B1E37BA6
:205B4000002BFAD0A36804F10C00E581002BF4D0002282213460A77398470238012804D95D
:205B6000A5732468002CEAD1F8BD21462046FFF751FFE2E7BC0E0020B7180020B80E00204A
:205B8000024B1878421C1A70704700BFB5180020F8B5164A1568854207D0044635B12B4614
:205BA00000E01BB11B689C42FBD1F8BD002CFCD025600126146000220D4DA3682F68A67308
:205BC000A2815BB10A4602212C60A17304F10C00812198470238B04202D9A6732F60F8BD9D
:205BE00021462046FFF716FFF8E700BFBC0E0020B80E002000234FF08A0C074A10B4074803
:205C000013700749074A084C80F800C00B701360236010BC704700BFB4180020B518002048
:205C2000B6180020B80E0020BC0E00202DE9F8432E4D2B78FBB92E4E3378C3B12D4C2E49F8
:205C40002278013B02EB4200013202F01F022270DBB201EB800211F820803370D2E90174F0
:205C600064B1B8F1810F1DD0A27BD2071CD428781844BDE8F883FFF755FFDCE71F4A1468F5
:205C800054B9F4E7A37BD90704D53A4641462046FFF72CFF24681CB32B78002BF2D0FFF7D6
:205CA00041FFEFE70122A273D4F80890B9F1000FDDD00223A373124B3A4641461C6004F1BC
:205CC0000C00C8470238012806D9B8F1830F03D001223378A273CAE721462046FFF79AFE6A
:205CE000337828781844BDE8F88300BFB7180020B6180020B4180020380D0020BC0E002006
:205D0000B80E0020024A034B10781B7818447047B6180020B718002030B40F4C94F800C06D
:205D2000BCF1200F15D005460C4B00201B7863440CF1010C84F800C003F01F03084C03EB09
:205D4000430304F8231004EB8303C3E9012530BC7047012030BC7047B6180020B418002046
:205D6000380D002018B1837B013B012B00D970470123024AC3731370704700BFB718002071
:205D8000FCF7D0BC10B5094C206823682BB10023236010B1D0E90131984723682BB1236858
:205DA000BDE810401868FCF7BFBC10BDC00E0020074B82B001AA9A42019304D9CD2103F8E0
:205DC000011B9342FBD10021024802B0FFF7E0BEC4180020DC06002038B5124CFCF79CFD80
:205DE0002378114DCD2B08D0AC4202D30EE0AC4212D014F8013FCD2BF9D1AC4202D30BE09D
:205E0000AC4209D014F8013FCD2BF9D0FCF784FDAC4203D2281B38BDFCF77EFD4FF0FF3063
:205E200038BD00BFC41800200050002070B5038804463BB1912B0ED11F48FFF71BFD70B923
:205E4000012070BD4FF4A0611B48FFF7FFFC91232380012070BD00232380032070BDFFF7AB
:205E6000BBFF164E164B051EA6EB030615DB002E13DBB5420DDD134B1B68002B09DD124AAB
:205E80001249134802F068F932462946114802F063F90948FFF7E4FCD9E70A4B1B68002B81
:205EA000F7DD094A09490A4802F056F932462946094802F051F9ECE7C40E0020005000202D
:205EC000C4180020D8060020A0B10000A8B10000FCAA0000D8B10000ACB1000010B541602C
:205EE0000446FCF7FBFB206010BD00BF10B50446FCF7F4FBD4E90021C2F1010303448B42C9
:205F000084BF5218226010BD10B50446FCF7E6FBD4E90032C3F10103184482422CBF0020D0
:205F2000012010BD00230360704700BF006870470368D3B110B4002400E0134699420ED08F
:205F40001A681C46002AF8D100230B600368C3B11A461B68002BFBD1116010BC70470A68BD
:205F60006CB1226000221A60EEE700230B6003684BB11A461B68002BFBD1116070470260B8
:205F8000F0E70160E9E70160704700BF03688BB110B4002400E0134699421A6804D01C46C7
:205FA000002AF8D110BC70472CB1226000221A6010BC704770470260F8E700BF03682BB1EF
:205FC00000201B680130002BFBD170471846704700B10068704700BF10B5044642880021A1
:205FE000406804F043FB23886288A0680021BDE8104003FB02F204F039BB00BF30B44588CA
:20600000ADB10022436802E00132AA420CD019460C780133002CF7D101230B700588806859
:2060200002FB050030BC7047002030BC70472846F8E700BF10B4448882685CB18A420DD0BC
:206040000023B0F800C001E0914208D00133A3426244F9D14FF0FF3010BC704700234268E2
:20606000D15C0029F6D00021D154084610BC704783688B4208D84288008800FB0230814213
:206080002CBF002001207047002070470023013A0160027143718371704700BF90F805C0A9
:2060A000827903460079ACEB020230EA020209D001201A6802F80C105A79197902440A40E3
:2060C0005A717047002070478179427990F804C0521A12EA0C0F034606D000684A1C02EA0A
:2060E0000C02405C9A7170474FF0FF30704700BF2DE9F04104880646772C07D07E2C37D006
:20610000A4B1002303203380BDE8F081DFF8BC802F4D98F800202F4F00233B602B6012B350
:206120002D4CE256002A41DB2B6832E0FFF728FD274D2A4F2C602A4B3A681870002A43D053
:2061400023469846244C04F8038093680021802098472B68013357F823202B60002AF2D19D
:20616000DBB21A4A1370772333800120BDE8F0811B4B1B788B4216D1154D174CDFF84C8012
:20618000144F3A682B6801323A60E25C02F07F02E25498F80020013393422B60C1DB3B6830
:2061A000002BB9D1DFE70120BDE8F0810B4A002052F823200A4B1978FFF7AEFD0028E0D1CB
:2061C0007E23012033809FE71346CAE7B8180020D80E0020D40E0020A807002028040020A7
:2061E000B918002010B40B4B1C7854B100230A4A02E00133A34204D052F8041B8842F8D1B9
:206200001C46064A0648135D63F07F03135510BCFFF7A8BDB818002028040020A80700209F
:20622000EC06002010B5044690F84CC023460CF1010C8021064A203084F84CC0FFF7EEF990
:20624000044B2246BDE8104000201978FFF764BD25620000BA180020F8B50388044633B1EB
:20626000B3F5867F08D182290AD00120F8BD4FF4867323800120F8BD002323800320F8BDEA
:20628000FEF772FBBFF35F8F0022114B1E681A60BFF35F8F0F4DFEF76FFB28680028E6D0B5
:2062A0000D4F03E055F8040F0028E0D090F8453026FA03F3DB07F5D5FFF7F0F90028F1D0E0
:2062C0002B683A4618460221FFF7A8F9EAE700BFE80E002040040020F56200000146034A9E
:2062E000034813680B431360FFF73CBDE80E0020FC06002070B50446FFF7D0F900B970BDDC
:2063000004F120063046FFF7C9F9054694F84500FCF736FF48B994F8443063B9002DEED1E7
:206320003046FFF7A1F90D4B11E00128F6D194F84430002BF2D1002DE1D00025234630464E
:206340007E21074A84F84C50FFF768F9054B22462846BDE870401978FFF7DEBCBC1800204E
:2063600025620000BB1800202DE9F843FFF708FC224B234D1870FFF703FC224B224C18709B
:20638000FFF7FEFB0023214A21496A602268AB6008704AB34FF0805801261E4FD8F8B431E2
:2063A000916C92F845009B6B41F08C0998472368494693F84500FCF7A7FE2268D8F8B431A5
:2063C00092F8450006FA00F2C7F8E0201B6B98472368A96893F8453054F8042F06FA03F3C7
:2063E0000B43AB60002AD9D10B480021FFF7D0FBBDE8F843024800F011B800BFBB180020A6
:20640000DC0E0020BC18002040040020DD620000BA18002000200240FC06002001460148D5
:20642000FFF786BDEC0E002038B505460748FFF77DFD48B10446A068284002D0636803B10E
:2064400098472468002CF6D138BD00BFEC0E00200148FFF767BD00BFEC0E0020C20709D52D
:20646000134B5A78DAB101221B78124902FA03F3C1F8A030830711D50D4BDA783AB10122AD
:206480009B780C4902FA03F3C1F8A030704701229B78084902FA03F3C1F890307047012296
:2064A0001B78044902FA03F3C1F89030E2E700BF44AB000000200240C20709D5134B5A78E1
:2064C000DAB101221B78124902FA03F3C1F89030830711D50D4BDA783AB101229B780C4925
:2064E00002FA03F3C1F89030704701229B78084902FA03F3C1F8A030704701221B780449BE
:2065000002FA03F3C1F8A030E2E700BF44AB00000020024038B54FF08055084CD5F8B43120
:206520002078DB6B9847D5F8B431A078DB6B9847BDE838400320FFF7BFBF00BF44AB00004D
:2065400070B504880646672C1BD0792C33D05CB300233380032070BD00251E4C1E49236862
:2065600009785A1C22601D4A2846D554FFF7D4FB1B4B2A4685211868FFF7CEFB30B300231E
:206580002360184C134D06E00A28E5D00D28E3D02B687E2B15DD2046FFF796FD431CF3D1BF
:2065A00067233380012070BDFFF7EAFA0A4B094A18701460E5E7852901D0012070BD054CE8
:2065C000DDE7064A591C2960D054E4E779233380012070BD700F0020BE180020F00E00206A
:2065E000B80E0020740F002010B5124C01462378A3B10A2806D00D2804D00F48FFF7B2FBAE
:20660000012010BD0D48FFF749FD0028F5D0002309482370FFF7A6FB012010BD0748FFF73D
:206620003DFD0028E9D1012303482370FFF79AFB012010BDBD1800200C070020740F0020F8
:2066400008B5054905488022FFF720FDBDE8084000210348FFF79CBA7C0F0020740F00203A
:206660000C07002010B1837A012B01D901207047FEF792B910B1837A012B01D9012070476F
:20668000FEF734BA10B50446FEF77AF938B10123E178044A8B40C2F8A030002010BD042086
:2066A00010BD00BF0020024001460123C978034A8B400020C2F89030704700BF00200240B6
:2066C00010B584B08DF80F1018B1837A0446012B02D9012004B010BDFEF752F950B1002300
:2066E00001222046CDE900330DF10F01FEF754FA04B010BD032004B010BD00BFB8B170B565
:20670000837A0446012B82B002D9012002B070BD0D461646FEF734F958B100233246294615
:206720002046CDE90033FEF737FA02B070BD01207047032002B070BDB8B170B5837A044656
:20674000012B82B002D9012002B070BD0E461546FEF716F958B10022334620461146009557
:206760000192FEF719FA02B070BD01207047032002B070BD082203F003BF00BF082208B540
:2067800003F0CAFEB0FA80F0400908BD054B10B51B689847044B5B689847BDE81040034B6B
:2067A0005B68184700AC0000BCB20000D8B20000002138B50B4A0C480C4B0D4D0D4C0170E1
:2067C00011800D481A22198003F050FF20462946FFF7D0FF294604F10800BDE83840FFF7A3
:2067E000C9BF00BFA2180020BF180020A01800202CB2000004100020941000202DE9F0418C
:206800000C460021114A124B124EDFF84C80134F0546117012481A221980318003F026FF24
:2068200038464146FFF7A6FF414607F10800FFF7A1FF802C28BF802429462246094803F049
:206840009FFE20463480BDE8F08100BFBF180020A2180020A01800202CB2000004100020F1
:206860009410002014100020F8B50E4E0E4D32782B881344802B01DD0020F8BD04460B4FF6
:20688000394603F07DFE0A4A33781188E0180B44DBB2F9182A8803F073FE30782B881844C1
:2068A000F8BD00BFBF180020A018002014100020A218002010B5144B144C1B8894F800C004
:2068C000134A63441288DBB213449BB21A18802A17DC013B1BB2002B0EDB0E4A591C03EB42
:2068E000000E11447244013B11F801ED1BB2B3F1FF3F02F801E9F6D1844484F800C00120CD
:2069000010BD002010BD00BFA2180020BF180020A01800201410002008490A8882420ADB85
