:020000040000FA
:200000000050002031200000292000000D2000002D2000002D2000002D20000000000000C2
:200020000000000000000000000000002D2000002D200000000000002D2000002D2000008C
:20004000A54000002D200000A14700002D20000041380000A13D00002D2000002D20000048
:200060002D200000F54700002D2000002D2000002D2000002D2000002D2000002D20000029
:200080002D2000002D2000002D2000002D2000002D2000002D2000002D2000002D200000F8
:2000A0002D2000002D2000002D2000002D2000002D2000002D2000002D2000002D200000D8
:2000C0002D2000002D5E0000294B1B689B0702D44FF000407047F0B5452183B0002003F052
:2000E00021FA022201200DF1060102F0BDF838B901A8022102F0DAF84FF0004003B0F0BD94
:20010000022200200DF1060102F0AEF80028EFD0BDF806305BBAC3F303309CB2ADF8043007
:2001200011F042FD11F0D4F90646C4F30B000F4611F04AFD0CA3D3E9002304460D46304665
:20014000394611F0ABFD02460B462046294611F0A5FD12F073F8074911F030FB12F0CCF9B6
:2001600003B0F0BDAFF300807B14AE47E17A843FE80E00200000C84208B51F4B1A68032A65
:2001800033D1421E012A03462FD81C491C4A012B0988108811D011F007FD0022194B11F0F3
:2001A0007DFD0022184B11F079FD12F047F8174911F004FB12F0A0F908BD084611F0F4FC89
:2001C0000022104B11F06AFD09A3D3E9002311F065FD00220E4B11F0A9FB12F02FF80B49AF
:2001E00011F0ECFA12F088F908BD4FF0004008BD0000000000A06440F00E0020C83B002007
:20020000C63B00200000F03E000059400000C84200004440000000002DE9F041704B1B68E3
:2002200053B30646062200216E4812F03BFC16F038085AD172071FD003F07EFA6A4C6B4D82
:200240002746286006E003F077FA2B68C31A0A2B40F18D806821012003F064F901223946E0
:200260003A2002F001F80021084603F05BF92378002BE8D0DB0704D44FF000484046BDE899
:20028000F081584C6821012003F04CF906222146432001F0E9FF054600286CD02346A01DC7
:2002A00019785A7859701A7002338342F8D10021084603F037F9042E6AD0022E70D0012E28
:2002C000DCD1B4F9040011F07FFC43A3D3E9002311F00EFE11F0B2FF454911F06FFA12F0C6
:2002E0000BF980464046BDE8F08103F025FA3E4C3E4D2746286005E003F01EFA2B68C31A1C
:200300000A2B48D56821012003F00CF9012239463A2001F0A9FF0021084603F003F923785B
:20032000002BE9D0D907A7D52E4C6821012003F0F9F8214606223B2001F096FF0021054699
:20034000084603F0EFF8002D3DD02346A01D19785A7859701A7002339842F8D1202E22D047
:20036000102E2DD0082E33D04FF0000886E72378DB0781D585E74FF000482046062101F011
:2003800095FF2846294603F0CDF84046BDE8F081B4F9000097E72378D9077FF56DAFC3E7B8
:2003A000B4F902008FE7B4F9000002F0CFFA104911F004FA12F0A0F880464046BDE8F0815C
:2003C000B4F90200F1E70621204601F06FFF53E7B4F90400E9E700BF000000000060604030
:2003E000400F0020180F0020F33B0020440F00200000C842000000002DE9F04FDFF81893A5
:200400009DB08E88B1F800804F880C46B9F8005003F092F90122AB1803EB83039B009BB266
:20042000109311921F234FF0FF321296CDE91623CDF83C80ADF83A70079005F015FC00219F
:20044000B64BB9F80020A3FB0063DB0803EB830603EB4603C31A05338DF839108DF8383068
:20046000002A40F02381AE4B2D2214930F238DF83530D9238DF836208DF837304FF4B66354
:2004800003FB05F5DFF89CB205F1080A04F12400DA44042214A90690504612F011FA05F1EE
:2004A0000C035B44012218460DF135010B9312F007FA05F10D020BEB0203184601220DF1B9
:2004C0003601069312F0FCF905F10E020BEB0203184601220DF13701089312F0F1F905F120
:2004E0000F020BEB02031846012211A9099312F0E7F905F110020BEB020310AE05F1120965
:20050000184631460222D94405F114080A93D84412F0D6F902220FA9484612F0D1F905F1FD
:20052000160702220DF13A01404612F0C9F95F4412AB1946022205F11806384612F0C0F9C7
:200540005E4416AB19460822304612F0B9F905F1210001220EA9584412F0B2F905F1220033
:2005600001225D440DF13901584412F0A9F995F822C095F82120129802EB4C128DF8402028
:20058000694A00F4784002431292684A16AB514618461392042212F093F90B9B012219462A
:2005A00017A812F08DF9012206990DF15D0012F087F9012208990DF15E0012F081F9012296
:2005C00009990DF15F0012F07BF902220A9918A812F076F9494602220DF1620012F070F930
:2005E0004146022219A812F06BF9394602220DF1660012F065F9314605221AA812F060F907
:20060000012210A90DF16D0012F05AF9E08811F0CBFA0022464B11F06BFC0022454B11F042
:200620003DFB11F0EBFD11F0BFFA0022424B11F035FB37A3D3E9002311F030FB11F0DEFD3E
:200640000026257A16AB3D49049312AB02932B4604F13C0502460091284604F178010396B0
:20066000019605F009FAE06811F09EFA0022324B11F014FB26A3D3E9002311F00FFB11F0A7
:20068000BDFD2A46252104F16003009004F1240005F0D4F904F038FF054640B3284B1B68C8
:2006A000022B00F34A811DB0BDE8F08F012A00F06981022A00F07281032A00F04981042A35
:2006C00000F08E81052A00F09781062A00F07C81072A7FF4C8AE1B4BA4221493C1238DF871
:2006E00035306E238DF836208DF83730C6E604F1240A504605F0C2F84FF000080694002622
:200700005446DFF82C900B4F25E000BFAFF300800000000080844E41D83B0020A38B2EBA90
:2007200082C817BB58080020010182443A2D0798000089400000F0400000F03EE8120050DE
:20074000CC060020D9AB9AAF012D00F0EA80204605F0BAF8C5B202F0EFFF069B8246D88825
:2007600011F022FA42464B4611F0C2FB3B46324611F094FA11F042FD079B18448245E3D342
:20078000012D069C04D0A44E3368022B00F3128103F010FF03F03EFDA04BD4F808711A8873
:2007A0004FF4B66302FB03F339790BEB0305032940F0998003F138080BEB080234334FF0EB
:2007C0000009954EDFF858A206929B4423E007F109087A7A4146934809F02EFB4146924800
:2007E00009F02AFBD4F80811904809F025FB41F20443E28C9A421CD00023D4F808211372B8
:20080000D4F808211371D4F808713F68C4F808713B79032B65D13368022BD8DD844A85490D
:20082000854809F009FB854809F006FBD4F80871CDE72A4607F111030B3713F8011DBB424A
:2008400002F8011BF9D1A06E11F0AEF970A3D3E9002311F04DFB4A46534611F01FFA11F083
:20086000CDFC07466B8A288A6F62184411F09CF90022734B11F03CFB4A46534611F00EFAAE
:2008800011F0BCFC643F00226E4BC1190095069807F004F90123614A85F828301388AB86B0
:2008A000013313803368022B3DDC08F05DFA294614A804F0AFFF64490E2008F025FB14A9C4
:2008C0000D2008F021FB20210C2008F00FFB08F0E1FA0222594611F0F3FF5C4BDB68984716
:2008E0008AE74E4B1A88012A3ED0208811F05CF90022534B11F0FCFA0022494B11F0CEF9E0
:2009000011F07CFC0146E568002229440094504BE16004F11000413907F0C0F81DB0BDE82B
:20092000F08F069C34E74349414A434809F084FAA98E484809F080FAB7E73D4A3D493E48F7
:2009400009F07AFA444809F077FA1DB0BDE8F08F424B41221493F1238DF835307C238DF88A
:2009600036208DF8373089E52B4B1B68022B7FF79AAE2F4A2F49304809F05EFA384809F0B0
:200980005BFA90E6374BDD2214937B238DF83530B6238DF836208DF837306FE5324B452204
:2009A0001493C2238DF8353055238DF836208DF8373063E51E4A1F491F4809F03DFAE18C66
:2009C0002A4809F039FAE3E6294B1A2214930D238DF83530D2238DF836208DF837304DE551
:2009E000244B11221493EF238DF83530DD238DF836208DF8373041E50223F1228DF83630A2
:200A00001D4B8DF835108DF83720149336E500BF0000000080844E41CC060020D83B00208F
:200A20000000F040183501003C3501006035010054310100F02F0100F82F0100F834010035
:200A400000008940810A000030150020D0490100F9030000943501008C3401002354655010
:200A6000BC350100D85365501B959AAFC0340100DBB49AAF13726550EB7D65500000000087
:200A80002DE9F0470D4684B002F056FE6C8D002C00F00A810026B5F8AC350134A4B2A34278
:200AA0006C8500F0DC80688A11F07EF800229C4B11F01EFA9B4B002211F0F0F811F09EFBE3
:200AC0002B6B03442B63B5F8A035A34214D105F5B46151E902234FF00008C5E906234FF094
:200AE0000009002395F8A225A5F8A03585F8202041E9028985F8A235284604F02FF8AB7B8F
:200B0000697B2A7BCDE9023605F1640405F57779AB682046CDE900214A4605F1A00105F0AA
:200B200051F8286B11F040F800227F4B11F0B6F879A3D3E9002311F0B1F811F05FFB95F878
:200B40002D7005F14C0A05F188063346224639460090504605F018F804F0D6FC80460028E9
:200B600076D12C4605F5797605F2945702E02436B7420BD03379062BF9D186F804803146C1
:200B80004846243605F042F8B742F3D1504604F075FE504604F098FE03F00CFD03F03AFB40
:200BA00041F20242B5F84E3093423BD0B3F5A05F00F091805D4B1B68022B00F3908005208B
:200BC000002105F5D87294F8E833032B05D184F8E803A4F8EA13C4F8E4132434A242F2D153
:200BE000688A10F0E1FF00224D4B11F081F900224C4B11F053F811F001FB04462B6B0022EA
:200C0000A3F1640121444A4B009505F1380006F045FF2A46474B4848197804B0BDE8F04731
:200C200006F0F4BEB5F89635AA8A9A42C2D93F4A01331268A5F89635022AC0DD3F4A40496F
:200C4000404809F0F9F8698D3F4809F0F5F8B6E7364B1B68022B52DC04B0BDE8F087B5F846
:200C6000A475688A384410F09FFF00222C4B11F03FF900222B4B11F011F811F0BFFAB5F874
:200C8000A6352A6B6B82D5F8A83502446B6100232A6395F8A3252F82EA7385F8A335C5F816
:200CA000A435C5F8A8350EE7288A10F07DFF00221B4B11F01DF900221A4B10F0EFFF11F089
:200CC0009DFA03466A6A284613442B6303F046FF01266C8DDFE60023A5F896356FE7174AAE
:200CE0001749184809F0A8F895F82D106B8DB5F84E200091A98E154809F09EF85FE70F4A6B
:200D00000F49104809F098F8114804B0BDE8F04709F092B8AFF300800000000080844E41B9
:200D2000000089400000F0400000F03ECC060020810A0000013C00208C050020543101007B
:200D4000F02F0100F82F01000036010024360100D0350100000000002DE9F04F87B00C46D5
:200D600004F0D2FB88B1B84B1B68002B02DC07B0BDE8F08FB54AB649B64809F05DF8B648C7
:200D800007B0BDE8F04F09F057B8B44AE17894F82530039204F12602CDE9012104F178057C
:200DA00062792846009304F1B401A31D04F01AFE2379DB0700F1338103F0FCFB03F02AFABD
:200DC000D4F84481A64D98F80430032B40F0DA80A946002625464FF0000A4446A14FDFF8F9
:200DE00088B20DE000232372D5F844211371D5F844412468C5F844412379032B40F0C08004
:200E000041F20443B5F862209A42EBD1944A04F1110304F10B0013F8011D984202F8011B91
:200E2000F9D1042204F11701904811F049FD012204F11B018E4811F043FD012204F11C0116
:200E40008C4811F03DFD012204F11D018A4811F037FD012204F11E01884811F031FD0222EC
:200E600004F11F01864811F02BFD022204F12101844811F025FD022204F12301824811F034
:200E80001FFD022204F12501804811F019FD04F12C08052204F127017D4811F011FD414650
:200EA00001227C4811F00CFD414601227A4811F007FD042204F12F01784811F001FDD9F8F5
:200EC000240010F071FE5EA3D3E9002311F010F83B46324610F0E2FE11F090F999F8213051
:200EE000DFF8648103F01F0389F8213099F8223005905B0989F82230D8F80030C9F82400BB
:200F0000022B6CDCB9F8100010F04EFE52465B4610F0EEFF32463B4610F0C0FE11F06EF90A
:200F20000446B9F8120010F03FFE52465B4610F0DFFF32463B4610F0B1FE11F05FF9059BAF
:200F40002118823919440022554B5648CDF8009006F0A4FD0122002389F82820524AD8F879
:200F60000010A9F82A3089F82C3013880229A9F8343003F10103138026DCD5F8444131E7C7
:200F80002C464D4695F82830012B3CD0208810F00BFE0022454B10F0ABFF0022314B10F084
:200FA0007DFE11F02BF90646A16C414D31440094A164A96C00223F4B04F14C00413906F02A
:200FC0006DFD07B0BDE8F08F204A3B49214808F033FFB9F83410394808F02EFFCDE71B4A97
:200FE00035491C4808F028FFD9E90634B9F81420B9F812103248CDE9003408F01DFFD9F8F3
:20100000243005937EE7104B1B68022B7FF7AFAE0E4A29490F4808F00FFF2A48B0E604F17D
:2010200060002A460546252104F19C0304F0BEFC284604F023FC284604F046FCBCE600BF87
:201040000000000080844E41CC06002054310100FC300100F82F010080360100E81200502F
:20106000580800200000F04000008940600800206408002065080020660800206708002039
:20108000680800206A0800206C0800206E08002070080020790800207A0800207C08002085
:2010A000C910000090080020D83B002000408F406C0F0020590D0000F02F01009435010072
:2010C000B8360100003701002DE9F04F0B460C460D4687B001F1880A01F5D87693F8E82309
:2010E0002433062A00F012819E42F7D1678D4FF00008002F00F010814FF00009B4F8AC357E
:201100000137BFB2BB42678500F01E8194F89730608ADB0700F1D98010F046FD0022AE4BE7
:2011200010F0E6FEAD4B002210F0B8FD11F066F8236B03442363B4F8A035BB4212D10027BA
:201140000020002194F8A2E504F5B46C5CE9022384F820E0C4E90623A4F8A0754CE902017D
:2011600084F8A275204603F0F9FCB8F1000F08D1B4F89635A28A9A4203D9628D092A00F28E
:20118000108140F227730022CDF81490A4F896250493E07B10F008FD00228F4B10F0A8FE77
:2011A00000228E4B10F07AFD11F028F810F0FCFC00228B4B10F072FD85A3D3E9002310F036
:2011C0006DFD11F01BF8D4F808B00390A27B04F164070292627B04F577780192227B5B46D3
:2011E000384604F1A0010092424604F08FFC206B10F0DAFC00227A4B10F050FD74A3D3E9DA
:20120000002310F04BFD10F0F9FF94F82DB004F14C09594653463A460090484604F058FC9A
:2012200004F072F98346002840F0B48004F5797704F2945A02E02437BA450BD03B79062B31
:20124000F9D187F804B039464046243704F0DEFCBA45F3D1484604F011FB484604F034FB61
:2012600003F0A8F902F0D6FF0521002295F8E833032B05D185F8E813A5F8EA23C5F8E42339
:201280002435AE42F2D1608A10F08EFC0022524B10F02EFE0022514B10F000FD10F0AEFF7B
:2012A0000546236B0022A3F1640129444D4B009404F1380006F0F2FB22464B4B4B4819786F
:2012C00007B0BDE8F04F06F0A1BB10F06DFC0022414B10F00DFE0022404B10F0DFFC10F077
:2012E0008DFF8346D4F8980010F05EFC38A3D3E9002310F0FDFD394B002210F0CFFC10F0B6
:201300007DFF8344ABF11E03236314E7678D4FF00108002F7FF4F0AE208A10F045FC0022C3
:201320002D4B10F0E5FD00222C4B10F0B7FC10F065FF636A4FF001091E3B184420632046EF
:2013400003F00CFC678DD9E6B4F8A4B5608A584410F02AFC0022204B10F0CAFD00221F4B4E
:2013600010F09CFC10F04AFF0023226BA4F810B00244226394F8A32584F8A335E273B4F80C
:20138000A625C4F8A4356282D4F8A825C4F8A8356261D0E6164B1B68002B0CDC07B0BDE80B
:2013A000F08F94F89720013368F30002A4F8963584F8972067E70F4A0F49104808F03CFDB8
:2013C0000F4807B0BDE8F04F08F036BDAFF300800000000080844E41000089400000F04082
:2013E0000000F03EC9100000013C00208C050020CC06002054310100FC300100F82F01000B
:20140000D0350100000000002DE9F04F23F0004B80465BEA020014461D460E4693B016D1CB
:2014200043467D49DB1886F400225241984271EB020324D2404622462B46314610F078FAC2
:20144000CDE90001DDE9000113B0BDE8F08F1146724A26F0004991459A463746434617DD05
:2014600007F1404707F580171F43E3D122196A4985F400235B41974271EB0303DAD3002313
:20148000674CCDE90034DDE9000113B0BDE8F08F40D0624A9345E3DC00F09380002F73DB2E
:2014A0000022029279B95D4A934500F08E805C4A934500F0A280BAF1804F00F0A084594A06
:2014C000924500F0C68340463146049310F06CF9049BCDE900015BB3029AFB0F013B0A9320
:2014E000134300F09380504B9B4540F3A38003F104739B454D4B40F31B84994540F39184E7
:20150000BAF1000F40F39184002013B0BDE8F04F10F044B9002B8DD1BBE740463146029348
:2015200010F042F9029BCDE90001002B6ED10293B9F1000F04D03A4B27F040429A42CBD1FA
:20154000BAF1000F07DADDE900230020344910F0CFFCCDE90001002FBFF674AF029B09F14A
:20156000404909F5801959EA030340F06E84DDE900231046194610F0D9F902460B4610F0D7
:20158000B7FCCDE900015DE7294A93452FDCA2F1547293450FDD4FEA2B52A2F2FF32142A71
:2015A00040F34584C2F1340221FA02F000FA02F28A4200F077840022029200293FF477AF5C
:2015C00081E700293FF46AAF4AE709F1404202F5801213433FF453AF144B994540F36D830D
:2015E000BAF1000FC0F26383CDE900452AE70222029200293FF457AF65E7BAF1000FC0F2BB
:20160000F48340463146CDE900011BE74246404633463146AFE700BF0000F0FF0000F07FEC
:201620000000F03F0000E03F0000E041FFFFEF3FFFFF3F43D44B3B40002B40F04783DDE90A
:2016400000010022D14B10F029FB6FF034028946CDE900014FEA2953A3F2FF339A18CC4BC7
:20166000C9F3130949F07F5699450B9246F4401607DDC84B994540F3F58301320B92A6F58E
:2016800080160022002300200027C349CDE90823CDE90601CDE91023DDE90001DDE90623DF
:2016A0003146824610F042F9DDE90623B3468046894650463146CDE90CAB10F039F902463F
:2016C0000B460020B44910F013FC8C46834663465A4640464946CDE90EBC10F0DFFA824673
:2016E0008B46731043F0005303F50023D9190F465A46514600230020CDE90012009306468D
:2017000002463B46CDE904ABDDE900AB5046594610F0C4FA02460B464046494610F006F98A
:20172000DDE90623804689463046394610F0FEF802460B46DDE90C0110F0F8F852465B46A5
:2017400010F0ACFA02460B464046494610F0EEF8DDE90E2310F0A2FADDE90467CDE90601CE
:2017600032463B463046394610F098FA74A3D3E9002306460F4610F091FA73A3D3E90023D2
:2017800010F0D6F832463B4610F088FA70A3D3E9002310F0CDF832463B4610F07FFA6EA3C6
:2017A000D3E9002310F0C4F832463B4610F076FA6BA3D3E9002310F0BBF832463B4610F08C
:2017C0006DFA69A3D3E9002310F0B2F83246804689463B463046394610F060FA02460B4697
:2017E0004046494610F05AFA06460F46DDE9040152465B4610F09CF8DDE9062310F04EFA10
:2018000032463B4610F094F85246804689465B465046594610F042FA02460B46CDE90C2386
:2018200000225E4B10F084F842464B4610F080F800260F4632463B465046594610F02EFAFF
:20184000002282468B4630463946544B10F06EF8DDE90C2310F06AF802460B4640464946CE
:2018600010F064F8DDE9042310F018FA324680468946DDE906013B4610F010FA02460B460F
:201880004046494610F054F880468946002642464B465046594610F04BF835A3D3E90023E4
:2018A00030460F4610F0FAF952465B4682468B463046394610F03AF802460B4640464946C3
:2018C00010F034F82CA3D3E9002310F0E7F902460B463046394616461F4629A3D3E9002354
:2018E00010F0DCF902460B463046394610F020F8DDE9102310F01CF806460B980F4610F01C
:2019000063F98046894632463B4650465946CDE904AB10F00DF8DDE9082310F009F84FF00D
:20192000000A42464B4610F003F842464B4650468B460FF0FBFFDDE908230FF0F7FF2FE01B
:20194000EF4E454A287ECA3F65DBC9934A86CD3F01411DA96074D13F4D268F515555D53F97
:20196000FFAB6FDBB66DDB3F033333333333E33F000000E009C7EE3FFD033ADC09C7EE3F22
:20198000F5015B14E02F3EBE0000F07F000040438E98030079B60B000000F03F000008400B
:2019A000DDE904230FF0C2FF02460B46304639460FF0BCFF029B0A9A013B13434FF000021E
:2019C0000CBFD54BD54BCDE90045CDE9022300230093DDE90089CDE9040142464B462046E7
:2019E00029460FF0A3FF52465B4610F057F9224606460F46DDE904012B4610F04FF9024679
:201A00000B46304639460FF093FF42464B4606460F465046594610F041F904460D463046B3
:201A20002B46394622460FF083FFBD4B8046994289468A4640F3178101F13F4303F5E0036B
:201A4000034340F02482A2A3D3E90023304639460FF06EFF02460B46404649469046994682
:201A600022462B460FF062FF02460B464046494610F0A4FB002840F00A82CAF30A534FF49F
:201A800080120020A3F2FE3342FA03F35344A549C3F30A52A2F2FF3241FA02FCC3F3130B33
:201AA00023EA0C01C2F114024BF4801BBAF1000F0B464BFA02FB294602462046B8BFCBF1CC
:201AC000000B0FF033FF04460D463046394622462B460FF02DFF89464FEA0B5A4FF0000880
:201AE0007DA3D3E900234046494610F0D7F822462B4604460D46404649460FF017FF02461B
:201B00000B46304639460FF011FF75A3D3E9002310F0C4F874A3D3E9002306460F464046A0
:201B2000494610F0BBF802460B46304639460FF0FFFE8046894642464B46204629460FF057
:201B4000F7FE22462B4606460F460FF0EFFE02460B46404649460FF0E9FE32468046894689
:201B60003B463046394610F099F861A3D3E9002304460D4610F092F85FA3D3E900230FF074
:201B8000D5FE22462B4610F089F85DA3D3E900230FF0CEFE22462B4610F080F85AA3D3E964
:201BA00000230FF0C3FE22462B4610F077F858A3D3E900230FF0BCFE22462B4610F06EF828
:201BC00002460B46304639460FF0B0FE04460D4622462B463046394610F060F802460B466E
:201BE0002046294614461D4600224FF080430FF09DFE02460B462046294610F079F942462D
:201C000004460D464B463046394610F047F842464B460FF08DFE02460B46204629460FF052
:201C200085FE32463B460FF081FE02460B4600203A490FF07BFE8A44BAF5801FC0F2238184
:201C40005146DDE9022310F029F8CDE90001FFF7F9BB002FFFF637AC4046314613B0BDE814
:201C6000F04F0FF0ABBCDFF8C0C021F00043634540F3CF802D4B0B4403430AD122462B4629
:201C80000FF054FE32463B4610F08EFA00283FF4F4AEDDE902010022002310F071FA0038C4
:201CA00018BF012013B0BDE8F04F0FF071BD00230024CDE90034FFF7C5BBBAF1000FF6DA27
:201CC00005F1004300940193FFF7BCBB0022C1E4FE822B654715973C00000000432EE63F9A
:201CE000EF39FAFE422EE63F396CA80C615C20BED0A4BE726937663EF16BD2C541BDBB3E69
:201D00002CDE25AF6A56113F93BDBE166CC1663F3E5555555555C53F0000F0BF0000F03F16
:201D2000FFFF8F40FFFF0F00FFCB904000346F3F994576DB724B99453FF7E2ABDDE90001F9
:201D400000226F4B0FF0F2FD61A3D3E9002306460F460FF0A3FF60A3D3E9002382468B4619
:201D6000304639460FF09AFF0022CDE90001654B304639460FF092FF02460B4658A1D1E97C
:201D800000010FF0D3FD32463B460FF087FF02460B4600205C490FF0C9FD32463B46804613
:201DA0008946304639460FF079FF02460B46404649460FF073FF4CA3D3E900230FF06EFF8F
:201DC00002460B46DDE900010FF0B0FD06460F465046594632463B460FF0AAFD52464FF0AB
:201DE000000A5B4650468B46DCE5424600203346434910F07DF8CDE90001FFF723BB4246DB
:201E00004046334631460FF049FFCDE90001FFF719BB3D4A934256DCDDE90023924693465C
:201E20005CE6BAF1000FFFF66FAB00203AE700297FF473ABC2F114024BFA02F000FA02F2AE
:201E40005A4539D00291FFF732BB029B012B7FF4F9AADDE90045224605F10043CDE9002300
:201E6000FFF7F0BA0022294B4FF48027CDE906231FA3D3E90023CDE908231FA3D3E9002340
:201E8000CDE9102308E45A4600F042F8D9E60022DDE90201002310F073F9003818BF01203A
:201EA000FFF733BB00F00100C0F10202029200293FF4FDAAFFF707BB00F00100C0F10202A3
:201EC0000292FFF7F4BA1B15D9E500BFAFF30080000000604715F73F44DF5DF80BAE543E46
:201EE000555555555555D53FFE822B654715F73F0000004003B8E23F06D0CF43EBFD4C3EB8
:201F00000000F03F0000D03F0000E03F0000F83FC1F30A5370B58C4604460D4616467BBBF6
:201F2000034621F0004C5CEA030328D0324B00220FF0B4FE314B04469E420D461ADB8C46A7
:201F4000C1F30A53363B40F2FE723344934220DC002B3EDC13F1350F2CDA4CF250339E42E1
:201F600017DC05F0004343F0D27141F4B731244841F01F011CA3D3E900230FF08FFE70BD8F
:201F800040F2FF7E7345DED102460B460FF0D0FC70BD05F0004343F0FC4141F45F1141F418
:201FA000105113A3D3E90023164841F03C010FF075FE70BD2CF0FF4C03F136012CF4E00C22
:201FC0004CEA01550022204629460F4B0FF066FE70BD2CF0FF4C2CF4E00C20464CEA035131
:201FE00070BD00BFAFF3008059F3F8C21F6EA5019C7500883CE4377E00005043B03CFFFFAF
:2020000059F3F8C29C7500880000903C4FF0E023D3F8282DB2F5806F04D0D3F8283D9B05B9
:2020200000D4FEE7704700BFFEE700BFFEE700BF08B507F0A1FA104A10498A420DD2104824
:2020400001390346891A21F003010431014453F8040B8B4242F8040BF9D10A480A494FF0AD
:2020600000028842B8BF40F8042BFADB04F0B2FFFFF7CCFF08BD00BF000000204E08002061
:20208000A14D0100500800201E3C0020F0B5002706463C463D4683B0304606F019F90195FB
:2020A000019B9C4206DD00BF019B01330193019BA342F8DB304606F039F90195019BC4F5C3
:2020C000C8749C4206DD00BF019B01330193019BA342F8DB0137B7F5487F06D0B7F5C87F18
:2020E000D4BF3C46C7F54874D6E703B0F0BD00BF70B54FF08054194DD4F8D8312846012174
:202100005B6898470122D4F8D83111461B682846984707F0FFF802F01DF801F09DFF00F08C
:20212000FDFD06F0CFF806F02FF90120FFF7AEFF01230B4ED4F8B01105F5B825F360094A7F
:20214000AB600B691020D26A984707F0E7F801F0F5FABDE870400020FFF798BF00400340BA
:20216000004009400020094000B541F2342083B003F080FD01F08CFD06F09CF9094801F047
:20218000BBFD684603F058FB08226946064810F097FB06F023F80220FFF778FF03B05DF832
:2021A00004FB00BF5D84000030150020002330B585B002A8CDE9003303F03EFB08221F4D89
:2021C0000DEB02016B6B0B201D4C984701206946AD6AA8472368022B1ADC022001A9A8477C
:2021E00078B92368022B08DC0021164805F044FB0020FFF74BFF05B030BD0199124807F072
:202200001BFE2368022BEFDD104807F015FEEBE70F4A1049104807F00FFE104807F00CFE86
:202220002368022BD9DD0B49094A0B4807F004FE00990B4807F000FECFE700BF1C31010099
:20224000CC060020E0060020303001009C3C0100E02F0100F02F0100F82F010008300100BB
:202260002030010001F0BEBD00B58E46844683B01346012172460DF107008DF807C001F0A6
:2022800041F803B05DF804FB074B18703AB101EB020C11F8010B614503F8010FF9D101327C
:2022A0000148D1B200F06ABE300E002029B1CC23014401F8013D8142FBD17047813801286F
:2022C0009ABF024B18680020704700BF6C0E00200322024B02481A6005F0BEBE6C0E002067
:2022E00070300100594B1B68032B40F0AB80431E012B2DE9F041044600F2A180544D062293
:202300000021284610F0CEFB7721002001F00AF906222946F720FFF7A7FF002800F0878050
:202320002A79EB784B4895F800E095F801C0A97812016D7942EA033242EA15160588B0F941
:202340000A70C5EB121202FB02F3B0F904201B1302FB03F36D00B0F90220C5EBD60502FB8F
:2023600005F59B1303EBE5235E10A6F57A46B51005FB05F5B0F908204FEA653806FB02F29B
:2023800008FB07F7521002EBE7029214C78802F5004207FB02F2D213836146D0090941EAC4
:2023A0000C1CB0F90E10ED1201FB06F6B0F91010760001FB0565B0F90C602749360406EBE2
:2023C000A5054CEA0E3E0EEB253E01FB0EFE0EF1434E0EF5A00EBEF1000FB3BFBEFBF2FE53
:2023E0004FEA4E0EBEFBF2FE4FEA4E0E4FEADE0202FB02F2B0F91610B0F91450520B01FBCB
:2024000002F2B0F912104FEA9E0005FB00F0401300EB223008440EEB2010012C03D103EB42
:20242000830080300012BDE8F0811046F5E728460621FFF73BFF4FF00040BDE8F0814FF076
:202440000040F0E74FF00040704700BF6C0E0020700E0020500E0020CBF3FFFF30B5802871
:2024600083B005D0812828D02D4B186803B030BD01242B4D772100202C6001F053F81C22C0
:2024800028498820FFF7F0FEB62322460DF10701E0208DF80730FFF7F7FE7721002001F0A8
:2024A00041F8002322460DF10701F4208DF80730FFF7EAFE286803B030BD194D2868002856
:2024C000D4D00C46B9B17721002001F02BF825230DF107010122F4208DF80730FFF7D4FEC7
:2024E00000230321104A114804F0DAFE022318462B6003B030BD0D4804F01AFF2046772108
:2025000001F010F801220DF10701F4208DF80740FFF7BAFE012318462B6003B030BD00BF9F
:202520006C0E0020500E0020D1220000780E0020813801289ABF024B18680020704700BF4C
:20254000A00E00200322024B02481A6005F084BDA00E002088300100314B1B68032B5CD160
:20256000820770B5044626D0032809D0012804D0022820D12B4B186870BD2B4B186870BD0B
:202580002A4D4421002000F0CDFF022229460420FFF76AFE58B12B885BBA2B805B0406D5B8
:2025A000234D022229460120FFF75EFE30B904211F48FFF77BFE4FF0004070BD022220468B
:2025C000A918FFF751FE0028F1D02888164E40BAC0F38D000FF03CFF4FF074510FF0EEF89B
:2025E000044668880F4D40BAC0F38D000FF030FF4FF074510FF0E2F80E490FF0DFF80FF0D4
:202600007BFF03460B49204633600FF0D7F80FF073FF03462B60012070BD4FF00040704713
:20262000A00E0020980E0020A40E0020C43B00209C0E002000007A44802838B504D081287B
:2026400027D02A4B186838BD4FF08054D4F8B43101209B6B9847D4F8B4314FF480410120F9
:202660009B699847D4F8B4314FF08041DB69012098474421002000F055FF022200231C490D
:2026800010460B80FFF700FE0123184A1846136038BD164D28680028D5D00C46A1B1442150
:2026A000002000F03FFF02221023114910460B80FFF7EAFD002324210E4A0F4804F0F0FD65
:2026C000022318462B6038BD0B4804F031FE2046442100F027FF0222054910460C80FFF756
:2026E000D3FD012318462B6038BD00BFA00E0020C43B002045250000A80E0020014B186850
:20270000704700BFE80E002000B5452183B0002000F008FF022201200DF10601FFF7A4FDE7
:20272000BDF90630002B08DB00231021074A084804F0B6FD03B05DF804FB064805F08CFC31
:202740000222054B1A6003B05DF804FB09270000C80E0020A0300100E80E002070B58028AA
:2027600082B01DD081282ED10C4679B301244521002000F0D7FE41F2C20321480DF106013E
:20278000046002222046ADF80630FFF77DFD002310211C4A1C4804F083FD204602B070BD29
:2027A000174D45212B68002003F0020400F0BAFE4FF48653022201200DF106012C60ADF864
:2027C0000630FFF761FD002002B070BD0C4E0E4804F0AEFD33682046452103F0020500F0D0
:2027E000A1FE4FF4865302220DF1060101203560ADF80630FFF748FD204602B070BD00BF25
:20280000E80E002009270000C80E0020813801289ABF024B18680020704700BFF00E0020C0
:20282000032138B5114C124A2378116033B9012310482370BDE8384005F00EBC0E4D43212C
:20284000002000F06FFE0421284600F0B5FC00212070084600F066FE2A886B88074808492F
:2028600052BA5BBA02800B80E1E700BFF03B0020F00E0020B8300100EC0E0020C83B002014
:20288000C63B002030B5802883B005D0812827D0274B186803B030BD0024264B264D042222
:2028A000214626481C802C8010F0FCF82046432100F038FE022210230DF106011046ADF8C0
:2028C0000630FFF7E1FC02461D4B204621461A7000F028FE01231846154A136003B030BDDE
:2028E000134C20680028D5D069B1154D2B7893B900230321134A144804F0D2FC0223184674
:20290000236003B030BD104804F012FD01231846236003B030BD4321002000F003FE0020FF
:2029200000F000FC00212870084600F0FBFDDFE7F00E0020C63B0020C83B0020EC0E00207A
:20294000F03B002021280000F40E002008B5174B1B78032B28D8DFE803F0151E0C020FF0E7
:2029600033F900224FF07D530FF098F90FF066FC08BD0FF029F900220D4B0FF08FF90FF023
:202980005DFC08BD0FF020F900220A4B0FF086F90FF054FC08BD0FF017F90022064B0FF077
:2029A0007DF90FF04BFC08BD002008BDF13B00200000303F0000103F0000203F8138012866
:2029C0009ABF024B18680020704700BF400F00200222024B02481A6005F03EBB400F00203A
:2029E000D030010010B56821012000F09BFD3F23094C012221466C202370FFF745FC4F23D6
:202A0000214601226B202370FFF73EFCBDE810400021084600F086BDF53B00208028F8B5A2
:202A20000CD0812807D111F03F0135D12F4BD3F88030DB0443D42E4B1868F8BD4FF0805446
:202A4000D4F8B43107209B6B9847D4F8B4314FF4005107209B699847D4F8B4314FF08041B9
:202A60000720DB699847D4F8B4310C20DB6B9847D4F8B4314FF440724FF480610C209B6A0F
:202A800098474FF48054002218481A4B1849C0F8A0401A600868F8BD4FF480570124154B22
:202AA000124E134D1960144AC6F890700023082112482C6004F0F4FB20462C60F8BD0D4BAD
:202AC0000E48196004F034FCFFF78CFF0C4AD2F8043813F00103FAD14FF48050044A0349A7
:202AE0001360C1F8A0001068F8BD00BF00200240400F0020140F0020052B0000200F00208B
:202B0000002000402DE9F041364C236813F0380F28D1354D03F03F042E785EB9002C3BD111
:202B2000FFF760FFBDE8F041002305212F4A304804F0B6BBE3B22B70002CF1D02D4FDB4314
:202B4000682101203B7000F0EDFC012229496C20FFF79AFB0021084600F0E4FC264806F0F8
:202B6000E1FBDFE7254F3A78002AD2D00025244E68210120357000F0D5FC314601221C2044
:202B8000FFF782FB06462946284600F0CBFC2368002EBED03D70BCE76821012000F0C2FCF3
:202BA0000923144F012239466B203B70FFF76CFB3F23012239466C203B70FFF765FB01229D
:202BC0000F491C202E70FFF75FFB012239463A20FFF74AFB3146304600F0A4FCE3B22B708F
:202BE000ADE700BF140F0020F43B0020D1290000200F0020F53B002080380100F13B002052
:202C0000F23B00200022014B1A707047F63B002070B500244FF08055174B18481C7001F0CB
:202C200015FA174AD5F8B811D368204623F00103D3600B6A9847D5F8B83120469B6A98474F
:202C4000D5F8B83120461B6B984701210D4B0E4A9962936A9B07FCD54FF08054D4F8B431F2
:202C600015209B6B9847D4F8B4310021BDE8704015201B6A184700BFF63B00204005002085
:202C800000000140002008600020084010B54FF08054D4F8B83104205B699847D4F8B831FA
:202CA00004205B6B98470128F8D110BDFFF7EEBF032801D000F0FCB808B5FFF7A9FF114B92
:202CC00000219B68812098470F4B00219B68812098470E4B00219B68812098470C4B0021DD
:202CE0009B68812098470B4B00219B68812098474FF48052084BC3F8A020BDE8084000F097
:202D0000D7B800BF70300100A030010088300100B8300100D03001000020024070B506F0D3
:202D2000F9FA0646FFF7B2FF4FF08053D3F8B8314FF4A060DB6998470121414B414A99624D
:202D4000936A9B07FCD54FF080544FF4005500F07FF8FFF757FF002006F0DAF93A4801F049
:202D60006FF9D4F8B43119209B6B9847D4F8B431294619209B699847D4F8B43118209B6BF1
:202D80009847D4F8B431294618209B699847D4F8B43117209B6B9847D4F8B43129461720F5
:202DA0009B699847D4F8B4311B209B6B9847D4F8B43129461B209B699847D4F8B4311E2032
:202DC0009B6B9847D4F8B4314FF480411E209B699847D4F8B4310D20DB6B98471B4AD4F804
:202DE000B431C2F8A05000214FF480720D209B6A9847D4F8B43102209B6B9847D4F8B43174
:202E0000294602209B699847D4F8B4310B209B6B9847D4F8B43129460B209B699847D4F883
:202E2000B4311D209B6B9847D4F8B43129461D209B69984706B170BDBDE8704006F06EBAF4
:202E40000020086000200840540500200020024070B54FF08055D5F8B83102205B699847F3
:202E6000D5F8B83102205B6B984701280446F7D1D5F8B8314FF44070DB699847084B094A28
:202E80009C62936A9B07FCD5BDE870404FF08053D3F8AC310122044904481B68184700BF58
:202EA0000020086000200840006CDC0200200040FF214FF0805310B52B4A02201170D3F89E
:202EC000B8315B6B984701280AD1284B1B6EDA0706D500232649274AC1F80438C2F81034B2
:202EE0004FF08053D3F8B8314FF440701B6A98470121214B1D4A9962936A9B07FCD54FF016
:202F00008054D4F8B43108209B6B9847D4F8B4314FF4005108209B699847D4F8B4310920F5
:202F20009B6B9847D4F8B4314FF4005109209B699847D4F8B43105209B6B9847D4F8B431EF
:202F40004FF4804105209B699847D4F8B43106209B6B9847D4F8B4314FF48041BDE81040FF
:202F600006209B69184700BF4C080020002008400020004000000542002008602DE9F047B1
:202F8000664B674D1B7807465B00C5F8003803780E46C5F8083800F0CFFB00F5CC541934B4
:202FA000D5F804385B0608D500F0C6FB001B0028F6DB00242046BDE8F08703230220C5F85A
:202FC000043806F0AFF900F0B7FBDFF8548100F5CC541934D8F80438D80746D44FF0805350
:202FE000D3F8AC314E485B68984710F00C0F7DD1012E40F28F800028DBD10124A046484DA4
:2030000006F1FF39631E3B4402E00134B4423ED213F8012F4C45C5F80828F6D20220C5F804
:20302000048806F07FF900F087FB00F5CC5A0AF1190AD5F80438D90710D44FF08053D3F841
:20304000AC3128465B68984710F00C0F824612D10134B44218D20028D4D0AAE700F06CFBF4
:20306000A0EB0A000028E4DBA3E700F065FB001B0028AFDB9DE704230220C5F80438013432
:2030800006F050F9A64294D8BAF1000F91D10523234D0220C5F8043806F044F900F04CFB64
:2030A00000F5CC541934D5F80438DA0725D44FF08053D3F8AC311A485B68984710F00C0FF2
:2030C000044620D100F038FBB4FA84F400F5CC55134E64091935D6F804385B067FF56AAF42
:2030E00000F02AFB401B0028F5DB62E704230220C8F8043806F016F95BE700F01DFB001B70
:203100000028D0DB55E704230220C5F8043806F009F9D7E700287FF44CAFB8E7F73B002021
:203120000020004070B5224B224D1B785B00C5F80038C5F8080800F0FFFA00F5CC54193433
:20314000D5F804385A0606D500F0F6FA001B0028F6DB002070BD07230220C5F8043806F0AF
:20316000E1F800F0E9FA134E00F5CC541934D6F80438DB070ED44FF08053D3F8AC310D4803
:203180005B68984710F00C0F044609D1B4FA84F0400970BD00F0D0FA001B0028E7DBD8E738
:2031A00004230220C6F8043806F0BCF8EEE700BFF73B0020002000402DE9F04F4F4BDFF816
:2031C00040A11B7883B05B0043F00103CAF800388846019000F0B0FA00F5CC541934DAF88F
:2031E000045815F0400508D000F0A6FA001B0028F5DB002003B0BDE8F08F0B230220CAF8A5
:20320000043841F699164FF080573D4C08F1FF3B06F088F85FFA85FADA452CDA00F08CFAD1
:2032200000EB0609D4F80428D20716D4D7F8AC3120465B68984710F00C0F15D101350028C6
:20324000D7D10923D4F808280199022001F80A20C4F8043806F066F8DCE700F06DFAA0EBCE
:2032600009000028DEDBC4E704230220C4F8043806F058F8BDE70523214E0220C6F80438DB
:2032800006F050F800F058FA00F5CC541934D6F8045815F0010521D14FF08053D3F8AC316B
:2032A00017485B68984710F00C0F1DD10028A0D1019AD6F80838424402F8013C00F03CFADF
:2032C0000F4D00F5CC541934D5F804385B0613D500F032FA031B002BF6DB8AE700F02CFA21
:2032E000031B002BD3DB84E704230220C6F8043806F018F828467DE701207BE7F73B00207C
:20330000002000402DE9F84FDFF810A2844F9AF8004099466400C7F8004803780546C7F8F3
:2033200008380E46904600F007FA00F5CC541934D7F804385B0607D500F0FEF9001B00285E
:20334000F6DB0020BDE8F88F03230220C7F8043805F0E8FF00F0F0F9714F00F5CC54193436
:20336000D7F80438D80740D44FF08053D3F8AC316B485B68984710F00C0F3CD1012E41D9CF
:203380000028DED1013E0127DFF894B12E440DE04FF08053D3F8AC3158465B68984710F07A
:2033A0000C0F1BD1AE422DD00028CAD115F8013F0220CBF80838CBF8047805F0B3FF00F00E
:2033C000BBF900F5CC541934DBF80438D907DFD500F0B2F9001B0028F6DBB2E704230220A3
:2033E000CBF8043805F09EFFABE700F0A5F9001B0028B5DBA5E704230220C7F8043805F084
:2034000091FF9EE700289CD10B229AF80030444C5B0043F00103A8F10207C4F80038022039
:2034200008F1FF3AC4F804284F4405F07BFF574541F699154FF080561ED000F07DF900EB9B
:20344000050BD4F80438DA0749D4D6F8AC3120465B68984710F00C0F48D100287FF471AFB4
:203460000923D4F8082802200AF8012FC4F8043805F058FF5745E0D10523294E0220C6F8C0
:20348000043805F04FFF00F057F900F5CC541934D6F8045815F001052FD14FF08053D3F8F9
:2034A000AC311F485B68984710F00C0F2BD100287FF447AFD6F80838C84408F8013C00F037
:2034C0003BF9174D00F5CC541934D5F804385B0621D500F031F9031B002BF6DB31E700F056
:2034E0002BF9A0EB0B000028ABDB2AE704230220C4F8043805F016FF23E700F01DF9031BDA
:20350000002BC5DB1DE704230220C6F8043805F009FF284616E7012014E700BFF73B002004
:20352000002000404FF0805370B53A4A04461170D3F8B83102205B6B984701283ED0FFF7FD
:2035400087FC354B1A78A24240D00022334D34491C70C5F80428C1F810241B78002B36D09D
:20356000012B20D14FF08054D4F8B4314FF4C04108209B699847D4F8B4314FF4C0410920FD
:203580009B699847D4F8B431092208212846DB6C9847D4F8B43105209B6B9847D4F8B43143
:2035A00006209B6B9847BDE870404FF08053D3F8AC3101221B4919481B6818471A4B1B6E39
:2035C000DB07BCD5144B1A78A242BED170BD4FF08054D4F8B4314FF4C04105209B699847D7
:2035E000D4F8B4314FF4C04106209B699847D4F8B431062205212846DB6C9847D4F8B43189
:2036000008209B6B9847D4F8B43109209B6B9847C9E700BFF73B00204C0800200020004049
:2036200000000542006CDC020020084010B54FF08054D4F8B83104205B699847D4F8B83188
:2036400004205B6B98470128F8D110BD38B5002400254FF080531A4A0420C2E90045D3F857
:20366000B8315B6B9847012801D0FFF7DFFF4FF08053D3F8B8310020DB6998470121114B67
:20368000114A9962936A9B07FCD54FF080520F4C0F49E368204623F4807323F00103E3608B
:2036A000D2F8C83104251B689847312040F221210122084B2560E063A1605A6038BD00BF4A
:2036C00050080020002008600020084000000140002100040000244310B505F05BFD002380
:2036E000044C400E40EAC112C4E90023D4E9000110BD00BF5008002010B505F04BFD002378
:20370000064C400E40EAC112C4E9002303F01CFF00B910BDBDE8104003F0F6BE5008002094
:20372000014B9868704700BF00200940704700BF0146012000F04AB805F020BD2DE9F8436B
:2037400005F0E8FD01254FF480724FF000094FF480334FF080561B4CDFF86C802321C8F8B3
:203760000090656062606360D6F8843107461B6848469847D6F88431242128461B68984717
:20378000D6F88431252102201B689847236843F4E0232360C4F8089005F0F0FC0346D6F848
:2037A000B02103F50073E361C8F8A052C8F800501420136998470FB1BDE8F883BDE8F84378
:2037C00005F0ACBD0020094000002443431E012B10B419D9042815D100231A4610F00400DF
:2037E0001CBF124C21621BB10121114BC3F880121AB101220E4BC3F8A02218B101220C4B6F
:20380000C3F8C02210BC7047012808D10346074A916110F0020204D0044CE161DEE70023A8
:20382000F7E7002BEED01046DEE700BF0020094000002443014B1868704700BF480F00205E
:2038400010B5FFF779FF194B1860FFF755FF184BD3F8A0307BB9164BD3F88020EAB9144B0F
:20386000D3F8C02032B100204FF48031114AC3F8C002516010BD4FF480730E4C636005F008
:203880007DFC00F2052020F4FF70094B20F00100E061D3F88020002AE1D000200121054A98
:2038A000C3F88002516004F03FF9D8E7480F002000002443002009400122024BC3F8002C91
:2038C000704700BF0000084010B505F023FD114BD3F8002C012A0AD04FF0864201210E4C75
:2038E0001C60C2F80411C2F8001178B110BD4FF086410A4CC3F8004C074C1C60C1F80421AC
:20390000C1F80021C3F8002C0028EFD1BDE8104005F004BD00000840502D190051E5CC1A59
:203920000122014BDA6070470000084008B5FFF7CBFFFEE770B5044605F0ECFC214606467E
:20394000114804F019FA104804F014FA38B101210E4B0F4AC3F8001253699B06FCD54FF0B6
:203960008055D5F8A03160681B689847D5F8A03160689B6898471128F8D106B170BDBDE8D7
:20398000704005F0CBBC00BF4C0F0020000022430010094008B5064804F0ECF938B1012114
:2039A000044B054AC3F8001253699B06FCD508BD4C0F0020000022430010094010B5A8B152
:2039C0004FF0805C0021134C134A6368012023F4C0536360DCF8A031C2F88011C2F800125A
:2039E000DB68984763699B06FCD410BD04460B4804F0C0F90028E3D005C814430028FBD15E
:203A0000002CDDD0034A536823F4C05343F40063536010BD00100940000022434C0F002048
:203A200038B5054605F076FC04462946054804F0EFF90020FFF7C2FF04B138BDBDE8384067
:203A400005F06CBC4C0F002070B590B10E460024451E04E0A64206D000F02EF9013415F892
:203A6000010F0028F6D100F081F90128FBD0204670BD0446F7E700BF38B54FF08055D5F8A1
:203A8000B83102205B699847D5F8B83102205B6B984701280446F7D1D5F8B8314FF4007057
:203AA000DB699847034B044A9C62936A9B07FCD538BD00BF0020086000200840F0B54FF051
:203AC000805540F2F27683B0284CFFF7D5FFD5F8D0312046DB689847D5F8B03115205B6909
:203AE0009847A36BD5F8B42123F4FE6323F00203A3636664D36B1D2098474FF000514FF0AE
:203B0000FF331B4A2046C2F89010D5F8B4210093176C1C211D22B847D5F8D0216023204674
:203B2000576814494FF4E132B847142240F2011340F201306263E26A0F4942F01002E26244
:203B40000A68002A18BF0346236366640B685BB11520A36BD5F8B02143F05003A3631369F1
:203B600003B0BDE8F040184703B0F0BD0010004000200240006CDC02500F00204FF0805371
:203B800070B5D3F8B83104465B6B02209847012807D13B4BDB6ED80703D53A4A9369190714
:203BA000FCD4032C47D0384B1B6803B170BD4FF08055D5F8B83102205B6B9847012858D125
:203BC0002F4BDB6EDA0715D54FF080562D4DD6F8D0312846DB689847D6F8B03115205B69C1
:203BE000984740F2F272AB6B23F4FE6323F00203AB636A644FF08053D3F8B8314FF4007055
:203C00001B6A9847032C25D00121204B1C4A9962936A9B07FCD51D2000F02EFA1C2000F03D
:203C20002BFA4FF0FF3000F027FABDE870404FF0FF3000F021BA4FF08055D5F8B831022066
:203C40005B6B98470128BBD0D5F8B8314FF400701B6A98474FF08054D4F8B8314FF40070C3
:203C60009B6A9847D4F8B8314FF400701B6B9847CAE7D5F8B8314FF400701B6A9847C3E76B
:203C80000020084000100040500F00200020086010B505F03FFB0446054800F0D1F90022FE
:203CA000044B1A6004B110BDBDE8104005F036BB68050020500F00204FF0805310B5D3F830
:203CC000B83104465B6B0220984701280BD0FFF7F5FE4FF08053D3F8D0312146BDE81040C3
:203CE0000348DB691847034BDB6EDB07F1D4EEE70010004000200840184A10B51060D8B1EB
:203D00004FF080540221164AD4F8B83111614FF400705B6A9847D4F8B8314FF40070DB6AE2
:203D2000984701210F4B104A9962936A9B07FCD5BDE81040FFF7C2BE03464FF08054084A4A
:203D40004FF400701361D4F8B8319B6A9847D4F8B8314FF400701B6B9847E2E7500F00208E
:203D600068050020002008600020084008B54FF08053D3F8B83102205B6B984701280AD178
:203D8000064BD86E10F0010004D0A3F501239869C0F3C00008BD002008BD00BF00200840B6
:203DA00070B5FFF769FE40F2F2720C4C236C626413F0500F0DD00A4D4FF0805606E0D6F8DF
:203DC000D03120461B6998472B681BB9A369DB06F5D570BDC0B29847EEE700BF0010004099
:203DE000500F0020F8B505F095FA03F005FE18B1BDE8F84005F092BA884803F0BBFF022592
:203E0000044648B1636823B19847A84228BF2846C5B22468002CF5D1FFF78EFC804B044618
:203E2000D3F88032002B00F0D2807E4B9B691B1A022B00F19680A3F28F23002BACBF022063
:203E40000120854228BF054603F07EFB002840F08E80012D00F0CB80022DC9D12846611E57
:203E6000FFF7B4FC6D4803F085FF06250446002800F0AF80A3680BB10220984723692468D4
:203E800025EA0305002CF5D1FFF74AFD6B0700F1A380002D40F0A38000F0BCF90020FFF71B
:203EA0008DFD4FF08052604C3920236823F003032360A36843F00F03A360D2F8B8319B6931
:203EC00098470020594B20642064C3F8200405F0FFFD062D00F09D804FF080560027544C4B
:203EE000504D0321EB6AD4F82432524823F00303C4F82432D6F8D8315B689847D6F8B83195
:203F00009B6B9847EB6A05F003FF4B4AD6F8D831C2F88071474801215B6898470121D4F818
:203F20002432464A43F00303C4F82432D160EB6A05F020FFFFF72EFDFFF7DEFBFFF7F0FCE4
:203F4000364803F017FF044628B1E36803B198472468002CF9D105F0E1F9BDE8F84005F0B6
:203F6000DDB903F0F1FA00283FF442AF002503F0F3FA0646FFF7B0FB361A002E7FF738AFB4
:203F8000FFF758FC00EB46210B1BA3F28F22002A36DA002D3FF42CAF082B2ED404F58034C2
:203FA000631A31EA230128BF21460220FFF70EFC4FF0E022D2F8103D23F00403C2F8103D5C
:203FC00030BFFFF7ADFCBDE8F84005F0A7B9022037E7FFF7A5FC06250022184BDA604FF021
:203FE0008053D3F8B83128469B69984754E7022004F58031FFF7EAFBDAE704F10801D4E78D
:20400000012DC9D0022D7FF4F3AE2846FFF7DEFB28E7022005F024FA5EE700BF540F00208E
:20402000000024430020094000100940000022430020084000400340000004430040094037
:204040000146014803F098BE540F00200146014803F0DEBE540F002010B5064803F086FED8
:20406000BDE810404FF08053D3F88431202103201B681847540F0020431C10D04FF080539F
:2040800010B5D3F8B43104461B684FF4C042002198470023024840EA8404236010BD704773
:2040A000001A4442034BD3F8E000C3F8E00004F0F5B800BF002002404FF0805370B5D3F808
:2040C000B4310C465B680546984714F00C0320F0E06222F4EC2207D0042B23D0082B24D013
:2040E0000C2B08BF42F4403214F0030310D142F4C04223064FF08053D3F8B4312846BDE8F9
:2041000070404FF000011B6848BF42F480221847022B04D0012B08BF42F48042E9E742F4FC
:204120000052E6E742F40032DEE742F48032DBE7074AD2F8D030C340DB074CBFD2F8803004
:20414000D2F8C03023FA00F000F00100704700BF002002400022412300B585B002A8CDE9FF
:204160000223FFF7E7FB042005F06AF9032805D102A8FFF755FC05B05DF804FB0321042083
:2041800005F032F9042005F05BF90328FAD11C234FF0405200210090044805F0DDF802A81B
:2041A000FFF73EFC05B05DF804FB00BF00A00C400022412300B583B06846CDE90023FFF730
:2041C000B9FB012005F03CF9012803D00121032005F00AF96846FFF723FC03B05DF804FBDD
:2041E0000022412300B583B06846CDE90023FFF7A1FB012005F024F9012805D04FF08053F5
:20420000D3F8800004F090FF6846FFF709FC03B05DF804FB10B54123002482B06846CDE93D
:204220000043FFF787FB0320214605F0DDF8012005F006F920B96846FFF7F2FB02B010BD71
:204240004FF08053D3F8800004F06EFF6846FFF7E7FB02B010BD00BF70B5038804463BB1F6
:2042600040F2CB22934208D182290AD0012070BD40F2CB232380012070BD002323800320A4
:2042800070BD0A4B0A4E1D69FFF74AFB04F06CFD04F000FE4FF4A061A847002880B2E7DDE3
:2042A00004F0F2FDF3689847EEE700BF1C310100D0490100024BD3F89C0100F00100704788
:2042C000002008404FF0FF332DE9F0412E4C8046236023680F460B6010F0030302D102884D
:2042E00011050DD405F016F8284B0546D3F89C31DB071BD4002D36D000252846BDE8F081C1
:20430000438005F007F8214B0546D3F89C31DA07F0D5B8F8003013F4405F07D003F44063FA
:20432000B3F5006F04BF1A4BC3F80080194E4CF25032C6F800807368236003E07368013A47
:20434000236018D02368DBB2002BF7D085B123683B602568EDB2A5F10105B5FA85F56D0925
:204360002846BDE8F08104F0D9FF2846BDE8F08104F0D4FFEBE71DB1236800253B60BCE714
:2043800004F0CCFFF8E700BF580F0020002008405C0F0020001004400B4A01E0013A11D0A0
:2043A000438803F44063B3F5806FF7D14388074A9BB21360428802F44062A2F58062B2FAD6
:2043C00082F252091046704720A10700580F002070B54FF0805482B004F09CFFD4F8B0310C
:2043E00005461B6A19209847D4F8B03112201B6A9847D4F8B03119205B699847D4F8B0315C
:2044000012205B699847D4F8B83101205B699847D4F8B83101205B6B98470128F8D1174A80
:20442000174BD0629862936A9B07FCD54FF080540022144BD4F8B0111A615A6119200B697A
:204440009847D4F8B03112201B6998479DB140F2FF3600240C4B0D4A0D4D01A92E600D48CD
:20446000DC611A60FFF72EFFA0F10100B0FA80F0400902B070BD04F051FFE8E70020084013
:2044800000200860001004600010044051000706000004600100060400B587B014220021BC
:2044A00001A80EF0FFFA4FF0010C40F60A0218499DF8113009686CF30303059101A86946D3
:2044C000ADF804208DF81130FFF7FCFE012803D0002007B05DF804FB0E4801E00138F8D0FE
:2044E000BDF8063003F44063B3F5806FF6D1BDF80630094A9BB21360BDF8060000F440608C
:20450000A0F58060B0FA80F0400907B05DF804FB600F002020A10700580F002000B587B0EE
:204520001422002101A80EF0BDFA4FF0010C40F609029DF8113069466CF3030301A8ADF801
:2045400004208DF81130FFF7BDFE012803D0C0B207B05DF804FB134A01E0013A1CD0BDF82D
:20456000063003F44063B3F5806FF6D1BDF806300D4A9BB21360BDF8063003F44063B3F5DE
:20458000806F09D1094B1A7852B90122059808491A7008601046DBE7002007B05DF804FB1B
:2045A0000120D5E720A10700580F0020F83B0020600F002030B54FF0805487B004F0AAFE22
:2045C000D4F8B03105465B6919209847D4F8B03112205B699847334BD3F89C31DA072FD48B
:2045E000FFF79CFF002001212E4A2F4BD0629962936A9B07FCD54FF08054D4F8B831012070
:204600009B699847D4F8B83101205B6B98470228F8D1D4F8B03119201B6A9847D4F8B03152
:2046200012201B6A9847D4F8B03119201B699847D4F8B03112201B6998476DB307B030BD95
:2046400000211A4B102219610124596102A80EF029FA40F60D029DF8153002A864F3030358
:2046600001A9ADF808208DF81530FFF72BFEA042B6D10F4A01E0013AB2D0BDF80A3003F494
:204680004063B3F5806FF6D1BDF80A30094A9BB21360BDF80A30A3E707B0BDE8304004F0DE
:2046A0003DBE00BF00200840002008600010046020A10700580F002008B504F075FD05283D
:2046C00003460ED0032806D080B903220C4B0120C3F8D02108BD0222094B0120C3F8D02126
:2046E00008BD074A0120C2F8D03108BD012801D0002008BD0521024AC2F8D01108BD00BF93
:204700000020084038B5194B194A1978D2F89C210029184C18BF0024D30700D438BD04F046
:20472000F9FD02464FF080550021134B134898615C611446D5F8B0211961136A1920984790
:20474000D5F8B03112201B6A9847D5F8B03119201B699847D5F8B03112201B699847002C5C
:20476000DCD1BDE8384004F0D9BD00BFF93B0020002008400000C0800010046000004080F6
:2047800038B50B460446154600211A460EF08AF90122637B258062F30303637338BD00BFA9
:2047A00010B5104BD3F89C31DA0704D4FFF710FE012800D010BD0C4C23695B0204D46FF046
:2047C0000042094B1A6110BD0122084B08481A7003F04EF96FF480036FF000422361024B19
:2047E0001A61F0E70020084000100460FA3B00207C05002008B5114BD3F89C31D90704D42C
:20480000FFF7E6FD012800D008BD04F083FD0C4B1A6912020BD40A4B1A6912F00A0F1CBFF2
:204820006FF00A021A61BDE8084004F077BD6FF4000204481A6103F01BF9ECE7002008400F
:20484000001004607C05002008B5034B1B689847B0FA80F0400908BD70370100012070472E
:20486000002108B5024B08465B6B9847012008BD7037010070B567380C4686B013280BD822
:20488000DFE800F00D171B1F0A0A232B343D410A454E0A52565A5E78012006B070BD43F633
:2048A000EC73A1F114029A4274D84A4B00201980F3E7494B00201970EFE7484B0020197052
:2048C000EBE7474B00201970E7E7002964D1454DEB69A0B298470020DFE743F6FC730A1FD1
:2048E0009A4257D8404B00201980D6E743F6FC730A1F9A424ED83D4B00201980CDE73C4B5D
:2049000000201970C9E73B4B00201970C5E7002953D1344D00216B6AA0B298470020BCE7AB
:20492000354B00201970B8E7344B00201980B4E7334B00201980B0E7324B00201980ACE745
:20494000002935D02F482D492A4A04882C4B08881178294A1B8803941278CDE90010214C42
:204960002249214802930988274BA46A0088A047002092E771B11B4C0020246B214BA44627
:204980001F4A1E491B8812880988059406B0BDE870406047022080E7124D114B0F4A0E493A
:2049A0000C481B7812780978EE680088B0478FE70C4BDB6A984720466FE70A4D0D4B0B4A7F
:2049C00009490B481B78128809882E6A0078B047A0E700BFCA3B0020FD3B0020FC3B002053
:2049E000FB3B002070370100D43B0020D63B0020003C0020FF3B0020FE3B0020CE3B002021
:204A0000D03B0020D23B0020640F00206C28134610B505D0752812D06B280BD0012010BD49
:204A2000013A1D2A09D841B10E4A98B293699847002010BD013A1D2A0BD9022010BD531EF1
:204A4000052BFAD80029F8D007480DF039FF002010BD0029F1D0034A98B2536998470020B6
:204A600010BD00BF70370100640F0020002934D010B565280C4682B014D00AD9662820D027
:204A800076282CD1174B00201B6C9847002002B010BD0E281CD00F2821D1242300200B60D7
:204AA00002B010BD104803881BB90E4B01A99B689847022220460C490DF002FF002002B02C
:204AC00010BD084B01A89B689847002002B010BD002318460B6002B010BD02207047012027
:204AE000D5E700BF70370100CC3B00200B4B10B59B6B9847044620B1094B1B68002B01DC72
:204B0000012010BD074A0849084805F095F92146074805F091F9012010BD00BF70370100A8
:204B2000CC06002058310100FC300100F82F010000310100642801D001207047062A07D135
:204B400031B108B5034B08465B689847002008BD02207047703701000120704790F8211081
:204B600090F82C20234B0A4483FB021313445B1103EBC30103EB8103D31A70B5C5698469FE
:204B8000C3F12001DEB2A3F1200205FA01F124FA03F30B4325FA02F2134313F0010380F8BF
:204BA0002C6002D080F82D6070BD90F820209E46B6FBF2F102FB1166F6B2C3F1200CA3F195
:204BC000200124FA03F205FA0CFC25FA01F142EA0C020A43D207D9B203F1010307D576450F
:204BE0000EF1010E08BF80F82D105FFA8EFE252BE3D170BDA7C867DD70B5264B0C461B88D7
:204C000082B0002B44D04FF4B6620C21224D013B9BB2AE1802FB036605F5D87E2B464FF077
:204C2000000C93F8E8232433052A04BF0CF1010C1FFA8CFC7345F4D18C451DD905F5B66585
:204C4000AE420EF5B66EE9D1144BA3FB0123C3F34F034FF480750DF106010222ADF8043020
:204C6000ADF806500DF02CFE0222204601A90DF027FE002002B070BD2B46002193F8E82395
:204C80002433052A04BF013189B27345F6D1D5E70123DEE7D83B002058080020398EE338A5
:204CA000F8B5064615461F4600F5797400F2945E94F804C0BCF1050F08D024347445F7D1B3
:204CC000174B1B68012B1FDC0320F8BD1B2D0CD82A4604F109000DF0F3FD06230135EDB26B
:204CE000E580277223710020F8BD0D4B1B68012BEADD0C4A0C490D4805F09EF829460C4831
:204D000005F09AF80320F8BD064A0749074805F093F8B18E074805F08FF80320F8BD00BF24
:204D2000CC0600205431010060310100F82F0100AC3101006831010070B5344C8EB0CDE930
:204D40000421A28E0393C3B29A424CD1304E3368022B4BDC0023628DE17B0632ADF81E2004
:204D60008DF82110022205A909A88DF820308DF822308DF823300DF0A3FD022204A90DF10A
:204D800026000DF09DFD022203A90AA80DF098FD02220DF11E010DF12A000DF091FDE27BF1
:204DA000059B84F8A325A4F8A635DDE90332A4F8A825BDF81E20A4F8AA35A4F8AC25032333
:204DC0000C22124808A9FFF76BFF08B90EB070BD3368002B07DD0F4A0F49104805F02CF8C2
:204DE0000F4805F029F803200EB070BD0546094A0C490A4805F020F8039A29460092049BA9
:204E0000059A094805F018F8A4E700BF58080020CC06002054310100FC300100F82F010006
:204E20002C320100F02F0100DC31010008B5FFF741FA00280CBF0220012008BD2DE9F04FA7
:204E4000074687B00E200D4604F06AF8DFF8BC90014602A803F0C8FBB9F8003003B34FF057
:204E600000084FF4B66BDFF8A8A02A4B1FFA88F60BFB063604A8314600F0CCFC514602A83D
:204E800003F0B6FB88B904A902A803F0B1FB60B9B9F8002008F101081FFA88F39A42E4D81F
:204EA0000023184607B0BDE8F08F002455B9EFE701233046D2B2FFF7F3FE1B34A4B288B9A3
:204EC000A542E5D92A1B1B2AA8BF1B223919002CEED102233046D2B2FFF7E2FE1B34A4B228
:204EE0000028EDD00C4A03461268012AD9DD0B4A0B4901900B4804F09FFF0B4804F09CFFD2
:204F0000019B184607B0BDE8F08F00BFD83B0020D845010058080020CC06002054310100B4
:204F200060310100F82F010060320100F0B51B4B83B01B68099F022B0B9E26DC00250F238C
:204F4000174C0A9AE3806280A68027802572FEF7F3FB064638460CF027FE0022114B0CF059
:204F6000C7FF0022104B0CF099FE0DF047F901463144E1602A460D4B009404F11000413946
:204F800002F08CFD284603B0F0BD094A09490A4804F052FF094804F04FFFCFE7CC06002051
:204FA000B4100020000089400000F040F903000054310100F02F0100F82F01008032010097
:204FC00070B5044682B0FEF7B7FB1CB1104C94F8456016B1002002B070BD054620880CF07A
:204FE000E3FD00220B4B0CF083FF00220A4B0CF055FE0DF003F90146294400943246074B0A
:2050000004F14C00A16402F049FD002002B070BD6C0F0020000089400000F040590D000019
:2050200008B500F0E9FB002008BD00BF1F2808B509D802460C4B03F1260083F825200DF0E0
:205040003FFC002008BD094B1B68012B01DC022008BD074A0749084804F0EEFE074804F055
:20506000EBFE022008BD00BF6C0F0020CC0600205431010060310100F82F01009C32010005
:205080001F2808B507D802460B4B981D5A710DF017FC002008BD094B1B68012B01DC022018
:2050A00008BD074A0749084804F0C6FE074804F0C3FE022008BD00BF6C0F0020CC0600204B
:2050C0005431010060310100F82F0100C032010038B50B4D0B4C2D682080022DA170E2703A
:2050E000237101DC002038BD074A0849084804F0A3FE22792188074804F09EFE002038BD6B
:20510000CC0600206C0F002054310100F02F0100F82F0100DC32010010B5094CC3B2A28E66
:2051200008469A424FF0020205D104F112010DF0C7FB002010BD00210DF0B4FC032010BDBA
:20514000580800202DE9F04F0388064691B093B1154640F29252934214D1BB4B1B788B428D
:2051600016D0012011B0BDE8F08F6A8DB5F8AC359A4200F0038140F292530120338011B0C2
:20518000BDE8F08F00230320338011B0BDE8F08F95F88E3095F894259A420BD085F894357F
:2051A000002003F071FE10210C2003F09FFEA74BDB689847D5F8D8432379032BD5D14FF0D5
:2051C0000008DFF88892474610E0022B59D0012B00F08D802772D5F8D8331F71D5F8D843F1
:2051E0002468C5F8D8432379032BBED194F809B0227A0BF00303083A032B1FFA82FACBF34D
:20520000001BE2D100200021E37ACDE90401ADF80E70002B40F081808D4B1B68022B00F36D
:20522000EE80012204F10C0105F2A3500DF048FB022204F10D0105F2A4500DF041FB022242
:2052400004F10F0105F2A6500DF03AFB022204F1110105F5B5600DF033FB022204F1130198
:2052600005F2AA500DF02CFB022204F1150105F2AC500DF025FBB8F1000F76D1D5F8D843F3
:20528000A8E704EB0A031B7B019303F06DFD03F001FE524604F10B010DF012FB504603F0DE
:2052A000F3FD95F89640294607A800F0B3FA2146042003F01BFE019B012003F03F0103F066
:2052C00015FE64490E2003F01FFE07A90D2003F01BFE00210C2003F009FEBBF1000F02D013
:2052E000BAF11A0FCAD8D9F80C309847C6E703F0D1FD019003F0E2FD019B524604F10B0146
:2053000018440DF0DDFA03F0D9FD504480B203F0BBFDBBF1000FE6D0E2E7012B39D0082B81
:2053200014D00C2B74D00F2B00F0A480484A01931268012A9FDD484A4849494804F07CFD58
:20534000019B4848194604F077FD94E7404B1B68022B00F3B0804FF00908082200210DF1E8
:2053600025008DF824800DF09DFB03234246284609A9FFF795FCD5F8D8432BE7002003F0E8
:2053800083FD30210C2003F0B1FD304BDB689847F1E62F4B1B68022B4DDC04F10C0105227F
:2053A00004A80DF08DFA04F1110102220DF10E000DF086FADDE904C40023BDF80E10C5F8C8
:2053C00098C5C5F89C45A5F8A01585F8A275C3F12000A3F120012CFA03F204FA00F0024315
:2053E00024FA01F10A43D20703F1010304D595F8A225013285F8A225252BE8D13BE7164A50
:205400001949174804F018FD184804F015FD08E70F4B1B68022B57DC0C238DF824300723FE
:205420000422AA210DF126008DF825304FF006080DF038FB99E7084A0B49094804F0FCFC9D
:205440000B4804F0F9FCA8E7013C0020D0490100CC0600203015002054310100603101009B
:20546000F82F0100E4330100F02F010014330100443301001D4B1B68022B2EDC04F10C01E8
:20548000022202A80DF01CFA04F1100102220DF10A000DF015FA04F11201022203A80DF019
:2054A0000FFABDF80C30BDF80A20BDF80810A88EFFF742FCDFE60E4A0E490F4804F0BCFC65
:2054C0000E4804F0B9FC46E7094A0A490A4804F0B3FC0B4804F0B0FC9EE7054A05490648A2
:2054E00004F0AAFC074804F0A7FCC7E7CC06002054310100F02F0100F82F01006C3301001E
:2055000090330100B433010010B5FEF751FEFEF7D1FE10B10024204610BD0446FEF758FF64
:20552000012810D01C4B1B68002B03DCFFF742F8204610BD194A1A491A4804F07DFC1A4814
:2055400004F07AFCF2E7FEF7A7FF01280CD0124B1B68002BEADD114A1149124804F06CFC2B
:20556000124804F069FCE1E7FFF7CCF8FEF738FE00F0CCF90128CDD0074B1B68002B01DC73
:205580000324C8E7054A0649064804F055FC084804F052FC0324BEE7CC060020543101002E
:2055A000FC300100F82F01000C34010038340100643401002DE9F84F804C2368022B00F37B
:2055C000E5804FF0010A4FF000094FF03C0B7C4F54463D46DFF8EC817B48FEF731FDFFF746
:2055E0006BF84FF4A4724946404608F1BC060DF059FA0822494608F1B4000DF053FA4422B9
:2056000049463046C8F8B460C8F84461C8F8B8900DF048FA98F8C13008F580706AF38303B4
:2056200088F8C13044224946A8F8C2B0C8F8BC000DF038FA98F80531C8F80061634E6AF352
:20564000830388F805314FF486724946A8F806B130460DF027FA06F180080822494606F12A
:2056600078000DF01FFA442249464046C6E91E89C6F808810DF016FA96F8853006F1C40079
:205680006AF383034422494686F88530A6F886B0C6F880000DF006FA96F8C9304FF4B6620E
:2056A0006AF3830386F8C9304946C6F8C4803846A6F8CAB00DF0F6F90822494607F1A0002C
:2056C0000DF0F0F907F1A803C7E92839DFF80081C7F8D83305F1A80901264422002148462B
:2056E0000DF0E0F93C22A8FB0413DB0803EB4303A4EB830303EB031307EB83034435A833C0
:205700006B6699F80530344466F383030D2C89F80530A5F86A20DDD1082200212D480DF01A
:20572000C1F900232C4CC7E9F73304F5D8752046242200210DF0B6F905226379243466F3C7
:205740008303A54204F81F3C04F8202CEFD1FFF7DBFE0446B0B9FEF72DFFFEF75BFD1F4826
:2057600002F094F910B12046BDE8F88F02F07CF802461B4B214619481A7002F07DF8204624
:20578000BDE8F88F03242046BDE8F88F154A1649164804F051FB0121154804F04DFB236882
:2057A000022B7FF70EAF10490E4A104804F044FB4FF480710F4804F03FFB02E7CC060020B9
:2057C000580800206C0F00209C050020B4100020ABAAAAAA340C00203C0C00208C050020E7
:2057E000013C002054310100F02F0100F82F010014370100303701000549431E00F1050C19
:205800000144CA1A127803F8012F6345F9D17047EC12005038B5032204460D460DF050F83F
:20582000FF20FE230322E0702371A918601DBDE838400DF045B800BF30B583B06A460546F8
:205840000C4B0D4C13F80119A34202F8011BF9D16946032228460DF033F8FF24FE230322DB
:20586000681D0DEB0201EC702B710DF029F803B030BD00BFED120050E712005010B582B0A4
:2058800001A90446FEF71EFD012804D0094B1B68002B02DC002002B010BD074A0749084897
:2058A00004F0CAFA6188074804F0C6FA002002B010BD00BFCC06002054310100FC30010041
:2058C000F82F0100B437010010B50446FEF764FD012804D0084B1B68002B01DC002010BD87
:2058E000064A0749074804F0A7FA6188064804F0A3FA002010BD00BFCC0600205431010038
:20590000FC300100F82F0100EC37010010B588B040F60202182102A8FEF732FF002443F275
:2059200061131B4A02A801A907928DF81640ADF81A30FEF7C7FC012815D102A8FEF72CFD48
:2059400001280ED0134B1B68002B10DD124A1349134804F071FABDF80A10124804F06CFA52
:20596000204608B010BD0B4B1B68002B02DC204608B010BD084A0949094804F05DFABDF87A
:205980000A10094804F058FA204608B010BD00BFB0050020CC06002054310100FC30010032
:2059A000F82F0100EC370100B4370100F8B504460F461646002118221D460DF073F841F6AA
:2059C0000303A189238021F47062E37B22F00F0242F480726FF3C713A7732661A281E3730E
:2059E0006561F8BD2DE9F843044688461746002120221E469DF820909DF828500DF052F806
:205A000001210B9B05F001052361099BE27EE360A388AD0223F4BF5345F0ED0523F01F0399
:205A20001D4361F30302C4F80080A77184F80790A660A580E276BDE8F88300BFF8B50446ED
:205A40000F461646002118221D460DF02BF8A189069B21F4706222F00F0242F48172A28196
:205A600041F60802A360E37BA7736FF3C71326616561E3732280F8BD41F2ED1C10B51624F9
:205A800003F001034CEA832C069B9DF80CE08360029B0EF0010EC360049B4CEACE2C036125
:205AA000438B016023F4706323F00F0343F4827343838388059923F4FF5323F01F034CEA39
:205AC000030CC4714161C261A0F804C010BD00BFF8B504460F461646002118221D460CF073
:205AE000E1FFA189069B21F4786222F00F0242F48172A28141F60102A360E37BA7736FF386
:205B0000C71326616561E3732280F8BDF0B5EF279DF82850C0E900129DF814609DF818E098
:205B20009DF81CC0089C0772C5B100220425428101220B21C360C37C04EB840465F30303CD
:205B4000C374C37E640062F303030674446180F811E080F812C04172C376F0BD0422C3605A
:205B6000099B458104EB4304C37C067462F303030122C374C37E446162F3030380F811E06D
:205B800080F812C0C376F0BDF8B504460F461646002118221D460CF085FFA189069B21F40F
:205BA000706222F00F0242F48172A28141F60202A360E37BA7736FF3C71326616561E3730F
:205BC0002280F8BD4FF0EF0C70B59DF81C50C0E900129DF810409DF814E09DF8186080F860
:205BE00008C00DB10B2242724FF0040C4EF660210C22C360C37C04746CF3030380F811E054
:205C00008674C3744161C27270BD00BF10B50A460446052384B0694601A8CDE90242ADF8DF
:205C20000430FEF74FFB012804D00A4B1B68002B02DC002004B010BD074A0849084804F08C
:205C4000FBF8BDF80610074804F0F6F8002004B010BD00BFCC06002054310100FC30010050
:205C6000F82F01002038010008B500F077F880B208BD00BF00F004B938B54FF08055D5F856
:205C8000B83104205B699847D5F8B83104205B6B984701280446F7D1D5F8B83140F2014071
:205CA000DB699847034B044A9C62936A9B07FCD538BD00BF0020086000200840034B1B6842
:205CC000002B0CBF02200120704700BFC0110020F8B5038804465BB3B3F5847F2DD1194B87
:205CE0001B788B4201D00120F8BD174D2B686BB14FF080530026154AD3F8CC3157685B68A9
:205D00000220984739462B6898472E604FF08053D3F8B83140F201409B6A984701210C4B6D
:205D20000C4A9962936A9B07FCD50B48FEF78EF94FF4847323800120F8BD00232380032037
:205D4000F8BD00BF4D080020C0110020008002400020086000200840D005002070B52B4B27
:205D60001B686BB12A4900230A4612F8014B002C3CD10133042BF8D125462046294670BD76
:205D80004FF08053D3F8B83104205B6B9847012837D0FFF771FF1F4A1F4B92681A4210D1D4
:205DA00001221E4BC3F8F02FD3F8F02F002AFBD110464FF4807104F019F80122184BC3F8CD
:205DC000A82203F0A7FA0646124A9368DB07FCD54FF08053D3F8CC3102205B6855689847B4
:205DE0000446002EC9D103F099FAC6E700200D4AC85402EBC30552F833406D6820462946AF
:205E000070BD094BDB6B9A07C5D4C2E7C0110020C4110020008002400100008000900240DD
:205E200000005042080E00200020084038B500244FF080510E4D0F4AC5F8A842D368D1F8B2
:205E4000B01123F00103D3604B6931209847224620464FF4807103F0C9FF0121064BC5F866
:205E6000A812224619780548BDE8384001F0CEBD00005042008002404D080020E4050020B7
:205E800010B5074C2378802B00D010BD01F0ECFC0346002123700348BDE8104001F0ECBC58
:205EA0004D080020E405002008B503F033FA003818BF012008BD00BF80F31088704700BF52
:205EC000827A044B03EBC2035B68181AB0FA80F040097047C81100202DE9F0434E4F827ADA
:205EE0000121064685B007EBC20202E0C2E8441F4CB1D2E84F3F13F0FF05F7D003252846B1
:205F000005B0BDE8F083BFF35F8F4FF08059B37ADFF8088107EBC3077E60D9F8B431F078B7
:205F2000DB6B9847B37A08EB03135868D9F8B8315B699847B37AD9F8B82108EB0313526B4C
:205F40005868904701280746F4D1D9F8B831DA69B37A08EB031398689047314B314A9F626D
:205F6000936A9B07FCD503204FF08051B37A1B0158F80320536923F00F035361B37A1B01E4
:205F800058F803301862D1F8C4311F68B37A1B0158F8030033893BB1337A002B35D1737AB0
:205FA000002B0CBF03240124082322464FF08054019373681C4900930023B847B37A96F8B5
:205FC00000C0D4F8B471B27871781B01CDF800C058F803007F6C4FF0FF33B847B37A1B0165
:205FE00058F80320536843F002035360B37AD4F8C4211B01126958F8030003A99047002815
:20600000F4D1284605B0BDE8F083737A002B14BF03240224C8E700BFC81100207038010038
:206020000020086000200840006CDC0270B5264D837A05EBC3025268904201D0042070BD2E
:206040004FF08051214A044602EB03139868D1F8B8311B6A984701211D4B1E4A9962936A78
:206060009B07FCD54FF08056D6F8B43160789B6B9847D6F8B4314FF4005160789B69984726
:20608000D6F8B431A0789B6B9847D6F8B4314FF40051A0789B699847D6F8B43120789B6BBD
:2060A0009847D6F8B4314FF400519B69207898470023A27A05EBC2025360A27ABFF35F8FDD
:2060C000184605F8323070BDC81100207038010000200860002008402DE9F04F9846334D91
:2060E000837A164605EBC3056A6885B0904203D0042005B0BDE8F08F4FF080592C4D04460B
:2061000005EB03135868D9F8B8310F465B6B9847012849D1A37A2749886F05EB0311C96809
:206120001B01084240D0DDE90E210A44B242B8BF3246002A019235D0D8BF0DF10C0A24DD55
:206140004FF0000B0DF10C0A5E45D4BF002117F80B10E8580391D9F8C4315B689847A37A07
:2061600051461B01E858D9F8C431DB6898470E9B5B45C4BF039B08F80B30019B0BF1010BFB
:206180005B45A37A4FEA0313DED14FF0805601E0A37A1B01D6F8C421E85851461369984730
:2061A0000028F5D10020A4E70520A2E7C8110020703801000020084010B503880446442B85
:2061C00006D0452B0ED0BBB100232380032010BD0D4B1B788B4212D18AB1002045230B49C7
:2061E000088023800A49094800F07CF8012808D944232380012010BD00F0DAF8F8E70120A8
:2062000010BD002010BD00BF0E3C0020D8110020156200000146014803F00EBE9038010003
:206220000021014801F028BBF40500202DE9F0430024012607460D46DFF85480DFF854906D
:20624000B1B084B1E30717D54246C0212B78684603F018FE6846B847082E15D001340136DB
:206260000135002CEED14246C02168462B7803F009FE6846B847F1E74A46C021684603F0B2
:2062800001FE6846B847DFE731B0BDE8F08300BFB0380100AC38010010B5BAB00A4604463D
:2062A0002821684607F0DEFE6B46C021034A0AA803F0E8FD0AA8A0473AB010BD9038010092
:2062C00009B1FFF7B3BF10B5B0B00446C021044A684603F0D7FD6846A04730B010BD00BF88
:2062E000B8380100F0B5038805460E46B1B01BB3702B1CD1274B284F1868436831463A68FA
:2063000026489847012838D96C46254AC021204603F0B8FD2046B04730462249FFF786FF2D
:20632000C0212046204A03F0ADFD2046B047002303202B8031B0F0BD13781446202B03D12F
:2063400014F8013F202BFBD0002BDDD0202120460CF0FAFB104F386018B1002300F8013B54
:206360003860204600F014FE0A4B186040B100220A4B1A8070232B80BFE7002031B0F0BDBC
:206380006C46C0212046094A03F07CFD2046B047BBE700BFE0110020DC110020E411002054
:2063A000003901003015002004390100C838010000F0D6BD30B503880446B1B023B100236A
:2063C0000320238031B030BD0D46064AC021684603F058FD6846A847034B04489B6A984794
:2063E000EDE700BF08390100B84A01002C39010030B503880446B1B023B100230320238087
:2064000031B030BD0D46064AC021684603F03AFD6846A847034B0448DB6A9847EDE700BF64
:2064200034390100B84A01002C3901002DE9F04103888046B0B033B100230320A8F8003093
:2064400030B0BDE8F081124A0D466846C02103F019FD6846A8470F4801F08CFC074600281D
:20646000EAD00D4E7C6823685BB1A3683246C021684603F007FD6846A84754F80C3F002B24
:20648000F3D1384601F0DCFC07460028EAD1D3E75839010024120020583A01002DE9F04145
:2064A00003880446CEB053B91C4B0E461B7B63B9C0211B4A1EA803F0E5FC1EA8B047002350
:2064C000032023804EB0BDE8F0810AF009FB0028EED0144F386802F0BDFA0546C021124ACA
:2064E0001EA803F0CFFC1EA8B047002DE7D0DFF83C802A46782168460AF0FAF96B46424607
:20650000C0211EA803F0BEFC1EA8B0472946386802F068FA05460028EBD1D0E79038002039
:20652000703901002408002088390100583A01002DE9F04303880546B1B02BB1002303206E
:206540002B8031B0BDE8F0830E46154AC021684603F098FC6846B047124CDFF84C90DFF841
:206560004C8004F1600714F8023C13B1237C012B03D92034BC42F6D1E0E74A46C02168463F
:2065800003F080FC6846B04721463046FFF784FE4246C021684603F075FC6846B047E8E7A3
:2065A000983901007E320020B03901009C3C010070B503880646B4B023B100230320338049
:2065C00034B070BD0C46794AC021794D04A803F059FC04A8A0472B7B002B00F0D3806B7B6D
:2065E000C021744A04A803F04DFC04A8A047724B1B699847002800F0CD80704AC02104A8B5
:2066000003F040FC04A8A0476D4AC02104A803F039FC04A8A04720466A49FFF73DFE95F8E2
:206620005430C021684A04A803F02CFC04A8A047664AC02104A803F025FC04A8A04720469F
:206640006349FFF729FE634AC02195F8403004A803F018FC04A8A047AB7BC021032B96BF16
:206660005D4A5E4B52F8233004A85D4A03F00AFC04A8A047AB681A8C002A00F08D80574BCC
:206680005849012A08BF0B46C021574A04A803F0F9FB04A8A047EB8AC021544A04A803F0DB
:2066A000F1FB04A8A0472A7EC021FF2A16BF6B8B4FF0FF33534304A84D4A03F0E3FB04A817
:2066C000A04795F85E30C021032B96BF494A434B52F8233004A8484A03F0D4FB04A8A04703
:2066E000C021464A04A803F0CDFB04A8A047686C002853D00AF022FA01462046FFF7CCFD8E
:206700006B6CC0219B793E4A04A803F0BBFB04A8A047B5F84A30C0213A4A04A803F0B2FB65
:2067200004A8A047AB8AC021374A009304A8B5F8483003F0A7FB04A8A047EB7BC021334ADF
:2067400004A803F09FFB04A8A04795F85B30C0212F4A009304A895F85A3003F093FB04A878
:20676000A0476A7C2B7C00921344AA7C01930292C02195F85730274A04A803F083FB04A83F
:20678000A0471AE7C021244A04A803F07BFB04A8A04712E7214A31E7214B75E7C021214A8A
:2067A00004A803F06FFB04A8A047B2E7C839010090380020EC390100B84A0100003A010056
:2067C000203A0100AC3800202C3A01003C3A0100BC380020483A0100E4420100B4390100D0
:2067E000503A0100C03901005C3A0100683A0100843A0100D4420100A83A0100B83A01002E
:20680000D03A0100EC3A0100FC3A0100183B01002C3B01005C3B0100D8390100103A01005E
:20682000BC390100E43A010030B503880446B1B023B100230320238031B030BD0D46054AFB
:20684000C021684603F01EFB6846A847024808F02FFDEEE79C3B01002C3901002DE9F04138
:20686000B0F800800546B0B0B8F1000F3CD10E461446002A4CD01778002F69D138464D4980
:206880000CF0C8F900284AD101234B4F3B6014B12378002B66D106F0A5FB0346474C5968AA
:2068A0009A680068DB680FC43B681BB3444F3B699847044600283BD1424AC021684603F045
:2068C000E1FA6846B04730463C49FFF7E5FCC0213D4A684603F0D6FA6846B047BB6821465E
:2068E00036489847FB689847002303202B8030B0BDE8F081324C2369984708B3C021334A10
:20690000684603F0BFFA6846B047E3699847EBE71746284938460CF07DF90028B4D0384693
