:020000040000FA
:20000000005000202110000019100000FD0F00001D1000001D1000001D1000000000000083
:200020000000000000000000000000001D1000001D100000000000001D1000001D1000000C
:20004000013100001D100000353A00001D10000045280000E52D00001D1000001D100000CC
:200060001D100000893A00001D1000001D1000001D1000001D1000001D1000001D10000082
:200080001D1000001D1000001D1000001D1000001D1000001D1000001D1000001D100000F8
:2000A0001D1000001D1000001D1000001D1000001D1000001D1000001D1000001D100000D8
:2000C0001D100000F9480000294B1B689B0702D44FF000407047F0B5452183B0002002F0BD
:2000E00023FA022201200DF1060101F0BFF838B901A8022101F0DCF84FF0004003B0F0BD90
:20010000022200200DF1060101F0B0F80028EFD0BDF806305BBAC3F303309CB2ADF8043006
:2001200012F0DEF811F070FD0646C4F30B000F4612F0E6F80CA3D3E9002304460D46304695
:20014000394612F047F902460B462046294612F041F912F0EFFB074911F0CCFE12F048FDE6
:2001600003B0F0BDAFF300807B14AE47E17A843F500900200000C84208B51F4B1A68032A02
:2001800033D1421E012A03462FD81C491C4A012B0988108811D012F0A3F80022194B12F05A
:2001A00019F90022184B12F015F912F0C3FB174911F0A0FE12F01CFD08BD084612F090F821
:2001C0000022104B12F006F909A3D3E9002312F001F900220E4B11F045FF12F0ABFB0B495E
:2001E00011F088FE12F004FD08BD4FF0004008BD0000000000A0644058090020044B002038
:20020000024B00200000F03E000059400000C84200004440000000002DE9F041704B1B6897
:2002200053B30646062200216E4812F0BBFF16F038085AD172071FD002F080FA6A4C6B4DFE
:200240002746286006E002F079FA2B68C31A0A2B40F18D806821012002F066F901223946DE
:200260003A2001F003F80021084602F05DF92378002BE8D0DB0704D44FF000484046BDE897
:20028000F081584C6821012002F04EF906222146432000F0EBFF054600286CD02346A01DC5
:2002A00019785A7859701A7002338342F8D10021084602F039F9042E6AD0022E70D0012E27
:2002C000DCD1B4F9040012F01BF843A3D3E9002312F0AAF912F02EFB454911F00BFE12F07C
:2002E00087FC80464046BDE8F08102F027FA3E4C3E4D2746286005E002F020FA2B68C31A9B
:200300000A2B48D56821012002F00EF9012239463A2000F0ABFF0021084602F005F9237858
:20032000002BE9D0D907A7D52E4C6821012002F0FBF8214606223B2000F098FF0021054697
:20034000084602F0F1F8002D3DD02346A01D19785A7859701A7002339842F8D1202E22D046
:20036000102E2DD0082E33D04FF0000886E72378DB0781D585E74FF000482046062100F012
:2003800097FF2846294602F0CFF84046BDE8F081B4F9000097E72378D9077FF56DAFC3E7B5
:2003A000B4F902008FE7B4F9000001F0D1FA104911F0A0FD12F01CFC80464046BDE8F0813C
:2003C000B4F90200F1E70621204600F071FF53E7B4F90400E9E700BF00000000006060402F
:2003E000A809002080090020214B0020AC0900200000C842000000002DE9F04F23F0004B65
:2004000080465BEA020014461D460E4693B016D143467D49DB1886F400225241984271EBED
:20042000020324D2404622462B46314611F01CFECDE90001DDE9000113B0BDE8F08F114614
:20044000724A26F0004991459A463746434617DD07F1404707F580171F43E3D122196A49BB
:2004600085F400235B41974271EB0303DAD30023674CCDE90034DDE9000113B0BDE8F08FEE
:2004800040D0624A9345E3DC00F09380002F73DB0022029279B95D4A934500F08E805C4A7E
:2004A000934500F0A280BAF1804F00F0A084594A924500F0C68340463146049311F010FD6F
:2004C000049BCDE900015BB3029AFB0F013B0A93134300F09380504B9B4540F3A38003F11B
:2004E00004739B454D4B40F31B84994540F39184BAF1000F40F39184002013B0BDE8F04F4C
:2005000011F0E8BC002B8DD1BBE740463146029311F0E6FC029BCDE90001002B6ED1029343
:20052000B9F1000F04D03A4B27F040429A42CBD1BAF1000F07DADDE900230020344912F075
:2005400073F8CDE90001002FBFF674AF029B09F1404909F5801959EA030340F06E84DDE98A
:2005600000231046194611F07DFD02460B4612F05BF8CDE900015DE7294A93452FDCA2F156
:20058000547293450FDD4FEA2B52A2F2FF32142A40F34584C2F1340221FA02F000FA02F238
:2005A0008A4200F077840022029200293FF477AF81E700293FF46AAF4AE709F1404202F5CB
:2005C000801213433FF453AF144B994540F36D83BAF1000FC0F26383CDE900452AE702221C
:2005E000029200293FF457AF65E7BAF1000FC0F2F48340463146CDE900011BE74246404612
:2006000033463146AFE700BF0000F0FF0000F07F0000F03F0000E03F0000E041FFFFEF3F9C
:20062000FFFF3F43D44B3B40002B40F04783DDE900010022D14B11F0CDFE6FF03402894646
:20064000CDE900014FEA2953A3F2FF339A18CC4BC9F3130949F07F5699450B9246F44016AD
:2006600007DDC84B994540F3F58301320B92A6F580160022002300200027C349CDE9082380
:20068000CDE90601CDE91023DDE90001DDE906233146824611F0E6FCDDE90623B34680462E
:2006A000894650463146CDE90CAB11F0DDFC02460B460020B44911F0B7FF8C468346634666
:2006C0005A4640464946CDE90EBC11F083FE82468B46731043F0005303F50023D9190F465F
:2006E0005A46514600230020CDE900120093064602463B46CDE904ABDDE900AB5046594605
:2007000011F068FE02460B464046494611F0AAFCDDE90623804689463046394611F0A2FC05
:2007200002460B46DDE90C0111F09CFC52465B4611F050FE02460B464046494611F092FCEF
:20074000DDE90E2311F046FEDDE90467CDE9060132463B463046394611F03CFE74A3D3E973
:20076000002306460F4611F035FE73A3D3E9002311F07AFC32463B4611F02CFE70A3D3E922
:20078000002311F071FC32463B4611F023FE6EA3D3E9002311F068FC32463B4611F01AFE46
:2007A0006BA3D3E9002311F05FFC32463B4611F011FE69A3D3E9002311F056FC324680466B
:2007C00089463B463046394611F004FE02460B464046494611F0FEFD06460F46DDE90401BB
:2007E00052465B4611F040FCDDE9062311F0F2FD32463B4611F038FC5246804689465B46A8
:200800005046594611F0E6FD02460B46CDE90C2300225E4B11F028FC42464B4611F024FC17
:2008200000260F4632463B465046594611F0D2FD002282468B4630463946544B11F012FCE1
:20084000DDE90C2311F00EFC02460B464046494611F008FCDDE9042311F0BCFD3246804600
:200860008946DDE906013B4611F0B4FD02460B464046494611F0F8FB8046894600264246C4
:200880004B465046594611F0EFFB35A3D3E9002330460F4611F09EFD52465B4682468B46B7
:2008A0003046394611F0DEFB02460B464046494611F0D8FB2CA3D3E9002311F08BFD024668
:2008C0000B463046394616461F4629A3D3E9002311F080FD02460B463046394611F0C4FB9A
:2008E000DDE9102311F0C0FB06460B980F4611F007FD8046894632463B4650465946CDE981
:2009000004AB11F0B1FBDDE9082311F0ADFB4FF0000A42464B4611F0A7FB42464B4650462D
:200920008B4611F09FFBDDE9082311F09BFB2FE0EF4E454A287ECA3F65DBC9934A86CD3FC1
:2009400001411DA96074D13F4D268F515555D53FFFAB6FDBB66DDB3F033333333333E33F45
:20096000000000E009C7EE3FFD033ADC09C7EE3FF5015B14E02F3EBE0000F07F0000404325
:200980008E98030079B60B000000F03F00000840DDE9042311F066FB02460B4630463946A0
:2009A00011F060FB029B0A9A013B13434FF000020CBFD54BD54BCDE90045CDE902230023C3
:2009C0000093DDE90089CDE9040142464B462046294611F047FB52465B4611F0FBFC2246B0
:2009E00006460F46DDE904012B4611F0F3FC02460B463046394611F037FB42464B46064604
:200A00000F465046594611F0E5FC04460D4630462B463946224611F027FBBD4B8046994233
:200A200089468A4640F3178101F13F4303F5E003034340F02482A2A3D3E9002330463946C8
:200A400011F012FB02460B46404649469046994622462B4611F006FB02460B46404649469C
:200A600011F048FF002840F00A82CAF30A534FF480120020A3F2FE3342FA03F35344A549BE
:200A8000C3F30A52A2F2FF3241FA02FCC3F3130B23EA0C01C2F114024BF4801BBAF1000FFB
:200AA0000B464BFA02FB294602462046B8BFCBF1000B11F0D7FA04460D463046394622467C
:200AC0002B4611F0D1FA89464FEA0B5A4FF000087DA3D3E900234046494611F07BFC224631
:200AE0002B4604460D464046494611F0BBFA02460B463046394611F0B5FA75A3D3E90023E8
:200B000011F068FC74A3D3E9002306460F464046494611F05FFC02460B463046394611F0D9
:200B2000A3FA8046894642464B462046294611F09BFA22462B4606460F4611F093FA0246AF
:200B40000B464046494611F08DFA3246804689463B463046394611F03DFC61A3D3E9002307
:200B600004460D4611F036FC5FA3D3E9002311F079FA22462B4611F02DFC5DA3D3E900236E
:200B800011F072FA22462B4611F024FC5AA3D3E9002311F067FA22462B4611F01BFC58A3C4
:200BA000D3E9002311F060FA22462B4611F012FC02460B463046394611F054FA04460D4699
:200BC00022462B463046394611F004FC02460B462046294614461D4600224FF0804311F0F6
:200BE00041FA02460B462046294611F01DFD424604460D464B463046394611F0EBFB424617
:200C00004B4611F031FA02460B462046294611F029FA32463B4611F025FA02460B460020B3
:200C20003A4911F01FFA8A44BAF5801FC0F223815146DDE9022311F0CDFBCDE90001FFF7AD
:200C4000F9BB002FFFF637AC4046314613B0BDE8F04F11F04FB8DFF8C0C021F000436345DA
:200C600040F3CF802D4B0B4403430AD122462B4611F0F8F932463B4611F032FE00283FF4BA
:200C8000F4AEDDE902010022002311F015FE003818BF012013B0BDE8F04F11F015B90023C7
:200CA0000024CDE90034FFF7C5BBBAF1000FF6DA05F1004300940193FFF7BCBB0022C1E491
:200CC000FE822B654715973C00000000432EE63FEF39FAFE422EE63F396CA80C615C20BE96
:200CE000D0A4BE726937663EF16BD2C541BDBB3E2CDE25AF6A56113F93BDBE166CC1663F3E
:200D00003E5555555555C53F0000F0BF0000F03FFFFF8F40FFFF0F00FFCB904000346F3FB4
:200D2000994576DB724B99453FF7E2ABDDE9000100226F4B11F096F961A3D3E900230646C4
:200D40000F4611F047FB60A3D3E9002382468B463046394611F03EFB0022CDE90001654BC8
:200D60003046394611F036FB02460B4658A1D1E9000111F077F932463B4611F02BFB024626
:200D80000B4600205C4911F06DF932463B46804689463046394611F01DFB02460B4640461B
:200DA000494611F017FB4CA3D3E9002311F012FB02460B46DDE9000111F054F906460F4666
:200DC0005046594632463B4611F04EF952464FF0000A5B4650468B46DCE5424600203346D2
:200DE000434911F021FCCDE90001FFF723BB424640463346314611F0EDFACDE90001FFF72B
:200E000019BB3D4A934256DCDDE90023924693465CE6BAF1000FFFF66FAB00203AE7002961
:200E20007FF473ABC2F114024BFA02F000FA02F25A4539D00291FFF732BB029B012B7FF4D9
:200E4000F9AADDE90045224605F10043CDE90023FFF7F0BA0022294B4FF48027CDE906236B
:200E60001FA3D3E90023CDE908231FA3D3E90023CDE9102308E45A4600F042F8D9E60022CF
:200E8000DDE90201002311F017FD003818BF0120FFF733BB00F00100C0F1020202920029DA
:200EA0003FF4FDAAFFF707BB00F00100C0F102020292FFF7F4BA1B15D9E500BFAFF30080F3
:200EC000000000604715F73F44DF5DF80BAE543E555555555555D53FFE822B654715F73FA9
:200EE0000000004003B8E23F06D0CF43EBFD4C3E0000F03F0000D03F0000E03F0000F83FE8
:200F0000C1F30A5370B58C4604460D4616467BBB034621F0004C5CEA030328D0324B002211
:200F200011F058FA314B04469E420D461ADB8C46C1F30A53363B40F2FE723344934220DC32
:200F4000002B3EDC13F1350F2CDA4CF250339E4217DC05F0004343F0D27141F4B731244833
:200F600041F01F011CA3D3E9002311F033FA70BD40F2FF7E7345DED102460B4611F074F80B
:200F800070BD05F0004343F0FC4141F45F1141F4105113A3D3E90023164841F03C0111F0DF
:200FA00019FA70BD2CF0FF4C03F136012CF4E00C4CEA01550022204629460F4B11F00AFA71
:200FC00070BD2CF0FF4C2CF4E00C20464CEA035170BD00BFAFF3008059F3F8C21F6EA5013A
:200FE0009C7500883CE4377E00005043B03CFFFF59F3F8C29C7500880000903C4FF0E02359
:20100000D3F8282DB2F5806F04D0D3F8283D9B0500D4FEE7704700BFFEE700BFFEE700BFFF
:2010200008B509F01BFA104A10498A420DD2104801390346891A21F003010431014453F82F
:20104000040B8B4242F8040BF9D10A480A494FF000028842B8BF40F8042BFADB06F0ECF963
:20106000FFF7CCFF08BD00BF0000002065080020254B0100680800204E4B0020F0B50027F8
:2010800006463C463D4683B0304607F021FC0195019B9C4206DD00BF019B01330193019B90
:2010A000A342F8DB304607F041FC0195019BC4F5C8749C4206DD00BF019B01330193019B27
:2010C000A342F8DB0137B7F5487F06D0B7F5C87FD4BF3C46C7F54874D6E703B0F0BD00BF7B
:2010E00070B54FF08054194DD4F8D831284601215B6898470122D4F8D83111461B6828460B
:20110000984709F079F802F053F801F0D3FF00F007FE07F0D7FB07F037FC0120FFF7AEFFDA
:2011200001230B4ED4F8B01105F5B825F360094AAB600B691020D26A984709F061F801F01B
:20114000FFFABDE870400020FFF798BF00400340004009400020094008B541F2342003F028
:20116000EFFA01F0B7FD07F0A5FC074801F0E6FD0648082101F082FC07F030FBBDE8084031
:201180000220FFF77BBF00BF5D8A0000FC32002008210023F0B585B00DEB0100CDE9003301
:2011A00001F06CFCBDF80E40254D64BAEE6A4AF6CD31A4B20220B04721460320B0471A2182
:2011C0000120B04708226B6B0DEB02010B201D4F984701206946AC6AA0473B68022B1ADCF3
:2011E000022001A9A04778B93B68022B08DC0021154806F073FD0020FFF740FF05B0F0BDBC
:201200000199124809F08AFD3B68022BEFDD104809F084FDEBE70F4A0F49104809F07EFD9D
:201220000F4809F07BFD3B68022BD9DD0A49094A0A4809F073FD00990A4809F06FFDCFE7F9
:2012400038370100E4060020F80600206C3601003C4401001C3601002C36010034360100B1
:20126000443601005C36010001F0EABD00B58E46844683B01346012172460DF107008DF885
:2012800007C001F041F803B05DF804FB074B18703AB101EB020C11F8010B614503F8010FD1
:2012A000F9D101320148D1B200F06ABE9808002029B1CC23014401F8013D8142FBD1704702
:2012C000813801289ABF024B18680020704700BFD40800200322024B02481A6007F0B6B8D9
:2012E000D4080020AC360100594B1B68032B40F0AB80431E012B2DE9F041044600F2A1802E
:20130000544D06220021284611F04CFF7721002001F00AF906222946F720FFF7A7FF00280B
:2013200000F087802A79EB784B4895F800E095F801C0A97812016D7942EA033242EA151690
:201340000588B0F90A70C5EB121202FB02F3B0F904201B1302FB03F36D00B0F90220C5EB41
:20136000D60502FB05F59B1303EBE5235E10A6F57A46B51005FB05F5B0F908204FEA6538C8
:2013800006FB02F208FB07F7521002EBE7029214C78802F5004207FB02F2D213836146D01C
:2013A000090941EA0C1CB0F90E10ED1201FB06F6B0F91010760001FB0565B0F90C602749E0
:2013C000360406EBA5054CEA0E3E0EEB253E01FB0EFE0EF1434E0EF5A00EBEF1000FB3BFE1
:2013E000BEFBF2FE4FEA4E0EBEFBF2FE4FEA4E0E4FEADE0202FB02F2B0F91610B0F914508B
:20140000520B01FB02F2B0F912104FEA9E0005FB00F0401300EB223008440EEB2010012CBB
:2014200003D103EB830080300012BDE8F0811046F5E728460621FFF73BFF4FF00040BDE874
:20144000F0814FF00040F0E74FF00040704700BFD4080020D8080020B8080020CBF3FFFF38
:2014600030B5802883B005D0812828D02D4B186803B030BD01242B4D772100202C6001F0CC
:2014800053F81C2228498820FFF7F0FEB62322460DF10701E0208DF80730FFF7F7FE772140
:2014A000002001F041F8002322460DF10701F4208DF80730FFF7EAFE286803B030BD194D0D
:2014C00028680028D4D00C46B9B17721002001F02BF825230DF107010122F4208DF80730E7
:2014E000FFF7D4FE00230321104A114806F00AF9022318462B6003B030BD0D4806F04AF9F5
:201500002046772101F010F801220DF10701F4208DF80740FFF7BAFE012318462B6003B05D
:2015200030BD00BFD4080020B8080020D5120000E0080020813801289ABF024B186800200C
:20154000704700BF080900200322024B02481A6006F07CBF08090020C4360100314B1B6852
:20156000032B5CD1820770B5044626D0032809D0012804D0022820D12B4B186870BD2B4B6D
:20158000186870BD2A4D4421002000F0CDFF022229460420FFF76AFE58B12B885BBA2B8055
:2015A0005B0406D5234D022229460120FFF75EFE30B904211F48FFF77BFE4FF0004070BDEB
:2015C00002222046A918FFF751FE0028F1D02888164E40BAC0F38D0011F0B6FA4FF074518F
:2015E00010F088FC044668880F4D40BAC0F38D0011F0AAFA4FF0745110F07CFC0E4910F01F
:2016000079FC11F0F5FA03460B492046336010F071FC11F0EDFA03462B60012070BD4FF019
:201620000040704708090020000900200C090020004B00200409002000007A44802838B539
:2016400004D0812827D02A4B186838BD4FF08054D4F8B43101209B6B9847D4F8B4314FF46E
:20166000804101209B699847D4F8B4314FF08041DB69012098474421002000F055FF0222C3
:2016800000231C4910460B80FFF700FE0123184A1846136038BD164D28680028D5D00C468F
:2016A000A1B14421002000F03FFF02221023114910460B80FFF7EAFD002324210E4A0F489F
:2016C00006F020F8022318462B6038BD0B4806F061F82046442100F027FF022205491046AE
:2016E0000C80FFF7D3FD012318462B6038BD00BF08090020004B00204915000010090020A4
:20170000014B1868704700BF5009002000B5452183B0002000F008FF022201200DF106015F
:20172000FFF7A4FDBDF90630002B08DB00231021074A084805F0E6FF03B05DF804FB0648F4
:2017400006F084FE0222054B1A6003B05DF804FB0D17000030090020DC3601005009002013
:2017600070B5802882B01DD081282ED10C4679B301244521002000F0D7FE41F2C203214886
:201780000DF10601046002222046ADF80630FFF77DFD002310211C4A1C4805F0B3FF2046E0
:2017A00002B070BD174D45212B68002003F0020400F0BAFE4FF48653022201200DF10601C6
:2017C0002C60ADF80630FFF761FD002002B070BD0C4E0E4805F0DEFF33682046452103F073
:2017E000020500F0A1FE4FF4865302220DF1060101203560ADF80630FFF748FD204602B02A
:2018000070BD00BF500900200D17000030090020813801289ABF024B18680020704700BF48
:2018200058090020032138B5114C124A2378116033B9012310482370BDE8384006F006BE7F
:201840000E4D4321002000F06FFE0421284600F0B5FC00212070084600F066FE2A886B8820
:201860000748084952BA5BBA02800B80E1E700BF1E4B002058090020F43601005409002061
:20188000044B0020024B002030B5802883B005D0812827D0274B186803B030BD0024264B10
:2018A000264D0422214626481C802C8011F07AFC2046432100F038FE022210230DF10601AF
:2018C0001046ADF80630FFF7E1FC02461D4B204621461A7000F028FE01231846154A136093
:2018E00003B030BD134C20680028D5D069B1154D2B7893B900230321134A144805F002FF33
:2019000002231846236003B030BD104805F042FF01231846236003B030BD4321002000F07A
:2019200003FE002000F000FC00212870084600F0FBFDDFE758090020024B0020044B002088
:20194000540900201E4B0020251800005C09002008B5174B1B78032B28D8DFE803F0151EF2
:201960000C0210F0CDFC00224FF07D5310F032FD10F0E0FF08BD10F0C3FC00220D4B10F053
:2019800029FD10F0D7FF08BD10F0BAFC00220A4B10F020FD10F0CEFF08BD10F0B1FC0022DB
:2019A000064B10F017FD10F0C5FF08BD002008BD1F4B00200000303F0000103F0000203FAD
:2019C000813801289ABF024B18680020704700BFA80900200222024B02481A6006F036BD7A
:2019E000A80900200C37010010B56821012000F09BFD3F23094C012221466C202370FFF785
:201A000045FC4F23214601226B202370FFF73EFCBDE810400021084600F086BD234B002016
:201A20008028F8B50CD0812807D111F03F0135D12F4BD3F88030DB0443D42E4B1868F8BD14
:201A40004FF08054D4F8B43107209B6B9847D4F8B4314FF4005107209B699847D4F8B431B6
:201A60004FF080410720DB699847D4F8B4310C20DB6B9847D4F8B4314FF440724FF4806150
:201A80000C209B6A98474FF48054002218481A4B1849C0F8A0401A600868F8BD4FF4805786
:201AA0000124154B124E134D1960144AC6F890700023082112482C6005F024FE20462C6011
:201AC000F8BD0D4B0E48196005F064FEFFF78CFF0C4AD2F8043813F00103FAD14FF4805011
:201AE000044A03491360C1F8A0001068F8BD00BF00200240A80900207C090020091B000098
:201B000088090020002000402DE9F041364C236813F0380F28D1354D03F03F042E785EB9A8
:201B2000002C3BD1FFF760FFBDE8F041002305212F4A304805F0E6BDE3B22B70002CF1D053
:201B40002D4FDB43682101203B7000F0EDFC012229496C20FFF79AFB0021084600F0E4FCD2
:201B6000264808F051FBDFE7254F3A78002AD2D00025244E68210120357000F0D5FC3146DD
:201B800001221C20FFF782FB06462946284600F0CBFC2368002EBED03D70BCE76821012052
:201BA00000F0C2FC0923144F012239466B203B70FFF76CFB3F23012239466C203B70FFF782
:201BC00065FB01220F491C202E70FFF75FFB012239463A20FFF74AFB3146304600F0A4FC4C
:201BE000E3B22B70ADE700BF7C090020224B0020D519000088090020234B0020803801004A
:201C00001F4B0020204B00200022014B1A707047244B002070B500244FF08055174B184852
:201C20001C7001F041FA174AD5F8B811D368204623F00103D3600B6A9847D5F8B83120469A
:201C40009B6A9847D5F8B83120461B6B984701210D4B0E4A9962936A9B07FCD54FF08054CF
:201C6000D4F8B43115209B6B9847D4F8B4310021BDE8704015201B6A184700BF244B00200B
:201C80004005002000000140002008600020084010B54FF08054D4F8B83104205B6998475A
:201CA000D4F8B83104205B6B98470128F8D110BDFFF7EEBF032801D000F0FCB808B5FFF7F1
:201CC000A9FF114B00219B68812098470F4B00219B68812098470E4B00219B688120984761
:201CE0000C4B00219B68812098470B4B00219B68812098474FF48052084BC3F8A020BDE867
:201D0000084000F0D7B800BFAC360100DC360100C4360100F43601000C370100002002407B
:201D200070B508F069FA0646FFF7B2FF4FF08053D3F8B8314FF4A060DB6998470121414B56
:201D4000414A9962936A9B07FCD54FF080544FF4005500F07FF8FFF757FF002008F04AF9D4
:201D60003A4801F09BF9D4F8B43119209B6B9847D4F8B431294619209B699847D4F8B431A0
:201D800018209B6B9847D4F8B431294618209B699847D4F8B43117209B6B9847D4F8B4316D
:201DA000294617209B699847D4F8B4311B209B6B9847D4F8B43129461B209B699847D4F8BF
:201DC000B4311E209B6B9847D4F8B4314FF480411E209B699847D4F8B4310D20DB6B984722
:201DE0001B4AD4F8B431C2F8A05000214FF480720D209B6A9847D4F8B43102209B6B984704
:201E0000D4F8B431294602209B699847D4F8B4310B209B6B9847D4F8B43129460B209B698D
:201E20009847D4F8B4311D209B6B9847D4F8B43129461D209B69984706B170BDBDE8704077
:201E400008F0DEB90020086000200840540500200020024070B54FF08055D5F8B831022017
:201E60005B699847D5F8B83102205B6B984701280446F7D1D5F8B8314FF44070DB6998473B
:201E8000084B094A9C62936A9B07FCD5BDE870404FF08053D3F8AC310122044904481B68E0
:201EA000184700BF0020086000200840006CDC0200200040FF214FF0805310B52B4A0220DC
:201EC0001170D3F8B8315B6B984701280AD1284B1B6EDA0706D500232649274AC1F8043874
:201EE000C2F810344FF08053D3F8B8314FF440701B6A98470121214B1D4A9962936A9B0738
:201F0000FCD54FF08054D4F8B43108209B6B9847D4F8B4314FF4005108209B699847D4F803
:201F2000B43109209B6B9847D4F8B4314FF4005109209B699847D4F8B43105209B6B9847A2
:201F4000D4F8B4314FF4804105209B699847D4F8B43106209B6B9847D4F8B4314FF4804153
:201F6000BDE8104006209B69184700BF620800200020084000200040000005420020086003
:201F80002DE9F047664B674D1B7807465B00C5F8003803780E46C5F8083800F0CFFB00F5E4
:201FA000CC541934D5F804385B0608D500F0C6FB001B0028F6DB00242046BDE8F0870323DC
:201FC0000220C5F8043808F01FF900F0B7FBDFF8548100F5CC541934D8F80438D80746D421
:201FE0004FF08053D3F8AC314E485B68984710F00C0F7DD1012E40F28F800028DBD101241D
:20200000A046484D06F1FF39631E3B4402E00134B4423ED213F8012F4C45C5F80828F6D278
:202020000220C5F8048808F0EFF800F087FB00F5CC5A0AF1190AD5F80438D90710D44FF09F
:202040008053D3F8AC3128465B68984710F00C0F824612D10134B44218D20028D4D0AAE7BD
:2020600000F06CFBA0EB0A000028E4DBA3E700F065FB001B0028AFDB9DE704230220C5F85C
:202080000438013408F0C0F8A64294D8BAF1000F91D10523234D0220C5F8043808F0B4F858
:2020A00000F04CFB00F5CC541934D5F80438DA0725D44FF08053D3F8AC311A485B689847E6
:2020C00010F00C0F044620D100F038FBB4FA84F400F5CC55134E64091935D6F804385B06C4
:2020E0007FF56AAF00F02AFB401B0028F5DB62E704230220C8F8043808F086F85BE700F0B5
:202100001DFB001B0028D0DB55E704230220C5F8043808F079F8D7E700287FF44CAFB8E7DF
:20212000254B00200020004070B5224B224D1B785B00C5F80038C5F8080800F0FFFA00F520
:20214000CC541934D5F804385A0606D500F0F6FA001B0028F6DB002070BD07230220C5F884
:20216000043808F051F800F0E9FA134E00F5CC541934D6F80438DB070ED44FF08053D3F8A1
:20218000AC310D485B68984710F00C0F044609D1B4FA84F0400970BD00F0D0FA001B002897
:2021A000E7DBD8E704230220C6F8043808F02CF8EEE700BF254B0020002000402DE9F04F66
:2021C0004F4BDFF840A11B7883B05B0043F00103CAF800388846019000F0B0FA00F5CC544D
:2021E0001934DAF8045815F0400508D000F0A6FA001B0028F5DB002003B0BDE8F08F0B237A
:202200000220CAF8043841F699164FF080573D4C08F1FF3B07F0F8FF5FFA85FADA452CDAFB
:2022200000F08CFA00EB0609D4F80428D20716D4D7F8AC3120465B68984710F00C0F15D1BE
:2022400001350028D7D10923D4F808280199022001F80A20C4F8043807F0D6FFDCE700F0FA
:202260006DFAA0EB09000028DEDBC4E704230220C4F8043807F0C8FFBDE70523214E02207B
:20228000C6F8043807F0C0FF00F058FA00F5CC541934D6F8045815F0010521D14FF08053B1
:2022A000D3F8AC3117485B68984710F00C0F1DD10028A0D1019AD6F80838424402F8013C6D
:2022C00000F03CFA0F4D00F5CC541934D5F804385B0613D500F032FA031B002BF6DB8AE721
:2022E00000F02CFA031B002BD3DB84E704230220C6F8043807F088FF28467DE701207BE750
:20230000254B0020002000402DE9F84FDFF810A2844F9AF8004099466400C7F8004803787D
:202320000546C7F808380E46904600F007FA00F5CC541934D7F804385B0607D500F0FEF9A7
:20234000001B0028F6DB0020BDE8F88F03230220C7F8043807F058FF00F0F0F9714F00F5FE
:20236000CC541934D7F80438D80740D44FF08053D3F8AC316B485B68984710F00C0F3CD1BB
:20238000012E41D90028DED1013E0127DFF894B12E440DE04FF08053D3F8AC3158465B6820
:2023A000984710F00C0F1BD1AE422DD00028CAD115F8013F0220CBF80838CBF8047807F0DF
:2023C00023FF00F0BBF900F5CC541934DBF80438D907DFD500F0B2F9001B0028F6DBB2E7EA
:2023E00004230220CBF8043807F00EFFABE700F0A5F9001B0028B5DBA5E704230220C7F80A
:20240000043807F001FF9EE700289CD10B229AF80030444C5B0043F00103A8F10207C4F800
:202420000038022008F1FF3AC4F804284F4407F0EBFE574541F699154FF080561ED000F041
:202440007DF900EB050BD4F80438DA0749D4D6F8AC3120465B68984710F00C0F48D10028F6
:202460007FF471AF0923D4F8082802200AF8012FC4F8043807F0C8FE5745E0D10523294EAC
:202480000220C6F8043807F0BFFE00F057F900F5CC541934D6F8045815F001052FD14FF056
:2024A0008053D3F8AC311F485B68984710F00C0F2BD100287FF447AFD6F80838C84408F8D6
:2024C000013C00F03BF9174D00F5CC541934D5F804385B0621D500F031F9031B002BF6DB41
:2024E00031E700F02BF9A0EB0B000028ABDB2AE704230220C4F8043807F086FE23E700F0A5
:202500001DF9031B002BC5DB1DE704230220C6F8043807F079FE284616E7012014E700BFC1
:20252000254B0020002000404FF0805370B53A4A04461170D3F8B83102205B6B9847012881
:202540003ED0FFF787FC354B1A78A24240D00022334D34491C70C5F80428C1F810241B78DA
:20256000002B36D0012B20D14FF08054D4F8B4314FF4C04108209B699847D4F8B4314FF406
:20258000C04109209B699847D4F8B431092208212846DB6C9847D4F8B43105209B6B9847DA
:2025A000D4F8B43106209B6B9847BDE870404FF08053D3F8AC3101221B4919481B68184786
:2025C0001A4B1B6EDB07BCD5144B1A78A242BED170BD4FF08054D4F8B4314FF4C0410520DC
:2025E0009B699847D4F8B4314FF4C04106209B699847D4F8B431062205212846DB6C984767
:20260000D4F8B43108209B6B9847D4F8B43109209B6B9847C9E700BF254B002062080020B4
:202620000020004000000542006CDC020020084010B54FF08054D4F8B83104205B699847ED
:20264000D4F8B83104205B6B98470128F8D110BD38B5002400254FF080531A4A0420C2E9C2
:202660000045D3F8B8315B6B9847012801D0FFF7DFFF4FF08053D3F8B8310020DB699847E5
:202680000121114B114A9962936A9B07FCD54FF080520F4C0F49E368204623F4807323F064
:2026A0000103E360D2F8C83104251B689847312040F221210122084B2560E063A1605A60C7
:2026C00038BD00BF68080020002008600020084000000140002100040000244310B507F03D
:2026E000CBFC0023044C400E40EAC112C4E90023D4E9000110BD00BF6808002010B507F0EF
:20270000BBFC0023064C400E40EAC112C4E9002305F04CF900B910BDBDE8104005F026B9E9
:2027200068080020014B9868704700BF00200940704700BF0146012000F04AB807F090BCCB
:202740002DE9F84307F058FD01254FF480724FF000094FF480334FF080561B4CDFF86C8004
:202760002321C8F80090656062606360D6F8843107461B6848469847D6F884312421284685
:202780001B689847D6F88431252102201B689847236843F4E0232360C4F8089007F060FC9B
:2027A0000346D6F8B02103F50073E361C8F8A052C8F800501420136998470FB1BDE8F88351
:2027C000BDE8F84307F01CBD0020094000002443431E012B10B419D9042815D100231A46A1
:2027E00010F004001CBF124C21621BB10121114BC3F880121AB101220E4BC3F8A02218B1F5
:2028000001220C4BC3F8C02210BC7047012808D10346074A916110F0020204D0044CE16126
:20282000DEE70023F7E7002BEED01046DEE700BF0020094000002443014B1868704700BFFD
:20284000B009002010B5FFF779FF194B1860FFF755FF184BD3F8A0307BB9164BD3F8802048
:20286000EAB9144BD3F8C02032B100204FF48031114AC3F8C002516010BD4FF480730E4CCE
:20288000636007F0EDFB00F2052020F4FF70094B20F00100E061D3F88020002AE1D00020F0
:2028A0000121054AC3F88002516005F01DFBD8E7B009002000002443002009400122024BD4
:2028C000C3F8002C704700BF0000084010B507F093FC114BD3F8002C012A0AD04FF08642A9
:2028E00001210E4C1C60C2F80411C2F8001178B110BD4FF086410A4CC3F8004C074C1C601E
:20290000C1F80421C1F80021C3F8002C0028EFD1BDE8104007F074BC00000840502D190036
:2029200051E5CC1A0122014BDA6070470000084008B5FFF7CBFFFEE770B5044607F05CFCB3
:2029400021460646114805F0BDFB104805F0B8FB38B101210E4B0F4AC3F8001253699B06D7
:20296000FCD54FF08055D5F8A03160681B689847D5F8A03160689B6898471128F8D106B1A9
:2029800070BDBDE8704007F03BBC00BFB4090020000022430010094008B5064805F090FBE2
:2029A00038B10121044B054AC3F8001253699B06FCD508BDB4090020000022430010094013
:2029C00010B5A8B14FF0805C0021134C134A6368012023F4C0536360DCF8A031C2F8801118
:2029E000C2F80012DB68984763699B06FCD410BD04460B4805F064FB0028E3D005C81443EF
:202A00000028FBD1002CDDD0034A536823F4C05343F40063536010BD0010094000002243DF
:202A2000B409002038B5054607F0E6FB04462946054805F099FB0020FFF7C2FF04B138BD99
:202A4000BDE8384007F0DCBBB409002070B590B10E460024451E04E0A64206D000F04EF9D4
:202A6000013415F8010F0028F6D100F0A1F90128FBD0204670BD0446F7E700BF10B40C4B02
:202A80000C4C1A780133FF2A0FD1A342F9D10A4C49B10139631801381978A34200F8011F94
:202AA00003F1FF33F8D110BC7047014CF0E700BFC8FF0100D0FF0100F012005038B54FF0AB
:202AC0008055D5F8B83102205B699847D5F8B83102205B6B984701280446F7D1D5F8B83138
:202AE0004FF40070DB699847034B044A9C62936A9B07FCD538BD00BF002008600020084052
:202B0000F0B54FF0805540F2F27683B0284CFFF7D5FFD5F8D0312046DB689847D5F8B031ED
:202B200015205B699847A36BD5F8B42123F4FE6323F00203A3636664D36B1D2098474FF014
:202B400000514FF0FF331B4A2046C2F89010D5F8B4210093176C1C211D22B847D5F8D0219D
:202B600060232046576814494FF4E132B847142240F2011340F201306263E26A0F4942F081
:202B80001002E2620A68002A18BF0346236366640B685BB11520A36BD5F8B02143F05003ED
:202BA000A363136903B0BDE8F040184703B0F0BD0010004000200240006CDC02B80900206F
:202BC0004FF0805370B5D3F8B83104465B6B02209847012807D13B4BDB6ED80703D53A4AEE
:202BE00093691907FCD4032C47D0384B1B6803B170BD4FF08055D5F8B83102205B6B98472B
:202C0000012858D12F4BDB6EDA0715D54FF080562D4DD6F8D0312846DB689847D6F8B03137
:202C200015205B69984740F2F272AB6B23F4FE6323F00203AB636A644FF08053D3F8B831DE
:202C40004FF400701B6A9847032C25D00121204B1C4A9962936A9B07FCD51D2000F03AFA7A
:202C60001C2000F037FA4FF0FF3000F033FABDE870404FF0FF3000F02DBA4FF08055D5F8F1
:202C8000B83102205B6B98470128BBD0D5F8B8314FF400701B6A98474FF08054D4F8B8313B
:202CA0004FF400709B6A9847D4F8B8314FF400701B6B9847CAE7D5F8B8314FF400701B6A11
:202CC0009847C3E70020084000100040B80900200020086010B507F08FFA0446054800F07E
:202CE000DDF90022044B1A6004B110BDBDE8104007F086BA68050020B80900204FF08053E5
:202D000010B5D3F8B83104465B6B0220984701280BD0FFF7F5FE4FF08053D3F8D0312146F7
:202D2000BDE810400348DB691847034BDB6EDB07F1D4EEE70010004000200840184A10B5BE
:202D40001060D8B14FF080540221164AD4F8B83111614FF400705B6A9847D4F8B8314FF46E
:202D60000070DB6A984701210F4B104A9962936A9B07FCD5BDE81040FFF7C2BE03464FF08B
:202D80008054084A4FF400701361D4F8B8319B6A9847D4F8B8314FF400701B6B9847E2E7B7
:202DA000B809002068050020002008600020084008B54FF08053D3F8B83102205B6B98476B
:202DC00001280AD1064BD86E10F0010004D0A3F501239869C0F3C00008BD002008BD00BFEA
:202DE0000020084070B5FFF769FE40F2F2720C4C236C626413F0500F0DD00A4D4FF08056FB
:202E000006E0D6F8D03120461B6998472B681BB9A369DB06F5D570BDC0B29847EEE700BF04
:202E200000100040B80900204FF0E022D2F8103D23F00403C2F8103D30BFFFF773BD00BF14
:202E4000F8B507F0D9F905F003F818B1BDE8F84007F0D6B9884805F033F90225044648B185
:202E6000636823B19847A84228BF2846C5B22468002CF5D1FFF762FC804B0446D3F88032BA
:202E8000002B00F0D2807E4B9B691B1A022B00F19680A3F28F23002BACBF022001208542A8
:202EA00028BF054604F082FD002840F08E80012D00F0CB80022DC9D12846611EFFF788FC6E
:202EC0006D4805F0FDF806250446002800F0AF80A3680BB1022098472369246825EA0305A0
:202EE000002CF5D1FFF71EFD6B0700F1A380002D40F0A38000F0BCF90020FFF761FD4FF071
:202F00008052604C3920236823F003032360A36843F00F03A360D2F8B8319B6998470020AA
:202F2000594B20642064C3F8200407F043FD062D00F09D804FF080560027544C504D0321F2
:202F4000EB6AD4F82432524823F00303C4F82432D6F8D8315B689847D6F8B8319B6B984720
:202F6000EB6A07F047FE4B4AD6F8D831C2F88071474801215B6898470121D4F82432464A82
:202F800043F00303C4F82432D160EB6A07F064FEFFF702FDFFF7B2FBFFF7C4FC364805F046
:202FA0008FF8044628B1E36803B198472468002CF9D107F025F9BDE8F84007F021B904F050
:202FC000F5FC00283FF442AF002504F0F7FC0646FFF784FB361A002E7FF738AFFFF72CFCEE
:202FE00000EB46210B1BA3F28F22002A36DA002D3FF42CAF082B2ED404F58034631A31EA24
:20300000230128BF21460220FFF7E2FB4FF0E022D2F8103D23F00403C2F8103D30BFFFF7EB
:2030200081FCBDE8F84007F0EBB8022037E7FFF779FC06250022184BDA604FF08053D3F82A
:20304000B83128469B69984754E7022004F58031FFF7BEFBDAE704F10801D4E7012DC9D03F
:20306000022D7FF4F3AE2846FFF7B2FB28E7022007F068F95EE700BFBC0900200000244323
:203080000020094000100940000022430020084000400340000004430040094001460148BE
:2030A00005F010B8BC0900200146014805F05CB8BC09002010B5064804F0FEFFBDE81040F7
:2030C0004FF08053D3F88431202103201B681847BC090020431C10D04FF0805310B5D3F852
:2030E000B43104461B684FF4C042002198470023024840EA8404236010BD7047001A444213
:20310000034BD3F8E000C3F8E00005F0C7BB00BF002002404FF0805370B5D3F8B4310C464A
:203120005B680546984714F00C0320F0E06222F4EC2207D0042B23D0082B24D00C2B08BFFB
:2031400042F4403214F0030310D142F4C04223064FF08053D3F8B4312846BDE870404FF0B7
:2031600000011B6848BF42F480221847022B04D0012B08BF42F48042E9E742F40052E6E77C
:2031800042F40032DEE742F48032DBE7074AD2F8D030C340DB074CBFD2F88030D2F8C03019
:2031A00023FA00F000F00100704700BF002002400022412300B585B002A8CDE90223FFF74E
:2031C000BBFB042007F0AEF8032805D102A8FFF729FC05B05DF804FB0321042007F076F8FC
:2031E000042007F09FF80328FAD11C234FF0405200210090044807F021F802A8FFF712FC5C
:2032000005B05DF804FB00BF00A00C400022412300B583B06846CDE90023FFF78DFB012066
:2032200007F080F8012803D00121032007F04EF86846FFF7F7FB03B05DF804FB002241237E
:2032400000B583B06846CDE90023FFF775FB012007F068F8012805D04FF08053D3F88000C6
:2032600006F0D4FE6846FFF7DDFB03B05DF804FB10B54123002482B06846CDE90043FFF7E7
:203280005BFB0320214607F021F8012007F04AF820B96846FFF7C6FB02B010BD4FF0805315
:2032A000D3F8800006F0B2FE6846FFF7BBFB02B010BD00BF70B5038804463BB140F2CB2280
:2032C000934208D182290AD0012070BD40F2CB232380012070BD00232380032070BD094BF2
:2032E000094E1D69FFF71EFB06F03EF806F00CF98021A847002880B2E8DD06F0FFF8F368C4
:203300009847EFE7383701009C470100024BD3F89C0100F001007047002008404FF0FF336E
:203320002DE9F0412E4C8046236023680F460B6010F0030302D1028811050DD406F05CFF8D
:20334000284B0546D3F89C31DB071BD4002D36D000252846BDE8F081438006F04DFF214BF9
:203360000546D3F89C31DA07F0D5B8F8003013F4405F07D003F44063B3F5006F04BF1A4B8E
:20338000C3F80080194E4CF25032C6F800807368236003E07368013A236018D02368DBB2B3
:2033A000002BF7D085B123683B602568EDB2A5F10105B5FA85F56D092846BDE8F08106F0DE
:2033C0001FFF2846BDE8F08106F01AFFEBE71DB1236800253B60BCE706F012FFF8E700BF09
:2033E000C009002000200840C4090020001004400B4A01E0013A11D0438803F44063B3F5DC
:20340000806FF7D14388074A9BB21360428802F44062A2F58062B2FA82F2520910467047B6
:2034200020A10700C009002070B54FF0805482B006F0E2FED4F8B03105461B6A1920984706
:20344000D4F8B03112201B6A9847D4F8B03119205B699847D4F8B03112205B699847D4F852
:20346000B83101205B699847D4F8B83101205B6B98470128F8D1174A174BD0629862936A46
:203480009B07FCD54FF080540022144BD4F8B0111A615A6119200B699847D4F8B0311220F7
:2034A0001B6998479DB140F2FF3600240C4B0D4A0D4D01A92E600D48DC611A60FFF72EFF61
:2034C000A0F10100B0FA80F0400902B070BD06F097FEE8E70020084000200860001004605A
:2034E0000010044051000706000004600100060400B587B01422002101A80FF053FE4FF030
:20350000010C40F60A0218499DF8113009686CF30303059101A86946ADF804208DF81130D2
:20352000FFF7FCFE012803D0002007B05DF804FB0E4801E00138F8D0BDF8063003F44063B7
:20354000B3F5806FF6D1BDF80630094A9BB21360BDF8060000F44060A0F58060B0FA80F031
:20356000400907B05DF804FBD409002020A10700C009002000B587B01422002101A80FF05E
:2035800011FE4FF0010C40F609029DF8113069466CF3030301A8ADF804208DF81130FFF777
:2035A000BDFE012803D0C0B207B05DF804FB134A01E0013A1CD0BDF8063003F44063B3F545
:2035C000806FF6D1BDF806300D4A9BB21360BDF8063003F44063B3F5806F09D1094B1A7857
:2035E00052B90122059808491A7008601046DBE7002007B05DF804FB0120D5E720A10700D5
:20360000C0090020264B0020D409002030B54FF0805487B006F0F0FDD4F8B03105465B6965
:2036200019209847D4F8B03112205B699847334BD3F89C31DA072FD4FFF79CFF0020012123
:203640002E4A2F4BD0629962936A9B07FCD54FF08054D4F8B83101209B699847D4F8B8315A
:2036600001205B6B98470228F8D1D4F8B03119201B6A9847D4F8B03112201B6A9847D4F838
:20368000B03119201B699847D4F8B03112201B6998476DB307B030BD00211A4B1022196175
:2036A0000124596102A80FF07DFD40F60D029DF8153002A864F3030301A9ADF808208DF8E6
:2036C0001530FFF72BFEA042B6D10F4A01E0013AB2D0BDF80A3003F44063B3F5806FF6D13F
:2036E000BDF80A30094A9BB21360BDF80A30A3E707B0BDE8304006F083BD00BF0020084026
:20370000002008600010046020A10700C009002008B506F0BBFC052803460ED0032806D03D
:2037200080B903220C4B0120C3F8D02108BD0222094B0120C3F8D02108BD074A0120C2F80C
:20374000D03108BD012801D0002008BD0521024AC2F8D01108BD00BF0020084008B5FFF718
:2037600063FE012804D1FFF7C3FE012800D108BDFFF74CFF002008BD08B5FFF7FBFEFFF7AC
:20378000B7FE012800D108BDFFF740FF002008BD38B5194B194A1978D2F89C210029184C42
:2037A00018BF0024D30700D438BD06F025FD02464FF080550021134B134898615C6114460D
:2037C000D5F8B0211961136A19209847D5F8B03112201B6A9847D5F8B03119201B699847AE
:2037E000D5F8B03112201B699847002CDCD1BDE8384006F005BD00BF284B0020002008401E
:203800000000C0800010046000004080094B1B782BB100231946084A116153617047074A6F
:20382000074B0849002808BF1346034A11615361704700BF284B0020001004600200C0806B
:203840000800C0800000C080044A054B1178054A002918BF00235361704700BF284B00208A
:203860000000C08000100460014B1868704700BFC409002038B50B460446154600211A4601
:203880000FF090FC0122637B258062F30303637338BD00BF014B1860704700BFC8090020E7
:2038A00010B5064B06495C6806480C6000234FF43441054A03F026FF012010BD0030044081
:2038C000D0090020DC0900203D390000164B1B6843B370B59B68984708B9002070BD06F08F
:2038E0008BFC0023114A124E5468326814F1804143F10003914273F10003054603D3346021
:2039000065B1012070BDFEF719FF0A4A0A4913680860013313603460002DF2D106F070FC1F
:20392000012070BD00207047C809002000300440D0090020D8090020CC09002010B5134BEB
:203940001B68B3B19B689847D8B9114C236A984701280ED1FFF7BAFF636A0446984744B1A2
:20396000BDE8104000234FF434410A4A0A4803F0C9BE0023BDE810408021064A064803F00D
:20398000C1BEFFF7A3FF0446E9E700BFC8090020383701003D390000DC09002070B5204EC8
:2039A0003368002B39D09B680446984708BB1D4D2B6A9847FFF78AFF6B6A98471A4BB4F12E
:2039C000404F1D681CD83268184BB2F90C101A68CB17891A63EBE273091945EB03052D02E8
:2039E00043F609520023080245EA11610FF026F970BDFFF76BFF0C4BB4F1404F1D68E2D9EF
:203A0000FEF79CFE0A4B1B68C3F17E4303F57203C34248BF05F1FF35D5E7184670BD00BF21
:203A2000C809002038370100D8090020D4090020CC09002010B5104BD3F89C31DA0704D4C1
:203A4000FFF7F2FC012800D010BD0C4C23695B0204D46FF00042094B1A6110BD0122084BF0
:203A600008481A7004F030FA6FF480036FF000422361024B1A61F0E70020084000100460C8
:203A8000294B00207C05002008B5114BD3F89C31D90704D4FFF7C8FC012800D008BD06F01A
:203AA000ABFB0C4B1A6912020BD40A4B1A6912F00A0F1CBF6FF00A021A61BDE8084006F0FC
:203AC0009FBB6FF4000204481A6104F0FDF9ECE700200840001004607C050020014B18784A
:203AE000704700BF2A4B002008B5FFF70FFC30B1034B5888A0F10200B0FA80F0400908BD33
:203B0000000A00207D2901D90120704708B50A46014602480FF054FA002008BDD60C002051
:203B200010B588B040F60202182102A8FFF7A2FE012211499DF818300968104C898823F08A
:203B40000F03ADF81A1002A801A907948DF818308DF81620FFF7E2FB012802D0002008B067
:203B600010BD02A8FFF744FCA0F10100B0FA80F0400908B010BD00BFCC050020A0050020A9
:203B8000F8B50E4D00200E4E2C680E4F06E02379022B06D024682B68A34209D02379032B84
:203BA000F5D133782BB124682B680120A342F5D1F8BD384604F088F90120EBE7C80C00203E
:203BC000284B00207C05002030B583B0FFF74CFE0446FFF79BFB08B903B030BD0A4801A926
:203BE000FFF79CFB0128F7D1FEF7A8FD6FF03F052D1A03E0FEF7A2FDC542EDD5638803F4A1
:203C00004063002BF6D0E7E7010001040B280BD00C2801D001207047042A08D139B10A4B0B
:203C200000201B680B607047082A00D109B902207047064A4B1E073112F8010903F8010F11
:203C40008B42F9D100207047FC0900202F0A0020082200B585B000210DEB02000FF0A2FAAE
:203C600042F2034302A801A9ADF80830FFF756FB20B19DF90A30803303D0002005B05DF801
:203C800004FB9DF80C0000F00C00A0F10400B0FA80F0400905B05DF804FB00BF082210B5D9
:203CA00084B00DEB020000210FF07CFA02229DF80C3042F2034462F301038DF80C300CE0CA
:203CC000082200210DEB02000FF06CFA02A801A9ADF80840FFF722FB38B19DF80C0000F06C
:203CE0000303022BECD004B010BDFF2004B010BD2DE9F043DFF8CC8083B081460F46D8F829
:203D00000060FEF71BFD304D2D1A03E0FEF716FDC5421DD53479022CF8D0032C13D1D8F808
:203D200000100B7A062BDEB202DDB51FBD4211DD00231D4628460A680B71C8F800200B724E
:203D400003B0BDE8F0830025284603B0BDE8F0833479E2E72A46093148460FF031F904223D
:203D6000D8F80010F31CCB5C184F5BB23B70331DCB5C05363144164E03F03F030DEB020054
:203D800033700FF01DF90198FFF708FE114B124A1B7810605BB100222846D8F800301968FE
:203DA0001A72C8F800101A7103B0BDE8F0833978042049B289B205F0F7FB2046317805F05B
:203DC000F3FBE8E7D00C0020F4FEFFFF63080020274B0020284B0020FC09002030B583B04D
:203DE000FEF7ACFC194C241A06E0FFF731FF38B1FEF7A4FCC44203D5FFF788FA0028F4D1B6
:203E000001A91348FFF78AFA6FF03F04FEF796FC104D241A06E06888022808D1FEF78EFC07
:203E2000C44203D5FFF772FA0028F4D1688842F20243984207D042F20743C01AB0FA80F0C9
:203E4000400903B030BD012003B030BD00FEFFFF01000104000A002008B5FFF757FA30B1A7
:203E6000044B5B88022B14BF0220012008BD022008BD00BF000A002030B583B0FFF746FAEA
:203E800030B1134C6388022B02D1012003B030BD0F4801A9FFF742FA012802D0002003B035
:203EA00030BDFEF74BFC6FF03F05094C2D1A03E0FEF744FCC54209D560880228F8D1A0F131
:203EC0000200B0FA80F0400903B030BD6088F6E7000A002008B5FFF723FE012801D0002000
:203EE00008BDFFF7C9FFC0B208BD00BF10B5FEF725FC1A4C241A06E0FFF7AAFE38B1FEF768
:203F00001DFCC44203D5FFF701FA0028F4D1FFF7FDF9134C20B16388022B01D1FFF75EFF73
:203F2000FFF774FBFFF7A4F900220E4B62801979022908BF1A710C4B1A79022A04BF002222
:203F40001A710A4B1A79022A04BF00221A71084B1A79022A04BF00221A7110BD00FEFFFF07
:203F6000000A0020980A0020240B0020B00B00203C0C002008B5FFF7B1FD012801D0FFF772
:203F8000B5FF012008BD00BF10B5FFF7A7FD012808D0FFF73BF9FFF7B9F928B11D4B5B8872
:203FA000022B01D1012010BD4FF0010C4FF0840E19481A4B44791A496CF383040160186052
:203FC000A0F806E044714879164A6CF383000A60A1F806E04871507959796CF383006CF32D
:203FE00083011360A2F806E0A3F806E050715971FFF724F9FFF7B2FB012801D0002010BDA1
:20400000FFF7C6FBFFF78CFD0128F7D1BDE81040FFF732BF000A0020980A00203C0C002049
:20402000240B0020B00B0020F8B50025354E3648FFF734F8FFF76CFB8C22294630460FF072
:20404000B1F88C22294631480FF0ACF88C2229462F48304C0FF0A6F88C2229462E480FF03F
:20406000A1F82E4F2E4B8022294620463E601E607D600FF097F842F601032A4E2360A623B3
:20408000304642F202024FF2F001276101272377E36820F8022B1940234AA369C4E9015591
:2040A0001A4094F83730C4E9085567F3030384F837301E4BE5830B43E3601D4B04F118018E
:2040C0001343A3611B4B02226361A5630EF078FF3A4604F11A01301D0EF072FFFFF754FF26
:2040E000B84202D02C462046F8BD04461248FFF7D1FBFFF7D5FB2946104803F0EFFD20462F
:20410000F8BD00BF980A00208C050020240B0020B00B0020000A00203C0C0020C80C002008
:20412000D00C0020800A0020007C008000011AB10702FF6F880A0020703701007C0500209F
:2041400070B5FFF7CBFC012835D0FFF7DFF8A8B3224E7388022B31D1FEF7F0FA204C241A04
:2041600006E0FFF775FD38B1FEF7E8FAC44203D5FFF7CCF80028F4D1FFF7C8F8D8B1002548
:204180007388022B26D1FFF789FDFF2822D000F00300441E18BF012475B1FFF79FFC01283A
:2041A0000AD0FFF7A3FE204670BDFFF797FC012801D0FFF79BFE0124204670BDFFF7E4FE59
:2041C00001280446F1D1FFF7A1F80028E5D02546024ED5E70124002DEED0DEE7000A0020C8
:2041E00000FEFFFF70B588B00546FFF78FF800285AD03A4B5B88022B56D10024FEF79EFADF
:204200006FF01F06361A07E0FFF722FD012854D1FEF794FAC64252D5FFF778F80028F3D17C
:20422000182142F6014202A8FFF724FB00222C4BE8B28DF81700069304929DF81430012013
:2042400062F303038DF81430FFF7E0FA02A801A9FFF764F8D0B1234DBDF80A302A7803F44B
:20426000406333B982B3BDF80A3003F44063002BF8D0BDF80A50ADB2B5F5105518BF012584
:20428000FFF7E2FA3CB9284608B070BD0125FFF7DBFA002CF7D0FFF721FC0128F3D0FFF72B
:2042A00025FE284608B070BDFFF76EFE01280446A4D00125284608B070BD0028B0D034B931
:2042C0000225284608B070BDFEF7AEFDC4E7FFF705FC0128F4D0FFF709FEF1E7000A002036
:2042E000D60C0020284B00207D2801D901207047FFF778BF7D2901D90120704710B50C4636
:204300000A46014603480EF05BFE2046BDE81040FFF768BFD60C002010B5FFF7DFFB01282C
:204320001AD0FEF7F3FFB8B10C4C6388022B13D1FEF7ECFF60B9FEF7E9FF68B16388022BE8
:204340000AD1FFF7ABFCFF2806D0C0F3801010BDFFF77EFC0028EED0002010BD000A00206B
:204360000B2810B502D00124204610BD082A23D111B3154A01F1080313F8010D8B4202F8F5
:20438000010BF9D1FEF7C2FF04460028ECD00F4C6388022B15D1FEF7B9FF80B16388022B14
:2043A0000DD1FFF71BFD012809D00324FFF764FD012818BF0324D7E70224204610BD00242F
:2043C000F4E70024D0E700BF280A0020000A002030B585B0072800F2BB80DFE800F0293264
:2043E0003D474A7176045B4C2177FEF78FFF002838D06388022B35D1FEF788FF002800F060
:204400008C806388022B40F08880FFF7E7FC012818BF032400F08180FFF7AEF901287ED03B
:20442000FFF72AFD012818BF0324204605B030BD012900F08780002974D00224204605B061
:2044400030BDA1F10B030F2BF7D8424CC9B2A37B8B4207D0A173C8E73E4C6186FEF756FF7D
:204460000028C6D10024204605B030BD394C2186BBE731F00703E0D1364C01F00103228B83
:204480003548C1F3400543F0020302F4FE4243EA850313430278C1F3800191422383017094
:2044A000A3D104F1180102222C480EF089FD2C4803A9FEF733FF00280CBF03240024B4E73E
:2044C00031F00103B9D1CCB2AFE701F115031A2BB3D86FF014030C25224A01E052F835309C
:2044E000994229DD013DF9D2FEF710FF044600289BD00422002103A80EF054FE1022194B19
:2045000003A803EBC505AB8802A90024ADF80E30ADF80C20FEF702FF87E700247CE7FFF7A1
:20452000D5F97DE70191FFF7D9FA01289AD0FFF7DDFC01990C4678E70A4B0B4A03EBC503E1
:204540001360D1E7FFF720FD01288BD003246CE701246AE7000A0020284B0020820A002040
:20456000800A002080370100CC050020D1B170B50C4684B0182813D8DFE800F03EB0AB68D8
:204580004D0D16A5736D3912121235312C281224201C0DB56400002318460B6004B070BD98
:2045A0000120FBE7022070475D4B00201B681B680B60F3E70A2300200B60EFE7202300201B
:2045C0000B60EBE7032300200B60E7E7052300200B60E3E76FF0140300200B60DEE71A239F
:2045E00000200B60DAE70B2300200B60D6E74D4B00201B780B60D1E7FEF788FE002800F0F8
:204600008A80494B5888A0F10203B3FA83F35B0900202360C2E70023434A0B60137E03F014
:2046200001030B60127E520744BF43F002030B603E4B1B78002B44D00B68002043F0040354
:204640000B60ABE77D2300200B60A7E7364B00201B8E0B60A2E7364B00201B785BB20B60BA
:204660009CE7FEF753FE00283FD02F4B5B88022B3BD10026082200210DEB02000EF092FDAC
:2046800002229DF80C3042F2034562F383038DF80C300AE0002102A80EF084FD02A801A985
:2046A000ADF80850FEF73AFE48B39DF80C2002F00C02082AEED03EBB9DF90A302360803325
:2046C0002BD000206AE7184B002093F91C300B6064E7154B00205B8E0B605FE7124B0020C6
:2046E0009B7B0B605AE7182392E7FFF74DFC01280646BFD06FF07F03032023604EE78023A2
:204700008DF80A30002EF5D0FFF7E8F90128D3D0FFF7ECFBD0E703467AE703203EE700BFFF
:20472000CC050020274B0020000A0020284B00206308002008B500F077F880B208BD00BFDC
:2047400000F004B938B54FF08055D5F8B83104205B699847D5F8B83104205B6B9847012886
:204760000446F7D1D5F8B83140F20140DB699847034B044A9C62936A9B07FCD538BD00BF1D
:204780000020086000200840034B1B68002B0CBF02200120704700BF8C0D0020F8B50388B8
:2047A00004465BB3B3F5847F2DD1194B1B788B4201D00120F8BD174D2B686BB14FF0805368
:2047C0000026154AD3F8CC3157685B680220984739462B6898472E604FF08053D3F8B831C4
:2047E00040F201409B6A984701210C4B0C4A9962936A9B07FCD50B48FEF756FC4FF4847354
:2048000023800120F8BD002323800320F8BD00BF640800208C0D0020008002400020086033
:2048200000200840D005002070B52B4B1B686BB12A4900230A4612F8014B002C3CD1013338
:20484000042BF8D125462046294670BD4FF08053D3F8B83104205B6B9847012837D0FFF73E
:2048600071FF1F4A1F4B92681A4210D101221E4BC3F8F02FD3F8F02F002AFBD110464FF4DF
:20488000807106F025FA0122184BC3F8A82205F0B3FC0646124A9368DB07FCD54FF08053FB
:2048A000D3F8CC3102205B68556898470446002EC9D105F0A5FCC6E700200D4AC85402EBDA
:2048C000C30552F833406D682046294670BD094BDB6B9A07C5D4C2E78C0D0020900D002089
:2048E00000800240010000800090024000005042700800200020084038B500244FF08051F0
:204900000E4D0F4AC5F8A842D368D1F8B01123F00103D3604B6931209847224620464FF438
:20492000807106F0D5F90121064BC5F8A812224619780548BDE8384003F094BA00005042A2
:204940000080024064080020E405002010B5074C2378802B00D010BD03F0B8F903460021F7
:2049600023700348BDE8104003F0B8B964080020E405002008B505F03FFC003818BF01204E
:2049800008BD00BF80F31088704700BF827A044B03EBC2035B68181AB0FA80F04009704705
:2049A000940D00202DE9F0434E4F827A0121064685B007EBC20202E0C2E8441F4CB1D2E855
:2049C0004F3F13F0FF05F7D00325284605B0BDE8F083BFF35F8F4FF08059B37ADFF80881D3
:2049E00007EBC3077E60D9F8B431F078DB6B9847B37A08EB03135868D9F8B8315B69984787
:204A0000B37AD9F8B82108EB0313526B5868904701280746F4D1D9F8B831DA69B37A08EB0A
:204A2000031398689047314B314A9F62936A9B07FCD503204FF08051B37A1B0158F8032032
:204A4000536923F00F035361B37A1B0158F803301862D1F8C4311F68B37A1B0158F803009A
:204A600033893BB1337A002B35D1737A002B0CBF03240124082322464FF08054019373686C
:204A80001C4900930023B847B37A96F800C0D4F8B471B27871781B01CDF800C058F8030089
:204AA0007F6C4FF0FF33B847B37A1B0158F80320536843F002035360B37AD4F8C4211B013F
:204AC000126958F8030003A990470028F4D1284605B0BDE8F083737A002B14BF0324022425
:204AE000C8E700BF940D0020043801000020086000200840006CDC0270B5264D837A05EB8B
:204B0000C3025268904201D0042070BD4FF08051214A044602EB03139868D1F8B8311B6A23
:204B2000984701211D4B1E4A9962936A9B07FCD54FF08056D6F8B43160789B6B9847D6F8E6
:204B4000B4314FF4005160789B699847D6F8B431A0789B6B9847D6F8B4314FF40051A07812
:204B60009B699847D6F8B43120789B6B9847D6F8B4314FF400519B69207898470023A27A21
:204B800005EBC2025360A27ABFF35F8F184605F8323070BD940D0020043801000020086082
:204BA000002008402DE9F04F9846334D837A164605EBC3056A6885B0904203D0042005B044
:204BC000BDE8F08F4FF080592C4D044605EB03135868D9F8B8310F465B6B9847012849D119
:204BE000A37A2749886F05EB0311C9681B01084240D0DDE90E210A44B242B8BF3246002A36
:204C0000019235D0D8BF0DF10C0A24DD4FF0000B0DF10C0A5E45D4BF002117F80B10E85831
:204C20000391D9F8C4315B689847A37A51461B01E858D9F8C431DB6898470E9B5B45C4BFB4
:204C4000039B08F80B30019B0BF1010B5B45A37A4FEA0313DED14FF0805601E0A37A1B01ED
:204C6000D6F8C421E8585146136998470028F5D10020A4E70520A2E7940D0020043801000A
:204C80000020084010B503880446442B06D0452B0ED0BBB100232380032010BD0D4B1B7872
:204CA0008B4212D18AB1002045230B49088023800A49094800F07CF8012808D944232380E6
:204CC000012010BD00F0DAF8F8E7012010BD002010BD00BF3D4B0020A40D0020E14C000005
:204CE0000146014806F01AB8243801000021014802F0F4BFF40500202DE9F0430024012643
:204D000007460D46DFF85480DFF85490B1B084B1E30717D54246C0212B78684606F024F855
:204D20006846B847082E15D0013401360135002CEED14246C02168462B7806F015F86846B3
:204D4000B847F1E74A46C021684606F00DF86846B847DFE731B0BDE8F08300BF44380100BA
:204D60004038010010B5BAB00A460446282168460AF0B6F86B46C021034A0AA805F0F4FFD9
:204D80000AA8A0473AB010BD2438010009B1FFF7B3BF10B5B0B00446C021044A684605F003
:204DA000E3FF6846A04730B010BD00BF4C380100F0B5038805460E46B1B01BB3702B1CD105
:204DC000274B284F1868436831463A6826489847012838D96C46254AC021204605F0C4FFFF
:204DE0002046B04730462249FFF786FFC0212046204A05F0B9FF2046B047002303202B804E
:204E000031B0F0BD13781446202B03D114F8013F202BFBD0002BDDD0202120460EF014FA13
:204E2000104F386018B1002300F8013B3860204600F014FE0A4B186040B100220A4B1A808C
:204E400070232B80BFE7002031B0F0BD6C46C0212046094A05F088FF2046B047BBE700BF3A
:204E6000AC0D0020A80D0020B00D002094380100FC320020983801005C38010000F0D6BDA3
:204E800030B503880446B1B023B100230320238031B030BD0D46064AC021684605F064FFE2
:204EA0006846A847034B04489B6A9847EDE700BF9C38010084480100C038010030B5038839
:204EC0000446B1B023B100230320238031B030BD0D46064AC021684605F046FF6846A84793
:204EE000034B0448DB6A9847EDE700BFC838010084480100C03801002DE9F0410388804602
:204F0000B0B033B100230320A8F8003030B0BDE8F081124A0D466846C02105F025FF68463C
:204F2000A8470F4803F0CCF807460028EAD00D4E7C6823685BB1A3683246C021684605F068
:204F400013FF6846A84754F80C3F002BF3D1384603F062F907460028EAD1D3E7EC38010041
:204F6000F00D0020EC3901002DE9F04103880446CEB053B91C4B0E461B7B63B9C0211B4A95
:204F80001EA805F0F1FE1EA8B0470023032023804EB0BDE8F0810CF09BF90028EED0144FD4
:204FA000386804F057F80546C021124A1EA805F0DBFE1EA8B047002DE7D0DFF83C802A464E
:204FC000782168460CF08CF86B464246C0211EA805F0CAFE1EA8B0472946386804F002F8B3
:204FE00005460028EBD1D0E73049002004390100380800201C390100EC3901002DE9F043CF
:2050000003880546B1B02BB1002303202B8031B0BDE8F0830E46154AC021684605F0A4FEBA
:205020006846B047124CDFF84C90DFF84C8004F1600714F8023C13B1237C012B03D92034B2
:20504000BC42F6D1E0E74A46C021684605F08CFE6846B04721463046FFF784FE4246C021C3
:20506000684605F081FE6846B047E8E72C3901008E460020443901003C44010070B5038891
:205080000646B4B023B100230320338034B070BD0C46794AC021794D04A805F065FE04A816
:2050A000A0472B7B002B00F0D3806B7BC021744A04A805F059FE04A8A047724B1B699847C5
:2050C000002800F0CD80704AC02104A805F04CFE04A8A0476D4AC02104A805F045FE04A82A
:2050E000A04720466A49FFF73DFE95F85430C021684A04A805F038FE04A8A047664AC021E0
:2051000004A805F031FE04A8A04720466349FFF729FE634AC02195F8403004A805F024FEAF
:2051200004A8A047AB7BC021032B96BF5D4A5E4B52F8233004A85D4A05F016FE04A8A04776
:20514000AB681A8C002A00F08D80574B5849012A08BF0B46C021574A04A805F005FE04A817
:20516000A047EB8AC021544A04A805F0FDFD04A8A0472A7EC021FF2A16BF6B8B4FF0FF3338
:20518000534304A84D4A05F0EFFD04A8A04795F85E30C021032B96BF494A434B52F8233085
:2051A00004A8484A05F0E0FD04A8A047C021464A04A805F0D9FD04A8A047686C002853D0B2
:2051C0000CF0B4F801462046FFF7CCFD6B6CC0219B793E4A04A805F0C7FD04A8A047B5F8C2
:2051E0004A30C0213A4A04A805F0BEFD04A8A047AB8AC021374A009304A8B5F8483005F0F1
:20520000B3FD04A8A047EB7BC021334A04A805F0ABFD04A8A04795F85B30C0212F4A0093A6
:2052200004A895F85A3005F09FFD04A8A0476A7C2B7C00921344AA7C01930292C02195F855
:205240005730274A04A805F08FFD04A8A0471AE7C021244A04A805F087FD04A8A04712E795
:20526000214A31E7214B75E7C021214A04A805F07BFD04A8A047B2E75C3901003049002023
:20528000803901008448010094390100B43901004C490020C0390100D03901005C4900204D
:2052A000DC3901007442010048390100E439010054390100F0390100FC390100183A010040
:2052C000644201003C3A01004C3A0100643A0100803A0100903A0100AC3A0100C03A010022
:2052E000F03A01006C390100A439010050390100783A010030B503880446B1B023B10023B0
:205300000320238031B030BD0D46054AC021684605F02AFD6846A84702480AF0CBFBEEE730
:20532000303B0100C03801002DE9F041B0F800800546B0B0B8F1000F3CD10E461446002A51
:205340004CD01778002F69D138464D490DF0E2FF00284AD101234B4F3B6014B12378002B20
:2053600066D108F047FE0346474C59689A680068DB680FC43B681BB3444F3B6998470446CB
:2053800000283BD1424AC021684605F0EDFC6846B04730463C49FFF7E5FCC0213D4A684653
:2053A00005F0E2FC6846B047BB68214636489847FB689847002303202B8030B0BDE8F08165
:2053C000324C2369984708B3C021334A684605F0CBFC6846B047E3699847EBE717462849F1
:2053E00038460DF097FF0028B4D038462B490DF091FF002838D1234F3860AEE7C021684612
:20540000274A05F0B1FC6846B047D3E7C0216846244A05F0A9FC6846B047CBE72021104695
:205420000DF012FF2746E8B100F8018B04468BE7202120460DF008FF08B1002303702046B8
:20544000114909F0D9FC8046002893D12346C021154A684605F088FC6846B0470220A5F89E
:205460000080AAE704466FE73B46C0210F4A684605F07AFC6846B047002302202B809CE78F
:205480004C3B0100C40D0020CC0D0020844801007C3B0100A03B0100C43B0100EC49010003
:2054A000A83B0100EC3B0100683B0100503B0100F0B503880646CBB023B1002303203380EC
:2054C0004BB0F0BD334A0D461AA8C02105F04CFC1AA8A84709F036FA09F0E8F9044600284E
:2054E0004FD0C0212C4A1AA805F03EFC1AA8A8472846211DFFF736FCA369002B2ED1C021A9
:20550000264A1AA805F030FC1AA8A84709F048FE00282EDD09F044FEC0210346204A1AA884
:2055200005F022FC1AA8A84709F018FF04460028C3D01C4F2246642101A809F07BFF3A469E
:20554000C02101AB1AA805F00FFC1AA8A847204609F00AFF04460028ECD1AEE7C021124AE2
:205560001AA805F001FC1AA8A84709F019FE0028D0DCC0210D4A1AA805F0F6FB1AA8A84751
:205580009BE7C0210A4A1AA805F0EEFB1AA8A847BCE700BF043C010044390100303C010075
:2055A000543C0100743C0100143C01007C3C0100483C0100F0B5078804460D46B3B0D7B15E
:2055C0009B2F13D1474E3368002B4FD0464802F0E7F970B13368002B48D0C021434A02A82C
:2055E00005F0C2FB02A8A8470023336000230320238033B0F0BD1646002A5BD01378002BCA
:2056000058D0202110460DF01FFE00B107703046374909F0F1FB0746002857D0354AC021B2
:2056200002A805F0A1FB02A8A84728463049FFF799FBC021304A02A805F096FB02A8A84701
:205640002E4A2F4B1268274E4FF4207126481A60356002F091F9042300228021244809F04D
:20566000EFFA9B2323803368002BAFD1254AC02102A805F079FB02A8A84728461C49FFF7D5
:2056800071FB214A214B16881F78FDF727F84FF47A721549009709683346401A02FB00F02A
:2056A000C0090190C0211A4A02A805F05DFB02A8A8479BE7C021174A02A805F055FB02A85E
:2056C000A84700230220238033B0F0BD3346C021114A02A805F048FB02A8A847022027806A
:2056E00087E700BFB40D0020F40D0020E43C0100E00D0020D83C01003C440100B0310020B6
:20570000B80D0020F03C0100064B00202B4B00200C3D0100903C0100BC3C010030B50388F0
:205720000446B1B023B100230320238031B030BD0D46094AC021684605F016FB6846A8475B
:2057400028460649FFF722FBC0216846044A05F00BFB6846A847E6E72C3D0100FC3200207F
:205760003C4401002DE9F04303880646B3B02BB100230320338033B0BDE8F0830D4609F009
:2057800023F80446002844D0C021274A02A805F0EBFA02A8A847DFF89490DFF894804A4683
:2057A000C02102A805F0E0FA02A8A847204609F003F801462846FFF7D5FA4246C02102A80F
:2057C00005F0D2FA02A8A847204608F0F7FF01462846FFF7DBFA627C1649042A94BF51F894
:2057E0002270154F237CC021144A02A8009705F0BBFA02A8A847C021114A02A805F0B4FAC8
:2058000002A8A847204608F0E5FF04460028C6D1AEE7C0210B4A02A805F0A6FA02A8A84701
:2058200002203480A7E700BF5C3D010044390100743D010050420100483901007C3D0100AC
:205840003C440100403D01002DE9F043B3B08046C021114A114C02A805F086FA02A8C0476E
:205860002568ADB1DFF8389063681E68304602F05FF907462B464A46C021CDE9006702A897
:2058800005F072FA02A8C04754F80C5F002DEBD133B0BDE8F08300BF943D0100480600205C
:2058A000A43D01002DE9F04306880446B3B0002E39D10F46154612B11378002B39D10020F7
:2058C00002F014F900253C4B18602B46C0213B4A02A805F049FA02A8B8473846FFF7B4FF1C
:2058E00000230220238033B0BDE8F083202140460DF0AAFC08B1002303700A22404601A9B0
:205900000DF076FE2E4B1860002841D1019B43452CD03368984203D00146284602F0C2F822
:205920003846FFF791FF00230320238033B0BDE8F083202110460DF087FC814658B38046D0
:20594000284608F8016B02F0D1F81B4E294630601C480DF0DFFCB8B999F80130002BC5D11A
:205960004FF0FF324FF00008154B1A604346C021154A02A805F0F8F902A8B847002302204F
:20598000238033B0BDE8F08333680133E4D19CE70428EBD8BDE7284602F0A8F80346064E32
:2059A0002946084833600DF0B5FC0028D8D033680133D5D189E700BFDC0D0020BC3D010070
:2059C000C80D0020B83D0100D83D010030B503880446B1B023B100230320238031B030BD20
:2059E000054A0D466846C02105F0BEF96846A847FCF79EFFEFE700BFF83D0100074A106809
:205A000058B130B40024064D06482970064914600B80006830BC02F057BA7047B40D0020FE
:205A20002B4B0020B80D0020064B002010B5074C204602F041FB2046054902F043FBBDE845
:205A400010400449044809F03BB900BFF00D002004060020FD590000BC0D002070B50546BB
:205A60000E4802F02DFBA8B106467468206818B90AE054F80C0F38B129460DF04BFC234686
:205A80000028F6D1184670BD304602F0C5FB06460028EAD10023184670BD00BFF00D0020AB
:205AA0002DE9F0430488054689B054B340F243139C4240F0AA80894C894E236801332360D8
:205AC000336801333360874B1B788B4200F0A380854801F065FF68B1844A23681768B3FB5E
:205AE000F7F207FB1237002F00F0348101217E4801F042FF40F2431301202B8009B0BDE8D2
:205B0000F0837B4A7B497C4805F008F97B4805F005F9774A7749784805F000F9784B794866
:205B2000196805F0FBF822462146204607F0C8FBDFF8D4810646C8F80000002800F0C3807A
:205B40004BF60B176A4A6B4937826B4805F0E6F86E4805F0E3F8D8F8000001F063FF644AE4
:205B60006449654805F0DAF8D8F80030DFF8A0915A8A198A52BA49BA92B289B2654805F045
:205B8000CDF85B4A5B495C4805F0C8F8B9F80010614805F0C3F8FEF7CDFD544A4FF47A7EEC
:205BA0001168B9F80030B0FBF1F808FB11005B4A303B0EFB0303D268494E0192474A33603C
:205BC0001060019A904740F2FF364FF47C433946224604A8ADF81E30ADF81240ADF8144004
:205BE000ADF81640ADF81840ADF81A40ADF81C40ADF8106007F064FB02464949494B096863
:205C000039481A6001F0B8FE74E7002303202B8009B0BDE8F083444B1B789B077FF558AF86
:205C2000334A3449344805F079F8404805F076F83F4B1B88082B7FF44BAF3E4F042239687C
:205C400003A80DF0BDF92A4A2A492B4805F066F80399394805F062F80422396804A8114405
:205C60000DF0AEF9224A2349234805F057F8DDE90312324805F052F80022314BDFF8C480AC
:205C80001A60D8F80030002B00F0BC80049B002B00F0DF8033680398C01A0DF053F92A4B4C
:205CA0001B68B0EB430F40F2C380039A336811499A4211480E4A80F0B78005F02FF82348B2
:205CC00005F02CF804E70A4A0A490B4805F026F81F4805F023F802202E800FE7940E0020B4
:205CE000A00E0020464B0020800E0020A40E002038430100404301003436010044430100B2
:205D0000CC44010058430100A80E0020A44301000C4B0020B0430100CC43010084480100D0
:205D2000AC0E00209C0E0020484B0020E0430100184B002010450020F8430100004401006F
:205D4000980E0020900E00207C0E00204044010070430100434A4449444804F0DFFF2168DB
:205D6000434804F0DBFF434ADFF80C81136801331360D8F800201AB10A2B88BFC8F8007050
:205D8000782200213D480DF00DFA04223C493B480DF016F9042238493A480DF011F93A4CCF
:205DA000304A3149314804F0B9FF384804F0B6FF206801F037FE2B4A2B492C4804F0AEFFF5
:205DC0002368588A07F0AAFF0146314804F0A6FF244A2549254804F0A1FF04212D4804F0F2
:205DE0009DFF204A2049214804F098FFD8F800203168294804F092FF08222049206809F0AD
:205E000065FB73E6049B002B3FF444AF154A1649164804F083FF214804F080FF039B33603A
:205E20000123C8F8003053E604F078FF1C48F3E70C4A0D490D4804F071FF1A4804F06EFF44
:205E400001223368C8F80020039A13445B0833603EE6044A0449054804F060FF124804F00D
:205E60005DFF35E638430100404301003436010050440100980E0020900E0020040E0020F5
:205E8000A00E0020080E00209C0E0020604401006C440100804401008C44010024440100DF
:205EA000484401002C4401001C4401000B4610B458B1C0010649074C086007482360026066
:205EC0000021064810BC01F009BF0120F2E700BFAC0E0020A40E00207C0E00200C0600208D
:205EE000022A39D0032A29D0012A10D04FF0000C024601F1100380F800C013F8010D994278
:205F000002F8010FF9D110221D4B1A707047034600B54FF0000E00F10F0C03F8022B03F858
:205F200001EF6345FBD10F2291F801C0144B80F801C009781A7081705DF804FB844602705E
:205F400001F1100313F8012D99420CF8012FF9D110220B4B1A707047844601F108030CF896
:205F6000012B13F8012D8B420CF8012BF9D100231021034A43724381C36003741170704709
:205F80002D4B00200B78032B10D8DFE803F0021D100201F111030138013113F8012D8B426E
:205FA00000F8012FF9D110220A4B1A70704701F10803013813F801298B4200F8012FF9D1FD
:205FC0000822044B1A7070478B7803704B784370704700BF2C4B002070B50F4D0F4C2946C3
:205FE0000646256004E021686039A942216011D30B78FF2BF7D1102230460CF0ADFF38B1CC
:2060000010222168304611440CF0A6FF0028EAD1206870BD002070BDD02E00206C2F00209B
:20602000F8B5114A114C13460F462260461CA2F120050DE0102230460CF08EFF60B92068F2
:20604000C369BB420FD0A0F12003AB42236009D3591CDB69002BEDD12068A0F12003AB426D
:206060002360F5D20020F8BDD02F00207C2F002070B588B06D464378044603F00F03022BD0
:2060800001464FF01002284636D004AE0CF098FF1022214630460CF093FF02238DF8113027
:2060A0002A4B2B4C1A782360FF2A04D10020603B236008B070BD304608F012FA002837D015
:2060C0006022002120680DF06DF82946102220680CF076FF10222068314610440CF070FFA9
:2060E0002022206801231021104402F079FA054620B3206808B070BD04AE0CF061FF1022FD
:20610000214630460CF05CFF9DF8013001E0052B0BD8013328468DF8013008F0E1F99DF8D2
:2061200001300028F3D0052BBAD9002008B070BD304608F089F80028C2D1F6E7014610227B
:2061400020680DF02FF82846B3E700BFD02E00206C2F00202DE9F84F90F85730634E052BA6
:206160000446306076D8012904D0013384F85730BDE8F88F4FF0000E60234FF0110B4FF02C
:206180006D0A4FF028095A4DDFF8688185F806E02B60436805F12A02DB6905F1180CC8F8D8
:2061A00000200FCB8CE80F00534F85F828B085F82AA085F82CE06368A7F800901B78032BE0
:2061C00019D8DFE803F0836E5602022385F82930122385F82B30C02385F82C3061684748AF
:2061E000FFF7D0FE0123EB873B88454A18333B8013881833138094F85630204685F82D3022
:2062000002F00AF870B395F82900316805EBC000B1F85420303058310CF0D2FE33683A8839
:20622000B3F85430324813449BB2A3F1280189B23B8007F0B9FD3368324C44330FCB84E8DB
:206240000F00002007F024F807F06EFD346894F857308AE7183001F09DFA00223368DA60B3
:20626000BDE8F88FD8F80020937843F020039370C9E70A234FF0010985F82B30802385F880
:20628000299085F82C3061681F48FFF77BFE3B881B4A10333B801388A5F83A9010331380CF
:2062A000A9E7002385F82930042385F82B30402385F82C3061681148FFF764FE3B88104A83
:2062C00008333B8013880833138094E7002385F82930022385F82B3030233B800123084A6A
:2062E000EB8513880833138085E700BF742F002010400020702F0020184B00203E40002087
:20630000164B002018400020424000202DE9F047274BDFF8A0A01D4600270646DFF8988047
:20632000CAF80030A3F1400906E0DAF80050203D4D45CAF800500BD3EB69002BF5D0B3426E
:2063400022D0DAF80050203D4D45CAF80050F3D2304608F0C5F808B108F0BEF806F11000CA
:2063600008F0BEF808B108F0B7F8736ACBB93046BDE8F047102200210CF014BF04F118002D
:2063800001F008FAE7606760A86901F0E7FE0446C8F8000018B1E368002BF4D0EEE7E861EA
:2063A000C3E706F1300001F0F5F900237362DEE7F02F00207C2F0020742F002070B51B4C17
:2063C0001B4DA4F17E0602E0123CB44215D014F8023C002BF8D0637803F00F03022BF3D91B
:2063E0002046FFF7F9FD28600028EDD12046FFF73FFE123CB4422860E9D10E4C20462C6072
:2064000004E028686038A04228600ED30378FF2BF7D108F065F80028F3D12868FFF776FF7C
:2064200028686038A0422860F0D270BD7E4700206C2F0020D02E0020224A2DE9F843002739
:206440001346214C214D2260A2F12006DA690AB19A7C7AB123689A7C0AB1013A9A74203B8E
:20646000B3422360F2D2FFF7A9FFBDE8F843184801F06EB9986901F023FE286038B1C3683B
:20648000002BE7D101F0C8FE28600028F7D1D4F8009001E0C8F80470D9F8180001F05EFE43
:2064A0008046286050B1D8F80C30002BF2D008F1180001F06FF9C8F80C70EBE7C9F81C003F
:2064C000C8E700BFD02F00207C2F0020742F0020382F002010B56022002120480CF062FEEE
:2064E000402200211E480CF05DFE42F2100200211C480CF057FE1C4808F0F8FA012007F0DA
:2065000079FE30B30022194B123003F1110103F8012B10F8012D03F8012B9942F9D11022F8
:20652000134B1A70002440F2FF324FF07C431148C0E90024C0E9024307F086FEFFF73EFF2C
:206540002346BDE810404FF4F0510B4A0B4801F0D9B8FF22054B1A70E4E700BFD02E00208C
:20656000B02F0020C00E00201C060020582F00202D4B0020B00E002039640000382F0020AB
:206580002DE9F84FB54C0546237EFF2B00F0868061892389A2890B43E1891343228A0B43C8
:2065A000618A1343A28A0B431343E28A13439BB2002B79D0AA4E304607F0CAFD08B1012D34
:2065C00072D0A379002B6FD194F82A306D2B6BD194F82C20DFF88CB2A34912F01005CBF885
:2065E000001061D1920940F00181A04AA1F1130302F8015B233913F80109994202F8010BD2
:20660000F9D110229A4B1A709A48FFF7E5FCDFF868A20146CAF80000002800F009819348EF
:20662000FFF7FEFCDBF80030DFF85082DB78DFF85092C8F80000A9F80030002800F0348154
:20664000427C9A4230D8806901F03AFD80B3D8F800308C4F986901F033FD386020B927E0DF
:2066600001F0DAFD386018B390F85620B9F800309A42F5D1DBF800309B789B0640F1AA815B
:2066800001F0CAFD002800F0A58100223B6803F1080083F8572001F099FF06E0637E03F00E
:2066A0000F03022B3FF674AF00252846BDE8F88FD8F80030002B00F0F780734B714F002252
:2066C000184672493B6006E0A0F5AB6088424FF0010200F01B814368002BF5D102B1386001
:2066E0004FF4AB6200210CF05DFDD7F800C0BCF1000F00F00D8196E80F0094F828500CF17C
:206700004404112D84E80F00614906D04B7801EBC3010B7A0831112BF8D15E4B0CF15800C4
:206720001A885D4B283A1B88D21A4B7892B201EBC3015A4B0831ACF8542019600CF040FCC0
:2067400010223868B9F80030114680F85630D8F80030083040F8043C012301F041FF0546E1
:20676000002800F0B280D8F80030986901F0A8FCD8F8003000283ED0986901F0A1FC484CE0
:20678000206030B9BFE001F047FD2060002800F0BA8001F041FD002800F0AB8020683A684E
:2067A00090F8563092F85650AB42ECD201F034FD90F85630AB4217D03B68206893F8565090
:2067C00001F02AFD90F85630AB4200F28F803B68206893F8565001F01FFD90F856302068A6
:2067E000AB42D0D201F018FD2068CCE71F480431FFF776FB08E79869396801F091FC3A6815
:20680000D8F8003092F856205A741E20D97CDAF800200131D9749874536A002B5DD121491A
:2068200082F85C3002F1200001F016FF01253CE71048FFF71DFCCAF8000000283FF434AF89
:20684000012320221021203001F0CAFE0746002800F0F280DAF80010E1E600BF10400020E9
:2068600018400020702F00203A400020882F00202D4B0020284000206C2F00207C2F0020CA
:206880000A4B0020742F0020782900206809002038400020184B0020164B0020302F002053
:2068A000802F0020FD7300006B4BD96B03F12002C8F80020002900F0CD80DA69002A00F0E6
:2068C0008E800023C8F80030EFE63C68E368002B40F0AC8000236360E7E6002302F1200063
:2068E00082F85C30012501F071FEDEE6206801F093FCD8F800303A689869216801F056FCD1
:20690000D8F8003081E7D8F800307EE700233B600021524ADFF848B1DFF83CC111600CF11D
