:020000040000FA
:20000000005000202110000019100000FD0F00001D1000001D1000001D1000000000000083
:200020000000000000000000000000001D1000001D100000000000001D1000001D1000000C
:200040002D3500001D100000613E00001D10000045280000113200001D1000001D1000003B
:200060001D100000B53E00001D1000001D1000001D1000001D1000001D1000001D10000052
:200080001D1000001D1000001D1000001D1000001D1000001D1000001D1000001D100000F8
:2000A0001D1000001D1000001D1000001D1000001D1000001D1000001D1000001D100000D8
:2000C0001D100000254D0000294B1B689B0702D44FF000407047F0B5452183B0002002F08C
:2000E00023FA022201200DF1060101F0BFF838B901A8022101F0DCF84FF0004003B0F0BD90
:20010000022200200DF1060101F0B0F80028EFD0BDF806305BBAC3F303309CB2ADF8043006
:2001200012F0C4F811F056FD0646C4F30B000F4612F0CCF80CA3D3E9002304460D463046E3
:20014000394612F02DF902460B462046294612F027F912F0D5FB074911F0B2FE12F02EFD68
:2001600003B0F0BDAFF300807B14AE47E17A843F700900200000C84208B51F4B1A68032AE2
:2001800033D1421E012A03462FD81C491C4A012B0988108811D012F089F80022194B12F074
:2001A000FFF80022184B12F0FBF812F0A9FB174911F086FE12F002FD08BD084612F076F8BF
:2001C0000022104B12F0ECF809A3D3E9002312F0E7F800220E4B11F02BFF12F091FB0B49C8
:2001E00011F06EFE12F0EAFC08BD4FF0004008BD0000000000A064407809002088390020DB
:20020000863900200000F03E000059400000C84200004440000000002DE9F041704B1B6825
:2002200053B30646062200216E4812F09DFF16F038085AD172071FD002F080FA6A4C6B4D1C
:200240002746286006E002F079FA2B68C31A0A2B40F18D806821012002F066F901223946DE
:200260003A2001F003F80021084602F05DF92378002BE8D0DB0704D44FF000484046BDE897
:20028000F081584C6821012002F04EF906222146432000F0EBFF054600286CD02346A01DC5
:2002A00019785A7859701A7002338342F8D10021084602F039F9042E6AD0022E70D0012E27
:2002C000DCD1B4F9040012F001F843A3D3E9002312F090F912F014FB454911F0F1FD12F0E5
:2002E0006DFC80464046BDE8F08102F027FA3E4C3E4D2746286005E002F020FA2B68C31AB5
:200300000A2B48D56821012002F00EF9012239463A2000F0ABFF0021084602F005F9237858
:20032000002BE9D0D907A7D52E4C6821012002F0FBF8214606223B2000F098FF0021054697
:20034000084602F0F1F8002D3DD02346A01D19785A7859701A7002339842F8D1202E22D046
:20036000102E2DD0082E33D04FF0000886E72378DB0781D585E74FF000482046062100F012
:2003800097FF2846294602F0CFF84046BDE8F081B4F9000097E72378D9077FF56DAFC3E7B5
:2003A000B4F902008FE7B4F9000001F0D1FA104911F086FD12F002FC80464046BDE8F08170
:2003C000B4F90200F1E70621204600F071FF53E7B4F90400E9E700BF00000000006060402F
:2003E000C8090020A0090020A7390020CC0900200000C842000000002DE9F04F23F0004B91
:2004000080465BEA020014461D460E4693B016D143467D49DB1886F400225241984271EBED
:20042000020324D2404622462B46314611F002FECDE90001DDE9000113B0BDE8F08F11462E
:20044000724A26F0004991459A463746434617DD07F1404707F580171F43E3D122196A49BB
:2004600085F400235B41974271EB0303DAD30023674CCDE90034DDE9000113B0BDE8F08FEE
:2004800040D0624A9345E3DC00F09380002F73DB0022029279B95D4A934500F08E805C4A7E
:2004A000934500F0A280BAF1804F00F0A084594A924500F0C68340463146049311F0F6FC8A
:2004C000049BCDE900015BB3029AFB0F013B0A93134300F09380504B9B4540F3A38003F11B
:2004E00004739B454D4B40F31B84994540F39184BAF1000F40F39184002013B0BDE8F04F4C
:2005000011F0CEBC002B8DD1BBE740463146029311F0CCFC029BCDE90001002B6ED1029377
:20052000B9F1000F04D03A4B27F040429A42CBD1BAF1000F07DADDE900230020344912F075
:2005400059F8CDE90001002FBFF674AF029B09F1404909F5801959EA030340F06E84DDE9A4
:2005600000231046194611F063FD02460B4612F041F8CDE900015DE7294A93452FDCA2F18A
:20058000547293450FDD4FEA2B52A2F2FF32142A40F34584C2F1340221FA02F000FA02F238
:2005A0008A4200F077840022029200293FF477AF81E700293FF46AAF4AE709F1404202F5CB
:2005C000801213433FF453AF144B994540F36D83BAF1000FC0F26383CDE900452AE702221C
:2005E000029200293FF457AF65E7BAF1000FC0F2F48340463146CDE900011BE74246404612
:2006000033463146AFE700BF0000F0FF0000F07F0000F03F0000E03F0000E041FFFFEF3F9C
:20062000FFFF3F43D44B3B40002B40F04783DDE900010022D14B11F0B3FE6FF03402894660
:20064000CDE900014FEA2953A3F2FF339A18CC4BC9F3130949F07F5699450B9246F44016AD
:2006600007DDC84B994540F3F58301320B92A6F580160022002300200027C349CDE9082380
:20068000CDE90601CDE91023DDE90001DDE906233146824611F0CCFCDDE90623B346804648
:2006A000894650463146CDE90CAB11F0C3FC02460B460020B44911F09DFF8C46834663469A
:2006C0005A4640464946CDE90EBC11F069FE82468B46731043F0005303F50023D9190F4679
:2006E0005A46514600230020CDE900120093064602463B46CDE904ABDDE900AB5046594605
:2007000011F04EFE02460B464046494611F090FCDDE90623804689463046394611F088FC53
:2007200002460B46DDE90C0111F082FC52465B4611F036FE02460B464046494611F078FC3D
:20074000DDE90E2311F02CFEDDE90467CDE9060132463B463046394611F022FE74A3D3E9A7
:20076000002306460F4611F01BFE73A3D3E9002311F060FC32463B4611F012FE70A3D3E970
:20078000002311F057FC32463B4611F009FE6EA3D3E9002311F04EFC32463B4611F000FEAE
:2007A0006BA3D3E9002311F045FC32463B4611F0F7FD69A3D3E9002311F03CFC32468046BA
:2007C00089463B463046394611F0EAFD02460B464046494611F0E4FD06460F46DDE90401F0
:2007E00052465B4611F026FCDDE9062311F0D8FD32463B4611F01EFC5246804689465B46F6
:200800005046594611F0CCFD02460B46CDE90C2300225E4B11F00EFC42464B4611F00AFC65
:2008200000260F4632463B465046594611F0B8FD002282468B4630463946544B11F0F8FB16
:20084000DDE90C2311F0F4FB02460B464046494611F0EEFBDDE9042311F0A2FD3246804650
:200860008946DDE906013B4611F09AFD02460B464046494611F0DEFB8046894600264246F8
:200880004B465046594611F0D5FB35A3D3E9002330460F4611F084FD52465B4682468B46EB
:2008A0003046394611F0C4FB02460B464046494611F0BEFB2CA3D3E9002311F071FD0246B6
:2008C0000B463046394616461F4629A3D3E9002311F066FD02460B463046394611F0AAFBCE
:2008E000DDE9102311F0A6FB06460B980F4611F0EDFC8046894632463B4650465946CDE9B6
:2009000004AB11F097FBDDE9082311F093FB4FF0000A42464B4611F08DFB42464B4650467B
:200920008B4611F085FBDDE9082311F081FB2FE0EF4E454A287ECA3F65DBC9934A86CD3FF5
:2009400001411DA96074D13F4D268F515555D53FFFAB6FDBB66DDB3F033333333333E33F45
:20096000000000E009C7EE3FFD033ADC09C7EE3FF5015B14E02F3EBE0000F07F0000404325
:200980008E98030079B60B000000F03F00000840DDE9042311F04CFB02460B4630463946BA
:2009A00011F046FB029B0A9A013B13434FF000020CBFD54BD54BCDE90045CDE902230023DD
:2009C0000093DDE90089CDE9040142464B462046294611F02DFB52465B4611F0E1FC2246E4
:2009E00006460F46DDE904012B4611F0D9FC02460B463046394611F01DFB42464B46064638
:200A00000F465046594611F0CBFC04460D4630462B463946224611F00DFBBD4B8046994267
:200A200089468A4640F3178101F13F4303F5E003034340F02482A2A3D3E9002330463946C8
:200A400011F0F8FA02460B46404649469046994622462B4611F0ECFA02460B4640464946D2
:200A600011F02EFF002840F00A82CAF30A534FF480120020A3F2FE3342FA03F35344A549D8
:200A8000C3F30A52A2F2FF3241FA02FCC3F3130B23EA0C01C2F114024BF4801BBAF1000FFB
:200AA0000B464BFA02FB294602462046B8BFCBF1000B11F0BDFA04460D4630463946224696
:200AC0002B4611F0B7FA89464FEA0B5A4FF000087DA3D3E900234046494611F061FC224665
:200AE0002B4604460D464046494611F0A1FA02460B463046394611F09BFA75A3D3E900231C
:200B000011F04EFC74A3D3E9002306460F464046494611F045FC02460B463046394611F00D
:200B200089FA8046894642464B462046294611F081FA22462B4606460F4611F079FA0246FD
:200B40000B464046494611F073FA3246804689463B463046394611F023FC61A3D3E900233B
:200B600004460D4611F01CFC5FA3D3E9002311F05FFA22462B4611F013FC5DA3D3E90023BC
:200B800011F058FA22462B4611F00AFC5AA3D3E9002311F04DFA22462B4611F001FC58A32C
:200BA000D3E9002311F046FA22462B4611F0F8FB02460B463046394611F03AFA04460D46E8
:200BC00022462B463046394611F0EAFB02460B462046294614461D4600224FF0804311F011
:200BE00027FA02460B462046294611F003FD424604460D464B463046394611F0D1FB424665
:200C00004B4611F017FA02460B462046294611F00FFA32463B4611F00BFA02460B46002001
:200C20003A4911F005FA8A44BAF5801FC0F223815146DDE9022311F0B3FBCDE90001FFF7E1
:200C4000F9BB002FFFF637AC4046314613B0BDE8F04F11F035B8DFF8C0C021F000436345F4
:200C600040F3CF802D4B0B4403430AD122462B4611F0DEF932463B4611F018FE00283FF4EE
:200C8000F4AEDDE902010022002311F0FBFD003818BF012013B0BDE8F04F11F0FBB80023FD
:200CA0000024CDE90034FFF7C5BBBAF1000FF6DA05F1004300940193FFF7BCBB0022C1E491
:200CC000FE822B654715973C00000000432EE63FEF39FAFE422EE63F396CA80C615C20BE96
:200CE000D0A4BE726937663EF16BD2C541BDBB3E2CDE25AF6A56113F93BDBE166CC1663F3E
:200D00003E5555555555C53F0000F0BF0000F03FFFFF8F40FFFF0F00FFCB904000346F3FB4
:200D2000994576DB724B99453FF7E2ABDDE9000100226F4B11F07CF961A3D3E900230646DE
:200D40000F4611F02DFB60A3D3E9002382468B463046394611F024FB0022CDE90001654BFC
:200D60003046394611F01CFB02460B4658A1D1E9000111F05DF932463B4611F011FB024674
:200D80000B4600205C4911F053F932463B46804689463046394611F003FB02460B4640464F
:200DA000494611F0FDFA4CA3D3E9002311F0F8FA02460B46DDE9000111F03AF906460F46B6
:200DC0005046594632463B4611F034F952464FF0000A5B4650468B46DCE5424600203346EC
:200DE000434911F007FCCDE90001FFF723BB424640463346314611F0D3FACDE90001FFF75F
:200E000019BB3D4A934256DCDDE90023924693465CE6BAF1000FFFF66FAB00203AE7002961
:200E20007FF473ABC2F114024BFA02F000FA02F25A4539D00291FFF732BB029B012B7FF4D9
:200E4000F9AADDE90045224605F10043CDE90023FFF7F0BA0022294B4FF48027CDE906236B
:200E60001FA3D3E90023CDE908231FA3D3E90023CDE9102308E45A4600F042F8D9E60022CF
:200E8000DDE90201002311F0FDFC003818BF0120FFF733BB00F00100C0F1020202920029F5
:200EA0003FF4FDAAFFF707BB00F00100C0F102020292FFF7F4BA1B15D9E500BFAFF30080F3
:200EC000000000604715F73F44DF5DF80BAE543E555555555555D53FFE822B654715F73FA9
:200EE0000000004003B8E23F06D0CF43EBFD4C3E0000F03F0000D03F0000E03F0000F83FE8
:200F0000C1F30A5370B58C4604460D4616467BBB034621F0004C5CEA030328D0324B002211
:200F200011F03EFA314B04469E420D461ADB8C46C1F30A53363B40F2FE723344934220DC4C
:200F4000002B3EDC13F1350F2CDA4CF250339E4217DC05F0004343F0D27141F4B731244833
:200F600041F01F011CA3D3E9002311F019FA70BD40F2FF7E7345DED102460B4611F05AF83F
:200F800070BD05F0004343F0FC4141F45F1141F4105113A3D3E90023164841F03C0111F0DF
:200FA000FFF970BD2CF0FF4C03F136012CF4E00C4CEA01550022204629460F4B11F0F0F9A7
:200FC00070BD2CF0FF4C2CF4E00C20464CEA035170BD00BFAFF3008059F3F8C21F6EA5013A
:200FE0009C7500883CE4377E00005043B03CFFFF59F3F8C29C7500880000903C4FF0E02359
:20100000D3F8282DB2F5806F04D0D3F8283D9B0500D4FEE7704700BFFEE700BFFEE700BFFF
:2010200008B508F027FA104A10498A420DD2104801390346891A21F003010431014453F824
:20104000040B8B4242F8040BF9D10A480A494FF000028842B8BF40F8042BFADB05F028FB26
:20106000FFF7CCFF08BD00BF0000002085080020554D010088080020D0390020F0B5002716
:2010800006463C463D4683B0304606F02DFC0195019B9C4206DD00BF019B01330193019B85
:2010A000A342F8DB304606F04DFC0195019BC4F5C8749C4206DD00BF019B01330193019B1C
:2010C000A342F8DB0137B7F5487F06D0B7F5C87FD4BF3C46C7F54874D6E703B0F0BD00BF7B
:2010E00070B54FF08054194DD4F8D831284601215B6898470122D4F8D83111461B6828460B
:20110000984708F085F802F069FA02F0E9F900F007FE06F0E3FB06F043FC0120FFF7AEFF90
:2011200001230B4ED4F8B01105F5B825F360094AAB600B691020D26A984708F06DF801F010
:20114000FFFABDE870400020FFF798BF00400340004009400020094008B541F2342003F028
:2011600005FD01F0CDFF06F0B1FC074801F0FCFF0648082101F082FC06F03CFBBDE80840D2
:201180000220FFF77BBF00BF757A00003418002008210023F0B585B00DEB0100CDE90033DB
:2011A00001F06CFCBDF80E40254D64BAEE6A4AF6CD31A4B20220B04721460320B0471A2182
:2011C0000120B04708226B6B0DEB02010B201D4F984701206946AC6AA0473B68022B1ADCF3
:2011E000022001A9A04778B93B68022B08DC0021154805F0BBFE0020FFF740FF05B0F0BD74
:201200000199124808F096FD3B68022BEFDD104808F090FDEBE70F4A0F49104808F08AFD7C
:201220000F4808F087FD3B68022BD9DD0A49094A0A4808F07FFD00990A4808F07BFDCFE7D8
:2012400048380100F40600200807002070370100843F010020370100303701003837010028
:20126000483701006037010002F000B800B58E46844683B01346012172460DF107008DF869
:2012800007C001F041F803B05DF804FB074B18703AB101EB020C11F8010B614503F8010FD1
:2012A000F9D101320148D1B200F06ABEB808002029B1CC23014401F8013D8142FBD17047E2
:2012C000813801289ABF024B18680020704700BFF40800200322024B02481A6006F0C8B9A7
:2012E000F4080020B0370100594B1B68032B40F0AB80431E012B2DE9F041044600F2A18009
:20130000544D06220021284611F02EFF7721002001F00AF906222946F720FFF7A7FF002829
:2013200000F087802A79EB784B4895F800E095F801C0A97812016D7942EA033242EA151690
:201340000588B0F90A70C5EB121202FB02F3B0F904201B1302FB03F36D00B0F90220C5EB41
:20136000D60502FB05F59B1303EBE5235E10A6F57A46B51005FB05F5B0F908204FEA6538C8
:2013800006FB02F208FB07F7521002EBE7029214C78802F5004207FB02F2D213836146D01C
:2013A000090941EA0C1CB0F90E10ED1201FB06F6B0F91010760001FB0565B0F90C602749E0
:2013C000360406EBA5054CEA0E3E0EEB253E01FB0EFE0EF1434E0EF5A00EBEF1000FB3BFE1
:2013E000BEFBF2FE4FEA4E0EBEFBF2FE4FEA4E0E4FEADE0202FB02F2B0F91610B0F914508B
:20140000520B01FB02F2B0F912104FEA9E0005FB00F0401300EB223008440EEB2010012CBB
:2014200003D103EB830080300012BDE8F0811046F5E728460621FFF73BFF4FF00040BDE874
:20144000F0814FF00040F0E74FF00040704700BFF4080020F8080020D8080020CBF3FFFFD8
:2014600030B5802883B005D0812828D02D4B186803B030BD01242B4D772100202C6001F0CC
:2014800053F81C2228498820FFF7F0FEB62322460DF10701E0208DF80730FFF7F7FE772140
:2014A000002001F041F8002322460DF10701F4208DF80730FFF7EAFE286803B030BD194D0D
:2014C00028680028D4D00C46B9B17721002001F02BF825230DF107010122F4208DF80730E7
:2014E000FFF7D4FE00230321104A114805F048FA022318462B6003B030BD0D4805F088FA79
:201500002046772101F010F801220DF10701F4208DF80740FFF7BAFE012318462B6003B05D
:2015200030BD00BFF4080020D8080020D512000000090020813801289ABF024B18680020AB
:20154000704700BF280900200322024B02481A6006F08EB828090020C8370100314B1B6802
:20156000032B5CD1820770B5044626D0032809D0012804D0022820D12B4B186870BD2B4B6D
:20158000186870BD2A4D4421002000F0CDFF022229460420FFF76AFE58B12B885BBA2B8055
:2015A0005B0406D5234D022229460120FFF75EFE30B904211F48FFF77BFE4FF0004070BDEB
:2015C00002222046A918FFF751FE0028F1D02888164E40BAC0F38D0011F09CFA4FF07451A9
:2015E00010F06EFC044668880F4D40BAC0F38D0011F090FA4FF0745110F062FC0E4910F06D
:201600005FFC11F0DBFA03460B492046336010F057FC11F0D3FA03462B60012070BD4FF081
:201620000040704728090020200900202C090020843900202409002000007A44802838B547
:2016400004D0812827D02A4B186838BD4FF08054D4F8B43101209B6B9847D4F8B4314FF46E
:20166000804101209B699847D4F8B4314FF08041DB69012098474421002000F055FF0222C3
:2016800000231C4910460B80FFF700FE0123184A1846136038BD164D28680028D5D00C468F
:2016A000A1B14421002000F03FFF02221023114910460B80FFF7EAFD002324210E4A0F489F
:2016C00005F05EF9022318462B6038BD0B4805F09FF92046442100F027FF02220549104632
:2016E0000C80FFF7D3FD012318462B6038BD00BF28090020843900204915000030090020F2
:20170000014B1868704700BF7009002000B5452183B0002000F008FF022201200DF106013F
:20172000FFF7A4FDBDF90630002B08DB00231021074A084805F024F903B05DF804FB0648BC
:2017400005F096FF0222054B1A6003B05DF804FB0D17000050090020E037010070090020BC
:2017600070B5802882B01DD081282ED10C4679B301244521002000F0D7FE41F2C203214886
:201780000DF10601046002222046ADF80630FFF77DFD002310211C4A1C4805F0F1F82046A9
:2017A00002B070BD174D45212B68002003F0020400F0BAFE4FF48653022201200DF10601C6
:2017C0002C60ADF80630FFF761FD002002B070BD0C4E0E4805F01CF933682046452103F03B
:2017E000020500F0A1FE4FF4865302220DF1060101203560ADF80630FFF748FD204602B02A
:2018000070BD00BF700900200D17000050090020813801289ABF024B18680020704700BF08
:2018200078090020032138B5114C124A2378116033B9012310482370BDE8384005F018BF4D
:201840000E4D4321002000F06FFE0421284600F0B5FC00212070084600F066FE2A886B8820
:201860000748084952BA5BBA02800B80E1E700BFA439002078090020F837010074090020A8
:20188000883900208639002030B5802883B005D0812827D0274B186803B030BD0024264B2C
:2018A000264D0422214626481C802C8011F05CFC2046432100F038FE022210230DF10601CD
:2018C0001046ADF80630FFF7E1FC02461D4B204621461A7000F028FE01231846154A136093
:2018E00003B030BD134C20680028D5D069B1154D2B7893B900230321134A144805F040F8FC
:2019000002231846236003B030BD104805F080F801231846236003B030BD4321002000F043
:2019200003FE002000F000FC00212870084600F0FBFDDFE778090020863900208839002084
:2019400074090020A4390020251800007C09002008B5174B1B78032B28D8DFE803F0151E3E
:201960000C0210F0B3FC00224FF07D5310F018FD10F0C6FF08BD10F0A9FC00220D4B10F0BB
:201980000FFD10F0BDFF08BD10F0A0FC00220A4B10F006FD10F0B4FF08BD10F097FC002277
:2019A000064B10F0FDFC10F0ABFF08BD002008BDA53900200000303F0000103F0000203F6E
:2019C000813801289ABF024B18680020704700BFC80900200222024B02481A6005F048BE48
:2019E000C80900201038010010B56821012000F09BFD3F23094C012221466C202370FFF760
:201A000045FC4F23214601226B202370FFF73EFCBDE810400021084600F086BDA9390020A2
:201A20008028F8B50CD0812807D111F03F0135D12F4BD3F88030DB0443D42E4B1868F8BD14
:201A40004FF08054D4F8B43107209B6B9847D4F8B4314FF4005107209B699847D4F8B431B6
:201A60004FF080410720DB699847D4F8B4310C20DB6B9847D4F8B4314FF440724FF4806150
:201A80000C209B6A98474FF48054002218481A4B1849C0F8A0401A600868F8BD4FF4805786
:201AA0000124154B124E134D1960144AC6F890700023082112482C6004F062FF20462C60D3
:201AC000F8BD0D4B0E48196004F0A2FFFFF78CFF0C4AD2F8043813F00103FAD14FF48050D3
:201AE000044A03491360C1F8A0001068F8BD00BF00200240C80900209C090020091B000058
:201B0000A8090020002000402DE9F041364C236813F0380F28D1354D03F03F042E785EB988
:201B2000002C3BD1FFF760FFBDE8F041002305212F4A304804F024BFE3B22B70002CF1D014
:201B40002D4FDB43682101203B7000F0EDFC012229496C20FFF79AFB0021084600F0E4FCD2
:201B6000264807F05DFBDFE7254F3A78002AD2D00025244E68210120357000F0D5FC3146D2
:201B800001221C20FFF782FB06462946284600F0CBFC2368002EBED03D70BCE76821012052
:201BA00000F0C2FC0923144F012239466B203B70FFF76CFB3F23012239466C203B70FFF782
:201BC00065FB01220F491C202E70FFF75FFB012239463A20FFF74AFB3146304600F0A4FC4C
:201BE000E3B22B70ADE700BF9C090020A8390020D5190000A8090020A93900208038010022
:201C0000A5390020A63900200022014B1A707047AA39002070B500244FF08055174B1848F6
:201C20001C7001F057FC174AD5F8B811D368204623F00103D3600B6A9847D5F8B831204682
:201C40009B6A9847D5F8B83120461B6B984701210D4B0E4A9962936A9B07FCD54FF08054CF
:201C6000D4F8B43115209B6B9847D4F8B4310021BDE8704015201B6A184700BFAA39002097
:201C80004005002000000140002008600020084010B54FF08054D4F8B83104205B6998475A
:201CA000D4F8B83104205B6B98470128F8D110BDFFF7EEBF032801D000F0FCB808B5FFF7F1
:201CC000A9FF114B00219B68812098470F4B00219B68812098470E4B00219B688120984761
:201CE0000C4B00219B68812098470B4B00219B68812098474FF48052084BC3F8A020BDE867
:201D0000084000F0D7B800BFB0370100E0370100C8370100F8370100103801000020024062
:201D200070B507F075FA0646FFF7B2FF4FF08053D3F8B8314FF4A060DB6998470121414B4B
:201D4000414A9962936A9B07FCD54FF080544FF4005500F07FF8FFF757FF002007F056F9C9
:201D60003A4801F0B1FBD4F8B43119209B6B9847D4F8B431294619209B699847D4F8B43188
:201D800018209B6B9847D4F8B431294618209B699847D4F8B43117209B6B9847D4F8B4316D
:201DA000294617209B699847D4F8B4311B209B6B9847D4F8B43129461B209B699847D4F8BF
:201DC000B4311E209B6B9847D4F8B4314FF480411E209B699847D4F8B4310D20DB6B984722
:201DE0001B4AD4F8B431C2F8A05000214FF480720D209B6A9847D4F8B43102209B6B984704
:201E0000D4F8B431294602209B699847D4F8B4310B209B6B9847D4F8B43129460B209B698D
:201E20009847D4F8B4311D209B6B9847D4F8B43129461D209B69984706B170BDBDE8704077
:201E400007F0EAB90020086000200840540500200020024070B54FF08055D5F8B83102200C
:201E60005B699847D5F8B83102205B6B984701280446F7D1D5F8B8314FF44070DB6998473B
:201E8000084B094A9C62936A9B07FCD5BDE870404FF08053D3F8AC310122044904481B68E0
:201EA000184700BF0020086000200840006CDC0200200040FF214FF0805310B52B4A0220DC
:201EC0001170D3F8B8315B6B984701280AD1284B1B6EDA0706D500232649274AC1F8043874
:201EE000C2F810344FF08053D3F8B8314FF440701B6A98470121214B1D4A9962936A9B0738
:201F0000FCD54FF08054D4F8B43108209B6B9847D4F8B4314FF4005108209B699847D4F803
:201F2000B43109209B6B9847D4F8B4314FF4005109209B699847D4F8B43105209B6B9847A2
:201F4000D4F8B4314FF4804105209B699847D4F8B43106209B6B9847D4F8B4314FF4804153
:201F6000BDE8104006209B69184700BF8208002000200840002000400000054200200860E3
:201F80002DE9F047664B674D1B7807465B00C5F8003803780E46C5F8083800F0CFFB00F5E4
:201FA000CC541934D5F804385B0608D500F0C6FB001B0028F6DB00242046BDE8F0870323DC
:201FC0000220C5F8043807F02BF900F0B7FBDFF8548100F5CC541934D8F80438D80746D416
:201FE0004FF08053D3F8AC314E485B68984710F00C0F7DD1012E40F28F800028DBD101241D
:20200000A046484D06F1FF39631E3B4402E00134B4423ED213F8012F4C45C5F80828F6D278
:202020000220C5F8048807F0FBF800F087FB00F5CC5A0AF1190AD5F80438D90710D44FF094
:202040008053D3F8AC3128465B68984710F00C0F824612D10134B44218D20028D4D0AAE7BD
:2020600000F06CFBA0EB0A000028E4DBA3E700F065FB001B0028AFDB9DE704230220C5F85C
:202080000438013407F0CCF8A64294D8BAF1000F91D10523234D0220C5F8043807F0C0F842
:2020A00000F04CFB00F5CC541934D5F80438DA0725D44FF08053D3F8AC311A485B689847E6
:2020C00010F00C0F044620D100F038FBB4FA84F400F5CC55134E64091935D6F804385B06C4
:2020E0007FF56AAF00F02AFB401B0028F5DB62E704230220C8F8043807F092F85BE700F0AA
:202100001DFB001B0028D0DB55E704230220C5F8043807F085F8D7E700287FF44CAFB8E7D4
:20212000AB3900200020004070B5224B224D1B785B00C5F80038C5F8080800F0FFFA00F5AC
:20214000CC541934D5F804385A0606D500F0F6FA001B0028F6DB002070BD07230220C5F884
:20216000043807F05DF800F0E9FA134E00F5CC541934D6F80438DB070ED44FF08053D3F896
:20218000AC310D485B68984710F00C0F044609D1B4FA84F0400970BD00F0D0FA001B002897
:2021A000E7DBD8E704230220C6F8043807F038F8EEE700BFAB390020002000402DE9F04FE7
:2021C0004F4BDFF840A11B7883B05B0043F00103CAF800388846019000F0B0FA00F5CC544D
:2021E0001934DAF8045815F0400508D000F0A6FA001B0028F5DB002003B0BDE8F08F0B237A
:202200000220CAF8043841F699164FF080573D4C08F1FF3B07F004F85FFA85FADA452CDAF6
:2022200000F08CFA00EB0609D4F80428D20716D4D7F8AC3120465B68984710F00C0F15D1BE
:2022400001350028D7D10923D4F808280199022001F80A20C4F8043806F0E2FFDCE700F0EF
:202260006DFAA0EB09000028DEDBC4E704230220C4F8043806F0D4FFBDE70523214E022070
:20228000C6F8043806F0CCFF00F058FA00F5CC541934D6F8045815F0010521D14FF08053A6
:2022A000D3F8AC3117485B68984710F00C0F1DD10028A0D1019AD6F80838424402F8013C6D
:2022C00000F03CFA0F4D00F5CC541934D5F804385B0613D500F032FA031B002BF6DB8AE721
:2022E00000F02CFA031B002BD3DB84E704230220C6F8043806F094FF28467DE701207BE745
:20230000AB390020002000402DE9F84FDFF810A2844F9AF8004099466400C7F80048037809
:202320000546C7F808380E46904600F007FA00F5CC541934D7F804385B0607D500F0FEF9A7
:20234000001B0028F6DB0020BDE8F88F03230220C7F8043806F064FF00F0F0F9714F00F5F3
:20236000CC541934D7F80438D80740D44FF08053D3F8AC316B485B68984710F00C0F3CD1BB
:20238000012E41D90028DED1013E0127DFF894B12E440DE04FF08053D3F8AC3158465B6820
:2023A000984710F00C0F1BD1AE422DD00028CAD115F8013F0220CBF80838CBF8047806F0E0
:2023C0002FFF00F0BBF900F5CC541934DBF80438D907DFD500F0B2F9001B0028F6DBB2E7DE
:2023E00004230220CBF8043806F01AFFABE700F0A5F9001B0028B5DBA5E704230220C7F8FF
:20240000043806F00DFF9EE700289CD10B229AF80030444C5B0043F00103A8F10207C4F8F5
:202420000038022008F1FF3AC4F804284F4406F0F7FE574541F699154FF080561ED000F036
:202440007DF900EB050BD4F80438DA0749D4D6F8AC3120465B68984710F00C0F48D10028F6
:202460007FF471AF0923D4F8082802200AF8012FC4F8043806F0D4FE5745E0D10523294EA1
:202480000220C6F8043806F0CBFE00F057F900F5CC541934D6F8045815F001052FD14FF04B
:2024A0008053D3F8AC311F485B68984710F00C0F2BD100287FF447AFD6F80838C84408F8D6
:2024C000013C00F03BF9174D00F5CC541934D5F804385B0621D500F031F9031B002BF6DB41
:2024E00031E700F02BF9A0EB0B000028ABDB2AE704230220C4F8043806F092FE23E700F09A
:202500001DF9031B002BC5DB1DE704230220C6F8043806F085FE284616E7012014E700BFB6
:20252000AB390020002000404FF0805370B53A4A04461170D3F8B83102205B6B984701280D
:202540003ED0FFF787FC354B1A78A24240D00022334D34491C70C5F80428C1F810241B78DA
:20256000002B36D0012B20D14FF08054D4F8B4314FF4C04108209B699847D4F8B4314FF406
:20258000C04109209B699847D4F8B431092208212846DB6C9847D4F8B43105209B6B9847DA
:2025A000D4F8B43106209B6B9847BDE870404FF08053D3F8AC3101221B4919481B68184786
:2025C0001A4B1B6EDB07BCD5144B1A78A242BED170BD4FF08054D4F8B4314FF4C0410520DC
:2025E0009B699847D4F8B4314FF4C04106209B699847D4F8B431062205212846DB6C984767
:20260000D4F8B43108209B6B9847D4F8B43109209B6B9847C9E700BFAB3900208208002020
:202620000020004000000542006CDC020020084010B54FF08054D4F8B83104205B699847ED
:20264000D4F8B83104205B6B98470128F8D110BD38B5002400254FF080531A4A0420C2E9C2
:202660000045D3F8B8315B6B9847012801D0FFF7DFFF4FF08053D3F8B8310020DB699847E5
:202680000121114B114A9962936A9B07FCD54FF080520F4C0F49E368204623F4807323F064
:2026A0000103E360D2F8C83104251B689847312040F221210122084B2560E063A1605A60C7
:2026C00038BD00BF88080020002008600020084000000140002100040000244310B506F01E
:2026E000D7FC0023044C400E40EAC112C4E90023D4E9000110BD00BF8808002010B506F0C4
:20270000C7FC0023064C400E40EAC112C4E9002304F094FA00B910BDBDE8104004F064BA57
:2027200088080020014B9868704700BF00200940704700BF0146012000F04AB806F09CBCA0
:202740002DE9F84306F064FD01254FF480724FF000094FF480334FF080561B4CDFF86C80F9
:202760002321C8F80090656062606360D6F8843107461B6848469847D6F884312421284685
:202780001B689847D6F88431252102201B689847236843F4E0232360C4F8089006F06CFC90
:2027A0000346D6F8B02103F50073E361C8F8A052C8F800501420136998470FB1BDE8F88351
:2027C000BDE8F84306F028BD0020094000002443431E012B10B419D9042815D100231A4696
:2027E00010F004001CBF124C21621BB10121114BC3F880121AB101220E4BC3F8A02218B1F5
:2028000001220C4BC3F8C02210BC7047012808D10346074A916110F0020204D0044CE16126
:20282000DEE70023F7E7002BEED01046DEE700BF0020094000002443014B1868704700BFFD
:20284000D009002010B5FFF779FF194B1860FFF755FF184BD3F8A0307BB9164BD3F8802028
:20286000EAB9144BD3F8C02032B100204FF48031114AC3F8C002516010BD4FF480730E4CCE
:20288000636006F0F9FB00F2052020F4FF70094B20F00100E061D3F88020002AE1D00020E5
:2028A0000121054AC3F88002516004F065FCD8E7D009002000002443002009400122024B6C
:2028C000C3F8002C704700BF0000084010B506F09FFC114BD3F8002C012A0AD04FF086429E
:2028E00001210E4C1C60C2F80411C2F8001178B110BD4FF086410A4CC3F8004C074C1C601E
:20290000C1F80421C1F80021C3F8002C0028EFD1BDE8104006F080BC00000840502D19002B
:2029200051E5CC1A0122014BDA6070470000084008B5FFF7CBFFFEE770B5044606F068FCA8
:2029400021460646114804F00BFD104804F006FD38B101210E4B0F4AC3F8001253699B0639
:20296000FCD54FF08055D5F8A03160681B689847D5F8A03160689B6898471128F8D106B1A9
:2029800070BDBDE8704006F047BC00BFD4090020000022430010094008B5064804F0DEFC69
:2029A00038B10121044B054AC3F8001253699B06FCD508BDD40900200000224300100940F3
:2029C00010B5A8B14FF0805C0021134C134A6368012023F4C0536360DCF8A031C2F8801118
:2029E000C2F80012DB68984763699B06FCD410BD04460B4804F0B2FC0028E3D005C81443A1
:202A00000028FBD1002CDDD0034A536823F4C05343F40063536010BD0010094000002243DF
:202A2000D409002038B5054606F0F2FB04462946054804F0E1FC0020FFF7C2FF04B138BD26
:202A4000BDE8384006F0E8BBD409002070B590B10E460024451E04E0A64206D000F064FB91
:202A6000013415F8010F0028F6D100F0B7FB0128FBD0204670BD0446F7E700BF10B40C4BEA
:202A80000C4C1A780133FF2A0FD1A342F9D10A4C49B10139631801381978A34200F8011F94
:202AA00003F1FF33F8D110BC7047014CF0E700BFC8FF0100D0FF0100F012005000F034BBF8
:202AC000014800F051BB00BF312E00002DE9F84F0388044633B1FA2B12D1822915D00120C4
:202AE000BDE8F88F0121AC48AC4A03801380AC48AC4A03801170FA2323800120BDE8F88F8D
:202B0000002323800320BDE8F88FA54FA24E3B883288934249D06FD2002540F201584FF021
:202B2000C009A148A14900EB050E11F803C003F1010BBCF1DB0F05F1010A3AD01FFA8BF3F6
:202B40009A420EF801CB1FFA8AF502D94545ECD1002501321FFA82FEBEF5A26F08BF4FF052
:202B6000000EA6F800E08D4BB3F800C0F4450FD073468E4A08E0D05CC02800F0F4808BB240
:202B8000B3F5A26F08BF00239C4503F10101F2D1A7F800E0864B1D80002DACD0854B1B680F
:202BA00003B1984709F060FCA5E70022804B1A80A1E703F1010E1FFA8EFE7245C9D9B5F5E7
:202BC000A06FC5D811F80EE0BEF1DD0F08D00233BEF1DC0F9BB200F0BD809A42A3D8B8E7A0
:202BE00002339BB200F805C0934205F10105ADB2AFD2454597D1ABE7B3F5A26F80F0C380F5
:202C0000002540F2015B6848684901EB030E00EB05081EF801CB03F1010ABCF1DB0F05F13D
:202C2000010914D01FFA8AF3B3F5A26F08F801CB1FFA89F500F081805D45EAD1002A40F04C
:202C4000A78000254FF0010EA6F800E08BE703F1010E1FFA8EFEBEF5A26F00F09280B5F5D2
:202C6000A06F00F2878011F80EE0BEF1DD0F24D00233BEF1DC0F9BB255D0B3F5A26FC4D137
:202C80000023002ADED001EB030C00EB05081CF801EB03F1010ABEF1DB0F05F1010919D0C5
:202CA0001FFA8AF39A4208F801EB1FFA89F57FF650AFB5F5A06FEAD94AE702339BB200F884
:202CC00005C0B3F5A26F05F10105ADB235D05D459BD1B3E703F1010C1FFA8CFC62457FF6B0
:202CE00038AFB5F5A06F3FF633AF02339BB211F80CC0BCF1DD0F09D0BCF1DC0F10D09A4200
:202D00007FF627AFB5F5A06FBDD921E74FF0DB0C00F805C09A4205F10105ADB2F2D818E72E
:202D20004FF0C00CF4E76FF03F0CB3F5A26F00F805C005F10105ADB2C9D10023002A81D0FA
:202D4000B5F5A06F3FF604AF002B9CD001234FF0000CCCE700F805909A4205F10105ADB255
:202D60003FF647AFF5E614483380A7F800E004F0F3F90FE7002A3FF464AF00250123AC463E
:202D8000B5E70123DAE7002A3FF45BAF0648074900231D4677E700BF8E3900208C3900203E
:202DA0008A390020AC390020682A0020DC0900209E390020D809002068050020014B18602B
:202DC000704700BFD809002070B50E460546C020FFF774FE002E17DD002407E0DB2818D058
:202DE0000134A4B2FFF76AFEB4420DDA15F8010BC028F3D1DB200134FFF760FEA4B2DC2072
:202E0000FFF75CFEB442F1DBBDE87040C020FFF755BEFFF753FEDD20E2E700BF024B0348FE
:202E20001988FFF7D1BF00BF9E390020682A002010B5274A1378022B05D0032B0BD1C0284E
:202E400037D0002010BD00F12403DBB2012B28D80123137003E0DB2804BF022313701D494F
:202E60001D4CB1F800C0B4F800E00CF101039BB2B3F5A26F08BF00239E450B801DD0174B46
:202E8000C02803F80C00DCD1154A138863451BD09E45144808BFA2F800C004F05DF901203E
:202EA00010BD03230E480B49048813700C80002010BD01231370002010BD0323084C13705C
:202EC000248800200C8010BDA1F800C0002010BDAC3900208C3900208A390020DC090020B5
:202EE0008E3900206805002038B54FF08055D5F8B83102205B699847D5F8B83102205B6B44
:202F0000984701280446F7D1D5F8B8314FF40070DB699847034B044A9C62936A9B07FCD501
:202F200038BD00BF0020086000200840F0B54FF0805540F2F27683B0284CFFF7D5FFD5F85C
:202F4000D0312046DB689847D5F8B03115205B699847A36BD5F8B42123F4FE6323F0020322
:202F6000A3636664D36B1D2098474FF000514FF0FF331B4A2046C2F89010D5F8B4210093CC
:202F8000176C1C211D22B847D5F8D02160232046576814494FF4E132B847142240F201139F
:202FA00040F201306263E26A0F4942F01002E2620A68002A18BF0346236366640B685BB132
:202FC0001520A36BD5F8B02143F05003A363136903B0BDE8F040184703B0F0BD0010004071
:202FE00000200240006CDC02EC0E00204FF0805370B5D3F8B83104465B6B022098470128E6
:2030000007D13B4BDB6ED80703D53A4A93691907FCD4032C47D0384B1B6803B170BD4FF076
:203020008055D5F8B83102205B6B9847012858D12F4BDB6EDA0715D54FF080562D4DD6F801
:20304000D0312846DB689847D6F8B03115205B69984740F2F272AB6B23F4FE6323F002031C
:20306000AB636A644FF08053D3F8B8314FF400701B6A9847032C25D00121204B1C4A996285
:20308000936A9B07FCD51D2000F03AFA1C2000F037FA4FF0FF3000F033FABDE870404FF0E3
:2030A000FF3000F02DBA4FF08055D5F8B83102205B6B98470128BBD0D5F8B8314FF400705C
:2030C0001B6A98474FF08054D4F8B8314FF400709B6A9847D4F8B8314FF400701B6B984760
:2030E000CAE7D5F8B8314FF400701B6A9847C3E70020084000100040EC0E0020002008604E
:2031000010B506F085F80446054800F0DDF90022044B1A6004B110BDBDE8104006F07CB88E
:2031200078050020EC0E00204FF0805310B5D3F8B83104465B6B0220984701280BD0FFF742
:20314000F5FE4FF08053D3F8D0312146BDE810400348DB691847034BDB6EDB07F1D4EEE741
:203160000010004000200840184A10B51060D8B14FF080540221164AD4F8B83111614FF477
:2031800000705B6A9847D4F8B8314FF40070DB6A984701210F4B104A9962936A9B07FCD54E
:2031A000BDE81040FFF7C2BE03464FF08054084A4FF400701361D4F8B8319B6A9847D4F86A
:2031C000B8314FF400701B6B9847E2E7EC0E002078050020002008600020084008B54FF082
:2031E0008053D3F8B83102205B6B984701280AD1064BD86E10F0010004D0A3F50123986954
:20320000C0F3C00008BD002008BD00BF0020084070B5FFF769FE40F2F2720C4C236C6264A5
:2032200013F0500F0DD00A4D4FF0805606E0D6F8D03120461B6998472B681BB9A369DB0611
:20324000F5D570BDC0B29847EEE700BF00100040EC0E00204FF0E022D2F8103D23F00403B6
:20326000C2F8103D30BFFFF75DBB00BFF8B505F0CFFF03F035FF18B1BDE8F84005F0CCBFCE
:20328000884804F06BF80225044648B1636823B19847A84228BF2846C5B22468002CF5D1EB
:2032A000FFF74CFA804B0446D3F88032002B00F0D2807E4B9B691B1A022B00F19680A3F208
:2032C0008F23002BACBF02200120854228BF054603F0B4FC002840F08E80012D00F0CB80F8
:2032E000022DC9D12846611EFFF772FA6D4804F035F806250446002800F0AF80A3680BB15D
:20330000022098472369246825EA0305002CF5D1FFF708FB6B0700F1A380002D40F0A3808C
:2033200000F0BCF90020FFF74BFB4FF08052604C3920236823F003032360A36843F00F03FF
:20334000A360D2F8B8319B6998470020594B20642064C3F8200406F039FB062D00F09D80BF
:203360004FF080560027544C504D0321EB6AD4F82432524823F00303C4F82432D6F8D8319D
:203380005B689847D6F8B8319B6B9847EB6A06F03DFC4B4AD6F8D831C2F8807147480121A3
:2033A0005B6898470121D4F82432464A43F00303C4F82432D160EB6A06F05AFCFFF7ECFA9E
:2033C000FFF79CF9FFF7AEFA364803F0C7FF044628B1E36803B198472468002CF9D105F015
:2033E0001BFFBDE8F84005F017BF03F027FC00283FF442AF002503F029FC0646FFF76EF9C3
:20340000361A002E7FF738AFFFF716FA00EB46210B1BA3F28F22002A36DA002D3FF42CAF98
:20342000082B2ED404F58034631A31EA230128BF21460220FFF7CCF94FF0E022D2F8103D6B
:2034400023F00403C2F8103D30BFFFF76BFABDE8F84005F0E1BE022037E7FFF763FA0625D2
:203460000022184BDA604FF08053D3F8B83128469B69984754E7022004F58031FFF7A8F9D8
:20348000DAE704F10801D4E7012DC9D0022D7FF4F3AE2846FFF79CF928E7022005F05EFF2C
:2034A0005EE700BFF00E002000002443002009400010094000002243002008400040034071
:2034C00000000443004009400146014803F048BFF00E00200146014803F08EBFF00E002086
:2034E00010B5064803F036FFBDE810404FF08053D3F88431202103201B681847F00E0020A6
:20350000431C10D04FF0805310B5D3F8B43104461B684FF4C042002198470023024840EA3C
:203520008404236010BD7047001A4442034BD3F8E000C3F8E00004F0BDB900BF002002403D
:203540004FF0805370B5D3F8B4310C465B680546984714F00C0320F0E06222F4EC2207D0E5
:20356000042B23D0082B24D00C2B08BF42F4403214F0030310D142F4C04223064FF08053FE
:20358000D3F8B4312846BDE870404FF000011B6848BF42F480221847022B04D0012B08BFC3
:2035A00042F48042E9E742F40052E6E742F40032DEE742F48032DBE7074AD2F8D030C340F9
:2035C000DB074CBFD2F88030D2F8C03023FA00F000F00100704700BF00200240002241236E
:2035E00000B585B002A8CDE90223FFF7A5F9042005F0A4FE032805D102A8FFF713FA05B0AA
:203600005DF804FB0321042005F06CFE042005F095FE0328FAD11C234FF04052002100904C
:20362000044805F017FE02A8FFF7FCF905B05DF804FB00BF00A00C400022412300B583B07D
:203640006846CDE90023FFF777F9012005F076FE012803D00121032005F044FE6846FFF7D7
:20366000E1F903B05DF804FB0022412300B583B06846CDE90023FFF75FF9012005F05EFEB4
:20368000012805D04FF08053D3F8800005F0CAFC6846FFF7C7F903B05DF804FB10B5412380
:2036A000002482B06846CDE90043FFF745F90320214605F017FE012005F040FE20B968466A
:2036C000FFF7B0F902B010BD4FF08053D3F8800005F0A8FC6846FFF7A5F902B010BD00BF56
:2036E00070B5038804463BB140F2CB22934208D182290AD0012070BD40F2CB232380012060
:2037000070BD00232380032070BD094B094E1D69FFF708F904F034FE04F002FF8021A84793
:20372000002880B2E8DD04F0F5FEF3689847EFE74838010050490100024BD3F89C0100F0B3
:2037400001007047002008404FF0FF332DE9F0412E4C8046236023680F460B6010F003037D
:2037600002D1028811050DD405F052FD284B0546D3F89C31DB071BD4002D36D000252846C4
:20378000BDE8F081438005F043FD214B0546D3F89C31DA07F0D5B8F8003013F4405F07D0C9
:2037A00003F44063B3F5006F04BF1A4BC3F80080194E4CF25032C6F800807368236003E04F
:2037C0007368013A236018D02368DBB2002BF7D085B123683B602568EDB2A5F10105B5FA8B
:2037E00085F56D092846BDE8F08105F015FD2846BDE8F08105F010FDEBE71DB12368002578
:203800003B60BCE705F008FDF8E700BFF40E002000200840F80E0020001004400B4A01E098
:20382000013A11D0438803F44063B3F5806FF7D14388074A9BB21360428802F44062A2F5D3
:203840008062B2FA82F252091046704720A10700F40E002070B54FF0805482B005F0D8FCE1
:20386000D4F8B03105461B6A19209847D4F8B03112201B6A9847D4F8B03119205B699847E7
:20388000D4F8B03112205B699847D4F8B83101205B699847D4F8B83101205B6B9847012889
:2038A000F8D1174A174BD0629862936A9B07FCD54FF080540022144BD4F8B0111A615A6189
:2038C00019200B699847D4F8B03112201B6998479DB140F2FF3600240C4B0D4A0D4D01A98F
:2038E0002E600D48DC611A60FFF72EFFA0F10100B0FA80F0400902B070BD05F08DFCE8E7EA
:203900000020084000200860001004600010044051000706000004600100060400B587B036
:203920001422002101A80FF01FFC4FF0010C40F60A0218499DF8113009686CF3030305913C
:2039400001A86946ADF804208DF81130FFF7FCFE012803D0002007B05DF804FB0E4801E032
:203960000138F8D0BDF8063003F44063B3F5806FF6D1BDF80630094A9BB21360BDF80600AA
:2039800000F44060A0F58060B0FA80F0400907B05DF804FB080F002020A10700F40E00208F
:2039A00000B587B01422002101A80FF0DDFB4FF0010C40F609029DF8113069466CF30303CD
:2039C00001A8ADF804208DF81130FFF7BDFE012803D0C0B207B05DF804FB134A01E0013A0C
:2039E0001CD0BDF8063003F44063B3F5806FF6D1BDF806300D4A9BB21360BDF8063003F414
:203A00004063B3F5806F09D1094B1A7852B90122059808491A7008601046DBE7002007B0AF
:203A20005DF804FB0120D5E720A10700F40E0020AD390020080F002030B54FF0805487B0FF
:203A400005F0E6FBD4F8B03105465B6919209847D4F8B03112205B699847334BD3F89C3124
:203A6000DA072FD4FFF79CFF002001212E4A2F4BD0629962936A9B07FCD54FF08054D4F821
:203A8000B83101209B699847D4F8B83101205B6B98470228F8D1D4F8B03119201B6A984781
:203AA000D4F8B03112201B6A9847D4F8B03119201B699847D4F8B03112201B6998476DB318
:203AC00007B030BD00211A4B102219610124596102A80FF049FB40F60D029DF8153002A87B
:203AE00064F3030301A9ADF808208DF81530FFF72BFEA042B6D10F4A01E0013AB2D0BDF8F4
:203B00000A3003F44063B3F5806FF6D1BDF80A30094A9BB21360BDF80A30A3E707B0BDE89C
:203B2000304005F079BB00BF00200840002008600010046020A10700F40E002008B505F02D
:203B4000B1FA052803460ED0032806D080B903220C4B0120C3F8D02108BD0222094B012085
:203B6000C3F8D02108BD074A0120C2F8D03108BD012801D0002008BD0521024AC2F8D011F6
:203B800008BD00BF0020084008B5FFF763FE012804D1FFF7C3FE012800D108BDFFF74CFF70
:203BA000002008BD08B5FFF7FBFEFFF7B7FE012800D108BDFFF740FF002008BD38B5194B9F
:203BC000194A1978D2F89C210029184C18BF0024D30700D438BD05F01BFB02464FF08055D8
:203BE0000021134B134898615C611446D5F8B0211961136A19209847D5F8B03112201B6AC9
:203C00009847D5F8B03119201B699847D5F8B03112201B699847002CDCD1BDE8384005F04D
:203C2000FBBA00BFAF390020002008400000C0800010046000004080094B1B782BB1002346
:203C40001946084A116153617047074A074B0849002808BF1346034A11615361704700BFB1
:203C6000AF390020001004600200C0800800C0800000C080044A054B1178054A002918BF88
:203C800000235361704700BFAF3900200000C08000100460014B1868704700BFF80E0020B3
:203CA00038B50B460446154600211A460FF05CFA0122637B258062F30303637338BD00BFC0
:203CC000014B1860704700BFFC0E002010B5064B06495C6806480C6000234FF43441054A73
:203CE00002F04EFE012010BD00300440040F0020100F0020693D0000164B1B6843B370B50D
:203D00009B68984708B9002070BD05F081FA0023114A124E5468326814F1804143F1000312
:203D2000914273F10003054603D3346065B1012070BDFEF703FD0A4A0A491368086001337D
:203D400013603460002DF2D105F066FA012070BD00207047FC0E002000300440040F002021
:203D60000C0F0020000F002010B5134B1B68B3B19B689847D8B9114C236A984701280ED18B
:203D8000FFF7BAFF636A0446984744B1BDE8104000234FF434410A4A0A4802F0F1BD002350
:203DA000BDE810408021064A064802F0E9BDFFF7A3FF0446E9E700BFFC0E0020483801001B
:203DC000693D0000100F002070B5204E3368002B39D09B680446984708BB1D4D2B6A9847CF
:203DE000FFF78AFF6B6A98471A4BB4F1404F1D681CD83268184BB2F90C101A68CB17891AB3
:203E000063EBE273091945EB03052D0243F609520023080245EA11610EF0F6FE70BDFFF7FF
:203E20006BFF0C4BB4F1404F1D68E2D9FEF786FC0A4B1B68C3F17E4303F57203C34248BF10
:203E400005F1FF35D5E7184670BD00BFFC0E0020483801000C0F0020080F0020000F0020E6
:203E600010B5104BD3F89C31DA0704D4FFF7F2FC012800D010BD0C4C23695B0204D46FF0AF
:203E80000042094B1A6110BD0122084B08481A7003F062F96FF480036FF000422361024B4E
:203EA0001A61F0E70020084000100460B03900208C05002008B5114BD3F89C31D90704D4B1
:203EC000FFF7C8FC012800D008BD05F0A1F90C4B1A6912020BD40A4B1A6912F00A0F1CBF40
:203EE0006FF00A021A61BDE8084005F095B96FF4000204481A6103F02FF9ECE7002008402A
:203F0000001004608C050020014B1878704700BFB139002008B5FFF70FFC30B1034B588853
:203F2000A0F10200B0FA80F0400908BD340F00207D2901D90120704708B50A46014602486D
:203F40000FF020F8002008BD0A12002010B588B040F60202182102A8FFF7A2FE01221149FC
:203F60009DF818300968104C898823F00F03ADF81A1002A801A907948DF818308DF816201B
:203F8000FFF7E2FB012802D0002008B010BD02A8FFF744FCA0F10100B0FA80F0400908B021
:203FA00010BD00BFDC050020B0050020F8B50E4D00200E4E2C680E4F06E02379022B06D0A5
:203FC00024682B68A34209D02379032BF5D133782BB124682B680120A342F5D1F8BD3846CF
:203FE00003F0BAF80120EBE7FC110020AF3900208C05002030B583B0FFF74CFE0446FFF7AB
:204000009BFB08B903B030BD0A4801A9FFF79CFB0128F7D1FEF792FB6FF03F052D1A03E0E0
:20402000FEF78CFBC542EDD5638803F44063002BF6D0E7E7010001040B280BD00C2801D0DE
:2040400001207047042A08D139B10A4B00201B680B607047082A00D109B902207047064A8F
:204060004B1E073112F8010903F8010F8B42F9D100207047300F0020630F0020082200B542
:2040800085B000210DEB02000FF06EF842F2034302A801A9ADF80830FFF756FB20B19DF912
:2040A0000A30803303D0002005B05DF804FB9DF80C0000F00C00A0F10400B0FA80F0400982
:2040C00005B05DF804FB00BF082210B584B00DEB020000210FF048F802229DF80C3042F272
:2040E000034462F301038DF80C300CE0082200210DEB02000FF038F802A801A9ADF80840BE
:20410000FFF722FB38B19DF80C0000F00303022BECD004B010BDFF2004B010BD2DE9F043B9
:20412000DFF8CC8083B081460F46D8F80060FEF705FB304D2D1A03E0FEF700FBC5421DD558
:204140003479022CF8D0032C13D1D8F800100B7A062BDEB202DDB51FBD4211DD00231D465D
:2041600028460A680B71C8F800200B7203B0BDE8F0830025284603B0BDE8F0833479E2E7E7
:204180002A46093148460EF0FDFE0422D8F80010F31CCB5C184F5BB23B70331DCB5C0536E1
:2041A0003144164E03F03F030DEB020033700EF0E9FE0198FFF708FE114B124A1B7810601F
:2041C0005BB100222846D8F8003019681A72C8F800101A7103B0BDE8F0833978042049B240
:2041E00089B204F0EDF92046317804F0E9F9E8E704120020F4FEFFFF83080020AE3900201E
:20420000AF390020300F002030B583B0FEF796FA194C241A06E0FFF731FF38B1FEF78EFA85
:20422000C44203D5FFF788FA0028F4D101A91348FFF78AFA6FF03F04FEF780FA104D241A10
:2042400006E06888022808D1FEF778FAC44203D5FFF772FA0028F4D1688842F202439842AE
:2042600007D042F20743C01AB0FA80F0400903B030BD012003B030BD00FEFFFF0100010449
:20428000340F002008B5FFF757FA30B1044B5B88022B14BF0220012008BD022008BD00BFF6
:2042A000340F002030B583B0FFF746FA30B1134C6388022B02D1012003B030BD0F4801A960
:2042C000FFF742FA012802D0002003B030BDFEF735FA6FF03F05094C2D1A03E0FEF72EFA8E
:2042E000C54209D560880228F8D1A0F10200B0FA80F0400903B030BD6088F6E7340F002040
:2043000008B5FFF723FE012801D0002008BDFFF7C9FFC0B208BD00BF10B5FEF70FFA1A4C0D
:20432000241A06E0FFF7AAFE38B1FEF707FAC44203D5FFF701FA0028F4D1FFF7FDF9134CD5
:2043400020B16388022B01D1FFF75EFFFFF774FBFFF7A4F900220E4B62801979022908BF76
:204360001A710C4B1A79022A04BF00221A710A4B1A79022A04BF00221A71084B1A79022A96
:2043800004BF00221A7110BD00FEFFFF340F0020CC0F002058100020E41000207011002049
:2043A00008B5FFF7B1FD012801D0FFF7B5FF012008BD00BF10B5FFF7A7FD012808D0FFF7FD
:2043C0003BF9FFF7B9F928B11D4B5B88022B01D1012010BD4FF0010C4FF0840E19481A4B0D
:2043E00044791A496CF3830401601860A0F806E044714879164A6CF383000A60A1F806E0BF
:204400004871507959796CF383006CF383011360A2F806E0A3F806E050715971FFF724F971
:20442000FFF7B2FB012801D0002010BDFFF7C6FBFFF78CFD0128F7D1BDE81040FFF732BFEF
:20444000340F0020CC0F00207011002058100020E4100020F8B50025354E3648FFF734F8CC
:20446000FFF76CFB8C22294630460EF07DFE8C22294631480EF078FE8C2229462F48304CB9
:204480000EF072FE8C2229462E480EF06DFE2E4F2E4B8022294620463E601E607D600EF04E
:2044A00063FE42F601032A4E2360A623304642F202024FF2F001276101272377E36820F80E
:2044C000022B1940234AA369C4E901551A4094F83730C4E9085567F3030384F837301E4BD7
:2044E000E5830B43E3601D4B04F118011343A3611B4B02226361A5630EF044FD3A4604F1E9
:204500001A01301D0EF03EFDFFF754FFB84202D02C462046F8BD04461248FFF7D1FBFFF7FC
:20452000D5FB2946104802F021FD2046F8BD00BFCC0F00209C05002058100020E4100020A2
:20454000340F002070110020FC11002004120020B40F0020007C008000011AB10702FF6FD2
:20456000BC0F0020803801008C05002070B5FFF7CBFC012835D0FFF7DFF8A8B3224E738843
:20458000022B31D1FEF7DAF8204C241A06E0FFF775FD38B1FEF7D2F8C44203D5FFF7CCF8ED
:2045A0000028F4D1FFF7C8F8D8B100257388022B26D1FFF789FDFF2822D000F00300441EA1
:2045C00018BF012475B1FFF79FFC01280AD0FFF7A3FE204670BDFFF797FC012801D0FFF782
:2045E0009BFE0124204670BDFFF7E4FE01280446F1D1FFF7A1F80028E5D02546024ED5E77A
:204600000124002DEED0DEE7340F002000FEFFFF70B588B00546FFF78FF800285AD03A4B6A
:204620005B88022B56D10024FEF788F86FF01F06361A07E0FFF722FD012854D1FEF77EF821
:20464000C64252D5FFF778F80028F3D1182142F6014202A8FFF724FB00222C4BE8B28DF8AE
:204660001700069304929DF81430012062F303038DF81430FFF7E0FA02A801A9FFF764F860
:20468000D0B1234DBDF80A302A7803F4406333B982B3BDF80A3003F44063002BF8D0BDF8AC
:2046A0000A50ADB2B5F5105518BF0125FFF7E2FA3CB9284608B070BD0125FFF7DBFA002CFE
:2046C000F7D0FFF721FC0128F3D0FFF725FE284608B070BDFFF76EFE01280446A4D0012539
:2046E000284608B070BD0028B0D034B90225284608B070BDFEF7AEFDC4E7FFF705FC0128ED
:20470000F4D0FFF709FEF1E7340F00200A120020AF3900207D2801D901207047FFF778BFD5
:204720007D2901D90120704710B50C460A46014603480EF027FC2046BDE81040FFF768BF8F
:204740000A12002010B5FFF7DFFB01281AD0FEF7F3FFB8B10C4C6388022B13D1FEF7ECFFF1
:2047600060B9FEF7E9FF68B16388022B0AD1FFF7ABFCFF2806D0C0F3801010BDFFF77EFC1D
:204780000028EED0002010BD340F00200B2810B502D00124204610BD082A23D111B3154A78
:2047A00001F1080313F8010D8B4202F8010BF9D1FEF7C2FF04460028ECD00F4C6388022BEF
:2047C00015D1FEF7B9FF80B16388022B0DD1FFF71BFD012809D00324FFF764FD012818BF91
:2047E0000324D7E70224204610BD0024F4E70024D0E700BF5C0F0020340F002030B585B0DA
:20480000072800F2BB80DFE800F029323D474A7176045B4C2177FEF78FFF002838D0638894
:20482000022B35D1FEF788FF002800F08C806388022B40F08880FFF7E7FC012818BF032455
:2048400000F08180FFF7AEF901287ED0FFF72AFD012818BF0324204605B030BD012900F0ED
:204860008780002974D00224204605B030BDA1F10B030F2BF7D8424CC9B2A37B8B4207D022
:20488000A173C8E73E4C6186FEF756FF0028C6D10024204605B030BD394C2186BBE731F0C0
:2048A0000703E0D1364C01F00103228B3548C1F3400543F0020302F4FE4243EA850313432A
:2048C0000278C1F38001914223830170A3D104F1180102222C480EF055FB2C4803A9FEF7C2
:2048E00033FF00280CBF03240024B4E731F00103B9D1CCB2AFE701F115031A2BB3D86FF0B1
:2049000014030C25224A01E052F83530994229DD013DF9D2FEF710FF044600289BD0042262
:20492000002103A80EF020FC1022194B03A803EBC505AB8802A90024ADF80E30ADF80C20E2
:20494000FEF702FF87E700247CE7FFF7D5F97DE70191FFF7D9FA01289AD0FFF7DDFC0199ED
:204960000C4678E70A4B0B4A03EBC5031360D1E7FFF720FD01288BD003246CE701246AE774
:20498000340F0020AF390020B60F0020B40F002090380100DC050020D1B170B50C4684B0ED
:2049A000182813D8DFE800F03EB0AB684D0D16A5736D3912121235312C281224201C0DB5C2
:2049C0006400002318460B6004B070BD0120FBE7022070475D4B00201B681B680B60F3E7B7
:2049E0000A2300200B60EFE7202300200B60EBE7032300200B60E7E7052300200B60E3E78D
:204A00006FF0140300200B60DEE71A2300200B60DAE70B2300200B60D6E74D4B00201B7886
:204A20000B60D1E7FEF788FE002800F08A80494B5888A0F10203B3FA83F35B090020236082
:204A4000C2E70023434A0B60137E03F001030B60127E520744BF43F002030B603E4B1B78F4
:204A6000002B44D00B68002043F004030B60ABE77D2300200B60A7E7364B00201B8E0B60BF
:204A8000A2E7364B00201B785BB20B609CE7FEF753FE00283FD02F4B5B88022B3BD1002625
:204AA000082200210DEB02000EF05EFB02229DF80C3042F2034562F383038DF80C300AE063
:204AC000002102A80EF050FB02A801A9ADF80850FEF73AFE48B39DF80C2002F00C02082A56
:204AE000EED03EBB9DF90A30236080332BD000206AE7184B002093F91C300B6064E7154B1C
:204B000000205B8E0B605FE7124B00209B7B0B605AE7182392E7FFF74DFC01280646BFD0A5
:204B20006FF07F03032023604EE780238DF80A30002EF5D0FFF7E8F90128D3D0FFF7ECFBE4
:204B4000D0E703467AE703203EE700BFDC050020AE390020340F0020AF39002083080020CF
:204B600008B500F077F880B208BD00BF00F004B938B54FF08055D5F8B83104205B69984738
:204B8000D5F8B83104205B6B984701280446F7D1D5F8B83140F20140DB699847034B044A73
:204BA0009C62936A9B07FCD538BD00BF0020086000200840034B1B68002B0CBF02200120D9
:204BC000704700BFC0120020F8B5038804465BB3B3F5847F2DD1194B1B788B4201D001207E
:204BE000F8BD174D2B686BB14FF080530026154AD3F8CC3157685B680220984739462B68F9
:204C000098472E604FF08053D3F8B83140F201409B6A984701210C4B0C4A9962936A9B07A1
:204C2000FCD50B48FEF756FC4FF4847323800120F8BD002323800320F8BD00BF840800204D
:204C4000C0120020008002400020086000200840E005002070B52B4B1B686BB12A490023DB
:204C60000A4612F8014B002C3CD10133042BF8D125462046294670BD4FF08053D3F8B831F6
:204C800004205B6B9847012837D0FFF771FF1F4A1F4B92681A4210D101221E4BC3F8F02F45
:204CA000D3F8F02F002AFBD110464FF4807105F01BF80122184BC3F8A82204F0A9FA064694
:204CC000124A9368DB07FCD54FF08053D3F8CC3102205B68556898470446002EC9D104F069
:204CE0009BFAC6E700200D4AC85402EBC30552F833406D682046294670BD094BDB6B9A075B
:204D0000C5D4C2E7C0120020C412002000800240010000800090024000005042900800200A
:204D20000020084038B500244FF080510E4D0F4AC5F8A842D368D1F8B01123F00103D36080
:204D40004B6931209847224620464FF4807104F0CBFF0121064BC5F8A8122246197805487F
:204D6000BDE8384002F0C6B9000050420080024084080020F405002010B5074C2378802B2E
:204D800000D010BD02F0EAF80346002123700348BDE8104002F0EAB884080020F40500200C
:204DA00008B504F035FA003818BF012008BD00BF80F31088704700BF827A044B03EBC203E0
:204DC0005B68181AB0FA80F040097047C81200202DE9F0434E4F827A0121064685B007EB53
:204DE000C20202E0C2E8441F4CB1D2E84F3F13F0FF05F7D00325284605B0BDE8F083BFF3D8
:204E00005F8F4FF08059B37ADFF8088107EBC3077E60D9F8B431F078DB6B9847B37A08EB02
:204E200003135868D9F8B8315B699847B37AD9F8B82108EB0313526B586890470128074695
:204E4000F4D1D9F8B831DA69B37A08EB031398689047314B314A9F62936A9B07FCD50320F8
:204E60004FF08051B37A1B0158F80320536923F00F035361B37A1B0158F803301862D1F8C2
:204E8000C4311F68B37A1B0158F8030033893BB1337A002B35D1737A002B0CBF0324012445
:204EA000082322464FF08054019373681C4900930023B847B37A96F800C0D4F8B471B2782D
:204EC00071781B01CDF800C058F803007F6C4FF0FF33B847B37A1B0158F80320536843F0F0
:204EE00002035360B37AD4F8C4211B01126958F8030003A990470028F4D1284605B0BDE8FA
:204F0000F083737A002B14BF03240224C8E700BFC812002014390100002008600020084040
:204F2000006CDC0270B5264D837A05EBC3025268904201D0042070BD4FF08051214A04466A
:204F400002EB03139868D1F8B8311B6A984701211D4B1E4A9962936A9B07FCD54FF08056C6
:204F6000D6F8B43160789B6B9847D6F8B4314FF4005160789B699847D6F8B431A0789B6BEE
:204F80009847D6F8B4314FF40051A0789B699847D6F8B43120789B6B9847D6F8B4314FF4CA
:204FA00000519B69207898470023A27A05EBC2025360A27ABFF35F8F184605F8323070BDD9
:204FC000C81200201439010000200860002008402DE9F04F9846334D837A164605EBC305D5
:204FE0006A6885B0904203D0042005B0BDE8F08F4FF080592C4D044605EB03135868D9F896
:20500000B8310F465B6B9847012849D1A37A2749886F05EB0311C9681B01084240D0DDE975
:205020000E210A44B242B8BF3246002A019235D0D8BF0DF10C0A24DD4FF0000B0DF10C0A44
:205040005E45D4BF002117F80B10E8580391D9F8C4315B689847A37A51461B01E858D9F8B2
:20506000C431DB6898470E9B5B45C4BF039B08F80B30019B0BF1010B5B45A37A4FEA0313C4
:20508000DED14FF0805601E0A37A1B01D6F8C421E8585146136998470028F5D10020A4E7B4
:2050A0000520A2E7C8120020143901000020084070B5838D0446622B0D4608D0752B20D0CB
:2050C0001BB10023A385032070BD6223838528460EF0E0F904F12C0602462946304605F04E
:2050E000CBFD01280BD97523A38507480EF0D2F905490246304605F0BFFD0128E1D8002044
:2051000070BD00F12C06F0E7A039010038B503890446A32B2FD01BD8002B41D09E2B3CD1F9
:2051200004F108052021284605F0FCFD01280ED904222F4904F152000EF0DAF938BBA32351
:2051400020212846238105F0EDFD01281BD838BDBB2B22D100F108050A21284605F0E2FDC8
:205160000128F4D9BB2323810A21284605F0DAFD0128F7D8EBE700F108052021284605F0E6
:20518000D1FD0128E3D994F852302F2B0BD010210023184A2381117038BD0023238138BD8D
:2051A0009E230381BCE794F85330202B15D0284605F0B2FD03464FF0000C2344022204F1A2
:2051C000520104F16C0083F851C00EF0CFF9012384F87430BB232381C6E70122064904F1EF
:2051E0006C000EF0C3F9002384F86D30EFE700BFBC390100CA3900207C3A010038B5B0F853
:20520000503004466BB1853B9AB20A2A26D80A2B24D8DFE803F032233B232323232310230D
:20522000190003676D3000F0DFFA05462067C8B18D23A4F8503020462149FFF739FF012847
:205240000FD98F23A4F850302046236F9847012807D9002110221B4B21671A700023A4F82E
:20526000503038BD0122184904F16C000EF07EF9852384F86D50A4F8503020461349FFF7AA
:2052800017FF0128EDD98723A4F85030A38D4BB1552B09D0002310210A4AA3851170A4F8D1
:2052A000503038BD5523A38509480EF0F3F80849024604F12C0005F0DFFC0128EAD8D0E773
:2052C000C4390100CA390020343901001C3A010044390100F8B52C4D04462B7813F030061E
:2052E00013D11A0611D413F0400717D100283FD01B0740D502F020F890B3202321462767A0
:2053000022482B7002F0CCF82AE084B3002323672146BDE8F8401D4802F0C2B81B4802F07A
:20532000A3F8044620B31A4B014604F15205186807F092F81922294604F1080005F054FDCF
:20534000294604F12C00192205F04EFD4FF4A0612046A4F85060266784F8746001F0D0FFAF
:205360002046FFF7D3FE94F87430012B06D0F8BD20232B70F8BD01F0D9FFF1E72046BDE8DA
:20538000F840FFF73BBF00BFCA390020040600206C2F002008B54FF4A04007F047F8BDE863
:2053A0000840014802F04EB80406002010B5038804463BB1A62B0BD1094B1B788B420BD078
:2053C000012010BDFFF7E6FFA6232380012010BD00232380032010BD1046FFF77BFFF3E754
:2053E000C83900202DE9F047002607463446DFF890A0244DDFF8909082B000F1010806E0D1
:20540000002E20DB2FD001360234102C18D03A5D18F8043003EB02239BB2002BF0D0002E7F
:2054200011DD4FF0FF362868C0F580715246484404F0A6FC2B6802340344102C2B60E6D18C
:2054400002B0BDE8F0870CB92868EDE728680F4AC0F580714844019304F092FC2A68019BF6
:2054600010442860E0E72868094AC0F58071484404F086FC2B68012603442B60C4E700BF08
:20548000903A0100CC130020D01300208C3A0100883A01002DE9F041838D044688B0002BB1
:2054A00068D05A3B9AB23F2A5ED83F2B5CD8DFE813F063005B005B005D015B005B005B0044
:2054C0005B005B005B0037015B005B003A015B005B005B005B005B005B005B005B005B005F
:2054E0005B005B005B005B005B005B005B005B005B005B005B005B005B005B005B00C50092
:205500005B005B005B005B005B005B005B005B005B005B005B005B005B005B005B005B00DB
:205520001F015B005B005B0040005B005B005B00340100F12C059D480DF0ACFF9B490246D9
:20554000284605F099FB012874D90022984B1A609923A38597480DF09DFF9649024628466E
:2055600005F08AFB012865D900230320A38508B0BDE8F0815A2383858F480DF08BFF04F136
:205580002C0502468C49284605F076FB012851D9874E86483168894A0844C1F5807104F0A0
:2055A000EFFB5D223368A285034433607F480DF071FF7E490246284605F05EFB012839D9AC
:2055C00000237B4E7E4F336009F008F83860002800F0CF803068DFF8D481C0F58071794A5A
:2055E000404404F0CDFB02463368386813443360FFF7F8FE3168744A08EB0100C1F5807120
:2056000004F0BEFB64223368A2850344336067480DF040FF65490246284605F02DFB012826
:2056200008D90023664F624E3868336008F0DCFF3860CCE7002008B0BDE8F08100F12C05A0
:205640005A480DF027FF59490246284605F014FB0128EFD90023564E5C4F336009F088FDB5
:205660003860002800F093804369002B51D0584B0146D3F818806846C0473B6804A859695C
:20568000C047DFF8288130684E4AC0F58071404404F076FB02463368684613443360FFF753
:2056A000A1FE30684B4AC0F58071404404F068FB0246336804A813443360FFF793FE306805
:2056C0003B68C0F580715B68434A404404F058FB31683D4A014408EB01003160C1F58071D5
:2056E00004F04EFB91223368A2850344336001E000F12C052D480DF0CDFE2C4902462846B3
:2057000005F0BAFA012895D90023304F284E3868336009F033FD3860A3E700F12C0519E791
:2057200000F12C0573E7214F00F12C051F480DF0B1FE1E490246284605F09EFA01287FF600
:2057400079AF00231A4E336009F034FC00287FF7FFAE3168214A7818C1F5807104F010FB55
:2057600080223368A2850344336069E700F12C051CE730680D4FC0F58071194A384404F009
:20578000FFFA6723A385336803443360CEE731680648144A0844C1F5807104F0F1FA952266
:2057A0003368A28503443360C5E600BFD0130020CC1300203C3B0100943A0100D43A01008B
:2057C000D4140020E83A0100F43A0100D01400202C4A0100203B01002C3B0100083B0100EC
:2057E000FC3A0100343B010000487047955400002DE9F041144A1549154804F09BFA1548D4
:2058000004F098FA144CDFF84080104F104E04F1600514F8023C13B1237C012B04D92034EA
:20582000AC42F6D1BDE8F08142463946304604F081FA0A4804F07EFA204601F03BFA084817
:2058400004F078FAEBE700BF084C010030370100383701005C3B01008E320020743B0100FC
:20586000843F01004FF0010C10B5054A054C0021A36882F800C09847E368BDE810401847CF
:20588000B23900202C4A01000021014801F06EBB5C08002010B503880446442B06D0452B2F
:2058A0000ED0BBB100232380032010BD0D4B1B788B4212D18AB1002045230B49088023800B
:2058C0000A49094800F07CF8012808D944232380012010BD00F0DAF8F8E7012010BD00200F
:2058E00010BD00BFBF390020D8140020F15800000146014804F01EBA783B01000021014835
:2059000001F034BB200600202DE9F0430024012607460D46DFF85480DFF85490B1B084B131
:20592000E30717D54246C0212B78684604F028FA6846B847082E15D0013401360135002C2B
:20594000EED14246C02168462B7804F019FA6846B847F1E74A46C021684604F011FA684676
:20596000B847DFE731B0BDE8F08300BF983B0100943B010010B5BAB00A4604462821684646
:2059800009F0B8F96B46C021034A0AA804F0F8F90AA8A0473AB010BD783B010009B1FFF733
:2059A000B3BF10B5B0B00446C021044A684604F0E7F96846A04730B010BD00BFA03B010078
:2059C000F0B5038805460E46B1B01BB3702B1CD1274B284F1868436831463A6826489847C7
:2059E000012838D96C46254AC021204604F0C8F92046B04730462249FFF786FFC021204650
:205A0000204A04F0BDF92046B047002303202B8031B0F0BD13781446202B03D114F8013F46
:205A2000202BFBD0002BDDD0202120460DF0EEFB104F386018B1002300F8013B38602046D6
:205A400000F014FE0A4B186040B100220A4B1A8070232B80BFE7002031B0F0BD6C46C02150
:205A60002046094A04F08CF92046B047BBE700BFE0140020DC140020E4140020E83B0100D6
:205A800034180020EC3B0100B03B010000F0D6BD30B503880446B1B023B10023032023802B
:205AA00031B030BD0D46064AC021684604F068F96846A847034B04489B6A9847EDE700BFE3
:205AC000F03B01002C4A0100143C010030B503880446B1B023B100230320238031B030BD2C
:205AE0000D46064AC021684604F04AF96846A847034B0448DB6A9847EDE700BF1C3C0100F6
:205B00002C4A0100143C01002DE9F04103888046B0B033B100230320A8F8003030B0BDE846
:205B2000F081124A0D466846C02104F029F96846A8470F4801F012FC07460028EAD00D4E23
:205B40007C6823685BB1A3683246C021684604F017F96846A84754F80C3F002BF3D1384613
:205B600001F06CFC07460028EAD1D3E7403C010024150020403D01002DE9F0410388044672
:205B8000CEB053B91C4B0E461B7B63B9C0211B4A1EA804F0F5F81EA8B0470023032023807B
:205BA0004EB0BDE8F0810BF06FFA0028EED0144F386802F05BFA0546C021124A1EA804F0FB
:205BC000DFF81EA8B047002DE7D0DFF83C802A46782168460BF060F96B464246C0211EA8CF
:205BE00004F0CEF81EA8B0472946386802F006FA05460028EBD1D0E734370020583C010027
:205C000048080020703C0100403D01002DE9F04303880546B1B02BB1002303202B8031B0BB
:205C2000BDE8F0830E46154AC021684604F0A8F86846B047124CDFF84C90DFF84C8004F128
:205C4000600714F8023C13B1237C012B03D92034BC42F6D1E0E74A46C021684604F090F8AD
:205C60006846B04721463046FFF784FE4246C021684604F085F86846B047E8E7803C010071
:205C80008E320020983C0100843F010070B503880646B4B023B100230320338034B070BD4D
:205CA0000C46794AC021794D04A804F069F804A8A0472B7B002B00F0D3806B7BC021744AFB
:205CC00004A804F05DF804A8A047724B1B699847002800F0CD80704AC02104A804F050F834
:205CE00004A8A0476D4AC02104A804F049F804A8A04720466A49FFF73DFE95F85430C021C9
:205D0000684A04A804F03CF804A8A047664AC02104A804F035F804A8A04720466349FFF771
:205D200029FE634AC02195F8403004A804F028F804A8A047AB7BC021032B96BF5D4A5E4B84
:205D400052F8233004A85D4A04F01AF804A8A047AB681A8C002A00F08D80574B5849012A6C
:205D600008BF0B46C021574A04A804F009F804A8A047EB8AC021544A04A804F001F804A81C
:205D8000A0472A7EC021FF2A16BF6B8B4FF0FF33534304A84D4A03F0F3FF04A8A04795F850
:205DA0005E30C021032B96BF494A434B52F8233004A8484A03F0E4FF04A8A047C021464A1B
:205DC00004A803F0DDFF04A8A047686C002853D00BF088F901462046FFF7CCFD6B6CC021F6
:205DE0009B793E4A04A803F0CBFF04A8A047B5F84A30C0213A4A04A803F0C2FF04A8A0478C
:205E0000AB8AC021374A009304A8B5F8483003F0B7FF04A8A047EB7BC021334A04A803F0E8
:205E2000AFFF04A8A04795F85B30C0212F4A009304A895F85A3003F0A3FF04A8A0476A7C4B
:205E40002B7C00921344AA7C01930292C02195F85730274A04A803F093FF04A8A0471AE739
:205E6000C021244A04A803F08BFF04A8A04712E7214A31E7214B75E7C021214A04A803F0E8
:205E80007FFF04A8A047B2E7B03C010034370020D43C01002C4A0100E83C0100083D0100ED
:205EA00050370020143D0100243D010060370020303D0100CC4501009C3C0100383D010001
:205EC000A83C0100443D0100503D01006C3D0100BC450100903D0100A03D0100B83D01007F
:205EE000D43D0100E43D0100003E0100143E0100443E0100C03C0100F83C0100A43C010046
:205F0000CC3D010030B503880446B1B023B100230320238031B030BD0D46054AC0216846A0
:205F200003F02EFF6846A847024809F09FFCEEE7843E0100143C01002DE9F041B0F800806E
:205F40000546B0B0B8F1000F3CD10E461446002A4CD01778002F69D138464D490DF0BCF91F
:205F600000284AD101234B4F3B6014B12378002B66D107F09BFF0346474C59689A6800682B
:205F8000DB680FC43B681BB3444F3B699847044600283BD1424AC021684603F0F1FE68463B
:205FA000B04730463C49FFF7E5FCC0213D4A684603F0E6FE6846B047BB682146364898479F
:205FC000FB689847002303202B8030B0BDE8F081324C2369984708B3C021334A684603F0F5
:205FE000CFFE6846B047E3699847EBE71746284938460DF071F90028B4D038462B490DF0E4
:206000006BF9002838D1234F3860AEE7C0216846274A03F0B5FE6846B047D3E7C0216846B8
:20602000244A03F0ADFE6846B047CBE7202110460DF0ECF82746E8B100F8018B04468BE73F
:20604000202120460DF0E2F808B1002303702046114908F0DBFD8046002893D12346C02147
:20606000154A684603F08CFE6846B0470220A5F80080AAE704466FE73B46C0210F4A684618
:2060800003F07EFE6846B047002302202B809CE7A03E0100F8140020001500202C4A0100C2
:2060A000D43E0100F83E01001C3F0100A43E0100003F0100443F0100C03E0100A83E0100AD
:2060C000F0B503880646CBB023B10023032033804BB0F0BD334A0D461AA8C02103F050FEA0
:2060E0001AA8A84708F038FB08F0EAFA044600284FD0C0212C4A1AA803F042FE1AA8A8475A
:206100002846211DFFF736FCA369002B2ED1C021264A1AA803F034FE1AA8A84708F04AFF4B
:2061200000282EDD08F046FFC0210346204A1AA803F026FE1AA8A84709F01AF80446002854
:20614000C3D01C4F2246642101A809F07DF83A46C02101AB1AA803F013FE1AA8A847204653
:2061600009F00CF804460028ECD1AEE7C021124A1AA803F005FE1AA8A84708F01BFF00287E
:20618000D0DCC0210D4A1AA803F0FAFD1AA8A8479BE7C0210A4A1AA803F0F2FD1AA8A847B2
:2061A000BCE700BF5C3F0100983C0100883F0100AC3F0100CC3F01006C3F0100D43F01008C
:2061C000A03F0100F0B5078804460D46B3B0D7B19B2F13D1474E3368002B4FD0464800F07D
:2061E00027FD70B13368002B48D0C021434A02A803F0C6FD02A8A847002333600023032019
:20620000238033B0F0BD1646002A5BD01378002B58D0202110460CF0F9FF00B10770304693
:20622000374908F0F3FC0746002857D0354AC02102A803F0A5FD02A8A84728463049FFF746
:2062400099FBC021304A02A803F09AFD02A8A8472E4A2F4B1268274E4FF4207126481A60E5
:20626000356000F0C7FC042300228021244808F0F1FB9B2323803368002BAFD1254AC021A5
:2062800002A803F07DFD02A8A84728461C49FFF771FB214A214B16881F78FCF71FFA4FF4BE
:2062A0007A721549009709683346401A02FB00F0C0090190C0211A4A02A803F061FD02A888
:2062C000A8479BE7C021174A02A803F059FD02A8A84700230220238033B0F0BD3346C021AD
:2062E000114A02A803F04CFD02A8A8470220278087E700BFE8140020281500203C400100D8
:206300001415002030400100843F0100F0160020EC1400204840010090390020B33900203B
:2063200064400100E83F01001440010030B503880446B1B023B100230320238031B030BD95
:206340000D46094AC021684603F01AFD6846A84728460649FFF722FBC0216846044A03F0C1
:206360000FFD6846A847E6E78440010034180020843F01002DE9F04303880646B3B02BB153
:2063800000230320338033B0BDE8F0830D4608F025F90446002844D0C021274A02A803F02B
:2063A000EFFC02A8A847DFF89490DFF894804A46C02102A803F0E4FC02A8A847204608F08E
:2063C00005F901462846FFF7D5FA4246C02102A803F0D6FC02A8A847204608F0F9F801463E
:2063E0002846FFF7DBFA627C1649042A94BF51F82270154F237CC021144A02A8009703F055
:20640000BFFC02A8A847C021114A02A803F0B8FC02A8A847204608F0E7F804460028C6D1BC
:20642000AEE7C0210B4A02A803F0AAFC02A8A84702203480A7E700BFB4400100983C0100C8
:20644000CC400100A84501009C3C0100D4400100843F0100984001002DE9F043B3B0804644
:20646000C021114A114C02A803F08AFC02A8C0472568ADB1DFF8389063681E68304600F06E
:206480009FFC07462B464A46C021CDE9006702A803F076FC02A8C04754F80C5F002DEBD1B5
:2064A00033B0BDE8F08300BFEC40010058060020FC4001002DE9F04306880446B3B0002E88
:2064C00039D10F46154612B11378002B39D1002000F054FC00253C4B18602B46C0213B4A24
:2064E00002A803F04DFC02A8B8473846FFF7B4FF00230220238033B0BDE8F083202140463C
:206500000CF084FE08B1002303700A22404601A90DF0F0F82E4B1860002841D1019B43451E
:206520002CD03368984203D00146284600F002FC3846FFF791FF00230320238033B0BDE8FF
:20654000F083202110460CF061FE814658B38046284608F8016B00F011FC1B4E29463060FF
:206560001C480CF0B9FEB8B999F80130002BC5D14FF0FF324FF00008154B1A604346C02115
:20658000154A02A803F0FCFB02A8B84700230220238033B0BDE8F08333680133E4D19CE775
:2065A0000428EBD8BDE7284600F0E8FB0346064E2946084833600CF08FFE0028D8D0336824
:2065C0000133D5D189E700BF1015002014410100FC140020104101003041010030B50388B3
:2065E0000446B1B023B100230320238031B030BD054A0D466846C02103F0C2FB6846A847E7
:20660000FCF796F9EFE700BF50410100074A106858B130B40024064D0648297006491460FA
:206620000B80006830BC00F097BD7047E8140020B3390020EC1400209039002010B5074C37
:20664000204600F087FE2046054900F089FEBDE810400449044808F03DBA00BF241500209F
:20666000300600200D660000F014002070B505460E4800F073FEA8B106467468206818B92C
:206680000AE054F80C0F38B129460CF025FE23460028F6D1184670BD304600F0CFFE0646D0
:2066A0000028EAD10023184670BD00BF2415002038B5674CFAF714FDFBF7CAFF00F05AFD8D
:2066C00000F086FC0021634800F050FC00F044F9FCF7F4F800F0D4F900F064FDFAF73CFDFC
:2066E00001F098FF01F03AFE00F076FB2368022B3DDC0822584959480CF044FC002158484E
:2067000000F034FC4FF0FF3007F0A6FC23680546022B15DCFAF73CFDFFF7B6F8FFF7EEF8B4
:20672000504800F0C3F8FCF7D1F800F06DFC0446E4B2FCF7F7F8002CF7D1FAF795FDF4E7ED
:20674000494A4A494A4803F0F5FA4A4803F0F2FA2368022BDEDD05B10235284600F0AAFACC
:206760002368022BD6DD444803F0E4FAD2E73E4A3E493F4803F0DEFA404803F0DBFA23685C
:20678000022BB6DD384A3949394803F0D3FA3C4B3C48196803F0CEFA2368022BA9DD324AF3
:2067A0003249334803F0C6FA374B3848196803F0C1FA2368022B9CDD2B4A2C492C4803F07D
:2067C000B9FA334B3348196803F0B4FA2368022B8FDD254A2549264803F0ACFA4AF6CD31A5
:2067E0002D4803F0A7FA2368022B82DD1E4A1F491F4803F09FFA1A21284803F09BFA2368F8
:20680000022B7FF776AF184A1849194803F092FA234B2448198803F08DFA2368022B7FF7EA
:2068200068AF114A1149124803F084FA1E4803F081FA2368022B7FF75CAF074800F04AFA31
:206840002368022B7FF755AF0B4803F073FA50E7F4060020480600203418002018310020BF
:20686000980700204C4C01009046010030370100383701005C470100843F010098460100CA
:206880002C4A0100D046010080490100E046010050490100EC460100F84601001447010011
:2068A00092390020344701004447010010B50446006830B1002100F059FB54F8040F0028A1
:2068C000F8D110BDF0B50388054683B033B14A2B18D188291BD0012003B0F0BD1B4800F0C2
:2068E0003DFD044630B1A168201D00F083F92468002CF8D10122164B1A704A2301202B80B9
:2069000003B0F0BD002303202B8003B0F0BD0F48019200F023FD04460028EED0019A031DE1
