:020000040000FA
:20000000005000202110000019100000FD0F00001D1000001D1000001D1000000000000083
:200020000000000000000000000000001D1000001D100000000000001D1000001D1000000C
:20004000793100001D100000AD3A00001D100000452800005D2E00001D1000001D10000063
:200060001D100000013B00001D1000001D1000001D1000001D1000001D1000001D10000009
:200080001D1000001D1000001D1000001D1000001D1000001D1000001D1000001D100000F8
:2000A0001D1000001D1000001D1000001D1000001D1000001D1000001D1000001D100000D8
:2000C0001D10000071490000294B1B689B0702D44FF000407047F0B5452183B0002002F044
:2000E00023FA022201200DF1060101F0BFF838B901A8022101F0DCF84FF0004003B0F0BD90
:20010000022200200DF1060101F0B0F80028EFD0BDF806305BBAC3F303309CB2ADF8043006
:2001200016F05AF915F0ECFD0646C4F30B000F4616F062F90CA3D3E9002304460D46304613
:20014000394616F0C3F902460B462046294616F0BDF916F06BFC074915F048FF16F0C4FD64
:2001600003B0F0BDAFF300807B14AE47E17A843F800900200000C84208B51F4B1A68032AD2
:2001800033D1421E012A03462FD81C491C4A012B0988108811D016F01FF90022194B16F0D5
:2001A00095F90022184B16F091F916F03FFC174915F01CFF16F098FD08BD084616F00CF922
:2001C0000022104B16F082F909A3D3E9002316F07DF900220E4B15F0C1FF16F027FC0B495D
:2001E00015F004FF16F080FD08BD4FF0004008BD0000000000A06440880900208C47002083
:200200008A4700200000F03E000059400000C84200004440000000002DE9F041704B1B6813
:2002200053B30646062200216E4817F037F816F038085AD172071FD002F080FA6A4C6B4D84
:200240002746286006E002F079FA2B68C31A0A2B40F18D806821012002F066F901223946DE
:200260003A2001F003F80021084602F05DF92378002BE8D0DB0704D44FF000484046BDE897
:20028000F081584C6821012002F04EF906222146432000F0EBFF054600286CD02346A01DC5
:2002A00019785A7859701A7002338342F8D10021084602F039F9042E6AD0022E70D0012E27
:2002C000DCD1B4F9040016F097F843A3D3E9002316F026FA16F0AAFB454915F087FE16F077
:2002E00003FD80464046BDE8F08102F027FA3E4C3E4D2746286005E002F020FA2B68C31A1E
:200300000A2B48D56821012002F00EF9012239463A2000F0ABFF0021084602F005F9237858
:20032000002BE9D0D907A7D52E4C6821012002F0FBF8214606223B2000F098FF0021054697
:20034000084602F0F1F8002D3DD02346A01D19785A7859701A7002339842F8D1202E22D046
:20036000102E2DD0082E33D04FF0000886E72378DB0781D585E74FF000482046062100F012
:2003800097FF2846294602F0CFF84046BDE8F081B4F9000097E72378D9077FF56DAFC3E7B5
:2003A000B4F902008FE7B4F9000001F0D1FA104915F01CFE16F098FC80464046BDE8F0813B
:2003C000B4F90200F1E70621204600F071FF53E7B4F90400E9E700BF00000000006060402F
:2003E000D8090020B0090020AB470020DC0900200000C842000000002DE9F04F23F0004B4F
:2004000080465BEA020014461D460E4693B016D143467D49DB1886F400225241984271EBED
:20042000020324D2404622462B46314615F098FECDE90001DDE9000113B0BDE8F08F114694
:20044000724A26F0004991459A463746434617DD07F1404707F580171F43E3D122196A49BB
:2004600085F400235B41974271EB0303DAD30023674CCDE90034DDE9000113B0BDE8F08FEE
:2004800040D0624A9345E3DC00F09380002F73DB0022029279B95D4A934500F08E805C4A7E
:2004A000934500F0A280BAF1804F00F0A084594A924500F0C68340463146049315F08CFDEF
:2004C000049BCDE900015BB3029AFB0F013B0A93134300F09380504B9B4540F3A38003F11B
:2004E00004739B454D4B40F31B84994540F39184BAF1000F40F39184002013B0BDE8F04F4C
:2005000015F064BD002B8DD1BBE740463146029315F062FD029BCDE90001002B6ED1029341
:20052000B9F1000F04D03A4B27F040429A42CBD1BAF1000F07DADDE900230020344916F071
:20054000EFF8CDE90001002FBFF674AF029B09F1404909F5801959EA030340F06E84DDE90E
:2005600000231046194615F0F9FD02460B4616F0D7F8CDE900015DE7294A93452FDCA2F156
:20058000547293450FDD4FEA2B52A2F2FF32142A40F34584C2F1340221FA02F000FA02F238
:2005A0008A4200F077840022029200293FF477AF81E700293FF46AAF4AE709F1404202F5CB
:2005C000801213433FF453AF144B994540F36D83BAF1000FC0F26383CDE900452AE702221C
:2005E000029200293FF457AF65E7BAF1000FC0F2F48340463146CDE900011BE74246404612
:2006000033463146AFE700BF0000F0FF0000F07F0000F03F0000E03F0000E041FFFFEF3F9C
:20062000FFFF3F43D44B3B40002B40F04783DDE900010022D14B15F049FF6FF034028946C5
:20064000CDE900014FEA2953A3F2FF339A18CC4BC9F3130949F07F5699450B9246F44016AD
:2006600007DDC84B994540F3F58301320B92A6F580160022002300200027C349CDE9082380
:20068000CDE90601CDE91023DDE90001DDE906233146824615F062FDDDE90623B3468046AD
:2006A000894650463146CDE90CAB15F059FD02460B460020B44916F033F88C46834663466B
:2006C0005A4640464946CDE90EBC15F0FFFE82468B46731043F0005303F50023D9190F46DF
:2006E0005A46514600230020CDE900120093064602463B46CDE904ABDDE900AB5046594605
:2007000015F0E4FE02460B464046494615F026FDDDE90623804689463046394615F01EFD83
:2007200002460B46DDE90C0115F018FD52465B4615F0CCFE02460B464046494615F00EFD6D
:20074000DDE90E2315F0C2FEDDE90467CDE9060132463B463046394615F0B8FE74A3D3E973
:20076000002306460F4615F0B1FE73A3D3E9002315F0F6FC32463B4615F0A8FE70A3D3E9A2
:20078000002315F0EDFC32463B4615F09FFE6EA3D3E9002315F0E4FC32463B4615F096FE46
:2007A0006BA3D3E9002315F0DBFC32463B4615F08DFE69A3D3E9002315F0D2FC32468046EB
:2007C00089463B463046394615F080FE02460B464046494615F07AFE06460F46DDE90401BA
:2007E00052465B4615F0BCFCDDE9062315F06EFE32463B4615F0B4FC5246804689465B4627
:200800005046594615F062FE02460B46CDE90C2300225E4B15F0A4FC42464B4615F0A0FC96
:2008200000260F4632463B465046594615F04EFE002282468B4630463946544B15F08EFCE0
:20084000DDE90C2315F08AFC02460B464046494615F084FCDDE9042315F038FE324680467F
:200860008946DDE906013B4615F030FE02460B464046494615F074FC8046894600264246C2
:200880004B465046594615F06BFC35A3D3E9002330460F4615F01AFE52465B4682468B46B5
:2008A0003046394615F05AFC02460B464046494615F054FC2CA3D3E9002315F007FE0246E5
:2008C0000B463046394616461F4629A3D3E9002315F0FCFD02460B463046394615F040FC99
:2008E000DDE9102315F03CFC06460B980F4615F083FD8046894632463B4650465946CDE980
:2009000004AB15F02DFCDDE9082315F029FC4FF0000A42464B4615F023FC42464B465046AA
:200920008B4615F01BFCDDE9082315F017FC2FE0EF4E454A287ECA3F65DBC9934A86CD3FBF
:2009400001411DA96074D13F4D268F515555D53FFFAB6FDBB66DDB3F033333333333E33F45
:20096000000000E009C7EE3FFD033ADC09C7EE3FF5015B14E02F3EBE0000F07F0000404325
:200980008E98030079B60B000000F03F00000840DDE9042315F0E2FB02460B463046394620
:2009A00015F0DCFB029B0A9A013B13434FF000020CBFD54BD54BCDE90045CDE90223002343
:2009C0000093DDE90089CDE9040142464B462046294615F0C3FB52465B4615F077FD2246AF
:2009E00006460F46DDE904012B4615F06FFD02460B463046394615F0B3FB42464B46064603
:200A00000F465046594615F061FD04460D4630462B463946224615F0A3FBBD4B8046994232
:200A200089468A4640F3178101F13F4303F5E003034340F02482A2A3D3E9002330463946C8
:200A400015F08EFB02460B46404649469046994622462B4615F082FB02460B46404649469C
:200A600015F0C4FF002840F00A82CAF30A534FF480120020A3F2FE3342FA03F35344A5493E
:200A8000C3F30A52A2F2FF3241FA02FCC3F3130B23EA0C01C2F114024BF4801BBAF1000FFB
:200AA0000B464BFA02FB294602462046B8BFCBF1000B15F053FB04460D46304639462246FB
:200AC0002B4615F04DFB89464FEA0B5A4FF000087DA3D3E900234046494615F0F7FC224630
:200AE0002B4604460D464046494615F037FB02460B463046394615F031FB75A3D3E90023E6
:200B000015F0E4FC74A3D3E9002306460F464046494615F0DBFC02460B463046394615F0D5
:200B20001FFB8046894642464B462046294615F017FB22462B4606460F4615F00FFB024630
:200B40000B464046494615F009FB3246804689463B463046394615F0B9FC61A3D3E9002306
:200B600004460D4615F0B2FC5FA3D3E9002315F0F5FA22462B4615F0A9FC5DA3D3E90023EE
:200B800015F0EEFA22462B4615F0A0FC5AA3D3E9002315F0E3FA22462B4615F097FC58A3C4
:200BA000D3E9002315F0DCFA22462B4615F08EFC02460B463046394615F0D0FA04460D4619
:200BC00022462B463046394615F080FC02460B462046294614461D4600224FF0804315F072
:200BE000BDFA02460B462046294615F099FD424604460D464B463046394615F067FC42469A
:200C00004B4615F0ADFA02460B462046294615F0A5FA32463B4615F0A1FA02460B46002033
:200C20003A4915F09BFA8A44BAF5801FC0F223815146DDE9022315F049FCCDE90001FFF7AC
:200C4000F9BB002FFFF637AC4046314613B0BDE8F04F15F0CBB8DFF8C0C021F0004363455A
:200C600040F3CF802D4B0B4403430AD122462B4615F074FA32463B4615F0AEFE00283FF4B9
:200C8000F4AEDDE902010022002315F091FE003818BF012013B0BDE8F04F15F091B90023C7
:200CA0000024CDE90034FFF7C5BBBAF1000FF6DA05F1004300940193FFF7BCBB0022C1E491
:200CC000FE822B654715973C00000000432EE63FEF39FAFE422EE63F396CA80C615C20BE96
:200CE000D0A4BE726937663EF16BD2C541BDBB3E2CDE25AF6A56113F93BDBE166CC1663F3E
:200D00003E5555555555C53F0000F0BF0000F03FFFFF8F40FFFF0F00FFCB904000346F3FB4
:200D2000994576DB724B99453FF7E2ABDDE9000100226F4B15F012FA61A3D3E90023064643
:200D40000F4615F0C3FB60A3D3E9002382468B463046394615F0BAFB0022CDE90001654BC8
:200D60003046394615F0B2FB02460B4658A1D1E9000115F0F3F932463B4615F0A7FB0246A6
:200D80000B4600205C4915F0E9F932463B46804689463046394615F099FB02460B4640461B
:200DA000494615F093FB4CA3D3E9002315F08EFB02460B46DDE9000115F0D0F906460F46E6
:200DC0005046594632463B4615F0CAF952464FF0000A5B4650468B46DCE542460020334652
:200DE000434915F09DFCCDE90001FFF723BB424640463346314615F069FBCDE90001FFF72A
:200E000019BB3D4A934256DCDDE90023924693465CE6BAF1000FFFF66FAB00203AE7002961
:200E20007FF473ABC2F114024BFA02F000FA02F25A4539D00291FFF732BB029B012B7FF4D9
:200E4000F9AADDE90045224605F10043CDE90023FFF7F0BA0022294B4FF48027CDE906236B
:200E60001FA3D3E90023CDE908231FA3D3E90023CDE9102308E45A4600F042F8D9E60022CF
:200E8000DDE90201002315F093FD003818BF0120FFF733BB00F00100C0F10202029200295A
:200EA0003FF4FDAAFFF707BB00F00100C0F102020292FFF7F4BA1B15D9E500BFAFF30080F3
:200EC000000000604715F73F44DF5DF80BAE543E555555555555D53FFE822B654715F73FA9
:200EE0000000004003B8E23F06D0CF43EBFD4C3E0000F03F0000D03F0000E03F0000F83FE8
:200F0000C1F30A5370B58C4604460D4616467BBB034621F0004C5CEA030328D0324B002211
:200F200015F0D4FA314B04469E420D461ADB8C46C1F30A53363B40F2FE723344934220DCB2
:200F4000002B3EDC13F1350F2CDA4CF250339E4217DC05F0004343F0D27141F4B731244833
:200F600041F01F011CA3D3E9002315F0AFFA70BD40F2FF7E7345DED102460B4615F0F0F80B
:200F800070BD05F0004343F0FC4141F45F1141F4105113A3D3E90023164841F03C0115F0DB
:200FA00095FA70BD2CF0FF4C03F136012CF4E00C4CEA01550022204629460F4B15F086FA75
:200FC00070BD2CF0FF4C2CF4E00C20464CEA035170BD00BFAFF3008059F3F8C21F6EA5013A
:200FE0009C7500883CE4377E00005043B03CFFFF59F3F8C29C7500880000903C4FF0E02359
:20100000D3F8282DB2F5806F04D0D3F8283D9B0500D4FEE7704700BFFEE700BFFEE700BFFF
:2010200008B50BF0A5FB104A10498A420DD2104801390346891A21F003010431014453F8A2
:20104000040B8B4242F8040BF9D10A480A494FF000028842B8BF40F8042BFADB08F044FB07
:20106000FFF7CCFF08BD00BF00000020950800200692010098080020E8470020F0B50027DA
:2010800006463C463D4683B0304609F0ABFD0195019B9C4206DD00BF019B01330193019B03
:2010A000A342F8DB304609F0CBFD0195019BC4F5C8749C4206DD00BF019B01330193019B9A
:2010C000A342F8DB0137B7F5487F06D0B7F5C87FD4BF3C46C7F54874D6E703B0F0BD00BF7B
:2010E00070B54FF08054194DD4F8D831284601215B6898470122D4F8D83111461B6828460B
:2011000098470BF003FA02F08FF802F00FF800F007FE09F061FD09F0C1FD0120FFF7AEFFBF
:2011200001230B4ED4F8B01105F5B825F360094AAB600B691020D26A98470BF0EBF901F08E
:20114000FFFABDE870400020FFF798BF00400340004009400020094008B541F2342003F028
:201160002BFB01F0F3FD09F02FFE074801F022FE0648082101F082FC09F0BAFCBDE8084060
:201180000220FFF77BBF00BF71AD00005424002008210023F0B585B00DEB0100CDE9003380
:2011A00001F06CFCBDF80E40254D64BAEE6A4AF6CD31A4B20220B04721460320B0471A2182
:2011C0000120B04708226B6B0DEB02010B201D4F984701206946AC6AA0473B68022B1ADCF3
:2011E000022001A9A04778B93B68022B08DC0021154808F0F7FE0020FFF740FF05B0F0BD35
:20120000019912480BF014FF3B68022BEFDD10480BF00EFFEBE70F4A0F4910480BF008FFF3
:201220000F480BF005FF3B68022BD9DD0A49094A0A480BF0FDFE00990A480BF0F9FECFE751
:201240007879010004070020180700208C780100A48D01003C7801004C78010054780100B4
:20126000647801007C78010001F026BE00B58E46844683B01346012172460DF107008DF884
:2012800007C001F041F803B05DF804FB074B18703AB101EB020C11F8010B614503F8010FD1
:2012A000F9D101320148D1B200F06ABEC808002029B1CC23014401F8013D8142FBD17047D2
:2012C000813801289ABF024B18680020704700BF040900200322024B02481A6009F040BA1A
:2012E00004090020CC780100594B1B68032B40F0AB80431E012B2DE9F041044600F2A1809B
:20130000544D06220021284615F0C8FF7721002001F00AF906222946F720FFF7A7FF00288B
:2013200000F087802A79EB784B4895F800E095F801C0A97812016D7942EA033242EA151690
:201340000588B0F90A70C5EB121202FB02F3B0F904201B1302FB03F36D00B0F90220C5EB41
:20136000D60502FB05F59B1303EBE5235E10A6F57A46B51005FB05F5B0F908204FEA6538C8
:2013800006FB02F208FB07F7521002EBE7029214C78802F5004207FB02F2D213836146D01C
:2013A000090941EA0C1CB0F90E10ED1201FB06F6B0F91010760001FB0565B0F90C602749E0
:2013C000360406EBA5054CEA0E3E0EEB253E01FB0EFE0EF1434E0EF5A00EBEF1000FB3BFE1
:2013E000BEFBF2FE4FEA4E0EBEFBF2FE4FEA4E0E4FEADE0202FB02F2B0F91610B0F914508B
:20140000520B01FB02F2B0F912104FEA9E0005FB00F0401300EB223008440EEB2010012CBB
:2014200003D103EB830080300012BDE8F0811046F5E728460621FFF73BFF4FF00040BDE874
:20144000F0814FF00040F0E74FF00040704700BF0409002008090020E8080020CBF3FFFFA6
:2014600030B5802883B005D0812828D02D4B186803B030BD01242B4D772100202C6001F0CC
:2014800053F81C2228498820FFF7F0FEB62322460DF10701E0208DF80730FFF7F7FE772140
:2014A000002001F041F8002322460DF10701F4208DF80730FFF7EAFE286803B030BD194D0D
:2014C00028680028D4D00C46B9B17721002001F02BF825230DF107010122F4208DF80730E7
:2014E000FFF7D4FE00230321104A114808F062FA022318462B6003B030BD0D4808F0C4FA1D
:201500002046772101F010F801220DF10701F4208DF80740FFF7BAFE012318462B6003B05D
:2015200030BD00BF04090020E8080020D512000010090020813801289ABF024B186800207A
:20154000704700BF380900200322024B02481A6009F006B938090020E4780100314B1B6809
:20156000032B5CD1820770B5044626D0032809D0012804D0022820D12B4B186870BD2B4B6D
:20158000186870BD2A4D4421002000F0CDFF022229460420FFF76AFE58B12B885BBA2B8055
:2015A0005B0406D5234D022229460120FFF75EFE30B904211F48FFF77BFE4FF0004070BDEB
:2015C00002222046A918FFF751FE0028F1D02888164E40BAC0F38D0015F032FB4FF074510E
:2015E00014F004FD044668880F4D40BAC0F38D0015F026FB4FF0745114F0F8FC0E4914F099
:20160000F5FC15F071FB03460B492046336014F0EDFC15F069FB03462B60012070BD4FF01B
:201620000040704738090020300900203C090020884700203409002000007A44802838B5F5
:2016400004D0812827D02A4B186838BD4FF08054D4F8B43101209B6B9847D4F8B4314FF46E
:20166000804101209B699847D4F8B4314FF08041DB69012098474421002000F055FF0222C3
:2016800000231C4910460B80FFF700FE0123184A1846136038BD164D28680028D5D00C468F
:2016A000A1B14421002000F03FFF02221023114910460B80FFF7EAFD002324210E4A0F489F
:2016C00008F078F9022318462B6038BD0B4808F0DBF92046442100F027FF022205491046D6
:2016E0000C80FFF7D3FD012318462B6038BD00BF38090020884700204915000040090020C0
:20170000014B1868704700BF8009002000B5452183B0002000F008FF022201200DF106012F
:20172000FFF7A4FDBDF90630002B08DB00231021074A084808F03EF903B05DF804FB06489F
:2017400009F00EF80222054B1A6003B05DF804FB0D17000060090020FC78010080090020CA
:2017600070B5802882B01DD081282ED10C4679B301244521002000F0D7FE41F2C203214886
:201780000DF10601046002222046ADF80630FFF77DFD002310211C4A1C4808F00BF920468B
:2017A00002B070BD174D45212B68002003F0020400F0BAFE4FF48653022201200DF10601C6
:2017C0002C60ADF80630FFF761FD002002B070BD0C4E0E4808F058F933682046452103F0FC
:2017E000020500F0A1FE4FF4865302220DF1060101203560ADF80630FFF748FD204602B02A
:2018000070BD00BF800900200D17000060090020813801289ABF024B18680020704700BFE8
:2018200088090020032138B5114C124A2378116033B9012310482370BDE8384008F090BFC2
:201840000E4D4321002000F06FFE0421284600F0B5FC00212070084600F066FE2A886B8820
:201860000748084952BA5BBA02800B80E1E700BFA847002088090020147901008409002018
:201880008C4700208A47002030B5802883B005D0812827D0274B186803B030BD0024264B08
:2018A000264D0422214626481C802C8015F0F6FC2046432100F038FE022210230DF106012F
:2018C0001046ADF80630FFF7E1FC02461D4B204621461A7000F028FE01231846154A136093
:2018E00003B030BD134C20680028D5D069B1154D2B7893B900230321134A144808F05AF8DF
:2019000002231846236003B030BD104808F0BCF801231846236003B030BD4321002000F004
:2019200003FE002000F000FC00212870084600F0FBFDDFE7880900208A4700208C47002050
:2019400084090020A8470020251800008C09002008B5174B1B78032B28D8DFE803F0151E0C
:201960000C0214F049FD00224FF07D5314F0AEFD15F05CF808BD14F03FFD00220D4B14F053
:20198000A5FD15F053F808BD14F036FD00220A4B14F09CFD15F04AF808BD14F02DFD0022E9
:2019A000064B14F093FD15F041F808BD002008BDA94700200000303F0000103F0000203F2D
:2019C000813801289ABF024B18680020704700BFD80900200222024B02481A6008F0C0BEBD
:2019E000D80900202C79010010B56821012000F09BFD3F23094C012221466C202370FFF7F3
:201A000045FC4F23214601226B202370FFF73EFCBDE810400021084600F086BDAD47002090
:201A20008028F8B50CD0812807D111F03F0135D12F4BD3F88030DB0443D42E4B1868F8BD14
:201A40004FF08054D4F8B43107209B6B9847D4F8B4314FF4005107209B699847D4F8B431B6
:201A60004FF080410720DB699847D4F8B4310C20DB6B9847D4F8B4314FF440724FF4806150
:201A80000C209B6A98474FF48054002218481A4B1849C0F8A0401A600868F8BD4FF4805786
:201AA0000124154B124E134D1960144AC6F890700023082112482C6007F07CFF20462C60B6
:201AC000F8BD0D4B0E48196007F0DEFFFFF78CFF0C4AD2F8043813F00103FAD14FF4805094
:201AE000044A03491360C1F8A0001068F8BD00BF00200240D8090020AC090020091B000038
:201B0000B8090020002000402DE9F041364C236813F0380F28D1354D03F03F042E785EB978
:201B2000002C3BD1FFF760FFBDE8F041002305212F4A304807F03EBFE3B22B70002CF1D0F7
:201B40002D4FDB43682101203B7000F0EDFC012229496C20FFF79AFB0021084600F0E4FCD2
:201B600026480AF0DBFCDFE7254F3A78002AD2D00025244E68210120357000F0D5FC314650
:201B800001221C20FFF782FB06462946284600F0CBFC2368002EBED03D70BCE76821012052
:201BA00000F0C2FC0923144F012239466B203B70FFF76CFB3F23012239466C203B70FFF782
:201BC00065FB01220F491C202E70FFF75FFB012239463A20FFF74AFB3146304600F0A4FC4C
:201BE000E3B22B70ADE700BFAC090020AC470020D5190000B8090020AD47002080380100DE
:201C0000A9470020AA4700200022014B1A707047AE47002070B500244FF08055174B1848C0
:201C20001C7001F07DFA174AD5F8B811D368204623F00103D3600B6A9847D5F8B83120465E
:201C40009B6A9847D5F8B83120461B6B984701210D4B0E4A9962936A9B07FCD54FF08054CF
:201C6000D4F8B43115209B6B9847D4F8B4310021BDE8704015201B6A184700BFAE47002085
:201C80004005002000000140002008600020084010B54FF08054D4F8B83104205B6998475A
:201CA000D4F8B83104205B6B98470128F8D110BDFFF7EEBF032801D000F0FCB808B5FFF7F1
:201CC000A9FF114B00219B68812098470F4B00219B68812098470E4B00219B688120984761
:201CE0000C4B00219B68812098470B4B00219B68812098474FF48052084BC3F8A020BDE867
:201D0000084000F0D7B800BFCC780100FC780100E4780100147901002C7901000020024090
:201D200070B50AF0F3FB0646FFF7B2FF4FF08053D3F8B8314FF4A060DB6998470121414BC9
:201D4000414A9962936A9B07FCD54FF080544FF4005500F07FF8FFF757FF00200AF0D4FA47
:201D60003A4801F0D7F9D4F8B43119209B6B9847D4F8B431294619209B699847D4F8B43164
:201D800018209B6B9847D4F8B431294618209B699847D4F8B43117209B6B9847D4F8B4316D
:201DA000294617209B699847D4F8B4311B209B6B9847D4F8B43129461B209B699847D4F8BF
:201DC000B4311E209B6B9847D4F8B4314FF480411E209B699847D4F8B4310D20DB6B984722
:201DE0001B4AD4F8B431C2F8A05000214FF480720D209B6A9847D4F8B43102209B6B984704
:201E0000D4F8B431294602209B699847D4F8B4310B209B6B9847D4F8B43129460B209B698D
:201E20009847D4F8B4311D209B6B9847D4F8B43129461D209B69984706B170BDBDE8704077
:201E40000AF068BB0020086000200840540500200020024070B54FF08055D5F8B831022089
:201E60005B699847D5F8B83102205B6B984701280446F7D1D5F8B8314FF44070DB6998473B
:201E8000084B094A9C62936A9B07FCD5BDE870404FF08053D3F8AC310122044904481B68E0
:201EA000184700BF0020086000200840006CDC0200200040FF214FF0805310B52B4A0220DC
:201EC0001170D3F8B8315B6B984701280AD1284B1B6EDA0706D500232649274AC1F8043874
:201EE000C2F810344FF08053D3F8B8314FF440701B6A98470121214B1D4A9962936A9B0738
:201F0000FCD54FF08054D4F8B43108209B6B9847D4F8B4314FF4005108209B699847D4F803
:201F2000B43109209B6B9847D4F8B4314FF4005109209B699847D4F8B43105209B6B9847A2
:201F4000D4F8B4314FF4804105209B699847D4F8B43106209B6B9847D4F8B4314FF4804153
:201F6000BDE8104006209B69184700BF9208002000200840002000400000054200200860D3
:201F80002DE9F047664B674D1B7807465B00C5F8003803780E46C5F8083800F0CFFB00F5E4
:201FA000CC541934D5F804385B0608D500F0C6FB001B0028F6DB00242046BDE8F0870323DC
:201FC0000220C5F804380AF0A9FA00F0B7FBDFF8548100F5CC541934D8F80438D80746D494
:201FE0004FF08053D3F8AC314E485B68984710F00C0F7DD1012E40F28F800028DBD101241D
:20200000A046484D06F1FF39631E3B4402E00134B4423ED213F8012F4C45C5F80828F6D278
:202020000220C5F804880AF079FA00F087FB00F5CC5A0AF1190AD5F80438D90710D44FF011
:202040008053D3F8AC3128465B68984710F00C0F824612D10134B44218D20028D4D0AAE7BD
:2020600000F06CFBA0EB0A000028E4DBA3E700F065FB001B0028AFDB9DE704230220C5F85C
:20208000043801340AF04AFAA64294D8BAF1000F91D10523234D0220C5F804380AF03EFA3C
:2020A00000F04CFB00F5CC541934D5F80438DA0725D44FF08053D3F8AC311A485B689847E6
:2020C00010F00C0F044620D100F038FBB4FA84F400F5CC55134E64091935D6F804385B06C4
:2020E0007FF56AAF00F02AFB401B0028F5DB62E704230220C8F804380AF010FA5BE700F027
:202100001DFB001B0028D0DB55E704230220C5F804380AF003FAD7E700287FF44CAFB8E751
:20212000AF4700200020004070B5224B224D1B785B00C5F80038C5F8080800F0FFFA00F59A
:20214000CC541934D5F804385A0606D500F0F6FA001B0028F6DB002070BD07230220C5F884
:2021600004380AF0DBF900F0E9FA134E00F5CC541934D6F80438DB070ED44FF08053D3F814
:20218000AC310D485B68984710F00C0F044609D1B4FA84F0400970BD00F0D0FA001B002897
:2021A000E7DBD8E704230220C6F804380AF0B6F9EEE700BFAF470020002000402DE9F04F53
:2021C0004F4BDFF840A11B7883B05B0043F00103CAF800388846019000F0B0FA00F5CC544D
:2021E0001934DAF8045815F0400508D000F0A6FA001B0028F5DB002003B0BDE8F08F0B237A
:202200000220CAF8043841F699164FF080573D4C08F1FF3B0AF082F95FFA85FADA452CDA74
:2022200000F08CFA00EB0609D4F80428D20716D4D7F8AC3120465B68984710F00C0F15D1BE
:2022400001350028D7D10923D4F808280199022001F80A20C4F804380AF060F9DCE700F073
:202260006DFAA0EB09000028DEDBC4E704230220C4F804380AF052F9BDE70523214E0220F4
:20228000C6F804380AF04AF900F058FA00F5CC541934D6F8045815F0010521D14FF080532A
:2022A000D3F8AC3117485B68984710F00C0F1DD10028A0D1019AD6F80838424402F8013C6D
:2022C00000F03CFA0F4D00F5CC541934D5F804385B0613D500F032FA031B002BF6DB8AE721
:2022E00000F02CFA031B002BD3DB84E704230220C6F804380AF012F928467DE701207BE7C9
:20230000AF470020002000402DE9F84FDFF810A2844F9AF8004099466400C7F800480378F7
:202320000546C7F808380E46904600F007FA00F5CC541934D7F804385B0607D500F0FEF9A7
:20234000001B0028F6DB0020BDE8F88F03230220C7F804380AF0E2F800F0F0F9714F00F578
:20236000CC541934D7F80438D80740D44FF08053D3F8AC316B485B68984710F00C0F3CD1BB
:20238000012E41D90028DED1013E0127DFF894B12E440DE04FF08053D3F8AC3158465B6820
:2023A000984710F00C0F1BD1AE422DD00028CAD115F8013F0220CBF80838CBF804780AF0DC
:2023C000ADF800F0BBF900F5CC541934DBF80438D907DFD500F0B2F9001B0028F6DBB2E767
:2023E00004230220CBF804380AF098F8ABE700F0A5F9001B0028B5DBA5E704230220C7F884
:2024000004380AF08BF89EE700289CD10B229AF80030444C5B0043F00103A8F10207C4F87A
:202420000038022008F1FF3AC4F804284F440AF075F8574541F699154FF080561ED000F0BA
:202440007DF900EB050BD4F80438DA0749D4D6F8AC3120465B68984710F00C0F48D10028F6
:202460007FF471AF0923D4F8082802200AF8012FC4F804380AF052F85745E0D10523294E25
:202480000220C6F804380AF049F800F057F900F5CC541934D6F8045815F001052FD14FF0CF
:2024A0008053D3F8AC311F485B68984710F00C0F2BD100287FF447AFD6F80838C84408F8D6
:2024C000013C00F03BF9174D00F5CC541934D5F804385B0621D500F031F9031B002BF6DB41
:2024E00031E700F02BF9A0EB0B000028ABDB2AE704230220C4F804380AF010F823E700F01E
:202500001DF9031B002BC5DB1DE704230220C6F804380AF003F8284616E7012014E700BF3A
:20252000AF470020002000404FF0805370B53A4A04461170D3F8B83102205B6B98470128FB
:202540003ED0FFF787FC354B1A78A24240D00022334D34491C70C5F80428C1F810241B78DA
:20256000002B36D0012B20D14FF08054D4F8B4314FF4C04108209B699847D4F8B4314FF406
:20258000C04109209B699847D4F8B431092208212846DB6C9847D4F8B43105209B6B9847DA
:2025A000D4F8B43106209B6B9847BDE870404FF08053D3F8AC3101221B4919481B68184786
:2025C0001A4B1B6EDB07BCD5144B1A78A242BED170BD4FF08054D4F8B4314FF4C0410520DC
:2025E0009B699847D4F8B4314FF4C04106209B699847D4F8B431062205212846DB6C984767
:20260000D4F8B43108209B6B9847D4F8B43109209B6B9847C9E700BFAF47002092080020FE
:202620000020004000000542006CDC020020084010B54FF08054D4F8B83104205B699847ED
:20264000D4F8B83104205B6B98470128F8D110BD38B5002400254FF080531A4A0420C2E9C2
:202660000045D3F8B8315B6B9847012801D0FFF7DFFF4FF08053D3F8B8310020DB699847E5
:202680000121114B114A9962936A9B07FCD54FF080520F4C0F49E368204623F4807323F064
:2026A0000103E360D2F8C83104251B689847312040F221210122084B2560E063A1605A60C7
:2026C00038BD00BF98080020002008600020084000000140002100040000244310B509F00B
:2026E00055FE0023044C400E40EAC112C4E90023D4E9000110BD00BF9808002010B509F031
:2027000045FE0023064C400E40EAC112C4E9002307F0D0FA00B910BDBDE8104007F0A0BA59
:2027200098080020014B9868704700BF00200940704700BF0146012000F04AB809F01ABE0D
:202740002DE9F84309F0E2FE01254FF480724FF000094FF480334FF080561B4CDFF86C8077
:202760002321C8F80090656062606360D6F8843107461B6848469847D6F884312421284685
:202780001B689847D6F88431252102201B689847236843F4E0232360C4F8089009F0EAFD0E
:2027A0000346D6F8B02103F50073E361C8F8A052C8F800501420136998470FB1BDE8F88351
:2027C000BDE8F84309F0A6BE0020094000002443431E012B10B419D9042815D100231A4614
:2027E00010F004001CBF124C21621BB10121114BC3F880121AB101220E4BC3F8A02218B1F5
:2028000001220C4BC3F8C02210BC7047012808D10346074A916110F0020204D0044CE16126
:20282000DEE70023F7E7002BEED01046DEE700BF0020094000002443014B1868704700BFFD
:20284000E009002010B5FFF779FF194B1860FFF755FF184BD3F8A0307BB9164BD3F8802018
:20286000EAB9144BD3F8C02032B100204FF48031114AC3F8C002516010BD4FF480730E4CCE
:20288000636009F077FD00F2052020F4FF70094B20F00100E061D3F88020002AE1D0002062
:2028A0000121054AC3F88002516007F0A1FCD8E7E009002000002443002009400122024B1D
:2028C000C3F8002C704700BF0000084010B509F01DFE114BD3F8002C012A0AD04FF086421B
:2028E00001210E4C1C60C2F80411C2F8001178B110BD4FF086410A4CC3F8004C074C1C601E
:20290000C1F80421C1F80021C3F8002C0028EFD1BDE8104009F0FEBD00000840502D1900A9
:2029200051E5CC1A0122014BDA6070470000084008B5FFF7CBFFFEE770B5044609F0E6FD26
:2029400021460646114807F047FD104807F042FD38B101210E4B0F4AC3F8001253699B06BB
:20296000FCD54FF08055D5F8A03160681B689847D5F8A03160689B6898471128F8D106B1A9
:2029800070BDBDE8704009F0C5BD00BFE4090020000022430010094008B5064807F01AFD97
:2029A00038B10121044B054AC3F8001253699B06FCD508BDE40900200000224300100940E3
:2029C00010B5A8B14FF0805C0021134C134A6368012023F4C0536360DCF8A031C2F8801118
:2029E000C2F80012DB68984763699B06FCD410BD04460B4807F0EEFC0028E3D005C8144362
:202A00000028FBD1002CDDD0034A536823F4C05343F40063536010BD0010094000002243DF
:202A2000E409002038B5054609F070FD04462946054807F023FD0020FFF7C2FF04B138BD4D
:202A4000BDE8384009F066BDE409002070B590B10E460024451E04E0A64206D000F08AF9DA
:202A6000013415F8010F0028F6D100F0DDF90128FBD0204670BD0446F7E700BF10B40C4BC6
:202A80000C4C1A780133FF2A0FD1A342F9D10A4C49B10139631801381978A34200F8011F94
:202AA00003F1FF33F8D110BC7047014CF0E700BFC8FF0100D0FF0100F0120050802810B46B
:202AC00006D0812803D00A4B10BC1868704741B1012303240749064A0C601360184610BC66
:202AE0007047044A024B11601960084610BC7047E809002000500940813801289ABF024B97
:202B000018680020704700BFE8090020074A0346106820B1012B06D0022B01D000207047D4
:202B2000034B986A704709F00FBC00BFE80900200050094038B54FF08055D5F8B831022088
:202B40005B699847D5F8B83102205B6B984701280446F7D1D5F8B8314FF40070DB6998478E
:202B6000034B044A9C62936A9B07FCD538BD00BF0020086000200840F0B54FF0805540F2BC
:202B8000F27683B0284CFFF7D5FFD5F8D0312046DB689847D5F8B03115205B699847A36B72
:202BA000D5F8B42123F4FE6323F00203A3636664D36B1D2098474FF000514FF0FF331B4A53
:202BC0002046C2F89010D5F8B4210093176C1C211D22B847D5F8D02160232046576814493F
:202BE0004FF4E132B847142240F2011340F201306263E26A0F4942F01002E2620A68002A14
:202C000018BF0346236366640B685BB11520A36BD5F8B02143F05003A363136903B0BDE884
:202C2000F040184703B0F0BD0010004000200240006CDC02EC0900204FF0805370B5D3F892
:202C4000B83104465B6B02209847012807D13B4BDB6ED80703D53A4A93691907FCD4032C54
:202C600047D0384B1B6803B170BD4FF08055D5F8B83102205B6B9847012858D12F4BDB6EB0
:202C8000DA0715D54FF080562D4DD6F8D0312846DB689847D6F8B03115205B69984740F2C2
:202CA000F272AB6B23F4FE6323F00203AB636A644FF08053D3F8B8314FF400701B6A984751
:202CC000032C25D00121204B1C4A9962936A9B07FCD51D2000F03AFA1C2000F037FA4FF075
:202CE000FF3000F033FABDE870404FF0FF3000F02DBA4FF08055D5F8B83102205B6B98475D
:202D00000128BBD0D5F8B8314FF400701B6A98474FF08054D4F8B8314FF400709B6A9847D3
:202D2000D4F8B8314FF400701B6B9847CAE7D5F8B8314FF400701B6A9847C3E70020084036
:202D400000100040EC0900200020086010B509F0DDFB0446054800F0DDF90022044B1A60A8
:202D600004B110BDBDE8104009F0D4BB68050020EC0900204FF0805310B5D3F8B8310446DD
:202D80005B6B0220984701280BD0FFF7F5FE4FF08053D3F8D0312146BDE810400348DB69B6
:202DA0001847034BDB6EDB07F1D4EEE70010004000200840184A10B51060D8B14FF08054B6
:202DC0000221164AD4F8B83111614FF400705B6A9847D4F8B8314FF40070DB6A9847012144
:202DE0000F4B104A9962936A9B07FCD5BDE81040FFF7C2BE03464FF08054084A4FF40070E8
:202E00001361D4F8B8319B6A9847D4F8B8314FF400701B6B9847E2E7EC090020680500206D
:202E2000002008600020084008B54FF08053D3F8B83102205B6B984701280AD1064BD86EBD
:202E400010F0010004D0A3F501239869C0F3C00008BD002008BD00BF0020084070B5FFF781
:202E600069FE40F2F2720C4C236C626413F0500F0DD00A4D4FF0805606E0D6F8D0312046E2
:202E80001B6998472B681BB9A369DB06F5D570BDC0B29847EEE700BF00100040EC0900203A
:202EA0004FF0E022D2F8103D23F00403C2F8103D30BFFFF737BD00BFF8B509F027FB07F042
:202EC0004BF918B1BDE8F84009F024BB884807F081FA0225044648B1636823B19847A8421C
:202EE00028BF2846C5B22468002CF5D1FFF726FC804B0446D3F88032002B00F0D2807E4BA8
:202F00009B691B1A022B00F19680A3F28F23002BACBF02200120854228BF054606F0CAFE6D
:202F2000002840F08E80012D00F0CB80022DC9D12846611EFFF74CFC6D4807F04BFA0625B2
:202F40000446002800F0AF80A3680BB1022098472369246825EA0305002CF5D1FFF7E2FC23
:202F60006B0700F1A380002D40F0A38000F0BCF90020FFF725FD4FF08052604C39202368CD
:202F800023F003032360A36843F00F03A360D2F8B8319B6998470020594B20642064C3F825
:202FA000200409F091FE062D00F09D804FF080560027544C504D0321EB6AD4F82432524877
:202FC00023F00303C4F82432D6F8D8315B689847D6F8B8319B6B9847EB6A09F095FF4B4A3A
:202FE000D6F8D831C2F88071474801215B6898470121D4F82432464A43F00303C4F82432DD
:20300000D160EB6A09F0B2FFFFF7C6FCFFF776FBFFF788FC364807F0DDF9044628B1E3682E
:2030200003B198472468002CF9D109F073FABDE8F84009F06FBA06F03DFE00283FF442AF99
:20304000002506F03FFE0646FFF748FB361A002E7FF738AFFFF7F0FB00EB46210B1BA3F2CA
:203060008F22002A36DA002D3FF42CAF082B2ED404F58034631A31EA230128BF214602201C
:20308000FFF7A6FB4FF0E022D2F8103D23F00403C2F8103D30BFFFF745FCBDE8F84009F024
:2030A00039BA022037E7FFF73DFC06250022184BDA604FF08053D3F8B83128469B699847AD
:2030C00054E7022004F58031FFF782FBDAE704F10801D4E7012DC9D0022D7FF4F3AE284684
:2030E000FFF776FB28E7022009F0B6FA5EE700BFF009002000002443002009400010094049
:2031000000002243002008400040034000000443004009400146014807F05EB9F0090020D8
:203120000146014807F0AAB9F009002010B5064807F04CF9BDE810404FF08053D3F88431B6
:20314000202103201B681847F0090020431C10D04FF0805310B5D3F8B43104461B684FF43A
:20316000C042002198470023024840EA8404236010BD7047001A4442034BD3F8E000C3F8D3
:20318000E00007F015BD00BF002002404FF0805370B5D3F8B4310C465B680546984714F03B
:2031A0000C0320F0E06222F4EC2207D0042B23D0082B24D00C2B08BF42F4403214F00303BA
:2031C00010D142F4C04223064FF08053D3F8B4312846BDE870404FF000011B6848BF42F428
:2031E00080221847022B04D0012B08BF42F48042E9E742F40052E6E742F40032DEE742F45A
:203200008032DBE7074AD2F8D030C340DB074CBFD2F88030D2F8C03023FA00F000F00100FD
:20322000704700BF002002400022412300B585B002A8CDE90223FFF77FFB042009F0FCF93F
:20324000032805D102A8FFF7EDFB05B05DF804FB0321042009F0C4F9042009F0EDF90328B0
:20326000FAD11C234FF0405200210090044809F06FF902A8FFF7D6FB05B05DF804FB00BFDC
:2032800000A00C400022412300B583B06846CDE90023FFF751FB012009F0CEF9012803D02E
:2032A0000121032009F09CF96846FFF7BBFB03B05DF804FB0022412300B583B06846CDE908
:2032C0000023FFF739FB012009F0B6F9012805D04FF08053D3F8800009F022F86846FFF7C6
:2032E000A1FB03B05DF804FB10B54123002482B06846CDE90043FFF71FFB0320214609F072
:203300006FF9012009F098F920B96846FFF78AFB02B010BD4FF08053D3F8800009F000F8CB
:203320006846FFF77FFB02B010BD00BF70B5038804463BB140F2CB22934208D182290AD0F9
:20334000012070BD40F2CB232380012070BD00232380032070BD094B094E1D69FFF7E2FAF5
:2033600008F08CF908F05AFA8021A847002880B2E8DD08F04DFAF3689847EFE77879010094
:2033800014890100024BD3F89C0100F001007047002008404FF0FF332DE9F0412E4C8046D2
:2033A000236023680F460B6010F0030302D1028811050DD409F0AAF8284B0546D3F89C31F4
:2033C000DB071BD4002D36D000252846BDE8F081438009F09BF8214B0546D3F89C31DA07C1
:2033E000F0D5B8F8003013F4405F07D003F44063B3F5006F04BF1A4BC3F80080194E4CF2F2
:203400005032C6F800807368236003E07368013A236018D02368DBB2002BF7D085B123685F
:203420003B602568EDB2A5F10105B5FA85F56D092846BDE8F08109F06DF82846BDE8F08124
:2034400009F068F8EBE71DB1236800253B60BCE709F060F8F8E700BFF40900200020084011
:20346000F8090020001004400B4A01E0013A11D0438803F44063B3F5806FF7D14388074AA5
:203480009BB21360428802F44062A2F58062B2FA82F252091046704720A10700F409002024
:2034A00070B54FF0805482B009F030F8D4F8B03105461B6A19209847D4F8B03112201B6A88
:2034C0009847D4F8B03119205B699847D4F8B03112205B699847D4F8B83101205B69984789
:2034E000D4F8B83101205B6B98470128F8D1174A174BD0629862936A9B07FCD54FF08054ED
:203500000022144BD4F8B0111A615A6119200B699847D4F8B03112201B6998479DB140F219
:20352000FF3600240C4B0D4A0D4D01A92E600D48DC611A60FFF72EFFA0F10100B0FA80F017
:20354000400902B070BD08F0E5FFE8E7002008400020086000100460001004405100070682
:20356000000004600100060400B587B01422002101A813F093FE4FF0010C40F60A0218496D
:203580009DF8113009686CF30303059101A86946ADF804208DF81130FFF7FCFE012803D016
:2035A000002007B05DF804FB0E4801E00138F8D0BDF8063003F44063B3F5806FF6D1BDF810
:2035C0000630094A9BB21360BDF8060000F44060A0F58060B0FA80F0400907B05DF804FB70
:2035E000080A002020A10700F409002000B587B01422002101A813F051FE4FF0010C40F6F4
:2036000009029DF8113069466CF3030301A8ADF804208DF81130FFF7BDFE012803D0C0B25E
:2036200007B05DF804FB134A01E0013A1CD0BDF8063003F44063B3F5806FF6D1BDF806304C
:203640000D4A9BB21360BDF8063003F44063B3F5806F09D1094B1A7852B90122059808495B
:203660001A7008601046DBE7002007B05DF804FB0120D5E720A10700F4090020B04700203C
:20368000080A002030B54FF0805487B008F03EFFD4F8B03105465B6919209847D4F8B03113
:2036A00012205B699847334BD3F89C31DA072FD4FFF79CFF002001212E4A2F4BD062996249
:2036C000936A9B07FCD54FF08054D4F8B83101209B699847D4F8B83101205B6B9847022809
:2036E000F8D1D4F8B03119201B6A9847D4F8B03112201B6A9847D4F8B03119201B6998472B
:20370000D4F8B03112201B6998476DB307B030BD00211A4B102219610124596102A813F0E5
:20372000BDFD40F60D029DF8153002A864F3030301A9ADF808208DF81530FFF72BFEA04267
:20374000B6D10F4A01E0013AB2D0BDF80A3003F44063B3F5806FF6D1BDF80A30094A9BB275
:203760001360BDF80A30A3E707B0BDE8304008F0D1BE00BF002008400020086000100460E7
:2037800020A10700F409002008B508F009FE052803460ED0032806D080B903220C4B01205D
:2037A000C3F8D02108BD0222094B0120C3F8D02108BD074A0120C2F8D03108BD012801D0A2
:2037C000002008BD0521024AC2F8D01108BD00BF0020084008B5FFF763FE012804D1FFF703
:2037E000C3FE012800D108BDFFF74CFF002008BD08B5FFF7FBFEFFF7B7FE012800D108BD0D
:20380000FFF740FF002008BD38B5194B194A1978D2F89C210029184C18BF0024D30700D48C
:2038200038BD08F073FE02464FF080550021134B134898615C611446D5F8B0211961136A4F
:2038400019209847D5F8B03112201B6A9847D5F8B03119201B699847D5F8B03112201B695E
:203860009847002CDCD1BDE8384008F053BE00BFB2470020002008400000C0800010046076
:2038800000004080094B1B782BB100231946084A116153617047074A074B0849002808BF11
:2038A0001346034A11615361704700BFB2470020001004600200C0800800C0800000C0806F
:2038C000044A054B1178054A002918BF00235361704700BFB24700200000C0800010046058
:2038E000014B1868704700BFF809002038B50B460446154600211A4613F0D0FC0122637B31
:20390000258062F30303637338BD00BF014B1860704700BFFC09002010B5064B06495C6895
:2039200006480C6000234FF43441054A06F042F8012010BD00300440040A0020100A0020A9
:20394000B5390000164B1B6843B370B59B68984708B9002070BD08F0D9FD0023114A124EDE
:203960005468326814F1804143F10003914273F10003054603D3346065B1012070BDFEF7AC
:20398000DDFE0A4A0A4913680860013313603460002DF2D108F0BEFD012070BD00207047BF
:2039A000FC09002000300440040A00200C0A0020000A002010B5134B1B68B3B19B689847F4
:2039C000D8B9114C236A984701280ED1FFF7BAFF636A0446984744B1BDE8104000234FF490
:2039E00034410A4A0A4805F0E5BF0023BDE810408021064A064805F0DDBFFFF7A3FF044649
:203A0000E9E700BFFC09002078790100B5390000100A002070B5204E3368002B39D09B6873
:203A20000446984708BB1D4D2B6A9847FFF78AFF6B6A98471A4BB4F1404F1D681CD83268DD
:203A4000184BB2F90C101A68CB17891A63EBE273091945EB03052D0243F609520023080248
:203A600045EA116113F066F970BDFFF76BFF0C4BB4F1404F1D68E2D9FEF760FE0A4B1B68C0
:203A8000C3F17E4303F57203C34248BF05F1FF35D5E7184670BD00BFFC09002078790100F1
:203AA0000C0A0020080A0020000A002010B5104BD3F89C31DA0704D4FFF7F2FC012800D026
:203AC00010BD0C4C23695B0204D46FF00042094B1A6110BD0122084B08481A7006F078FB0A
:203AE0006FF480036FF000422361024B1A61F0E70020084000100460B34700207C05002085
:203B000008B5114BD3F89C31D90704D4FFF7C8FC012800D008BD08F0F9FC0C4B1A691202E9
:203B20000BD40A4B1A6912F00A0F1CBF6FF00A021A61BDE8084008F0EDBC6FF400020448B3
:203B40001A6106F045FBECE700200840001004607C050020014B1878704700BFB4470020F7
:203B600008B5FFF70FFC30B1034B5888A0F10200B0FA80F0400908BD340A00207D2901D9DF
:203B80000120704708B50A460146024813F094FA002008BD0A0D002010B588B040F60202CB
:203BA000182102A8FFF7A2FE012211499DF818300968104C898823F00F03ADF81A1002A8B6
:203BC00001A907948DF818308DF81620FFF7E2FB012802D0002008B010BD02A8FFF744FCC5
:203BE000A0F10100B0FA80F0400908B010BD00BFCC050020A0050020F8B50E4D00200E4E52
:203C00002C680E4F06E02379022B06D024682B68A34209D02379032BF5D133782BB12468AE
:203C20002B680120A342F5D1F8BD384606F0D0FA0120EBE7FC0C0020B24700207C0500205D
:203C400030B583B0FFF74CFE0446FFF79BFB08B903B030BD0A4801A9FFF79CFB0128F7D15B
:203C6000FEF76CFD6FF03F052D1A03E0FEF766FDC542EDD5638803F44063002BF6D0E7E7B4
:203C8000010001040B280BD00C2801D001207047042A08D139B10A4B00201B680B60704728
:203CA000082A00D109B902207047064A4B1E073112F8010903F8010F8B42F9D100207047E8
:203CC000300A0020630A0020082200B585B000210DEB020013F0E2FA42F2034302A801A921
:203CE000ADF80830FFF756FB20B19DF90A30803303D0002005B05DF804FB9DF80C0000F0BF
:203D00000C00A0F10400B0FA80F0400905B05DF804FB00BF082210B584B00DEB0200002199
:203D200013F0BCFA02229DF80C3042F2034462F301038DF80C300CE0082200210DEB02000F
:203D400013F0ACFA02A801A9ADF80840FFF722FB38B19DF80C0000F00303022BECD004B049
:203D600010BDFF2004B010BD2DE9F043DFF8CC8083B081460F46D8F80060FEF7DFFC304D9E
:203D80002D1A03E0FEF7DAFCC5421DD53479022CF8D0032C13D1D8F800100B7A062BDEB259
:203DA00002DDB51FBD4211DD00231D4628460A680B71C8F800200B7203B0BDE8F083002534
:203DC000284603B0BDE8F0833479E2E72A460931484613F071F90422D8F80010F31CCB5C53
:203DE000184F5BB23B70331DCB5C05363144164E03F03F030DEB0200337013F05DF9019855
:203E0000FFF708FE114B124A1B7810605BB100222846D8F8003019681A72C8F800101A71E7
:203E200003B0BDE8F0833978042049B289B207F045FD2046317807F041FDE8E7040D00202F
:203E4000F4FEFFFF93080020B1470020B2470020300A002030B583B0FEF770FC194C241A10
:203E600006E0FFF731FF38B1FEF768FCC44203D5FFF788FA0028F4D101A91348FFF78AFA32
:203E80006FF03F04FEF75AFC104D241A06E06888022808D1FEF752FCC44203D5FFF772FA3E
:203EA0000028F4D1688842F20243984207D042F20743C01AB0FA80F0400903B030BD01207F
:203EC00003B030BD00FEFFFF01000104340A002008B5FFF757FA30B1044B5B88022B14BFCB
:203EE0000220012008BD022008BD00BF340A002030B583B0FFF746FA30B1134C6388022B10
:203F000002D1012003B030BD0F4801A9FFF742FA012802D0002003B030BDFEF70FFC6FF0C0
:203F20003F05094C2D1A03E0FEF708FCC54209D560880228F8D1A0F10200B0FA80F040090F
:203F400003B030BD6088F6E7340A002008B5FFF723FE012801D0002008BDFFF7C9FFC0B2BB
:203F600008BD00BF10B5FEF7E9FB1A4C241A06E0FFF7AAFE38B1FEF7E1FBC44203D5FFF769
:203F800001FA0028F4D1FFF7FDF9134C20B16388022B01D1FFF75EFFFFF774FBFFF7A4F9E8
:203FA00000220E4B62801979022908BF1A710C4B1A79022A04BF00221A710A4B1A79022AFB
:203FC00004BF00221A71084B1A79022A04BF00221A7110BD00FEFFFF340A0020CC0A0020D2
:203FE000580B0020E40B0020700C002008B5FFF7B1FD012801D0FFF7B5FF012008BD00BFE9
:2040000010B5FFF7A7FD012808D0FFF73BF9FFF7B9F928B11D4B5B88022B01D1012010BD5D
:204020004FF0010C4FF0840E19481A4B44791A496CF3830401601860A0F806E044714879CA
:20404000164A6CF383000A60A1F806E04871507959796CF383006CF383011360A2F806E029
:20406000A3F806E050715971FFF724F9FFF7B2FB012801D0002010BDFFF7C6FBFFF78CFD61
:204080000128F7D1BDE81040FFF732BF340A0020CC0A0020700C0020580B0020E40B0020D1
:2040A000F8B50025354E3648FFF734F8FFF76CFB8C222946304613F0F1F88C222946314899
:2040C00013F0ECF88C2229462F48304C13F0E6F88C2229462E4813F0E1F82E4F2E4B802201
:2040E000294620463E601E607D6013F0D7F842F601032A4E2360A623304642F202024FF231
:20410000F001276101272377E36820F8022B1940234AA369C4E901551A4094F83730C4E905
:20412000085567F3030384F837301E4BE5830B43E3601D4B04F118011343A3611B4B022223
:204140006361A56312F0B8FF3A4604F11A01301D12F0B2FFFFF754FFB84202D02C4620465D
:20416000F8BD04461248FFF7D1FBFFF7D5FB2946104805F037FF2046F8BD00BFCC0A00209C
:204180008C050020580B0020E40B0020340A0020700C0020FC0C0020040D0020B40A0020AB
:2041A000007C008000011AB10702FF6FBC0A0020B07901007C05002070B5FFF7CBFC012804
:2041C00035D0FFF7DFF8A8B3224E7388022B31D1FEF7B4FA204C241A06E0FFF775FD38B194
:2041E000FEF7ACFAC44203D5FFF7CCF80028F4D1FFF7C8F8D8B100257388022B26D1FFF726
:2042000089FDFF2822D000F00300441E18BF012475B1FFF79FFC01280AD0FFF7A3FE2046F7
:2042200070BDFFF797FC012801D0FFF79BFE0124204670BDFFF7E4FE01280446F1D1FFF784
:20424000A1F80028E5D02546024ED5E70124002DEED0DEE7340A002000FEFFFF70B588B0E5
:204260000546FFF78FF800285AD03A4B5B88022B56D10024FEF762FA6FF01F06361A07E038
:20428000FFF722FD012854D1FEF758FAC64252D5FFF778F80028F3D1182142F6014202A895
:2042A000FFF724FB00222C4BE8B28DF81700069304929DF81430012062F303038DF81430CD
:2042C000FFF7E0FA02A801A9FFF764F8D0B1234DBDF80A302A7803F4406333B982B3BDF876
:2042E0000A3003F44063002BF8D0BDF80A50ADB2B5F5105518BF0125FFF7E2FA3CB9284648
:2043000008B070BD0125FFF7DBFA002CF7D0FFF721FC0128F3D0FFF725FE284608B070BD69
:20432000FFF76EFE01280446A4D00125284608B070BD0028B0D034B90225284608B070BDAC
:20434000FEF7AEFDC4E7FFF705FC0128F4D0FFF709FEF1E7340A00200A0D0020B2470020AB
:204360007D2801D901207047FFF778BF7D2901D90120704710B50C460A460146034812F066
:204380009BFE2046BDE81040FFF768BF0A0D002010B5FFF7DFFB01281AD0FEF7F3FFB8B1DD
:2043A0000C4C6388022B13D1FEF7ECFF60B9FEF7E9FF68B16388022B0AD1FFF7ABFCFF2803
:2043C00006D0C0F3801010BDFFF77EFC0028EED0002010BD340A00200B2810B502D0012467
:2043E000204610BD082A23D111B3154A01F1080313F8010D8B4202F8010BF9D1FEF7C2FFD8
:2044000004460028ECD00F4C6388022B15D1FEF7B9FF80B16388022B0DD1FFF71BFD01280A
:2044200009D00324FFF764FD012818BF0324D7E70224204610BD0024F4E70024D0E700BF4E
:204440005C0A0020340A002030B585B0072800F2BB80DFE800F029323D474A7176045B4C90
:204460002177FEF78FFF002838D06388022B35D1FEF788FF002800F08C806388022B40F0EB
:204480008880FFF7E7FC012818BF032400F08180FFF7AEF901287ED0FFF72AFD012818BFF2
:2044A0000324204605B030BD012900F08780002974D00224204605B030BDA1F10B030F2B37
:2044C000F7D8424CC9B2A37B8B4207D0A173C8E73E4C6186FEF756FF0028C6D1002420467B
:2044E00005B030BD394C2186BBE731F00703E0D1364C01F00103228B3548C1F3400543F0A3
:20450000020302F4FE4243EA850313430278C1F38001914223830170A3D104F11801022216
:204520002C4812F0C9FD2C4803A9FEF733FF00280CBF03240024B4E731F00103B9D1CCB2F2
:20454000AFE701F115031A2BB3D86FF014030C25224A01E052F83530994229DD013DF9D25E
:20456000FEF710FF044600289BD00422002103A812F094FE1022194B03A803EBC505AB88A8
:2045800002A90024ADF80E30ADF80C20FEF702FF87E700247CE7FFF7D5F97DE70191FFF7FD
:2045A000D9FA01289AD0FFF7DDFC01990C4678E70A4B0B4A03EBC5031360D1E7FFF720FDDD
:2045C00001288BD003246CE701246AE7340A0020B2470020B60A0020B40A0020C0790100F8
:2045E000CC050020D1B170B50C4684B0182813D8DFE800F03EB0AB684D0D16A5736D39127A
:20460000121235312C281224201C0DB56400002318460B6004B070BD0120FBE7022070477B
:204620005D4B00201B681B680B60F3E70A2300200B60EFE7202300200B60EBE703230020F3
:204640000B60E7E7052300200B60E3E76FF0140300200B60DEE71A2300200B60DAE70B2327
:2046600000200B60D6E74D4B00201B780B60D1E7FEF788FE002800F08A80494B5888A0F1E2
:204680000203B3FA83F35B0900202360C2E70023434A0B60137E03F001030B60127E52074B
:2046A00044BF43F002030B603E4B1B78002B44D00B68002043F004030B60ABE77D2300206F
:2046C0000B60A7E7364B00201B8E0B60A2E7364B00201B785BB20B609CE7FEF753FE002806
:2046E0003FD02F4B5B88022B3BD10026082200210DEB020012F0D2FD02229DF80C3042F2B0
:20470000034562F383038DF80C300AE0002102A812F0C4FD02A801A9ADF80850FEF73AFEBF
:2047200048B39DF80C2002F00C02082AEED03EBB9DF90A30236080332BD000206AE7184BFF
:20474000002093F91C300B6064E7154B00205B8E0B605FE7124B00209B7B0B605AE7182317
:2047600092E7FFF74DFC01280646BFD06FF07F03032023604EE780238DF80A30002EF5D06C
:20478000FFF7E8F90128D3D0FFF7ECFBD0E703467AE703203EE700BFCC050020B147002028
:2047A000340A0020B24700209308002008B500F077F880B208BD00BF00F004B938B54FF01C
:2047C0008055D5F8B83104205B699847D5F8B83104205B6B984701280446F7D1D5F8B83117
:2047E00040F20140DB699847034B044A9C62936A9B07FCD538BD00BF002008600020084075
:20480000034B1B68002B0CBF02200120704700BFC00D0020F8B5038804465BB3B3F5847FF0
:204820002DD1194B1B788B4201D00120F8BD174D2B686BB14FF080530026154AD3F8CC319D
:2048400057685B680220984739462B6898472E604FF08053D3F8B83140F201409B6A984739
:2048600001210C4B0C4A9962936A9B07FCD50B48FEF756FC4FF4847323800120F8BD00238E
:2048800023800320F8BD00BF94080020C00D0020008002400020086000200840D00500208E
:2048A00070B52B4B1B686BB12A4900230A4612F8014B002C3CD10133042BF8D1254620464C
:2048C000294670BD4FF08053D3F8B83104205B6B9847012837D0FFF771FF1F4A1F4B92684A
:2048E0001A4210D101221E4BC3F8F02FD3F8F02F002AFBD110464FF4807108F073FB012222
:20490000184BC3F8A82207F001FE0646124A9368DB07FCD54FF08053D3F8CC3102205B68A4
:20492000556898470446002EC9D107F0F3FDC6E700200D4AC85402EBC30552F833406D685B
:204940002046294670BD094BDB6B9A07C5D4C2E7C00D0020C40D00200080024001000080B7
:204960000090024000005042A00800200020084038B500244FF080510E4D0F4AC5F8A84227
:20498000D368D1F8B01123F00103D3604B6931209847224620464FF4807108F023FB0121EA
:2049A000064BC5F8A812224619780548BDE8384005F0DCBB00005042008002409408002030
:2049C000E405002010B5074C2378802B00D010BD05F000FB0346002123700348BDE81040A6
:2049E00005F000BB94080020E405002008B507F08DFD003818BF012008BD00BF80F3108845
:204A0000704700BF827A044B03EBC2035B68181AB0FA80F040097047C80D00202DE9F043D5
:204A20004E4F827A0121064685B007EBC20202E0C2E8441F4CB1D2E84F3F13F0FF05F7D082
:204A40000325284605B0BDE8F083BFF35F8F4FF08059B37ADFF8088107EBC3077E60D9F843
:204A6000B431F078DB6B9847B37A08EB03135868D9F8B8315B699847B37AD9F8B82108EBA7
:204A80000313526B5868904701280746F4D1D9F8B831DA69B37A08EB031398689047314BEB
:204AA000314A9F62936A9B07FCD503204FF08051B37A1B0158F80320536923F00F03536186
:204AC000B37A1B0158F803301862D1F8C4311F68B37A1B0158F8030033893BB1337A002B2F
:204AE00035D1737A002B0CBF03240124082322464FF08054019373681C4900930023B84752
:204B0000B37A96F800C0D4F8B471B27871781B01CDF800C058F803007F6C4FF0FF33B847C7
:204B2000B37A1B0158F80320536843F002035360B37AD4F8C4211B01126958F8030003A99F
:204B400090470028F4D1284605B0BDE8F083737A002B14BF03240224C8E700BFC80D0020BB
:204B6000447A01000020086000200840006CDC0270B5264D837A05EBC3025268904201D095
:204B8000042070BD4FF08051214A044602EB03139868D1F8B8311B6A984701211D4B1E4AF4
:204BA0009962936A9B07FCD54FF08056D6F8B43160789B6B9847D6F8B4314FF400516078E6
:204BC0009B699847D6F8B431A0789B6B9847D6F8B4314FF40051A0789B699847D6F8B4314D
:204BE00020789B6B9847D6F8B4314FF400519B69207898470023A27A05EBC2025360A27AB4
:204C0000BFF35F8F184605F8323070BDC80D0020447A010000200860002008402DE9F04F11
:204C20009846334D837A164605EBC3056A6885B0904203D0042005B0BDE8F08F4FF0805944
:204C40002C4D044605EB03135868D9F8B8310F465B6B9847012849D1A37A2749886F05EB60
:204C60000311C9681B01084240D0DDE90E210A44B242B8BF3246002A019235D0D8BF0DF1FC
:204C80000C0A24DD4FF0000B0DF10C0A5E45D4BF002117F80B10E8580391D9F8C4315B68C1
:204CA0009847A37A51461B01E858D9F8C431DB6898470E9B5B45C4BF039B08F80B30019BDC
:204CC0000BF1010B5B45A37A4FEA0313DED14FF0805601E0A37A1B01D6F8C421E858514658
:204CE000136998470028F5D10020A4E70520A2E7C80D0020447A010000200840024B012187
:204D000081209B68184700BF4C790100024B012181209B68184700BF1479010010B5094C32
:204D200020220021204612F0B9FA074B01205B68984720210346054A204608F09FF92046AB
:204D400010BD00BFD80D00204C790100647A010010B50B4C20220021204612F09FFA094B49
:204D600002205B6898470346C3EB431C03EB8C0320212046044A5B1108F080F9204610BD97
:204D8000D80D00204C7901007C7A010010B5094C82B001A802F01EFB20220021204612F086
:204DA0007DFA20212046019B034A08F067F9204602B010BDD80D00208C7A010080224FF4BE
:204DC000A061142002F0ECBA10B5104C202200210F4812F063FA8220E368984703280ED1F6
:204DE0006368012098470B4A03462021084808F045F90121A36881209847054810BD20217B
:204E0000054A034808F03AF9014810BD14790100D80D0020A07A0100B47A0100024B01216B
:204E200081209B68184700BF4C79010010B503880446442B06D0452B0ED0BBB1002323808B
:204E4000032010BD0D4B1B788B4212D18AB1002045230B49088023800A49094800F07CF87D
:204E6000012808D944232380012010BD00F0DAF8F8E7012010BD002010BD00BFD4470020BA
:204E8000F80D0020894E00000146014808F0D0B8F07A01000021014805F0A4B804060020B6
:204EA0002DE9F0430024012607460D46DFF85480DFF85490B1B084B1E30717D54246C02183
:204EC0002B78684608F0DAF86846B847082E15D0013401360135002CEED14246C02168464B
:204EE0002B7808F0CBF86846B847F1E74A46C021684608F0C3F86846B847DFE731B0BDE804
:204F0000F08300BF148E01000C7B010010B5BAB00A460446282168460DF00AFB6B46C021E0
:204F2000034A0AA808F0AAF80AA8A0473AB010BDF07A010009B1FFF7B3BF10B5B0B004468C
:204F4000C021044A684608F099F86846A04730B010BD00BF107B0100F0B5038805460E468F
:204F6000B1B01BB3702B1CD1274B284F1868436831463A6826489847012838D96C46254AA5
:204F8000C021204608F07AF82046B04730462249FFF786FFC0212046204A08F06FF8204631
:204FA000B047002303202B8031B0F0BD13781446202B03D114F8013F202BFBD0002BDDD03D
:204FC0002021204612F0BCF9104F386018B1002300F8013B3860204600F014FE0A4B18608F
:204FE00040B100220A4B1A8070232B80BFE7002031B0F0BD6C46C0212046094A08F03EF8A3
:205000002046B047BBE700BF000E0020FC0D0020040E0020587B0100542400205C7B010005
:20502000207B010000F0D6BD30B503880446B1B023B100230320238031B030BD0D46064A08
:20504000C021684608F01AF86846A847034B04489B6A9847EDE700BF607B0100108A010092
:20506000847B010030B503880446B1B023B100230320238031B030BD0D46064AC021684658
:2050800007F0FCFF6846A847034B0448DB6A9847EDE700BF8C7B0100108A0100847B01008D
:2050A0002DE9F04103888046B0B033B100230320A8F8003030B0BDE8F081124A0D466846AB
:2050C000C02107F0DBFF6846A8470F4805F082F907460028EAD00D4E7C6823685BB1A368AA
:2050E0003246C021684607F0C9FF6846A84754F80C3F002BF3D1384605F018FA07460028CD
:20510000EAD1D3E7B07B0100440E0020B07C01002DE9F04103880446CEB053B91C4B0E46EE
:205120001B7B63B9C0211B4A1EA807F0A7FF1EA8B0470023032023804EB0BDE8F0810FF05B
:20514000EFFB0028EED0144F386806F00DF90546C021124A1EA807F091FF1EA8B047002DC1
:20516000E7D0DFF83C802A46782168460FF0E0FA6B464246C0211EA807F080FF1EA8B04742
:205180002946386806F0B8F805460028EBD1D0E7603A0020C87B010068080020E07B01008A
:2051A000B07C01002DE9F04303880546B1B02BB1002303202B8031B0BDE8F0830E46154AC9
:2051C000C021684607F05AFF6846B047124CDFF84C90DFF84C8004F1600714F8023C13B12D
:2051E000237C012B03D92034BC42F6D1E0E74A46C021684607F042FF6846B047214630464F
:20520000FFF784FE4246C021684607F037FF6846B047E8E7F07B0100BE370020087C010058
:20522000A48D010070B503880646B4B023B100230320338034B070BD0C46794AC021794D42
:2052400004A807F01BFF04A8A0472B7B002B00F0D3806B7BC021744A04A807F00FFF04A808
:20526000A047724B1B699847002800F0CD80704AC02104A807F002FF04A8A0476D4AC02158
:2052800004A807F0FBFE04A8A04720466A49FFF73DFE95F85430C021684A04A807F0EEFE62
:2052A00004A8A047664AC02104A807F0E7FE04A8A04720466349FFF729FE634AC02195F865
:2052C000403004A807F0DAFE04A8A047AB7BC021032B96BF5D4A5E4B52F8233004A85D4A86
:2052E00007F0CCFE04A8A047AB681A8C002A00F08D80574B5849012A08BF0B46C021574A72
:2053000004A807F0BBFE04A8A047EB8AC021544A04A807F0B3FE04A8A0472A7EC021FF2A11
:2053200016BF6B8B4FF0FF33534304A84D4A07F0A5FE04A8A04795F85E30C021032B96BFAC
:20534000494A434B52F8233004A8484A07F096FE04A8A047C021464A04A807F08FFE04A8E6
:20536000A047686C002853D00FF008FB01462046FFF7CCFD6B6CC0219B793E4A04A807F0C2
:205380007DFE04A8A047B5F84A30C0213A4A04A807F074FE04A8A047AB8AC021374A0093A1
:2053A00004A8B5F8483007F069FE04A8A047EB7BC021334A04A807F061FE04A8A04795F845
:2053C0005B30C0212F4A009304A895F85A3007F055FE04A8A0476A7C2B7C00921344AA7C19
:2053E00001930292C02195F85730274A04A807F045FE04A8A0471AE7C021244A04A807F0B3
:205400003DFE04A8A04712E7214A31E7214B75E7C021214A04A807F031FE04A8A047B2E730
:20542000207C0100603A0020447C0100108A0100587C0100787C01007C3A0020847C010018
:20544000947C01008C3A0020A07C01003C8501000C7C0100A87C0100187C0100B47C010002
:20546000C07C0100DC7C01002C850100007D0100107D0100287D0100447D0100547D01009E
:20548000707D0100847D0100B47D0100307C0100687C0100147C01003C7D010030B503889D
:2054A0000446B1B023B100230320238031B030BD0D46054AC021684607F0E0FD6846A84714
:2054C00002480DF01FFEEEE7F47D0100847B01002DE9F041B0F800800546B0B0B8F1000F4F
:2054E0003CD10E461446002A4CD01778002F69D138464D4911F08AFF00284AD101234B4F14
:205500003B6014B12378002B66D10CF09BF80346474C59689A680068DB680FC43B681BB311
:20552000444F3B699847044600283BD1424AC021684607F0A3FD6846B04730463C49FFF78F
:20554000E5FCC0213D4A684607F098FD6846B047BB68214636489847FB68984700230320B4
:205560002B8030B0BDE8F081324C2369984708B3C021334A684607F081FD6846B047E36974
:205580009847EBE717462849384611F03FFF0028B4D038462B4911F039FF002838D1234F55
:2055A0003860AEE7C0216846274A07F067FD6846B047D3E7C0216846244A07F05FFD684606
:2055C000B047CBE72021104611F0BAFE2746E8B100F8018B04468BE72021204611F0B0FE36
:2055E00008B100230370204611490CF02DFF8046002893D12346C021154A684607F03EFD99
:205600006846B0470220A5F80080AAE704466FE73B46C0210F4A684607F030FD6846B04743
:20562000002302202B809CE7107E0100180E0020200E0020108A0100447E0100687E01008F
:205640008C7E0100147E0100707E0100B47E0100307E0100187E0100F0B503880646CBB04D
:2056600023B10023032033804BB0F0BD334A0D461AA8C02107F002FD1AA8A8470CF08AFC19
:205680000CF03CFC044600284FD0C0212C4A1AA807F0F4FC1AA8A8472846211DFFF736FCC0
:2056A000A369002B2ED1C021264A1AA807F0E6FC1AA8A8470DF09CF800282EDD0DF098F8C6
:2056C000C0210346204A1AA807F0D8FC1AA8A8470DF06CF904460028C3D01C4F2246642139
:2056E00001A80DF0CFF93A46C02101AB1AA807F0C5FC1AA8A84720460DF05EF904460028D8
:20570000ECD1AEE7C021124A1AA807F0B7FC1AA8A8470DF06DF80028D0DCC0210D4A1AA8AD
:2057200007F0ACFC1AA8A8479BE7C0210A4A1AA807F0A4FC1AA8A847BCE700BFCC7E0100AB
:20574000087C0100F87E01001C7F01003C7F0100DC7E0100447F0100107F0100F0B5078812
:2057600004460D46B3B0D7B19B2F13D1474E3368002B4FD0464804F097FA70B13368002B7F
:2057800048D0C021434A02A807F078FC02A8A8470023336000230320238033B0F0BD16464A
:2057A000002A5BD01378002B58D02021104611F0C7FD00B10770304637490CF045FE0746B0
:2057C000002857D0354AC02102A807F057FC02A8A84728463049FFF799FBC021304A02A817
:2057E00007F04CFC02A8A8472E4A2F4B1268274E4FF4207126481A60356004F037FA042353
:205800000022802124480CF043FD9B2323803368002BAFD1254AC02102A807F02FFC02A8B0
:20582000A84728461C49FFF771FB214A214B16881F78FCF753FF4FF47A721549009709685E
:205840003346401A02FB00F0C0090190C0211A4A02A807F013FC02A8A8479BE7C021174ADC
:2058600002A807F00BFC02A8A84700230220238033B0F0BD3346C021114A02A807F0FEFB20
:2058800002A8A8470220278087E700BF080E0020480E0020AC7F0100340E0020A07F01001F
:2058A000A48D0100082300200C0E0020B87F01008E470020B5470020D47F0100587F0100BC
:2058C000847F010030B503880446B1B023B100230320238031B030BD0D46094AC0216846E9
:2058E00007F0CCFB6846A84728460649FFF722FBC0216846044A07F0C1FB6846A847E6E783
:20590000F47F010054240020A48D01002DE9F04303880646B3B02BB100230320338033B00E
:20592000BDE8F0830D460CF077FA0446002844D0C021274A02A807F0A1FB02A8A847DFF80A
:205940009490DFF894804A46C02102A807F096FB02A8A84720460CF057FA01462846FFF79E
:20596000D5FA4246C02102A807F088FB02A8A84720460CF04BFA01462846FFF7DBFA627C2D
:205980001649042A94BF51F82270154F237CC021144A02A8009707F071FB02A8A847C021EC
:2059A000114A02A807F06AFB02A8A84720460CF039FA04460028C6D1AEE7C0210B4A02A8DA
:2059C00007F05CFB02A8A84702203480A7E700BF24800100087C01003C8001001885010038
:2059E0000C7C010044800100A48D0100088001002DE9F043B3B08046C021114A114C02A8E9
:205A000007F03CFB02A8C0472568ADB1DFF8389063681E68304604F00FFA07462B464A460B
:205A2000C021CDE9006702A807F028FB02A8C04754F80C5F002DEBD133B0BDE8F08300BF99
:205A40005C800100680600206C8001002DE9F04306880446B3B0002E39D10F46154612B1BF
:205A60001378002B39D1002004F0C4F900253C4B18602B46C0213B4A02A807F0FFFA02A856
:205A8000B8473846FFF7B4FF00230220238033B0BDE8F0832021404611F052FC08B100230B
:205AA00003700A22404601A911F0B2FE2E4B1860002841D1019B43452CD03368984203D0D3
:205AC0000146284604F072F93846FFF791FF00230320238033B0BDE8F0832021104611F032
:205AE0002FFC814658B38046284608F8016B04F081F91B4E294630601C4811F087FCB8B9DA
:205B000099F80130002BC5D14FF0FF324FF00008154B1A604346C021154A02A807F0AEFA5F
:205B200002A8B84700230220238033B0BDE8F08333680133E4D19CE70428EBD8BDE72846D1
:205B400004F058F90346064E29460848336011F05DFC0028D8D033680133D5D189E700BF43
:205B6000300E0020848001001C0E002080800100A080010030B503880446B1B023B1002344
:205B80000320238031B030BD054A0D466846C02107F074FA6846A847FCF7CAFEEFE700BFEE
:205BA000C0800100074A106858B130B40024064D06482970064914600B80006830BC04F0FA
:205BC00007BB7047080E0020B54700200C0E00208E47002010B5074C204604F0F7FB204601
:205BE000054904F0F9FBBDE81040044904480CF08FBB00BF440E002014060020A55B000030
:205C0000100E002070B505460E4804F0E3FBA8B106467468206818B90AE054F80C0F38B19A
:205C2000294611F0F3FB23460028F6D1184670BD304604F07BFC06460028EAD10023184692
:205C400070BD00BF440E0020022A39D0032A29D0012A10D04FF0000C024601F1100380F870
:205C600000C013F8010D994202F8010FF9D110221D4B1A707047034600B54FF0000E00F185
:205C80000F0C03F8022B03F801EF6345FBD10F2291F801C0144B80F801C009781A70817053
:205CA0005DF804FB8446027001F1100313F8012D99420CF8012FF9D110220B4B1A70704774
:205CC000844601F108030CF8012B13F8012D8B420CF8012BF9D100231021034A43724381B3
:205CE000C360037411707047B74700200B78032B10D8DFE803F0021D100201F111030138F1
:205D0000013113F8012D8B4200F8012FF9D110220A4B1A70704701F10803013813F8012926
:205D20008B4200F8012FF9D10822044B1A7070478B7803704B784370704700BFB64700206B
:205D400070B50F4D0F4C29460646256004E021686039A942216011D30B78FF2BF7D110222A
:205D6000304611F075F938B1102221683046114411F06EF90028EAD1206870BD002070BD82
:205D8000781F002014200020F8B5114A114C13460F462260461CA2F120050DE010223046B4
:205DA00011F056F960B92068C369BB420FD0A0F12003AB42236009D3591CDB69002BEDD148
:205DC0002068A0F12003AB422360F5D20020F8BD782000202420002070B588B06D46437894
:205DE000044603F00F03022B01464FF01002284636D004AE11F060F910222146304611F0FF
:205E00005BF902238DF811302A4B2B4C1A782360FF2A04D10020603B236008B070BD3046AB
:205E20000BF086FE002837D060220021206811F035FA29461022206811F03EF9102220683E
:205E40003146104411F038F92022206801231021104404F04FFD054620B3206808B070BD07
:205E600004AE11F029F910222146304611F024F99DF8013001E0052B0BD8013328468DF83F
:205E800001300BF055FE9DF801300028F3D0052BBAD9002008B070BD30460BF0FDFC002878
:205EA000C2D1F6E701461022206811F0F7F92846B3E700BF781F0020142000202DE9F84F51
:205EC00090F85730634E052B0446306076D8012904D0013384F85730BDE8F88F4FF0000EFC
:205EE00060234FF0110B4FF06D0A4FF028095A4DDFF8688185F806E02B60436805F12A027C
:205F0000DB6905F1180CC8F800200FCB8CE80F00534F85F828B085F82AA085F82CE0636854
:205F2000A7F800901B78032B19D8DFE803F0836E5602022385F82930122385F82B30C02392
:205F400085F82C3061684748FFF7D0FE0123EB873B88454A18333B8013881833138094F859
:205F60005630204685F82D3004F0E0FA70B395F82900316805EBC000B1F854203030583165
:205F800011F09AF833683A88B3F85430324813449BB2A3F1280189B23B800BF02DFA336854
:205FA000324C44330FCB84E80F00002009F0FAFA0BF0E2F9346894F857308AE7183003F059
:205FC00063FD00223368DA60BDE8F88FD8F80020937843F020039370C9E70A234FF00109C4
:205FE00085F82B30802385F8299085F82C3061681F48FFF77BFE3B881B4A10333B801388B7
:20600000A5F83A9010331380A9E7002385F82930042385F82B30402385F82C30616811485D
:20602000FFF764FE3B88104A08333B8013880833138094E7002385F82930022385F82B301B
:2060400030233B800123084AEB8513880833138085E700BF1C20002018320020182000209A
:20606000A0470020463200209E470020203200204A3200202DE9F047274BDFF8A0A01D4635
:2060800000270646DFF89880CAF80030A3F1400906E0DAF80050203D4D45CAF800500BD3E8
:2060A000EB69002BF5D0B34222D0DAF80050203D4D45CAF80050F3D230460BF039FD08B16D
:2060C0000BF032FD06F110000BF032FD08B10BF02BFD736ACBB93046BDE8F0471022002183
:2060E00011F0DCB804F1180003F0CEFCE7606760A86904F0BDF90446C8F8000018B1E3685A
:20610000002BF4D0EEE7E861C3E706F1300003F0BBFC00237362DEE79820002024200020FE
:206120001C20002070B51B4C1B4DA4F17E0602E0123CB44215D014F8023C002BF8D06378D3
:2061400003F00F03022BF3D92046FFF7F9FD28600028EDD12046FFF73FFE123CB44228601C
:20616000E9D10E4C20462C6004E028686038A04228600ED30378FF2BF7D10BF0D9FC00285D
:20618000F3D12868FFF776FF28686038A0422860F0D270BDAE38002014200020781F0020AE
:2061A000224A2DE9F84300271346214C214D2260A2F12006DA690AB19A7C7AB123689A7CAC
:2061C0000AB1013A9A74203BB3422360F2D2FFF7A9FFBDE8F843184803F012BC986904F090
:2061E000F9F8286038B1C368002BE7D104F09EF928600028F7D1D4F8009001E0C8F80470BB
:20620000D9F8180004F034F98046286050B1D8F80C30002BF2D008F1180003F035FCC8F837
:206220000C70EBE7C9F81C00C8E700BF78200020242000201C200020E01F002010B56022E7
:206240000021204811F02AF8402200211E4811F025F841F2101200211C4811F01FF81C4835
:206260000BF06CFF01200BF0EDFA30B30022194B123003F1110103F8012B10F8012D03F8AC
:20628000012B9942F9D11022134B1A70002440F2FF324FF07C431148C0E90024C0E902437A
:2062A0000BF0FAFAFFF73EFF2346BDE810404FF4F0510B4A0B4803F07DBBFF22054B1A700C
:2062C000E4E700BF781F002058200020680E00201C06002000200020B7470020580E002029
:2062E000A1610000E01F00202DE9F84FB54C0546237EFF2B00F0868061892389A2890B4304
:20630000E1891343228A0B43618A1343A28A0B431343E28A13439BB2002B79D0AA4E3046C1
:206320000BF03EFA08B1012D72D0A379002B6FD194F82A306D2B6BD194F82C20DFF88CB2D3
:20634000A34912F01005CBF8001061D1920940F00181A04AA1F1130302F8015B233913F899
:206360000109994202F8010BF9D110229A4B1A709A48FFF7E5FCDFF868A20146CAF8000024
:20638000002800F009819348FFF7FEFCDBF80030DFF85082DB78DFF85092C8F80000A9F877
:2063A0000030002800F03481427C9A4230D8806904F010F880B3D8F800308C4F986904F056
:2063C00009F8386020B927E004F0B0F8386018B390F85620B9F800309A42F5D1DBF80030C1
:2063E0009B789B0640F1AA8104F0A0F8002800F0A58100223B6803F1080083F8572004F01C
:206400006FFA06E0637E03F00F03022B3FF674AF00252846BDE8F88FD8F80030002B00F0E8
:20642000F780734B714F0022184672493B6006E0A0F5367088424FF0010200F01B8143682D
:20644000002BF5D102B138604FF43672002110F025FFD7F800C0BCF1000F00F00D8196E889
:206460000F0094F828500CF14404112D84E80F00614906D04B7801EBC3010B7A0831112B1E
:20648000F8D15E4B0CF158001A885D4B283A1B88D21A4B7892B201EBC3015A4B0831ACF8C1
:2064A0005420196010F008FE10223868B9F80030114680F85630D8F80030083040F8043C31
:2064C000012304F017FA0546002800F0B280D8F80030986903F07EFFD8F8003000283ED057
:2064E000986903F077FF484C206030B9BFE004F01DF82060002800F0BA8004F017F8002890
:2065000000F0AB8020683A6890F8563092F85650AB42ECD204F00AF890F85630AB4217D075
:206520003B68206893F8565004F000F890F85630AB4200F28F803B68206893F8565003F0C8
:20654000F5FF90F856302068AB42D0D203F0EEFF2068CCE71F480431FFF776FB08E7986914
:20656000396803F067FF3A68D8F8003092F856205A741E20D97CDAF800200131D9749874A1
:20658000536A002B5DD1214982F85C3002F1200004F0ECF901253CE71048FFF71DFCCAF817
:2065A000000000283FF434AF012320221021203004F0A0F90746002800F0F280DAF8001070
:2065C000E1E600BF1832002020320020182000204232002030200020B7470020303200205D
:2065E0001420002024200020924700201C200020A01C0020900B002040320020A04700205E
:206600009E470020D81F002028200020657100006B4BD96B03F12002C8F80020002900F017
:20662000CD80DA69002A00F08E800023C8F80030EFE63C68E368002B40F0AC80002363605E
:20664000E7E6002302F1200082F85C30012504F047F9DEE6206803F069FFD8F800303A688E
:206660009869216803F02CFFD8F8003081E7D8F800307EE700233B600021524ADFF848B15A
:20668000DFF83CC111600CF140030A46CBF800100BE0D07C93F813E0864584BF1A4601210D
:2066A0009C45A3F1200008D00346D8690028F7D0002AEED11A460121F2E7444B444818601D
:2066C000002978D03F4B1A60002A74D0906903F0CFFECBF8000003F029FF002866D0DBF80F
:2066E000000003F023FFDBF8002090F856100025344B02F118001B68DA7C5974013ADA74C6
:2067000003F0C2F9DBF800305A68DD60D26982F85C505B68D869203004F0E2F829464FF494
:206720003672DBF8000010F0B9FDDBF800C0C7F800C0BCF1000F7FF492AE69E63868083080
:2067400004F0C4F865E6C8F80030002703F114009861DF745F6103F039FED8F800000028F1
:206760003FF456AE2022394610F098FDD8F8003003F1140098615F6103F028FE1122154921
:20678000D8F8000010F098FCD8F80030DAF80020DA6146E604F1180003F076F9E5604DE754
:2067A000DAF80000FFF766FC3D4632E6DBF8002092F856109BE700233B602AE61346C4E7DD
:2067C00058200020DC1F00202C20002098200020382000203020002008B505480BF0A8F934
:2067E00028B10120FFF780FD003818BF012008BD3032002038B5314C2578FF2D47D0304CEF
:206800002288B2F51E7F06D900222E4B1A80BDE838400AF0B1BD00252B49283A01F10800FC
:2068200010F0C0FC08222946274810F037FD274B274A9979284683F8281003F12A011160BA
:20684000244983F82E500A8883F82950013283F82D20D2B20A8040F26D21202259851E49FC
:2068600083F82C200A889D7108320A802288083292B2A2F1280122800A121A715971FFF700
:2068800033FD0028C0D0284608F08CFEBCE701200AF0D8FF80B100222346123004F1110186
:2068A00003F8012B10F8012D03F8012B9942F9D110220A4B1A70A2E72570A5E700200020B4
:2068C000A0470020A2470020403200201832002018200020904700209E470020B74700203A
:2068E0002DE9F04FDFF8ACA283B09AF81830FF2B0DD19AF8193003F00F03022B07D8A64E29
:20690000338828331AF8032053449F2A09D0A34B00930023009A138003B0BDE8F04F0AF091
