:020000040000FA
:20000000005000202110000019100000FD0F00001D1000001D1000001D1000000000000083
:200020000000000000000000000000001D1000001D100000000000001D1000001D1000000C
:20004000013100001D100000353A00001D10000045280000E52D00001D1000001D100000CC
:200060001D100000893A00001D1000001D1000001D1000001D1000001D1000001D10000082
:200080001D1000001D1000001D1000001D1000001D1000001D1000001D1000001D100000F8
:2000A0001D1000001D1000001D1000001D1000001D1000001D1000001D1000001D100000D8
:2000C0001D100000F9480000294B1B689B0702D44FF000407047F0B5452183B0002002F0BD
:2000E00023FA022201200DF1060101F0BFF838B901A8022101F0DCF84FF0004003B0F0BD90
:20010000022200200DF1060101F0B0F80028EFD0BDF806305BBAC3F303309CB2ADF8043006
:2001200010F0AEF90FF040FE0646C4F30B000F4610F0B6F90CA3D3E9002304460D46304628
:20014000394610F017FA02460B462046294610F011FA10F0BFFC07490FF09CFF10F018FEDB
:2001600003B0F0BDAFF300807B14AE47E17A843F380900200000C84208B51F4B1A68032A1A
:2001800033D1421E012A03462FD81C491C4A012B0988108811D010F073F90022194B10F08D
:2001A000E9F90022184B10F0E5F910F093FC17490FF070FF10F0ECFD08BD084610F060F948
:2001C0000022104B10F0D6F909A3D3E9002310F0D1F900220E4B10F015F810F07BFC0B492B
:2001E0000FF058FF10F0D4FD08BD4FF0004008BD0000000000A0644040090020D82F0020FB
:20020000D62F00200000F03E000059400000C84200004440000000002DE9F041704B1B68DF
:2002200053B30646062200216E4811F087F816F038085AD172071FD002F080FA6A4C6B4D3A
:200240002746286006E002F079FA2B68C31A0A2B40F18D806821012002F066F901223946DE
:200260003A2001F003F80021084602F05DF92378002BE8D0DB0704D44FF000484046BDE897
:20028000F081584C6821012002F04EF906222146432000F0EBFF054600286CD02346A01DC5
:2002A00019785A7859701A7002338342F8D10021084602F039F9042E6AD0022E70D0012E27
:2002C000DCD1B4F9040010F0EBF843A3D3E9002310F07AFA10F0FEFB45490FF0DBFE10F045
:2002E00057FD80464046BDE8F08102F027FA3E4C3E4D2746286005E002F020FA2B68C31ACA
:200300000A2B48D56821012002F00EF9012239463A2000F0ABFF0021084602F005F9237858
:20032000002BE9D0D907A7D52E4C6821012002F0FBF8214606223B2000F098FF0021054697
:20034000084602F0F1F8002D3DD02346A01D19785A7859701A7002339842F8D1202E22D046
:20036000102E2DD0082E33D04FF0000886E72378DB0781D585E74FF000482046062100F012
:2003800097FF2846294602F0CFF84046BDE8F081B4F9000097E72378D9077FF56DAFC3E7B5
:2003A000B4F902008FE7B4F9000001F0D1FA10490FF070FE10F0ECFC80464046BDE8F0819F
:2003C000B4F90200F1E70621204600F071FF53E7B4F90400E9E700BF00000000006060402F
:2003E0009009002068090020F12F0020940900200000C842000000002DE9F04F23F0004BF9
:2004000080465BEA020014461D460E4693B016D143467D49DB1886F400225241984271EBED
:20042000020324D2404622462B4631460FF0ECFECDE90001DDE9000113B0BDE8F08F114646
:20044000724A26F0004991459A463746434617DD07F1404707F580171F43E3D122196A49BB
:2004600085F400235B41974271EB0303DAD30023674CCDE90034DDE9000113B0BDE8F08FEE
:2004800040D0624A9345E3DC00F09380002F73DB0022029279B95D4A934500F08E805C4A7E
:2004A000934500F0A280BAF1804F00F0A084594A924500F0C6834046314604930FF0E0FDA1
:2004C000049BCDE900015BB3029AFB0F013B0A93134300F09380504B9B4540F3A38003F11B
:2004E00004739B454D4B40F31B84994540F39184BAF1000F40F39184002013B0BDE8F04F4C
:200500000FF0B8BD002B8DD1BBE74046314602930FF0B6FD029BCDE90001002B6ED10293A5
:20052000B9F1000F04D03A4B27F040429A42CBD1BAF1000F07DADDE900230020344910F077
:2005400043F9CDE90001002FBFF674AF029B09F1404909F5801959EA030340F06E84DDE9B9
:200560000023104619460FF04DFE02460B4610F02BF9CDE900015DE7294A93452FDCA2F1B8
:20058000547293450FDD4FEA2B52A2F2FF32142A40F34584C2F1340221FA02F000FA02F238
:2005A0008A4200F077840022029200293FF477AF81E700293FF46AAF4AE709F1404202F5CB
:2005C000801213433FF453AF144B994540F36D83BAF1000FC0F26383CDE900452AE702221C
:2005E000029200293FF457AF65E7BAF1000FC0F2F48340463146CDE900011BE74246404612
:2006000033463146AFE700BF0000F0FF0000F07F0000F03F0000E03F0000E041FFFFEF3F9C
:20062000FFFF3F43D44B3B40002B40F04783DDE900010022D14B0FF09DFF6FF03402894677
:20064000CDE900014FEA2953A3F2FF339A18CC4BC9F3130949F07F5699450B9246F44016AD
:2006600007DDC84B994540F3F58301320B92A6F580160022002300200027C349CDE9082380
:20068000CDE90601CDE91023DDE90001DDE90623314682460FF0B6FDDDE90623B34680465F
:2006A000894650463146CDE90CAB0FF0ADFD02460B460020B44910F087F88C4683466346CF
:2006C0005A4640464946CDE90EBC0FF053FF82468B46731043F0005303F50023D9190F4690
:2006E0005A46514600230020CDE900120093064602463B46CDE904ABDDE900AB5046594605
:200700000FF038FF02460B46404649460FF07AFDDDE9062380468946304639460FF072FD98
:2007200002460B46DDE90C010FF06CFD52465B460FF020FF02460B46404649460FF062FD82
:20074000DDE90E230FF016FFDDE90467CDE9060132463B46304639460FF00CFF74A3D3E9D5
:20076000002306460F460FF005FF73A3D3E900230FF04AFD32463B460FF0FCFE70A3D3E9B6
:2007800000230FF041FD32463B460FF0F3FE6EA3D3E900230FF038FD32463B460FF0EAFE0C
:2007A0006BA3D3E900230FF02FFD32463B460FF0E1FE69A3D3E900230FF026FD32468046FF
:2007C00089463B46304639460FF0D4FE02460B46404649460FF0CEFE06460F46DDE904011E
:2007E00052465B460FF010FDDDE906230FF0C2FE32463B460FF008FD5246804689465B463B
:20080000504659460FF0B6FE02460B46CDE90C2300225E4B0FF0F8FC42464B460FF0F4FCAC
:2008200000260F4632463B46504659460FF0A2FE002282468B4630463946544B0FF0E2FC44
:20084000DDE90C230FF0DEFC02460B46404649460FF0D8FCDDE904230FF08CFE3246804695
:200860008946DDE906013B460FF084FE02460B46404649460FF0C8FC804689460026424626
:200880004B46504659460FF0BFFC35A3D3E9002330460F460FF06EFE52465B4682468B4619
:2008A000304639460FF0AEFC02460B46404649460FF0A8FC2CA3D3E900230FF05BFE0246FB
:2008C0000B463046394616461F4629A3D3E900230FF050FE02460B46304639460FF094FCFC
:2008E000DDE910230FF090FC06460B980F460FF0D7FD8046894632463B4650465946CDE9E4
:2009000004AB0FF081FCDDE908230FF07DFC4FF0000A42464B460FF077FC42464B465046C0
:200920008B460FF06FFCDDE908230FF06BFC2FE0EF4E454A287ECA3F65DBC9934A86CD3F23
:2009400001411DA96074D13F4D268F515555D53FFFAB6FDBB66DDB3F033333333333E33F45
:20096000000000E009C7EE3FFD033ADC09C7EE3FF5015B14E02F3EBE0000F07F0000404325
:200980008E98030079B60B000000F03F00000840DDE904230FF036FC02460B4630463946D1
:2009A0000FF030FC029B0A9A013B13434FF000020CBFD54BD54BCDE90045CDE902230023F4
:2009C0000093DDE90089CDE9040142464B46204629460FF017FC52465B460FF0CBFD224612
:2009E00006460F46DDE904012B460FF0C3FD02460B46304639460FF007FC42464B46064666
:200A00000F46504659460FF0B5FD04460D4630462B46394622460FF0F7FBBD4B8046994296
:200A200089468A4640F3178101F13F4303F5E003034340F02482A2A3D3E9002330463946C8
:200A40000FF0E2FB02460B46404649469046994622462B460FF0D6FB02460B464046494600
:200A600010F018F8002840F00A82CAF30A534FF480120020A3F2FE3342FA03F35344A549F6
:200A8000C3F30A52A2F2FF3241FA02FCC3F3130B23EA0C01C2F114024BF4801BBAF1000FFB
:200AA0000B464BFA02FB294602462046B8BFCBF1000B0FF0A7FB04460D46304639462246AD
:200AC0002B460FF0A1FB89464FEA0B5A4FF000087DA3D3E90023404649460FF04BFD224693
:200AE0002B4604460D46404649460FF08BFB02460B46304639460FF085FB75A3D3E900234A
:200B00000FF038FD74A3D3E9002306460F46404649460FF02FFD02460B46304639460FF03D
:200B200073FB8046894642464B46204629460FF06BFB22462B4606460F460FF063FB024640
:200B40000B46404649460FF05DFB3246804689463B46304639460FF00DFD61A3D3E9002369
:200B600004460D460FF006FD5FA3D3E900230FF049FB22462B460FF0FDFC5DA3D3E9002302
:200B80000FF042FB22462B460FF0F4FC5AA3D3E900230FF037FB22462B460FF0EBFC58A38A
:200BA000D3E900230FF030FB22462B460FF0E2FC02460B46304639460FF024FB04460D462D
:200BC00022462B46304639460FF0D4FC02460B462046294614461D4600224FF080430FF02A
:200BE00011FB02460B46204629460FF0EDFD424604460D464B46304639460FF0BBFC4246A9
:200C00004B460FF001FB02460B46204629460FF0F9FA32463B460FF0F5FA02460B46002048
:200C20003A490FF0EFFA8A44BAF5801FC0F223815146DDE902230FF09DFCCDE90001FFF710
:200C4000F9BB002FFFF637AC4046314613B0BDE8F04F0FF01FB9DFF8C0C021F0004363450B
:200C600040F3CF802D4B0B4403430AD122462B460FF0C8FA32463B460FF002FF00283FF41C
:200C8000F4AEDDE90201002200230FF0E5FE003818BF012013B0BDE8F04F0FF0E5B900232B
:200CA0000024CDE90034FFF7C5BBBAF1000FF6DA05F1004300940193FFF7BCBB0022C1E491
:200CC000FE822B654715973C00000000432EE63FEF39FAFE422EE63F396CA80C615C20BE96
:200CE000D0A4BE726937663EF16BD2C541BDBB3E2CDE25AF6A56113F93BDBE166CC1663F3E
:200D00003E5555555555C53F0000F0BF0000F03FFFFF8F40FFFF0F00FFCB904000346F3FB4
:200D2000994576DB724B99453FF7E2ABDDE9000100226F4B0FF066FA61A3D3E900230646F5
:200D40000F460FF017FC60A3D3E9002382468B46304639460FF00EFC0022CDE90001654B2A
:200D6000304639460FF006FC02460B4658A1D1E900010FF047FA32463B460FF0FBFB0246BA
:200D80000B4600205C490FF03DFA32463B4680468946304639460FF0EDFB02460B4640467E
:200DA00049460FF0E7FB4CA3D3E900230FF0E2FB02460B46DDE900010FF024FA06460F46FB
:200DC0005046594632463B460FF01EFA52464FF0000A5B4650468B46DCE542460020334603
:200DE00043490FF0F1FCCDE90001FFF723BB42464046334631460FF0BDFBCDE90001FFF78E
:200E000019BB3D4A934256DCDDE90023924693465CE6BAF1000FFFF66FAB00203AE7002961
:200E20007FF473ABC2F114024BFA02F000FA02F25A4539D00291FFF732BB029B012B7FF4D9
:200E4000F9AADDE90045224605F10043CDE90023FFF7F0BA0022294B4FF48027CDE906236B
:200E60001FA3D3E90023CDE908231FA3D3E90023CDE9102308E45A4600F042F8D9E60022CF
:200E8000DDE9020100230FF0E7FD003818BF0120FFF733BB00F00100C0F10202029200290C
:200EA0003FF4FDAAFFF707BB00F00100C0F102020292FFF7F4BA1B15D9E500BFAFF30080F3
:200EC000000000604715F73F44DF5DF80BAE543E555555555555D53FFE822B654715F73FA9
:200EE0000000004003B8E23F06D0CF43EBFD4C3E0000F03F0000D03F0000E03F0000F83FE8
:200F0000C1F30A5370B58C4604460D4616467BBB034621F0004C5CEA030328D0324B002211
:200F20000FF028FB314B04469E420D461ADB8C46C1F30A53363B40F2FE723344934220DC63
:200F4000002B3EDC13F1350F2CDA4CF250339E4217DC05F0004343F0D27141F4B731244833
:200F600041F01F011CA3D3E900230FF003FB70BD40F2FF7E7345DED102460B460FF044F96D
:200F800070BD05F0004343F0FC4141F45F1141F4105113A3D3E90023164841F03C010FF0E1
:200FA000E9FA70BD2CF0FF4C03F136012CF4E00C4CEA01550022204629460F4B0FF0DAFAD3
:200FC00070BD2CF0FF4C2CF4E00C20464CEA035170BD00BFAFF3008059F3F8C21F6EA5013A
:200FE0009C7500883CE4377E00005043B03CFFFF59F3F8C29C7500880000903C4FF0E02359
:20100000D3F8282DB2F5806F04D0D3F8283D9B0500D4FEE7704700BFFEE700BFFEE700BFFF
:2010200008B507F00DFC104A10498A420DD2104801390346891A21F003010431014453F83D
:20104000040B8B4242F8040BF9D10A480A494FF000028842B8BF40F8042BFADB04F020FD2D
:20106000FFF7CCFF08BD00BF0000002049080020F52A01005008002018300020F0B50027CE
:2010800006463C463D4683B0304605F013FE0195019B9C4206DD00BF019B01330193019B9E
:2010A000A342F8DB304605F033FE0195019BC4F5C8749C4206DD00BF019B01330193019B35
:2010C000A342F8DB0137B7F5487F06D0B7F5C87FD4BF3C46C7F54874D6E703B0F0BD00BF7B
:2010E00070B54FF08054194DD4F8D831284601215B6898470122D4F8D83111461B6828460B
:20110000984707F06BFA02F053F801F0D3FF00F007FE05F0C9FD05F029FE0120FFF7AEFF04
:2011200001230B4ED4F8B01105F5B825F360094AAB600B691020D26A984707F053FA01F029
:20114000FFFABDE870400020FFF798BF00400340004009400020094008B541F2342003F028
:20116000EFFA01F0B7FD05F097FE074801F0E6FD0648082101F082FC05F022FDBDE808404D
:201180000220FFF77BBF00BF416E0000E810002008210023F0B585B00DEB0100CDE900336F
:2011A00001F06CFCBDF80E40254D64BAEE6A4AF6CD31A4B20220B04721460320B0471A2182
:2011C0000120B04708226B6B0DEB02010B201D4F984701206946AC6AA0473B68022B1ADCF3
:2011E000022001A9A04778B93B68022B08DC0021154805F0A7F80020FFF740FF05B0F0BD8E
:201200000199124807F07CFF3B68022BEFDD104807F076FFEBE70F4A0F49104807F070FFC7
:201220000F4807F06DFF3B68022BD9DD0A49094A0A4807F065FF00990A4807F061FFCFE723
:20124000D0180100C8060020DC06002004180100C81D0100B4170100C4170100CC17010026
:20126000DC170100F417010001F0EABD00B58E46844683B01346012172460DF107008DF893
:2012800007C001F041F803B05DF804FB074B18703AB101EB020C11F8010B614503F8010FD1
:2012A000F9D101320148D1B200F06ABE8008002029B1CC23014401F8013D8142FBD170471A
:2012C000813801289ABF024B18680020704700BFBC0800200322024B02481A6005F0AEBBF8
:2012E000BC08002044180100594B1B68032B40F0AB80431E012B2DE9F041044600F2A180CC
:20130000544D06220021284610F018F87721002001F00AF906222946F720FFF7A7FF002847
:2013200000F087802A79EB784B4895F800E095F801C0A97812016D7942EA033242EA151690
:201340000588B0F90A70C5EB121202FB02F3B0F904201B1302FB03F36D00B0F90220C5EB41
:20136000D60502FB05F59B1303EBE5235E10A6F57A46B51005FB05F5B0F908204FEA6538C8
:2013800006FB02F208FB07F7521002EBE7029214C78802F5004207FB02F2D213836146D01C
:2013A000090941EA0C1CB0F90E10ED1201FB06F6B0F91010760001FB0565B0F90C602749E0
:2013C000360406EBA5054CEA0E3E0EEB253E01FB0EFE0EF1434E0EF5A00EBEF1000FB3BFE1
:2013E000BEFBF2FE4FEA4E0EBEFBF2FE4FEA4E0E4FEADE0202FB02F2B0F91610B0F914508B
:20140000520B01FB02F2B0F912104FEA9E0005FB00F0401300EB223008440EEB2010012CBB
:2014200003D103EB830080300012BDE8F0811046F5E728460621FFF73BFF4FF00040BDE874
:20144000F0814FF00040F0E74FF00040704700BFBC080020C0080020A0080020CBF3FFFF80
:2014600030B5802883B005D0812828D02D4B186803B030BD01242B4D772100202C6001F0CC
:2014800053F81C2228498820FFF7F0FEB62322460DF10701E0208DF80730FFF7F7FE772140
:2014A000002001F041F8002322460DF10701F4208DF80730FFF7EAFE286803B030BD194D0D
:2014C00028680028D4D00C46B9B17721002001F02BF825230DF107010122F4208DF80730E7
:2014E000FFF7D4FE00230321104A114804F03EFC022318462B6003B030BD0D4804F07EFC8B
:201500002046772101F010F801220DF10701F4208DF80740FFF7BAFE012318462B6003B05D
:2015200030BD00BFBC080020A0080020D5120000C8080020813801289ABF024B1868002054
:20154000704700BFF00800200322024B02481A6005F074BAF00800205C180100314B1B6818
:20156000032B5CD1820770B5044626D0032809D0012804D0022820D12B4B186870BD2B4B6D
:20158000186870BD2A4D4421002000F0CDFF022229460420FFF76AFE58B12B885BBA2B8055
:2015A0005B0406D5234D022229460120FFF75EFE30B904211F48FFF77BFE4FF0004070BDEB
:2015C00002222046A918FFF751FE0028F1D02888164E40BAC0F38D000FF086FB4FF07451C0
:2015E0000EF058FD044668880F4D40BAC0F38D000FF07AFB4FF074510EF04CFD0E490EF0B4
:2016000049FD0FF0C5FB03460B49204633600EF041FD0FF0BDFB03462B60012070BD4FF0DB
:2016200000407047F0080020E8080020F4080020D42F0020EC08002000007A44802838B5E5
:2016400004D0812827D02A4B186838BD4FF08054D4F8B43101209B6B9847D4F8B4314FF46E
:20166000804101209B699847D4F8B4314FF08041DB69012098474421002000F055FF0222C3
:2016800000231C4910460B80FFF700FE0123184A1846136038BD164D28680028D5D00C468F
:2016A000A1B14421002000F03FFF02221023114910460B80FFF7EAFD002324210E4A0F489F
:2016C00004F054FB022318462B6038BD0B4804F095FB2046442100F027FF02220549104644
:2016E0000C80FFF7D3FD012318462B6038BD00BFF0080020D42F002049150000F80800201E
:20170000014B1868704700BF3809002000B5452183B0002000F008FF022201200DF1060177
:20172000FFF7A4FDBDF90630002B08DB00231021074A084804F01AFB03B05DF804FB0648C5
:2017400005F07CF90222054B1A6003B05DF804FB0D170000180900207418010038090020D7
:2017600070B5802882B01DD081282ED10C4679B301244521002000F0D7FE41F2C203214886
:201780000DF10601046002222046ADF80630FFF77DFD002310211C4A1C4804F0E7FA2046B2
:2017A00002B070BD174D45212B68002003F0020400F0BAFE4FF48653022201200DF10601C6
:2017C0002C60ADF80630FFF761FD002002B070BD0C4E0E4804F012FB33682046452103F044
:2017E000020500F0A1FE4FF4865302220DF1060101203560ADF80630FFF748FD204602B02A
:2018000070BD00BF380900200D17000018090020813801289ABF024B18680020704700BF78
:2018200040090020032138B5114C124A2378116033B9012310482370BDE8384005F0FEB8A6
:201840000E4D4321002000F06FFE0421284600F0B5FC00212070084600F066FE2A886B8820
:201860000748084952BA5BBA02800B80E1E700BFEE2F0020400900208C1801003C09002063
:20188000D82F0020D62F002030B5802883B005D0812827D0274B186803B030BD0024264BA0
:2018A000264D0422214626481C802C800FF046FD2046432100F038FE022210230DF10601E4
:2018C0001046ADF80630FFF7E1FC02461D4B204621461A7000F028FE01231846154A136093
:2018E00003B030BD134C20680028D5D069B1154D2B7893B900230321134A144804F036FA05
:2019000002231846236003B030BD104804F076FA01231846236003B030BD4321002000F04C
:2019200003FE002000F000FC00212870084600F0FBFDDFE740090020D62F0020D82F002030
:201940003C090020EE2F0020251800004409002008B5174B1B78032B28D8DFE803F0151E6E
:201960000C020EF09DFD00224FF07D530EF002FE0FF0B0F808BD0EF093FD00220D4B0EF020
:20198000F9FD0FF0A7F808BD0EF08AFD00220A4B0EF0F0FD0FF09EF808BD0EF081FD00220F
:2019A000064B0EF0E7FD0FF095F808BD002008BDEF2F00200000303F0000103F0000203F63
:2019C000813801289ABF024B18680020704700BF900900200222024B02481A6005F02EB8A0
:2019E00090090020A418010010B56821012000F09BFD3F23094C012221466C202370FFF724
:201A000045FC4F23214601226B202370FFF73EFCBDE810400021084600F086BDF32F002062
:201A20008028F8B50CD0812807D111F03F0135D12F4BD3F88030DB0443D42E4B1868F8BD14
:201A40004FF08054D4F8B43107209B6B9847D4F8B4314FF4005107209B699847D4F8B431B6
:201A60004FF080410720DB699847D4F8B4310C20DB6B9847D4F8B4314FF440724FF4806150
:201A80000C209B6A98474FF48054002218481A4B1849C0F8A0401A600868F8BD4FF4805786
:201AA0000124154B124E134D1960144AC6F890700023082112482C6004F058F920462C60E3
:201AC000F8BD0D4B0E48196004F098F9FFF78CFF0C4AD2F8043813F00103FAD14FF48050E3
:201AE000044A03491360C1F8A0001068F8BD00BF002002409009002064090020091B0000C8
:201B000070090020002000402DE9F041364C236813F0380F28D1354D03F03F042E785EB9C0
:201B2000002C3BD1FFF760FFBDE8F041002305212F4A304804F01AB9E3B22B70002CF1D024
:201B40002D4FDB43682101203B7000F0EDFC012229496C20FFF79AFB0021084600F0E4FCD2
:201B6000264806F043FDDFE7254F3A78002AD2D00025244E68210120357000F0D5FC3146EB
:201B800001221C20FFF782FB06462946284600F0CBFC2368002EBED03D70BCE76821012052
:201BA00000F0C2FC0923144F012239466B203B70FFF76CFB3F23012239466C203B70FFF782
:201BC00065FB01220F491C202E70FFF75FFB012239463A20FFF74AFB3146304600F0A4FC4C
:201BE000E3B22B70ADE700BF64090020F22F0020D519000070090020F32F00208038010012
:201C0000EF2F0020F02F00200022014B1A707047F42F002070B500244FF08055174B184836
:201C20001C7001F041FA174AD5F8B811D368204623F00103D3600B6A9847D5F8B83120469A
:201C40009B6A9847D5F8B83120461B6B984701210D4B0E4A9962936A9B07FCD54FF08054CF
:201C6000D4F8B43115209B6B9847D4F8B4310021BDE8704015201B6A184700BFF42F002057
:201C80004005002000000140002008600020084010B54FF08054D4F8B83104205B6998475A
:201CA000D4F8B83104205B6B98470128F8D110BDFFF7EEBF032801D000F0FCB808B5FFF7F1
:201CC000A9FF114B00219B68812098470F4B00219B68812098470E4B00219B688120984761
:201CE0000C4B00219B68812098470B4B00219B68812098474FF48052084BC3F8A020BDE867
:201D0000084000F0D7B800BF44180100741801005C1801008C180100A4180100002002401A
:201D200070B506F05BFC0646FFF7B2FF4FF08053D3F8B8314FF4A060DB6998470121414B64
:201D4000414A9962936A9B07FCD54FF080544FF4005500F07FF8FFF757FF002006F03CFBE2
:201D60003A4801F09BF9D4F8B43119209B6B9847D4F8B431294619209B699847D4F8B431A0
:201D800018209B6B9847D4F8B431294618209B699847D4F8B43117209B6B9847D4F8B4316D
:201DA000294617209B699847D4F8B4311B209B6B9847D4F8B43129461B209B699847D4F8BF
:201DC000B4311E209B6B9847D4F8B4314FF480411E209B699847D4F8B4310D20DB6B984722
:201DE0001B4AD4F8B431C2F8A05000214FF480720D209B6A9847D4F8B43102209B6B984704
:201E0000D4F8B431294602209B699847D4F8B4310B209B6B9847D4F8B43129460B209B698D
:201E20009847D4F8B4311D209B6B9847D4F8B43129461D209B69984706B170BDBDE8704077
:201E400006F0D0BB0020086000200840540500200020024070B54FF08055D5F8B831022025
:201E60005B699847D5F8B83102205B6B984701280446F7D1D5F8B8314FF44070DB6998473B
:201E8000084B094A9C62936A9B07FCD5BDE870404FF08053D3F8AC310122044904481B68E0
:201EA000184700BF0020086000200840006CDC0200200040FF214FF0805310B52B4A0220DC
:201EC0001170D3F8B8315B6B984701280AD1284B1B6EDA0706D500232649274AC1F8043874
:201EE000C2F810344FF08053D3F8B8314FF440701B6A98470121214B1D4A9962936A9B0738
:201F0000FCD54FF08054D4F8B43108209B6B9847D4F8B4314FF4005108209B699847D4F803
:201F2000B43109209B6B9847D4F8B4314FF4005109209B699847D4F8B43105209B6B9847A2
:201F4000D4F8B4314FF4804105209B699847D4F8B43106209B6B9847D4F8B4314FF4804153
:201F6000BDE8104006209B69184700BF46080020002008400020004000000542002008601F
:201F80002DE9F047664B674D1B7807465B00C5F8003803780E46C5F8083800F0CFFB00F5E4
:201FA000CC541934D5F804385B0608D500F0C6FB001B0028F6DB00242046BDE8F0870323DC
:201FC0000220C5F8043806F011FB00F0B7FBDFF8548100F5CC541934D8F80438D80746D42F
:201FE0004FF08053D3F8AC314E485B68984710F00C0F7DD1012E40F28F800028DBD101241D
:20200000A046484D06F1FF39631E3B4402E00134B4423ED213F8012F4C45C5F80828F6D278
:202020000220C5F8048806F0E1FA00F087FB00F5CC5A0AF1190AD5F80438D90710D44FF0AD
:202040008053D3F8AC3128465B68984710F00C0F824612D10134B44218D20028D4D0AAE7BD
:2020600000F06CFBA0EB0A000028E4DBA3E700F065FB001B0028AFDB9DE704230220C5F85C
:202080000438013406F0B2FAA64294D8BAF1000F91D10523234D0220C5F8043806F0A6FA74
:2020A00000F04CFB00F5CC541934D5F80438DA0725D44FF08053D3F8AC311A485B689847E6
:2020C00010F00C0F044620D100F038FBB4FA84F400F5CC55134E64091935D6F804385B06C4
:2020E0007FF56AAF00F02AFB401B0028F5DB62E704230220C8F8043806F078FA5BE700F0C3
:202100001DFB001B0028D0DB55E704230220C5F8043806F06BFAD7E700287FF44CAFB8E7ED
:20212000F52F00200020004070B5224B224D1B785B00C5F80038C5F8080800F0FFFA00F56C
:20214000CC541934D5F804385A0606D500F0F6FA001B0028F6DB002070BD07230220C5F884
:20216000043806F043FA00F0E9FA134E00F5CC541934D6F80438DB070ED44FF08053D3F8AF
:20218000AC310D485B68984710F00C0F044609D1B4FA84F0400970BD00F0D0FA001B002897
:2021A000E7DBD8E704230220C6F8043806F01EFAEEE700BFF52F0020002000402DE9F04FC0
:2021C0004F4BDFF840A11B7883B05B0043F00103CAF800388846019000F0B0FA00F5CC544D
:2021E0001934DAF8045815F0400508D000F0A6FA001B0028F5DB002003B0BDE8F08F0B237A
:202200000220CAF8043841F699164FF080573D4C08F1FF3B06F0EAF95FFA85FADA452CDA10
:2022200000F08CFA00EB0609D4F80428D20716D4D7F8AC3120465B68984710F00C0F15D1BE
:2022400001350028D7D10923D4F808280199022001F80A20C4F8043806F0C8F9DCE700F00F
:202260006DFAA0EB09000028DEDBC4E704230220C4F8043806F0BAF9BDE70523214E022090
:20228000C6F8043806F0B2F900F058FA00F5CC541934D6F8045815F0010521D14FF08053C6
:2022A000D3F8AC3117485B68984710F00C0F1DD10028A0D1019AD6F80838424402F8013C6D
:2022C00000F03CFA0F4D00F5CC541934D5F804385B0613D500F032FA031B002BF6DB8AE721
:2022E00000F02CFA031B002BD3DB84E704230220C6F8043806F07AF928467DE701207BE765
:20230000F52F0020002000402DE9F84FDFF810A2844F9AF8004099466400C7F800480378C9
:202320000546C7F808380E46904600F007FA00F5CC541934D7F804385B0607D500F0FEF9A7
:20234000001B0028F6DB0020BDE8F88F03230220C7F8043806F04AF900F0F0F9714F00F513
:20236000CC541934D7F80438D80740D44FF08053D3F8AC316B485B68984710F00C0F3CD1BB
:20238000012E41D90028DED1013E0127DFF894B12E440DE04FF08053D3F8AC3158465B6820
:2023A000984710F00C0F1BD1AE422DD00028CAD115F8013F0220CBF80838CBF8047806F0E0
:2023C00015F900F0BBF900F5CC541934DBF80438D907DFD500F0B2F9001B0028F6DBB2E7FE
:2023E00004230220CBF8043806F000F9ABE700F0A5F9001B0028B5DBA5E704230220C7F81F
:20240000043806F0F3F89EE700289CD10B229AF80030444C5B0043F00103A8F10207C4F816
:202420000038022008F1FF3AC4F804284F4406F0DDF8574541F699154FF080561ED000F056
:202440007DF900EB050BD4F80438DA0749D4D6F8AC3120465B68984710F00C0F48D10028F6
:202460007FF471AF0923D4F8082802200AF8012FC4F8043806F0BAF85745E0D10523294EC1
:202480000220C6F8043806F0B1F800F057F900F5CC541934D6F8045815F001052FD14FF06B
:2024A0008053D3F8AC311F485B68984710F00C0F2BD100287FF447AFD6F80838C84408F8D6
:2024C000013C00F03BF9174D00F5CC541934D5F804385B0621D500F031F9031B002BF6DB41
:2024E00031E700F02BF9A0EB0B000028ABDB2AE704230220C4F8043806F078F823E700F0BA
:202500001DF9031B002BC5DB1DE704230220C6F8043806F06BF8284616E7012014E700BFD6
:20252000F52F0020002000404FF0805370B53A4A04461170D3F8B83102205B6B98470128CD
:202540003ED0FFF787FC354B1A78A24240D00022334D34491C70C5F80428C1F810241B78DA
:20256000002B36D0012B20D14FF08054D4F8B4314FF4C04108209B699847D4F8B4314FF406
:20258000C04109209B699847D4F8B431092208212846DB6C9847D4F8B43105209B6B9847DA
:2025A000D4F8B43106209B6B9847BDE870404FF08053D3F8AC3101221B4919481B68184786
:2025C0001A4B1B6EDB07BCD5144B1A78A242BED170BD4FF08054D4F8B4314FF4C0410520DC
:2025E0009B699847D4F8B4314FF4C04106209B699847D4F8B431062205212846DB6C984767
:20260000D4F8B43108209B6B9847D4F8B43109209B6B9847C9E700BFF52F0020460800201C
:202620000020004000000542006CDC020020084010B54FF08054D4F8B83104205B699847ED
:20264000D4F8B83104205B6B98470128F8D110BD38B5002400254FF080531A4A0420C2E9C2
:202660000045D3F8B8315B6B9847012801D0FFF7DFFF4FF08053D3F8B8310020DB699847E5
:202680000121114B114A9962936A9B07FCD54FF080520F4C0F49E368204623F4807323F064
:2026A0000103E360D2F8C83104251B689847312040F221210122084B2560E063A1605A60C7
:2026C00038BD00BF50080020002008600020084000000140002100040000244310B505F057
:2026E000BDFE0023044C400E40EAC112C4E90023D4E9000110BD00BF5008002010B505F015
:20270000ADFE0023064C400E40EAC112C4E9002303F080FC00B910BDBDE8104003F05ABC8B
:2027200050080020014B9868704700BF00200940704700BF0146012000F04AB805F082BEF1
:202740002DE9F84305F04AFF01254FF480724FF000094FF480334FF080561B4CDFF86C8012
:202760002321C8F80090656062606360D6F8843107461B6848469847D6F884312421284685
:202780001B689847D6F88431252102201B689847236843F4E0232360C4F8089005F052FEA9
:2027A0000346D6F8B02103F50073E361C8F8A052C8F800501420136998470FB1BDE8F88351
:2027C000BDE8F84305F00EBF0020094000002443431E012B10B419D9042815D100231A46AF
:2027E00010F004001CBF124C21621BB10121114BC3F880121AB101220E4BC3F8A02218B1F5
:2028000001220C4BC3F8C02210BC7047012808D10346074A916110F0020204D0044CE16126
:20282000DEE70023F7E7002BEED01046DEE700BF0020094000002443014B1868704700BFFD
:202840009809002010B5FFF779FF194B1860FFF755FF184BD3F8A0307BB9164BD3F8802060
:20286000EAB9144BD3F8C02032B100204FF48031114AC3F8C002516010BD4FF480730E4CCE
:20288000636005F0DFFD00F2052020F4FF70094B20F00100E061D3F88020002AE1D00020FE
:2028A0000121054AC3F88002516003F051FED8E79809002000002443002009400122024BB7
:2028C000C3F8002C704700BF0000084010B505F085FE114BD3F8002C012A0AD04FF08642B7
:2028E00001210E4C1C60C2F80411C2F8001178B110BD4FF086410A4CC3F8004C074C1C601E
:20290000C1F80421C1F80021C3F8002C0028EFD1BDE8104005F066BE00000840502D190044
:2029200051E5CC1A0122014BDA6070470000084008B5FFF7CBFFFEE770B5044605F04EFEC1
:2029400021460646114803F0F1FE104803F0ECFE38B101210E4B0F4AC3F8001253699B066D
:20296000FCD54FF08055D5F8A03160681B689847D5F8A03160689B6898471128F8D106B1A9
:2029800070BDBDE8704005F02DBE00BF9C090020000022430010094008B5064803F0C4FED3
:2029A00038B10121044B054AC3F8001253699B06FCD508BD9C09002000002243001009402B
:2029C00010B5A8B14FF0805C0021134C134A6368012023F4C0536360DCF8A031C2F8801118
:2029E000C2F80012DB68984763699B06FCD410BD04460B4803F098FE0028E3D005C81443BA
:202A00000028FBD1002CDDD0034A536823F4C05343F40063536010BD0010094000002243DF
:202A20009C09002038B5054605F0D8FD04462946054803F0C7FE0020FFF7C2FF04B138BD90
:202A4000BDE8384005F0CEBD9C09002070B590B10E460024451E04E0A64206D000F04EF9FA
:202A6000013415F8010F0028F6D100F0A1F90128FBD0204670BD0446F7E700BF10B40C4B02
:202A80000C4C1A780133FF2A0FD1A342F9D10A4C49B10139631801381978A34200F8011F94
:202AA00003F1FF33F8D110BC7047014CF0E700BFC8FF0100D0FF0100F012005038B54FF0AB
:202AC0008055D5F8B83102205B699847D5F8B83102205B6B984701280446F7D1D5F8B83138
:202AE0004FF40070DB699847034B044A9C62936A9B07FCD538BD00BF002008600020084052
:202B0000F0B54FF0805540F2F27683B0284CFFF7D5FFD5F8D0312046DB689847D5F8B031ED
:202B200015205B699847A36BD5F8B42123F4FE6323F00203A3636664D36B1D2098474FF014
:202B400000514FF0FF331B4A2046C2F89010D5F8B4210093176C1C211D22B847D5F8D0219D
:202B600060232046576814494FF4E132B847142240F2011340F201306263E26A0F4942F081
:202B80001002E2620A68002A18BF0346236366640B685BB11520A36BD5F8B02143F05003ED
:202BA000A363136903B0BDE8F040184703B0F0BD0010004000200240006CDC02A009002087
:202BC0004FF0805370B5D3F8B83104465B6B02209847012807D13B4BDB6ED80703D53A4AEE
:202BE00093691907FCD4032C47D0384B1B6803B170BD4FF08055D5F8B83102205B6B98472B
:202C0000012858D12F4BDB6EDA0715D54FF080562D4DD6F8D0312846DB689847D6F8B03137
:202C200015205B69984740F2F272AB6B23F4FE6323F00203AB636A644FF08053D3F8B831DE
:202C40004FF400701B6A9847032C25D00121204B1C4A9962936A9B07FCD51D2000F03AFA7A
:202C60001C2000F037FA4FF0FF3000F033FABDE870404FF0FF3000F02DBA4FF08055D5F8F1
:202C8000B83102205B6B98470128BBD0D5F8B8314FF400701B6A98474FF08054D4F8B8313B
:202CA0004FF400709B6A9847D4F8B8314FF400701B6B9847CAE7D5F8B8314FF400701B6A11
:202CC0009847C3E70020084000100040A00900200020086010B505F081FC0446054800F0A4
:202CE000DDF90022044B1A6004B110BDBDE8104005F078BC68050020A00900204FF080530B
:202D000010B5D3F8B83104465B6B0220984701280BD0FFF7F5FE4FF08053D3F8D0312146F7
:202D2000BDE810400348DB691847034BDB6EDB07F1D4EEE70010004000200840184A10B5BE
:202D40001060D8B14FF080540221164AD4F8B83111614FF400705B6A9847D4F8B8314FF46E
:202D60000070DB6A984701210F4B104A9962936A9B07FCD5BDE81040FFF7C2BE03464FF08B
:202D80008054084A4FF400701361D4F8B8319B6A9847D4F8B8314FF400701B6B9847E2E7B7
:202DA000A009002068050020002008600020084008B54FF08053D3F8B83102205B6B984783
:202DC00001280AD1064BD86E10F0010004D0A3F501239869C0F3C00008BD002008BD00BFEA
:202DE0000020084070B5FFF769FE40F2F2720C4C236C626413F0500F0DD00A4D4FF08056FB
:202E000006E0D6F8D03120461B6998472B681BB9A369DB06F5D570BDC0B29847EEE700BF04
:202E200000100040A00900204FF0E022D2F8103D23F00403C2F8103D30BFFFF773BD00BF2C
:202E4000F8B505F0CBFB03F037FB18B1BDE8F84005F0C8BB884803F067FC0225044648B137
:202E6000636823B19847A84228BF2846C5B22468002CF5D1FFF762FC804B0446D3F88032BA
:202E8000002B00F0D2807E4B9B691B1A022B00F19680A3F28F23002BACBF022001208542A8
:202EA00028BF054603F0B6F8002840F08E80012D00F0CB80022DC9D12846611EFFF788FC40
:202EC0006D4803F031FC06250446002800F0AF80A3680BB1022098472369246825EA03056A
:202EE000002CF5D1FFF71EFD6B0700F1A380002D40F0A38000F0BCF90020FFF761FD4FF071
:202F00008052604C3920236823F003032360A36843F00F03A360D2F8B8319B6998470020AA
:202F2000594B20642064C3F8200405F035FF062D00F09D804FF080560027544C504D032100
:202F4000EB6AD4F82432524823F00303C4F82432D6F8D8315B689847D6F8B8319B6B984720
:202F6000EB6A06F039F84B4AD6F8D831C2F88071474801215B6898470121D4F82432464A97
:202F800043F00303C4F82432D160EB6A06F056F8FFF702FDFFF7B2FBFFF7C4FC364803F05D
:202FA000C3FB044628B1E36803B198472468002CF9D105F017FBBDE8F84005F013BB03F036
:202FC00029F800283FF442AF002503F02BF80646FFF784FB361A002E7FF738AFFFF72CFC8F
:202FE00000EB46210B1BA3F28F22002A36DA002D3FF42CAF082B2ED404F58034631A31EA24
:20300000230128BF21460220FFF7E2FB4FF0E022D2F8103D23F00403C2F8103D30BFFFF7EB
:2030200081FCBDE8F84005F0DDBA022037E7FFF779FC06250022184BDA604FF08053D3F838
:20304000B83128469B69984754E7022004F58031FFF7BEFBDAE704F10801D4E7012DC9D03F
:20306000022D7FF4F3AE2846FFF7B2FB28E7022005F05AFB5EE700BFA40900200000244349
:203080000020094000100940000022430020084000400340000004430040094001460148BE
:2030A00003F044BBA40900200146014803F08ABBA409002010B5064803F032FBBDE8104094
:2030C0004FF08053D3F88431202103201B681847A4090020431C10D04FF0805310B5D3F86A
:2030E000B43104461B684FF4C042002198470023024840EA8404236010BD7047001A444213
:20310000034BD3F8E000C3F8E00003F0B9BD00BF002002404FF0805370B5D3F8B4310C4658
:203120005B680546984714F00C0320F0E06222F4EC2207D0042B23D0082B24D00C2B08BFFB
:2031400042F4403214F0030310D142F4C04223064FF08053D3F8B4312846BDE870404FF0B7
:2031600000011B6848BF42F480221847022B04D0012B08BF42F48042E9E742F40052E6E77C
:2031800042F40032DEE742F48032DBE7074AD2F8D030C340DB074CBFD2F88030D2F8C03019
:2031A00023FA00F000F00100704700BF002002400022412300B585B002A8CDE90223FFF74E
:2031C000BBFB042005F0A0FA032805D102A8FFF729FC05B05DF804FB0321042005F068FA18
:2031E000042005F091FA0328FAD11C234FF0405200210090044805F013FA02A8FFF712FC78
:2032000005B05DF804FB00BF00A00C400022412300B583B06846CDE90023FFF78DFB012066
:2032200005F072FA012803D00121032005F040FA6846FFF7F7FB03B05DF804FB002241239A
:2032400000B583B06846CDE90023FFF775FB012005F05AFA012805D04FF08053D3F88000D4
:2032600005F0C6F86846FFF7DDFB03B05DF804FB10B54123002482B06846CDE90043FFF7FC
:203280005BFB0320214605F013FA012005F03CFA20B96846FFF7C6FB02B010BD4FF0805331
:2032A000D3F8800005F0A4F86846FFF7BBFB02B010BD00BF70B5038804463BB140F2CB2295
:2032C000934208D182290AD0012070BD40F2CB232380012070BD00232380032070BD094BF2
:2032E000094E1D69FFF71EFB04F030FA04F0FEFA8021A847002880B2E8DD04F0F1FAF368EF
:203300009847EFE7D018010094270100024BD3F89C0100F001007047002008404FF0FF331D
:203320002DE9F0412E4C8046236023680F460B6010F0030302D1028811050DD405F04EF9A2
:20334000284B0546D3F89C31DB071BD4002D36D000252846BDE8F081438005F03FF9214B0E
:203360000546D3F89C31DA07F0D5B8F8003013F4405F07D003F44063B3F5006F04BF1A4B8E
:20338000C3F80080194E4CF25032C6F800807368236003E07368013A236018D02368DBB2B3
:2033A000002BF7D085B123683B602568EDB2A5F10105B5FA85F56D092846BDE8F08105F0DF
:2033C00011F92846BDE8F08105F00CF9EBE71DB1236800253B60BCE705F004F9F8E700BF47
:2033E000A809002000200840AC090020001004400B4A01E0013A11D0438803F44063B3F50C
:20340000806FF7D14388074A9BB21360428802F44062A2F58062B2FA82F2520910467047B6
:2034200020A10700A809002070B54FF0805482B005F0D4F8D4F8B03105461B6A1920984733
:20344000D4F8B03112201B6A9847D4F8B03119205B699847D4F8B03112205B699847D4F852
:20346000B83101205B699847D4F8B83101205B6B98470128F8D1174A174BD0629862936A46
:203480009B07FCD54FF080540022144BD4F8B0111A615A6119200B699847D4F8B0311220F7
:2034A0001B6998479DB140F2FF3600240C4B0D4A0D4D01A92E600D48DC611A60FFF72EFF61
:2034C000A0F10100B0FA80F0400902B070BD05F089F8E8E70020084000200860001004606F
:2034E0000010044051000706000004600100060400B587B01422002101A80DF01FFF4FF065
:20350000010C40F60A0218499DF8113009686CF30303059101A86946ADF804208DF81130D2
:20352000FFF7FCFE012803D0002007B05DF804FB0E4801E00138F8D0BDF8063003F44063B7
:20354000B3F5806FF6D1BDF80630094A9BB21360BDF8060000F44060A0F58060B0FA80F031
:20356000400907B05DF804FBBC09002020A10700A809002000B587B01422002101A80DF090
:20358000DDFE4FF0010C40F609029DF8113069466CF3030301A8ADF804208DF81130FFF7AB
:2035A000BDFE012803D0C0B207B05DF804FB134A01E0013A1CD0BDF8063003F44063B3F545
:2035C000806FF6D1BDF806300D4A9BB21360BDF8063003F44063B3F5806F09D1094B1A7857
:2035E00052B90122059808491A7008601046DBE7002007B05DF804FB0120D5E720A10700D5
:20360000A8090020F62F0020BC09002030B54FF0805487B004F0E2FFD4F8B03105465B69EF
:2036200019209847D4F8B03112205B699847334BD3F89C31DA072FD4FFF79CFF0020012123
:203640002E4A2F4BD0629962936A9B07FCD54FF08054D4F8B83101209B699847D4F8B8315A
:2036600001205B6B98470228F8D1D4F8B03119201B6A9847D4F8B03112201B6A9847D4F838
:20368000B03119201B699847D4F8B03112201B6998476DB307B030BD00211A4B1022196175
:2036A0000124596102A80DF049FE40F60D029DF8153002A864F3030301A9ADF808208DF81B
:2036C0001530FFF72BFEA042B6D10F4A01E0013AB2D0BDF80A3003F44063B3F5806FF6D13F
:2036E000BDF80A30094A9BB21360BDF80A30A3E707B0BDE8304004F075BF00BF0020084034
:20370000002008600010046020A10700A809002008B504F0ADFE052803460ED0032806D063
:2037200080B903220C4B0120C3F8D02108BD0222094B0120C3F8D02108BD074A0120C2F80C
:20374000D03108BD012801D0002008BD0521024AC2F8D01108BD00BF0020084008B5FFF718
:2037600063FE012804D1FFF7C3FE012800D108BDFFF74CFF002008BD08B5FFF7FBFEFFF7AC
:20378000B7FE012800D108BDFFF740FF002008BD38B5194B194A1978D2F89C210029184C42
:2037A00018BF0024D30700D438BD04F017FF02464FF080550021134B134898615C6114461B
:2037C000D5F8B0211961136A19209847D5F8B03112201B6A9847D5F8B03119201B699847AE
:2037E000D5F8B03112201B699847002CDCD1BDE8384004F0F7BE00BFF82F00200020084079
:203800000000C0800010046000004080094B1B782BB100231946084A116153617047074A6F
:20382000074B0849002808BF1346034A11615361704700BFF82F0020001004600200C080B7
:203840000800C0800000C080044A054B1178054A002918BF00235361704700BFF82F0020D6
:203860000000C08000100460014B1868704700BFAC09002038B50B460446154600211A4619
:203880000DF05CFD0122637B258062F30303637338BD00BF014B1860704700BFB009002034
:2038A00010B5064B06495C6806480C6000234FF43441054A02F05AFA012010BD0030044053
:2038C000B8090020C40900203D390000164B1B6843B370B59B68984708B9002070BD04F0C1
:2038E0007DFE0023114A124E5468326814F1804143F10003914273F10003054603D334602D
:2039000065B1012070BDFEF719FF0A4A0A4913680860013313603460002DF2D104F062FE2D
:20392000012070BD00207047B009002000300440B8090020C0090020B409002010B5134B4B
:203940001B68B3B19B689847D8B9114C236A984701280ED1FFF7BAFF636A0446984744B1A2
:20396000BDE8104000234FF434410A4A0A4802F0FDB90023BDE810408021064A064802F0E0
:20398000F5B9FFF7A3FF0446E9E700BFB0090020D01801003D390000C409002070B5204E50
:2039A0003368002B39D09B680446984708BB1D4D2B6A9847FFF78AFF6B6A98471A4BB4F12E
:2039C000404F1D681CD83268184BB2F90C101A68CB17891A63EBE273091945EB03052D02E8
:2039E00043F609520023080245EA11610DF0F6F970BDFFF76BFF0C4BB4F1404F1D68E2D921
:203A0000FEF79CFE0A4B1B68C3F17E4303F57203C34248BF05F1FF35D5E7184670BD00BF21
:203A2000B0090020D0180100C0090020BC090020B409002010B5104BD3F89C31DA0704D4A8
:203A4000FFF7F2FC012800D010BD0C4C23695B0204D46FF00042094B1A6110BD0122084BF0
:203A600008481A7002F064FD6FF480036FF000422361024B1A61F0E7002008400010046093
:203A8000F92F00207C05002008B5114BD3F89C31D90704D4FFF7C8FC012800D008BD04F068
:203AA0009DFD0C4B1A6912020BD40A4B1A6912F00A0F1CBF6FF00A021A61BDE8084004F00A
:203AC00091BD6FF4000204481A6102F031FDECE700200840001004607C050020014B187820
:203AE000704700BFFA2F002008B5FFF70FFC30B1034B5888A0F10200B0FA80F0400908BD7F
:203B0000E80900207D2901D90120704708B50A46014602480DF020FB002008BDBE0C0020B7
:203B200010B588B040F60202182102A8FFF7A2FE012211499DF818300968104C898823F08A
:203B40000F03ADF81A1002A801A907948DF818308DF81620FFF7E2FB012802D0002008B067
:203B600010BD02A8FFF744FCA0F10100B0FA80F0400908B010BD00BFCC050020A0050020A9
:203B8000F8B50E4D00200E4E2C680E4F06E02379022B06D024682B68A34209D02379032B84
:203BA000F5D133782BB124682B680120A342F5D1F8BD384602F0BCFC0120EBE7B00C002021
:203BC000F82F00207C05002030B583B0FFF74CFE0446FFF79BFB08B903B030BD0A4801A972
:203BE000FFF79CFB0128F7D1FEF7A8FD6FF03F052D1A03E0FEF7A2FDC542EDD5638803F4A1
:203C00004063002BF6D0E7E7010001040B280BD00C2801D001207047042A08D139B10A4B0B
:203C200000201B680B607047082A00D109B902207047064A4B1E073112F8010903F8010F11
:203C40008B42F9D100207047E4090020170A0020082200B585B000210DEB02000DF06EFB13
:203C600042F2034302A801A9ADF80830FFF756FB20B19DF90A30803303D0002005B05DF801
:203C800004FB9DF80C0000F00C00A0F10400B0FA80F0400905B05DF804FB00BF082210B5D9
:203CA00084B00DEB020000210DF048FB02229DF80C3042F2034462F301038DF80C300CE0FF
:203CC000082200210DEB02000DF038FB02A801A9ADF80840FFF722FB38B19DF80C0000F0A1
:203CE0000303022BECD004B010BDFF2004B010BD2DE9F043DFF8CC8083B081460F46D8F829
:203D00000060FEF71BFD304D2D1A03E0FEF716FDC5421DD53479022CF8D0032C13D1D8F808
:203D200000100B7A062BDEB202DDB51FBD4211DD00231D4628460A680B71C8F800200B724E
:203D400003B0BDE8F0830025284603B0BDE8F0833479E2E72A46093148460DF0FDF9042273
:203D6000D8F80010F31CCB5C184F5BB23B70331DCB5C05363144164E03F03F030DEB020054
:203D800033700DF0E9F90198FFF708FE114B124A1B7810605BB100222846D8F80030196834
:203DA0001A72C8F800101A7103B0BDE8F0833978042049B289B203F0E9FD2046317803F06B
:203DC000E5FDE8E7B80C0020F4FEFFFF47080020F72F0020F82F0020E409002030B583B03D
:203DE000FEF7ACFC194C241A06E0FFF731FF38B1FEF7A4FCC44203D5FFF788FA0028F4D1B6
:203E000001A91348FFF78AFA6FF03F04FEF796FC104D241A06E06888022808D1FEF78EFC07
:203E2000C44203D5FFF772FA0028F4D1688842F20243984207D042F20743C01AB0FA80F0C9
:203E4000400903B030BD012003B030BD00FEFFFF01000104E809002008B5FFF757FA30B1C0
:203E6000044B5B88022B14BF0220012008BD022008BD00BFE809002030B583B0FFF746FA03
:203E800030B1134C6388022B02D1012003B030BD0F4801A9FFF742FA012802D0002003B035
:203EA00030BDFEF74BFC6FF03F05094C2D1A03E0FEF744FCC54209D560880228F8D1A0F131
:203EC0000200B0FA80F0400903B030BD6088F6E7E809002008B5FFF723FE012801D0002019
:203EE00008BDFFF7C9FFC0B208BD00BF10B5FEF725FC1A4C241A06E0FFF7AAFE38B1FEF768
:203F00001DFCC44203D5FFF701FA0028F4D1FFF7FDF9134C20B16388022B01D1FFF75EFF73
:203F2000FFF774FBFFF7A4F900220E4B62801979022908BF1A710C4B1A79022A04BF002222
:203F40001A710A4B1A79022A04BF00221A71084B1A79022A04BF00221A7110BD00FEFFFF07
:203F6000E8090020800A00200C0B0020980B0020240C002008B5FFF7B1FD012801D0FFF7EB
:203F8000B5FF012008BD00BF10B5FFF7A7FD012808D0FFF73BF9FFF7B9F928B11D4B5B8872
:203FA000022B01D1012010BD4FF0010C4FF0840E19481A4B44791A496CF383040160186052
:203FC000A0F806E044714879164A6CF383000A60A1F806E04871507959796CF383006CF32D
:203FE00083011360A2F806E0A3F806E050715971FFF724F9FFF7B2FB012801D0002010BDA1
:20400000FFF7C6FBFFF78CFD0128F7D1BDE81040FFF732BFE8090020800A0020240C002092
:204020000C0B0020980B0020F8B50025354E3648FFF734F8FFF76CFB8C22294630460DF0A4
:204040007DF98C22294631480DF078F98C2229462F48304C0DF072F98C2229462E480DF0DE
:204060006DF92E4F2E4B8022294620463E601E607D600DF063F942F601032A4E2360A6231B
:20408000304642F202024FF2F001276101272377E36820F8022B1940234AA369C4E9015591
:2040A0001A4094F83730C4E9085567F3030384F837301E4BE5830B43E3601D4B04F118018E
:2040C0001343A3611B4B02226361A5630DF044F83A4604F11A01301D0DF03EF8FFF754FF9E
:2040E000B84202D02C462046F8BD04461248FFF7D1FBFFF7D5FB2946104802F023F9204600
:20410000F8BD00BF800A00208C0500200C0B0020980B0020E8090020240C0020B00C002099
:20412000B80C0020680A0020007C008000011AB10702FF6F700A0020081901007C0500206D
:2041400070B5FFF7CBFC012835D0FFF7DFF8A8B3224E7388022B31D1FEF7F0FA204C241A04
:2041600006E0FFF775FD38B1FEF7E8FAC44203D5FFF7CCF80028F4D1FFF7C8F8D8B1002548
:204180007388022B26D1FFF789FDFF2822D000F00300441E18BF012475B1FFF79FFC01283A
:2041A0000AD0FFF7A3FE204670BDFFF797FC012801D0FFF79BFE0124204670BDFFF7E4FE59
:2041C00001280446F1D1FFF7A1F80028E5D02546024ED5E70124002DEED0DEE7E8090020E1
:2041E00000FEFFFF70B588B00546FFF78FF800285AD03A4B5B88022B56D10024FEF79EFADF
:204200006FF01F06361A07E0FFF722FD012854D1FEF794FAC64252D5FFF778F80028F3D17C
:20422000182142F6014202A8FFF724FB00222C4BE8B28DF81700069304929DF81430012013
:2042400062F303038DF81430FFF7E0FA02A801A9FFF764F8D0B1234DBDF80A302A7803F44B
:20426000406333B982B3BDF80A3003F44063002BF8D0BDF80A50ADB2B5F5105518BF012584
:20428000FFF7E2FA3CB9284608B070BD0125FFF7DBFA002CF7D0FFF721FC0128F3D0FFF72B
:2042A00025FE284608B070BDFFF76EFE01280446A4D00125284608B070BD0028B0D034B931
:2042C0000225284608B070BDFEF7AEFDC4E7FFF705FC0128F4D0FFF709FEF1E7E80900204F
:2042E000BE0C0020F82F00207D2801D901207047FFF778BF7D2901D90120704710B50C469A
:204300000A46014603480CF027FF2046BDE81040FFF768BFBE0C002010B5FFF7DFFB012879
:204320001AD0FEF7F3FFB8B10C4C6388022B13D1FEF7ECFF60B9FEF7E9FF68B16388022BE8
:204340000AD1FFF7ABFCFF2806D0C0F3801010BDFFF77EFC0028EED0002010BDE809002084
:204360000B2810B502D00124204610BD082A23D111B3154A01F1080313F8010D8B4202F8F5
:20438000010BF9D1FEF7C2FF04460028ECD00F4C6388022B15D1FEF7B9FF80B16388022B14
:2043A0000DD1FFF71BFD012809D00324FFF764FD012818BF0324D7E70224204610BD00242F
:2043C000F4E70024D0E700BF100A0020E809002030B585B0072800F2BB80DFE800F0293295
:2043E0003D474A7176045B4C2177FEF78FFF002838D06388022B35D1FEF788FF002800F060
:204400008C806388022B40F08880FFF7E7FC012818BF032400F08180FFF7AEF901287ED03B
:20442000FFF72AFD012818BF0324204605B030BD012900F08780002974D00224204605B061
:2044400030BDA1F10B030F2BF7D8424CC9B2A37B8B4207D0A173C8E73E4C6186FEF756FF7D
:204460000028C6D10024204605B030BD394C2186BBE731F00703E0D1364C01F00103228B83
:204480003548C1F3400543F0020302F4FE4243EA850313430278C1F3800191422383017094
:2044A000A3D104F1180102222C480CF055FE2C4803A9FEF733FF00280CBF03240024B4E773
:2044C00031F00103B9D1CCB2AFE701F115031A2BB3D86FF014030C25224A01E052F835309C
:2044E000994229DD013DF9D2FEF710FF044600289BD00422002103A80CF020FF1022194B4E
:2045000003A803EBC505AB8802A90024ADF80E30ADF80C20FEF702FF87E700247CE7FFF7A1
:20452000D5F97DE70191FFF7D9FA01289AD0FFF7DDFC01990C4678E70A4B0B4A03EBC503E1
:204540001360D1E7FFF720FD01288BD003246CE701246AE7E8090020F82F00206A0A0020BD
:20456000680A002018190100CC050020D1B170B50C4684B0182813D8DFE800F03EB0AB6876
:204580004D0D16A5736D3912121235312C281224201C0DB56400002318460B6004B070BD98
:2045A0000120FBE7022070475D4B00201B681B680B60F3E70A2300200B60EFE7202300201B
:2045C0000B60EBE7032300200B60E7E7052300200B60E3E76FF0140300200B60DEE71A239F
:2045E00000200B60DAE70B2300200B60D6E74D4B00201B780B60D1E7FEF788FE002800F0F8
:204600008A80494B5888A0F10203B3FA83F35B0900202360C2E70023434A0B60137E03F014
:2046200001030B60127E520744BF43F002030B603E4B1B78002B44D00B68002043F0040354
:204640000B60ABE77D2300200B60A7E7364B00201B8E0B60A2E7364B00201B785BB20B60BA
:204660009CE7FEF753FE00283FD02F4B5B88022B3BD10026082200210DEB02000CF05EFEE1
:2046800002229DF80C3042F2034562F383038DF80C300AE0002102A80CF050FE02A801A9BA
:2046A000ADF80850FEF73AFE48B39DF80C2002F00C02082AEED03EBB9DF90A302360803325
:2046C0002BD000206AE7184B002093F91C300B6064E7154B00205B8E0B605FE7124B0020C6
:2046E0009B7B0B605AE7182392E7FFF74DFC01280646BFD06FF07F03032023604EE78023A2
:204700008DF80A30002EF5D0FFF7E8F90128D3D0FFF7ECFBD0E703467AE703203EE700BFFF
:20472000CC050020F72F0020E8090020F82F00204708002008B500F077F880B208BD00BFA9
:2047400000F004B938B54FF08055D5F8B83104205B699847D5F8B83104205B6B9847012886
:204760000446F7D1D5F8B83140F20140DB699847034B044A9C62936A9B07FCD538BD00BF1D
:204780000020086000200840034B1B68002B0CBF02200120704700BF740D0020F8B50388D0
:2047A00004465BB3B3F5847F2DD1194B1B788B4201D00120F8BD174D2B686BB14FF0805368
:2047C0000026154AD3F8CC3157685B680220984739462B6898472E604FF08053D3F8B831C4
:2047E00040F201409B6A984701210C4B0C4A9962936A9B07FCD50B48FEF756FC4FF4847354
:2048000023800120F8BD002323800320F8BD00BF48080020740D0020008002400020086067
:2048200000200840D005002070B52B4B1B686BB12A4900230A4612F8014B002C3CD1013338
:20484000042BF8D125462046294670BD4FF08053D3F8B83104205B6B9847012837D0FFF73E
:2048600071FF1F4A1F4B92681A4210D101221E4BC3F8F02FD3F8F02F002AFBD110464FF4DF
:20488000807104F017FC0122184BC3F8A82203F0A5FE0646124A9368DB07FCD54FF0805317
:2048A000D3F8CC3102205B68556898470446002EC9D103F097FEC6E700200D4AC85402EBE8
:2048C000C30552F833406D682046294670BD094BDB6B9A07C5D4C2E7740D0020780D0020B9
:2048E00000800240010000800090024000005042580800200020084038B500244FF0805108
:204900000E4D0F4AC5F8A842D368D1F8B01123F00103D3604B6931209847224620464FF438
:20492000807104F0C7FB0121064BC5F8A812224619780548BDE8384001F0C8BD000050427B
:204940000080024048080020E405002010B5074C2378802B00D010BD01F0ECFC03460021DE
:2049600023700348BDE8104001F0ECBC48080020E405002008B503F031FE003818BF012043
:2049800008BD00BF80F31088704700BF827A044B03EBC2035B68181AB0FA80F04009704705
:2049A0007C0D00202DE9F0434E4F827A0121064685B007EBC20202E0C2E8441F4CB1D2E86D
:2049C0004F3F13F0FF05F7D00325284605B0BDE8F083BFF35F8F4FF08059B37ADFF80881D3
:2049E00007EBC3077E60D9F8B431F078DB6B9847B37A08EB03135868D9F8B8315B69984787
:204A0000B37AD9F8B82108EB0313526B5868904701280746F4D1D9F8B831DA69B37A08EB0A
:204A2000031398689047314B314A9F62936A9B07FCD503204FF08051B37A1B0158F8032032
:204A4000536923F00F035361B37A1B0158F803301862D1F8C4311F68B37A1B0158F803009A
:204A600033893BB1337A002B35D1737A002B0CBF03240124082322464FF08054019373686C
:204A80001C4900930023B847B37A96F800C0D4F8B471B27871781B01CDF800C058F8030089
:204AA0007F6C4FF0FF33B847B37A1B0158F80320536843F002035360B37AD4F8C4211B013F
:204AC000126958F8030003A990470028F4D1284605B0BDE8F083737A002B14BF0324022425
:204AE000C8E700BF7C0D00209C1901000020086000200840006CDC0270B5264D837A05EB2A
:204B0000C3025268904201D0042070BD4FF08051214A044602EB03139868D1F8B8311B6A23
:204B2000984701211D4B1E4A9962936A9B07FCD54FF08056D6F8B43160789B6B9847D6F8E6
:204B4000B4314FF4005160789B699847D6F8B431A0789B6B9847D6F8B4314FF40051A07812
:204B60009B699847D6F8B43120789B6B9847D6F8B4314FF400519B69207898470023A27A21
:204B800005EBC2025360A27ABFF35F8F184605F8323070BD7C0D00209C1901000020086021
:204BA000002008402DE9F04F9846334D837A164605EBC3056A6885B0904203D0042005B044
:204BC000BDE8F08F4FF080592C4D044605EB03135868D9F8B8310F465B6B9847012849D119
:204BE000A37A2749886F05EB0311C9681B01084240D0DDE90E210A44B242B8BF3246002A36
:204C0000019235D0D8BF0DF10C0A24DD4FF0000B0DF10C0A5E45D4BF002117F80B10E85831
:204C20000391D9F8C4315B689847A37A51461B01E858D9F8C431DB6898470E9B5B45C4BFB4
:204C4000039B08F80B30019B0BF1010B5B45A37A4FEA0313DED14FF0805601E0A37A1B01ED
:204C6000D6F8C421E8585146136998470028F5D10020A4E70520A2E77C0D00209C190100A9
:204C80000020084010B503880446442B06D0452B0ED0BBB100232380032010BD0D4B1B7872
:204CA0008B4212D18AB1002045230B49088023800A49094800F07CF8012808D944232380E6
:204CC000012010BD00F0DAF8F8E7012010BD002010BD00BF073000208C0D0020E14C00006E
:204CE0000146014804F00CBABC1901000021014801F028BBF40500202DE9F04300240126A9
:204D000007460D46DFF85480DFF85490B1B084B1E30717D54246C0212B78684604F016FA63
:204D20006846B847082E15D0013401360135002CEED14246C02168462B7804F007FA6846C1
:204D4000B847F1E74A46C021684604F0FFF96846B847DFE731B0BDE8F08300BFDC19010050
:204D6000D819010010B5BAB00A4604462821684608F0AEF96B46C021034A0AA804F0E6F97E
:204D80000AA8A0473AB010BDBC19010009B1FFF7B3BF10B5B0B00446C021044A684604F08B
:204DA000D5F96846A04730B010BD00BFE4190100F0B5038805460E46B1B01BB3702B1CD1A0
:204DC000274B284F1868436831463A6826489847012838D96C46254AC021204604F0B6F914
:204DE0002046B04730462249FFF786FFC0212046204A04F0ABF92046B047002303202B8063
:204E000031B0F0BD13781446202B03D114F8013F202BFBD0002BDDD0202120460CF0E0FA49
:204E2000104F386018B1002300F8013B3860204600F014FE0A4B186040B100220A4B1A808C
:204E400070232B80BFE7002031B0F0BD6C46C0212046094A04F07AF92046B047BBE700BF4F
:204E6000940D0020900D0020980D00202C1A0100E8100020301A0100F419010000F0D6BDB4
:204E800030B503880446B1B023B100230320238031B030BD0D46064AC021684604F056F9F7
:204EA0006846A847034B04489B6A9847EDE700BF341A01007C280100581A010030B503886D
:204EC0000446B1B023B100230320238031B030BD0D46064AC021684604F038F96846A847A8
:204EE000034B0448DB6A9847EDE700BF601A01007C280100581A01002DE9F0410388804636
:204F0000B0B033B100230320A8F8003030B0BDE8F081124A0D466846C02104F017F9684651
:204F2000A8470F4801F000FC07460028EAD00D4E7C6823685BB1A3683246C021684604F033
:204F400005F96846A84754F80C3F002BF3D1384601F05AFC07460028EAD1D3E7841A0100E2
:204F6000D80D0020841B01002DE9F04103880446CEB053B91C4B0E461B7B63B9C0211B4A33
:204F80001EA804F0E3F81EA8B0470023032023804EB0BDE8F0810AF065FA0028EED0144F20
:204FA000386802F049FA0546C021124A1EA804F0CDF81EA8B047002DE7D0DFF83C802A4671
:204FC000782168460AF056F96B464246C0211EA804F0BCF81EA8B0472946386802F0F4F90E
:204FE00005460028EBD1D0E7942D00209C1A01001C080020B41A0100841B01002DE9F04337
:2050000003880546B1B02BB1002303202B8031B0BDE8F0830E46154AC021684604F096F8CF
:205020006846B047124CDFF84C90DFF84C8004F1600714F8023C13B1237C012B03D92034B2
:20504000BC42F6D1E0E74A46C021684604F07EF86846B04721463046FFF784FE4246C021D8
:20506000684604F073F86846B047E8E7C41A0100EE280020DC1A0100C81D010070B503880D
:205080000646B4B023B100230320338034B070BD0C46794AC021794D04A804F057F804A82B
:2050A000A0472B7B002B00F0D3806B7BC021744A04A804F04BF804A8A047724B1B699847DA
:2050C000002800F0CD80704AC02104A804F03EF804A8A0476D4AC02104A804F037F804A854
:2050E000A04720466A49FFF73DFE95F85430C021684A04A804F02AF804A8A047664AC021F5
:2051000004A804F023F804A8A04720466349FFF729FE634AC02195F8403004A804F016F8D9
:2051200004A8A047AB7BC021032B96BF5D4A5E4B52F8233004A85D4A04F008F804A8A0478B
:20514000AB681A8C002A00F08D80574B5849012A08BF0B46C021574A04A803F0F7FF04A826
:20516000A047EB8AC021544A04A803F0EFFF04A8A0472A7EC021FF2A16BF6B8B4FF0FF3346
:20518000534304A84D4A03F0E1FF04A8A04795F85E30C021032B96BF494A434B52F8233093
:2051A00004A8484A03F0D2FF04A8A047C021464A04A803F0CBFF04A8A047686C002853D0CE
:2051C0000AF07EF901462046FFF7CCFD6B6CC0219B793E4A04A803F0B9FF04A8A047B5F807
:2051E0004A30C0213A4A04A803F0B0FF04A8A047AB8AC021374A009304A8B5F8483003F001
:20520000A5FF04A8A047EB7BC021334A04A803F09DFF04A8A04795F85B30C0212F4A0093C0
:2052200004A895F85A3003F091FF04A8A0476A7C2B7C00921344AA7C01930292C02195F863
:205240005730274A04A803F081FF04A8A0471AE7C021244A04A803F079FF04A8A04712E7B1
:20526000214A31E7214B75E7C021214A04A803F06DFF04A8A047B2E7F41A0100942D002070
:20528000181B01007C2801002C1B01004C1B0100B02D0020581B0100681B0100C02D002083
:2052A000741B010010240100E01A01007C1B0100EC1A0100881B0100941B0100B01B01006F
:2052C00000240100D41B0100E41B0100FC1B0100181C0100281C0100441C0100581C010051
:2052E000881C0100041B01003C1B0100E81A0100101C010030B503880446B1B023B100234F
:205300000320238031B030BD0D46054AC021684603F01CFF6846A847024808F095FCEEE775
:20532000C81C0100581A01002DE9F041B0F800800546B0B0B8F1000F3CD10E461446002A5E
:205340004CD01778002F69D138464D490CF0AEF800284AD101234B4F3B6014B12378002B5C
:2053600066D106F091FF0346474C59689A680068DB680FC43B681BB3444F3B699847044682
:2053800000283BD1424AC021684603F0DFFE6846B04730463C49FFF7E5FCC0213D4A684661
:2053A00003F0D4FE6846B047BB68214636489847FB689847002303202B8030B0BDE8F08173
:2053C000324C2369984708B3C021334A684603F0BDFE6846B047E3699847EBE717462849FF
:2053E00038460CF063F80028B4D038462B490CF05DF8002838D1234F3860AEE7C02168468A
:20540000274A03F0A3FE6846B047D3E7C0216846244A03F09BFE6846B047CBE720211046B1
:205420000BF0DEFF2746E8B100F8018B04468BE7202120460BF0D4FF08B100230370204624
:20544000114907F0D1FD8046002893D12346C021154A684603F07AFE6846B0470220A5F8B5
:205460000080AAE704466FE73B46C0210F4A684603F06CFE6846B047002302202B809CE79D
:20548000E41C0100AC0D0020B40D00207C280100181D01003C1D0100601D0100E81C010099
:2054A000441D0100881D0100041D0100EC1C0100F0B503880646CBB023B1002303203380F5
:2054C0004BB0F0BD334A0D461AA8C02103F03EFE1AA8A84707F02EFB07F0E0FA044600286E
:2054E0004FD0C0212C4A1AA803F030FE1AA8A8472846211DFFF736FCA369002B2ED1C021B7
:20550000264A1AA803F022FE1AA8A84707F040FF00282EDD07F03CFFC0210346204A1AA8A4
:2055200003F014FE1AA8A84708F010F804460028C3D01C4F2246642101A808F073F83A46CC
:20554000C02101AB1AA803F001FE1AA8A847204608F002F804460028ECD1AEE7C021124A00
:205560001AA803F0F3FD1AA8A84707F011FF0028D0DCC0210D4A1AA803F0E8FD1AA8A84777
:205580009BE7C0210A4A1AA803F0E0FD1AA8A847BCE700BFA01D0100DC1A0100CC1D010010
:2055A000F01D0100101E0100B01D0100181E0100E41D0100F0B5078804460D46B3B0D7B1EB
:2055C0009B2F13D1474E3368002B4FD0464800F01BFD70B13368002B48D0C021434A02A8F6
:2055E00003F0B4FD02A8A8470023336000230320238033B0F0BD1646002A5BD01378002BD8
:2056000058D0202110460BF0EBFE00B107703046374907F0E9FC0746002857D0354AC021F1
:2056200002A803F093FD02A8A84728463049FFF799FBC021304A02A803F088FD02A8A8471D
:205640002E4A2F4B1268274E4FF4207126481A60356000F0C5FC042300228021244807F01A
:20566000E7FB9B2323803368002BAFD1254AC02102A803F06BFD02A8A84728461C49FFF7EA
:2056800071FB214A214B16881F78FDF727F84FF47A721549009709683346401A02FB00F02A
:2056A000C0090190C0211A4A02A803F04FFD02A8A8479BE7C021174A02A803F047FD02A87A
:2056C000A84700230220238033B0F0BD3346C021114A02A803F03AFD02A8A8470220278078
:2056E00087E700BF9C0D0020DC0D0020801E0100C80D0020741E0100C81D0100A40F0020CB
:20570000A00D00208C1E0100DA2F0020FB2F0020A81E01002C1E0100581E010030B50388A5
:205720000446B1B023B100230320238031B030BD0D46094AC021684603F008FD6846A84769
:2057400028460649FFF722FBC0216846044A03F0FDFC6846A847E6E7C81E0100E810002047
:20576000C81D01002DE9F04303880646B3B02BB100230320338033B0BDE8F0830D4607F0A6
:205780001BF90446002844D0C021274A02A803F0DDFC02A8A847DFF89490DFF894804A4698
:2057A000C02102A803F0D2FC02A8A847204607F0FBF801462846FFF7D5FA4246C02102A827
:2057C00003F0C4FC02A8A847204607F0EFF801462846FFF7DBFA627C1649042A94BF51F8B2
:2057E0002270154F237CC021144A02A8009703F0ADFC02A8A847C021114A02A803F0A6FCE4
:2058000002A8A847204607F0DDF804460028C6D1AEE7C0210B4A02A803F098FC02A8A8471F
:2058200002203480A7E700BFF81E0100DC1A0100101F0100EC230100E01A0100181F0100C4
:20584000C81D0100DC1E01002DE9F043B3B08046C021114A114C02A803F078FC02A8C0479A
:205860002568ADB1DFF8389063681E68304600F093FC07462B464A46C021CDE9006702A862
:2058800003F064FC02A8C04754F80C5F002DEBD133B0BDE8F08300BF301F01002C06002008
:2058A000401F01002DE9F04306880446B3B0002E39D10F46154612B11378002B39D1002079
:2058C00000F048FC00253C4B18602B46C0213B4A02A803F03BFC02A8B8473846FFF7B4FFF5
:2058E00000230220238033B0BDE8F083202140460BF076FD08B1002303700A22404601A9E5
:205900000BF042FF2E4B1860002841D1019B43452CD03368984203D00146284600F0F6FB22
:205920003846FFF791FF00230320238033B0BDE8F083202110460BF053FD814658B3804605
:20594000284608F8016B00F005FC1B4E294630601C480BF0ABFDB8B999F80130002BC5D119
:205960004FF0FF324FF00008154B1A604346C021154A02A803F0EAFB02A8B847002302205D
:20598000238033B0BDE8F08333680133E4D19CE70428EBD8BDE7284600F0DCFB0346064EFD
:2059A0002946084833600BF081FD0028D8D033680133D5D189E700BFC40D0020581F01003F
:2059C000B00D0020541F0100741F010030B503880446B1B023B100230320238031B030BD3C
:2059E000054A0D466846C02103F0B0FB6846A847FCF79EFFEFE700BF941F0100074A106899
:205A000058B130B40024064D06482970064914600B80006830BC00F08BBD70479C0D0020E1
:205A2000FB2F0020A00D0020DA2F002010B5074C204600F075FE2046054900F077FEBDE887
:205A400010400449044807F033BA00BFD80D002004060020FD590000A40D002070B50546F4
:205A60000E4800F061FEA8B106467468206818B90AE054F80C0F38B129460BF017FD234686
:205A80000028F6D1184670BD304600F0BDFE06460028EAD10023184670BD00BFD80D0020CA
:205AA00038B5664CFBF71CFBFCF7D2FD00F04EFD00F07AFC0021624800F044FC00F042F9B5
:205AC000FCF7FCFE00F0D2F900F058FDFBF744FB01F086FF01F028FE00F06AFB2368022B0E
:205AE0003BDC0822574958480BF036FB0021574800F028FC4FF0FF3006F09CFC2368054653
:205B0000022B13DCFBF744FBFFF7F0F8504800F0C3F8FCF7DBFE00F063FC0446E4B2FCF729
:205B200001FF002CF7D1FBF79FFBF4E7494A4A494A4803F0E5FA4A4803F0E2FA2368022B67
:205B4000E0DD05B10235284600F0A0FA2368022BD8DD444803F0D4FAD4E73E4A3E493F4898
:205B600003F0CEFA404803F0CBFA2368022BB8DD384A3949394803F0C3FA3C4B3C4819681C
:205B800003F0BEFA2368022BABDD324A3249334803F0B6FA374B3848196803F0B1FA236859
:205BA000022B9EDD2B4A2C492C4803F0A9FA334B3348196803F0A4FA2368022B91DD254AA9
:205BC0002549264803F09CFA4AF6CD312D4803F097FA2368022B84DD1E4A1F491F4803F0E6
:205BE0008FFA1A21284803F08BFA2368022B7FF778AF184A1849194803F082FA234B244837
:205C0000198803F07DFA2368022B7FF76AAF114A1149124803F074FA1E4803F071FA236873
:205C2000022B7FF75EAF074800F040FA2368022B7FF757AF0B4803F063FA52E7C80600203D
:205C40001C060020E8100020782700206C070020EC290100D4240100C4170100CC170100C9
:205C6000A0250100C81D0100DC2401007C28010014250100C42701002425010094270100A6
:205C8000302501003C25010058250100DC2F0020782501008825010010B50446006830B1FF
:205CA000002100F04FFB54F8040F0028F8D110BDF0B50388054683B033B14A2B18D18829CB
:205CC0001BD0012003B0F0BD1B4800F02DFD044630B1A168201D00F083F92468002CF8D17D
:205CE0000122164B1A704A2301202B8003B0F0BD002303202B8003B0F0BD0F48019200F0D2
:205D000013FD04460028EED0019A031D9A4205D02468231D002CE6D09A42F9D1084E2146C6
:205D2000054800F04FFDD4E90523376832600BB1E06998473760D6E7EC0D0020FC2F002028
:205D4000A40F002010B50024054B06481C7000F0E7FC2146BDE81040034800F0F3BA00BF87
:205D6000FC2F0020EC0D00200C060020F8B50E4C0E4D27782E680446C0E90623466137B943
:205D800081602146BDE8F840094800F0CFBC094B04302B6000F024F921462E600448BDE80C
:205DA000F84000F0C3BC00BFFC2F0020A40F0020EC0D00200C06002070B50C4B04461B78BB
:205DC0002BB92146BDE87040094800F0AFBC094D094B2E6804302B6000F00CF921462E608E
:205DE0000348BDE8704000F0A1BC00BFFC2F0020EC0D0020A40F00200C06002010B50A4B74
:205E000004461B783BB9C0E903332146BDE81040064800F0D7BC043000F00EF92146BDE86E
:205E20001040024800F0CEBCFC2F0020EC0D002038B50C4B04461D786DB90B4800F074FCEE
:205E400038B1A04202D10BE0844209D000680028FAD1012038BD0430BDE8384000F0D4B8DC
:205E6000002038BDFC2F0020EC0D0020704700BF10B5FCF733FC0B4B1A68D2E9003192688E
:205E80000B44191A52B1D2E9003423441B1A9268994228BF1946002AF5D14318024A1360CD
:205EA00010BD00BFF40D0020F00D00202DE9F8430388054653B3592B2BD187292ED0822912
:205EC0001FD14FF000092B4FDFF8AC803C68C4B1002603E0A36826469BB11C46204600F070
:205EE00011FC0028F6D022468821E06800F0EEFA00282BD0404600F01BFBA3682646002B25
:205F0000EBD159232B800120BDE8F883194A1360F7E700232B800320BDE8F883154F002014
:205F2000396819B9EDE789680120D9B1CB689342F9D000B139608B68002BE2D0D868904281
:205F40000BBF9B6819468B609B68F5E7A368E0606EB1B3603B68C4F808902BB1FFF788FF7E
:205F60003C68B4E73960CCE7044A1360C9E73B60F1E700BFF40D00201C060020F00D002073
:205F800010B50446104800F0D3FA1049E3680A684BB142B194420FD0134601E09C420BD030
:205FA0009B68002BFAD10A4BA2601B680C60E360BDE81040FFF75CBF054B1B68E360BDE89E
:205FC0001040FFF755BF00BF1C060020F40D0020A40F0020014800F0ABBA00BF1C060020D3
:205FE00010B5044600F078FB2046BDE81040FFF7C7BF00BF10B5044600F076FB2046BDE81E
:206000001040FFF7BDBF00BFC068B0FA80F04009704700BF024B1868003818BF012070474A
:20602000F40D0020024B186808B1024B18687047F40D0020F00D002010B5124B044619680A
:20604000814214D00B462BB19A68A24206D01346002BF9D10023C4E9023310BDA2689A608C
:2060600049B1FFF705FF0023C4E9023310BD82681A60002AF5D10022034B1A600023C4E94C
:20608000023310BDF40D0020F00D002000B58BB002462821684607F01BF86946024803F09B
:2060A0002FF80BB05DF804FBBC19010028B32DE9F041002504460126114FDFF8488065B107
:2060C000EB070FD53846217803F01AF8082E12D0013501360134002DF2D13846217803F01A
:2060E0000FF8F5E7404603F00BF83846217803F007F8082EECD1BDE8F081034803F000B839
:20610000DC190100D8190100E4190100042900D97047F8B50D46064601460C480BF0C6F93B
:206120000B4C0746216851B157B9D4E90123AB42A8BF2B46136054F80C1F0029F4D1F8BDED
:2061400030460BF0B3F90028EFD0F4E7541F01002C060020D0B1F8B50E4F396899B10646D8
:206160003D46002403E055F80C1F013459B130460BF09CF90028F6D104EB440407EB840438
:2061800063681868F8BD4FF0FF30F8BD4FF0FF30704700BF2C06002004289ABF024B53F889
:2061A00020000248704700BF68260100E0250100034A04499079D37903EB00230B80704728
:2061C000E8100020DC2F00202DE9F84FDFF8C8800546D8F800400E46844257D0002C43D025
:2061E000234601E0002B3FD01B689D42FAD1002B3AD02A4FAB7BD7F8009053B30023AB7374
:20620000002C45D04FF0020A4FF0010BA54211D0A37BDB070ED5A36863B12A4687213C6029
:2062200084F80EA004F10C0098470238012828D984F80EB02468002CE8D1AB683BB1B5424F
:2062400005D0002283213D6005F10C009847D8F80040A5420AD02CB12368AB420CD01C46C1
:20626000002CF9D1C7F80090BDE8F88F2B68C7F80090C8F80030F7E72B682360C7F8009098
:20628000F2E721462046FFF79FFFD3E72346AEE7AB68002BD3D1E5E7A80F0020A40F0020B4
:2062A00038B583687BB104460220A07309480D46046004F10C0098470238012804D9832D83
:2062C00002D00123A37338BD21462046BDE83840FFF77ABFA40F00200022F8B51249134B49
:2062E0000C681A70D4B101250227114E01E02468A4B1E37B002BFAD0A36804F10C00E581E6
:20630000002BF4D0002282213460A77398470238012804D9A5732468002CEAD1F8BD214655
:206320002046FFF751FFE2E7A80F002000300020A40F0020024B1878421C1A70704700BFB3
:20634000FE2F0020F8B5164A1568854207D0044635B12B4600E01BB11B689C42FBD1F8BD99
:20636000002CFCD025600126146000220D4DA3682F68A673A2815BB10A4602212C60A1738C
:2063800004F10C00812198470238B04202D9A6732F60F8BD21462046FFF716FFF8E700BFA1
:2063A000A80F0020A40F002000234FF08A0C074A10B4074813700749074A084C80F800C027
:2063C0000B701360236010BC704700BFFD2F0020FE2F0020FF2F0020A40F0020A80F002079
:2063E0002DE9F8432E4D2B78FBB92E4E3378C3B12D4C2E492278013B02EB4200013202F0C5
:206400001F022270DBB201EB800211F820803370D2E9017464B1B8F1810F1DD0A27BD20721
:206420001CD428781844BDE8F883FFF755FFDCE71F4A146854B9F4E7A37BD90704D53A461F
:2064400041462046FFF72CFF24681CB32B78002BF2D0FFF741FFEFE70122A273D4F808909B
:20646000B9F1000FDDD00223A373124B3A4641461C6004F10C00C8470238012806D9B8F1A0
:20648000830F03D001223378A273CAE721462046FFF79AFE337828781844BDE8F88300BF22
:2064A00000300020FF2F0020FD2F0020240E0020A80F0020A40F0020024A034B10781B7841
:2064C00018447047FF2F00200030002030B40F4C94F800C0BCF1200F15D005460C4B0020FD
:2064E0001B7863440CF1010C84F800C003F01F03084C03EB430304F8231004EB8303C3E92F
:20650000012530BC7047012030BC7047FF2F0020FD2F0020240E002038B5837B034CDB07E6
:20652000256801D5FFF7BCFE256038BDA40F002018B1837B013B012B00D970470123024ACC
:20654000C3731370704700BF00300020FCF7F0B810B5094C206823682BB10023236010B1B1
:20656000D0E90131984723682BB12368BDE810401868FCF7DFB810BDAC0F0020074B82B034
:2065800001AA9A42019304D9CD2103F8011B9342FBD10021024802B0FFF7D4BE1830002050
:2065A000CC06002038B5124CFCF7BCF92378114DCD2B08D0AC4202D30EE0AC4212D014F8A0
:2065C000013FCD2BF9D1AC4202D30BE0AC4209D014F8013FCD2BF9D0FCF7A4F9AC4203D2E4
:2065E000281B38BDFCF79EF94FF0FF3038BD00BF183000200050002070B5038804463BB1F9
:20660000912B0ED11F48FFF7FFFC70B9012070BD4FF4A0611B48FFF7E3FC9123238001201C
:2066200070BD00232380032070BDFFF7BBFF164E164B051EA6EB030615DB002E13DBB542E2
:206640000DDD134B1B68002B09DD124A1249134802F056FD32462946114802F051FD094836
:20666000FFF7C8FCD9E70A4B1B68002BF7DD094A09490A4802F044FD32462946094802F075
:206680003FFDECE7B00F00200050002018300020C80600207C26010084260100CC17010014
:2066A000B42601008826010010B541600446FCF739F8206010BD00BF10B50446FCF732F844
:2066C000D4E900316FF000420B44C01A90422CBF0020012010BD00BF10B541600446FBF7D6
:2066E000FDFF206010BD00BF10B50446FBF7F6FFD4E90021C2F1010303448B4284BF521846
:20670000226010BD10B50446FBF7E8FFD4E90032C3F10103184482422CBF0020012010BD82
:2067200000230360704700BF006870470368D3B110B4002400E0134699420ED01A681C4691
:20674000002AF8D100230B600368C3B11A461B68002BFBD1116010BC70470A686CB12260FA
:2067600000221A60EEE700230B6003684BB11A461B68002BFBD1116070470260F0E7016017
:20678000E9E70160704700BF30B405684DB12B46002400E01346994207D01A681C46002A75
:2067A000F8D10D60016030BC70470A683CB1226000221A6005680D60016030BC70470260E2
:2067C000F6E700BF03688BB110B4002400E0134699421A6804D01C46002AF8D110BC70474C
:2067E0002CB1226000221A6010BC704770470260F8E700BF03682BB100201B680130002B1E
:20680000FBD170471846704700B10068704700BF10B504464288002140680AF08FFD23887E
:206820006288A0680021BDE8104003FB02F20AF085BD00BF30B44588ADB10022436802E0A5
:206840000132AA420CD019460C780133002CF7D101230B700588806802FB050030BC704779
:20686000002030BC70472846F8E700BF10B4448882685CB18A420DD00023B0F800C001E0AD
:20688000914208D00133A3426244F9D14FF0FF3010BC704700234268D15C0029F6D00021C9
:2068A000D154084610BC704783688B4208D84288008800FB023081422CBF00200120704725
:2068C000002070474188034649B100205B68194413F8012B02B901308B42F9D170470846D6
:2068E000704700BF0023013A0160027143718371704700BF90F805C0827903460079ACEB31
:20690000020230EA020209D001201A6802F80C105A79197902440A405A7170470020704775
